{
	"contracts/DeviceRegistry.sol": {
		"DeviceRegistry": {
			"abi": [
				{
					"inputs": [],
					"stateMutability": "nonpayable",
					"type": "constructor"
				},
				{
					"inputs": [
						{
							"internalType": "string",
							"name": "_partNumber",
							"type": "string"
						}
					],
					"name": "componentExists",
					"outputs": [
						{
							"internalType": "bool",
							"name": "",
							"type": "bool"
						}
					],
					"stateMutability": "view",
					"type": "function"
				},
				{
					"inputs": [
						{
							"internalType": "bytes32",
							"name": "",
							"type": "bytes32"
						}
					],
					"name": "components",
					"outputs": [
						{
							"internalType": "string",
							"name": "partNumber",
							"type": "string"
						},
						{
							"internalType": "string",
							"name": "componentType",
							"type": "string"
						},
						{
							"internalType": "uint256",
							"name": "manufactureDate",
							"type": "uint256"
						},
						{
							"internalType": "bool",
							"name": "exists",
							"type": "bool"
						}
					],
					"stateMutability": "view",
					"type": "function"
				},
				{
					"inputs": [
						{
							"internalType": "string",
							"name": "_serialNumber",
							"type": "string"
						}
					],
					"name": "decommission",
					"outputs": [],
					"stateMutability": "nonpayable",
					"type": "function"
				},
				{
					"inputs": [
						{
							"internalType": "string",
							"name": "_serialNumber",
							"type": "string"
						}
					],
					"name": "deviceExists",
					"outputs": [
						{
							"internalType": "bool",
							"name": "",
							"type": "bool"
						}
					],
					"stateMutability": "view",
					"type": "function"
				},
				{
					"inputs": [
						{
							"internalType": "bytes32",
							"name": "",
							"type": "bytes32"
						}
					],
					"name": "devices",
					"outputs": [
						{
							"internalType": "string",
							"name": "serialNumber",
							"type": "string"
						},
						{
							"internalType": "string",
							"name": "imei",
							"type": "string"
						},
						{
							"internalType": "string",
							"name": "model",
							"type": "string"
						},
						{
							"internalType": "uint256",
							"name": "manufactureDate",
							"type": "uint256"
						},
						{
							"internalType": "address",
							"name": "currentOwner",
							"type": "address"
						},
						{
							"internalType": "bool",
							"name": "exists",
							"type": "bool"
						},
						{
							"internalType": "bool",
							"name": "decommissioned",
							"type": "bool"
						}
					],
					"stateMutability": "view",
					"type": "function"
				},
				{
					"inputs": [
						{
							"internalType": "string",
							"name": "_serialNumber",
							"type": "string"
						}
					],
					"name": "getDevice",
					"outputs": [
						{
							"internalType": "string",
							"name": "serialNumber",
							"type": "string"
						},
						{
							"internalType": "string",
							"name": "imei",
							"type": "string"
						},
						{
							"internalType": "string",
							"name": "model",
							"type": "string"
						},
						{
							"internalType": "uint256",
							"name": "manufactureDate",
							"type": "uint256"
						},
						{
							"internalType": "address",
							"name": "currentOwner",
							"type": "address"
						},
						{
							"internalType": "bool",
							"name": "exists",
							"type": "bool"
						},
						{
							"internalType": "bool",
							"name": "decommissioned",
							"type": "bool"
						}
					],
					"stateMutability": "view",
					"type": "function"
				},
				{
					"inputs": [],
					"name": "oem",
					"outputs": [
						{
							"internalType": "address",
							"name": "",
							"type": "address"
						}
					],
					"stateMutability": "view",
					"type": "function"
				},
				{
					"inputs": [
						{
							"internalType": "string",
							"name": "_partNumber",
							"type": "string"
						},
						{
							"internalType": "string",
							"name": "_componentType",
							"type": "string"
						}
					],
					"name": "registerComponent",
					"outputs": [],
					"stateMutability": "nonpayable",
					"type": "function"
				},
				{
					"inputs": [
						{
							"internalType": "string",
							"name": "_serialNumber",
							"type": "string"
						},
						{
							"internalType": "string",
							"name": "_imei",
							"type": "string"
						},
						{
							"internalType": "string",
							"name": "_model",
							"type": "string"
						}
					],
					"name": "registerDevice",
					"outputs": [],
					"stateMutability": "nonpayable",
					"type": "function"
				},
				{
					"inputs": [
						{
							"internalType": "string",
							"name": "_serialNumber",
							"type": "string"
						},
						{
							"internalType": "address",
							"name": "_newOwner",
							"type": "address"
						}
					],
					"name": "transferOwnership",
					"outputs": [],
					"stateMutability": "nonpayable",
					"type": "function"
				}
			],
			"devdoc": {
				"kind": "dev",
				"methods": {},
				"version": 1
			},
			"evm": {
				"assembly": "    /* \"contracts/DeviceRegistry.sol\":60:3235  contract DeviceRegistry{... */\n  mstore(0x40, 0x80)\n    /* \"contracts/DeviceRegistry.sol\":117:167  constructor () {... */\n  callvalue\n  dup1\n  iszero\n  tag_1\n  jumpi\n  0x00\n  dup1\n  revert\ntag_1:\n  pop\n    /* \"contracts/DeviceRegistry.sol\":149:159  msg.sender */\n  caller\n    /* \"contracts/DeviceRegistry.sol\":143:146  oem */\n  0x00\n  dup1\n    /* \"contracts/DeviceRegistry.sol\":143:159  oem = msg.sender */\n  0x0100\n  exp\n  dup2\n  sload\n  dup2\n  0xffffffffffffffffffffffffffffffffffffffff\n  mul\n  not\n  and\n  swap1\n  dup4\n  0xffffffffffffffffffffffffffffffffffffffff\n  and\n  mul\n  or\n  swap1\n  sstore\n  pop\n    /* \"contracts/DeviceRegistry.sol\":60:3235  contract DeviceRegistry{... */\n  dataSize(sub_0)\n  dup1\n  dataOffset(sub_0)\n  0x00\n  codecopy\n  0x00\n  return\nstop\n\nsub_0: assembly {\n        /* \"contracts/DeviceRegistry.sol\":60:3235  contract DeviceRegistry{... */\n      mstore(0x40, 0x80)\n      callvalue\n      dup1\n      iszero\n      tag_1\n      jumpi\n      0x00\n      dup1\n      revert\n    tag_1:\n      pop\n      jumpi(tag_2, lt(calldatasize, 0x04))\n      shr(0xe0, calldataload(0x00))\n      dup1\n      0xbceaa96a\n      gt\n      tag_13\n      jumpi\n      dup1\n      0xbceaa96a\n      eq\n      tag_8\n      jumpi\n      dup1\n      0xc0e793c2\n      eq\n      tag_9\n      jumpi\n      dup1\n      0xc5c400de\n      eq\n      tag_10\n      jumpi\n      dup1\n      0xe96f2fd8\n      eq\n      tag_11\n      jumpi\n      dup1\n      0xea460cb6\n      eq\n      tag_12\n      jumpi\n      jump(tag_2)\n    tag_13:\n      dup1\n      0x0d514338\n      eq\n      tag_3\n      jumpi\n      dup1\n      0x1a4999c9\n      eq\n      tag_4\n      jumpi\n      dup1\n      0x5b906884\n      eq\n      tag_5\n      jumpi\n      dup1\n      0xaaed589d\n      eq\n      tag_6\n      jumpi\n      dup1\n      0xb71a0346\n      eq\n      tag_7\n      jumpi\n    tag_2:\n      0x00\n      dup1\n      revert\n        /* \"contracts/DeviceRegistry.sol\":1891:2198  function decommission(string memory _serialNumber) public {... */\n    tag_3:\n      tag_14\n      0x04\n      dup1\n      calldatasize\n      sub\n      dup2\n      add\n      swap1\n      tag_15\n      swap2\n      swap1\n      tag_16\n      jump\t// in\n    tag_15:\n      tag_17\n      jump\t// in\n    tag_14:\n      stop\n        /* \"contracts/DeviceRegistry.sol\":704:751  mapping(bytes32 => Component) public components */\n    tag_4:\n      tag_18\n      0x04\n      dup1\n      calldatasize\n      sub\n      dup2\n      add\n      swap1\n      tag_19\n      swap2\n      swap1\n      tag_20\n      jump\t// in\n    tag_19:\n      tag_21\n      jump\t// in\n    tag_18:\n      mload(0x40)\n      tag_22\n      swap5\n      swap4\n      swap3\n      swap2\n      swap1\n      tag_23\n      jump\t// in\n    tag_22:\n      mload(0x40)\n      dup1\n      swap2\n      sub\n      swap1\n      return\n        /* \"contracts/DeviceRegistry.sol\":1125:1460  function registerComponent(string memory _partNumber, string memory _componentType) public onlyOEM {... */\n    tag_5:\n      tag_24\n      0x04\n      dup1\n      calldatasize\n      sub\n      dup2\n      add\n      swap1\n      tag_25\n      swap2\n      swap1\n      tag_26\n      jump\t// in\n    tag_25:\n      tag_27\n      jump\t// in\n    tag_24:\n      stop\n        /* \"contracts/DeviceRegistry.sol\":2206:2393  function deviceExists(string memory _serialNumber) public view returns (bool){... */\n    tag_6:\n      tag_28\n      0x04\n      dup1\n      calldatasize\n      sub\n      dup2\n      add\n      swap1\n      tag_29\n      swap2\n      swap1\n      tag_16\n      jump\t// in\n    tag_29:\n      tag_30\n      jump\t// in\n    tag_28:\n      mload(0x40)\n      tag_31\n      swap2\n      swap1\n      tag_32\n      jump\t// in\n    tag_31:\n      mload(0x40)\n      dup1\n      swap2\n      sub\n      swap1\n      return\n        /* \"contracts/DeviceRegistry.sol\":2599:3232  function getDevice(string memory _serialNumber) ... */\n    tag_7:\n      tag_33\n      0x04\n      dup1\n      calldatasize\n      sub\n      dup2\n      add\n      swap1\n      tag_34\n      swap2\n      swap1\n      tag_16\n      jump\t// in\n    tag_34:\n      tag_35\n      jump\t// in\n    tag_33:\n      mload(0x40)\n      tag_36\n      swap8\n      swap7\n      swap6\n      swap5\n      swap4\n      swap3\n      swap2\n      swap1\n      tag_37\n      jump\t// in\n    tag_36:\n      mload(0x40)\n      dup1\n      swap2\n      sub\n      swap1\n      return\n        /* \"contracts/DeviceRegistry.sol\":760:1117  function registerDevice(string memory _serialNumber, string memory _imei, string memory _model) public onlyOEM {... */\n    tag_8:\n      tag_38\n      0x04\n      dup1\n      calldatasize\n      sub\n      dup2\n      add\n      swap1\n      tag_39\n      swap2\n      swap1\n      tag_40\n      jump\t// in\n    tag_39:\n      tag_41\n      jump\t// in\n    tag_38:\n      stop\n        /* \"contracts/DeviceRegistry.sol\":1468:1883  function transferOwnership(string memory _serialNumber, address _newOwner) public {... */\n    tag_9:\n      tag_42\n      0x04\n      dup1\n      calldatasize\n      sub\n      dup2\n      add\n      swap1\n      tag_43\n      swap2\n      swap1\n      tag_44\n      jump\t// in\n    tag_43:\n      tag_45\n      jump\t// in\n    tag_42:\n      stop\n        /* \"contracts/DeviceRegistry.sol\":655:697  mapping(bytes32 => Device) public  devices */\n    tag_10:\n      tag_46\n      0x04\n      dup1\n      calldatasize\n      sub\n      dup2\n      add\n      swap1\n      tag_47\n      swap2\n      swap1\n      tag_20\n      jump\t// in\n    tag_47:\n      tag_48\n      jump\t// in\n    tag_46:\n      mload(0x40)\n      tag_49\n      swap8\n      swap7\n      swap6\n      swap5\n      swap4\n      swap3\n      swap2\n      swap1\n      tag_37\n      jump\t// in\n    tag_49:\n      mload(0x40)\n      dup1\n      swap2\n      sub\n      swap1\n      return\n        /* \"contracts/DeviceRegistry.sol\":90:108  address public oem */\n    tag_11:\n      tag_50\n      tag_51\n      jump\t// in\n    tag_50:\n      mload(0x40)\n      tag_52\n      swap2\n      swap1\n      tag_53\n      jump\t// in\n    tag_52:\n      mload(0x40)\n      dup1\n      swap2\n      sub\n      swap1\n      return\n        /* \"contracts/DeviceRegistry.sol\":2401:2591  function componentExists(string memory _partNumber) public view returns (bool) {... */\n    tag_12:\n      tag_54\n      0x04\n      dup1\n      calldatasize\n      sub\n      dup2\n      add\n      swap1\n      tag_55\n      swap2\n      swap1\n      tag_16\n      jump\t// in\n    tag_55:\n      tag_56\n      jump\t// in\n    tag_54:\n      mload(0x40)\n      tag_57\n      swap2\n      swap1\n      tag_32\n      jump\t// in\n    tag_57:\n      mload(0x40)\n      dup1\n      swap2\n      sub\n      swap1\n      return\n        /* \"contracts/DeviceRegistry.sol\":1891:2198  function decommission(string memory _serialNumber) public {... */\n    tag_17:\n        /* \"contracts/DeviceRegistry.sol\":1960:1970  bytes32 id */\n      0x00\n        /* \"contracts/DeviceRegistry.sol\":2000:2013  _serialNumber */\n      dup2\n        /* \"contracts/DeviceRegistry.sol\":1983:2014  abi.encodePacked(_serialNumber) */\n      add(0x20, mload(0x40))\n      tag_59\n      swap2\n      swap1\n      tag_60\n      jump\t// in\n    tag_59:\n      mload(0x40)\n      0x20\n      dup2\n      dup4\n      sub\n      sub\n      dup2\n      mstore\n      swap1\n      0x40\n      mstore\n        /* \"contracts/DeviceRegistry.sol\":1973:2015  keccak256(abi.encodePacked(_serialNumber)) */\n      dup1\n      mload\n      swap1\n      0x20\n      add\n      keccak256\n        /* \"contracts/DeviceRegistry.sol\":1960:2015  bytes32 id = keccak256(abi.encodePacked(_serialNumber)) */\n      swap1\n      pop\n        /* \"contracts/DeviceRegistry.sol\":2034:2041  devices */\n      0x01\n        /* \"contracts/DeviceRegistry.sol\":2034:2045  devices[id] */\n      0x00\n        /* \"contracts/DeviceRegistry.sol\":2042:2044  id */\n      dup3\n        /* \"contracts/DeviceRegistry.sol\":2034:2045  devices[id] */\n      dup2\n      mstore\n      0x20\n      add\n      swap1\n      dup2\n      mstore\n      0x20\n      add\n      0x00\n      keccak256\n        /* \"contracts/DeviceRegistry.sol\":2034:2052  devices[id].exists */\n      0x04\n      add\n      0x14\n      swap1\n      sload\n      swap1\n      0x0100\n      exp\n      swap1\n      div\n      0xff\n      and\n        /* \"contracts/DeviceRegistry.sol\":2026:2073  require(devices[id].exists, \"Device not found\") */\n      tag_61\n      jumpi\n      mload(0x40)\n      0x08c379a000000000000000000000000000000000000000000000000000000000\n      dup2\n      mstore\n      0x04\n      add\n      tag_62\n      swap1\n      tag_63\n      jump\t// in\n    tag_62:\n      mload(0x40)\n      dup1\n      swap2\n      sub\n      swap1\n      revert\n    tag_61:\n        /* \"contracts/DeviceRegistry.sol\":2093:2100  devices */\n      0x01\n        /* \"contracts/DeviceRegistry.sol\":2093:2104  devices[id] */\n      0x00\n        /* \"contracts/DeviceRegistry.sol\":2101:2103  id */\n      dup3\n        /* \"contracts/DeviceRegistry.sol\":2093:2104  devices[id] */\n      dup2\n      mstore\n      0x20\n      add\n      swap1\n      dup2\n      mstore\n      0x20\n      add\n      0x00\n      keccak256\n        /* \"contracts/DeviceRegistry.sol\":2093:2119  devices[id].decommissioned */\n      0x04\n      add\n      0x15\n      swap1\n      sload\n      swap1\n      0x0100\n      exp\n      swap1\n      div\n      0xff\n      and\n        /* \"contracts/DeviceRegistry.sol\":2092:2119  !devices[id].decommissioned */\n      iszero\n        /* \"contracts/DeviceRegistry.sol\":2084:2146  require(!devices[id].decommissioned, \"Already decommissioned\") */\n      tag_64\n      jumpi\n      mload(0x40)\n      0x08c379a000000000000000000000000000000000000000000000000000000000\n      dup2\n      mstore\n      0x04\n      add\n      tag_65\n      swap1\n      tag_66\n      jump\t// in\n    tag_65:\n      mload(0x40)\n      dup1\n      swap2\n      sub\n      swap1\n      revert\n    tag_64:\n        /* \"contracts/DeviceRegistry.sol\":2186:2190  true */\n      0x01\n        /* \"contracts/DeviceRegistry.sol\":2157:2164  devices */\n      dup1\n        /* \"contracts/DeviceRegistry.sol\":2157:2168  devices[id] */\n      0x00\n        /* \"contracts/DeviceRegistry.sol\":2165:2167  id */\n      dup4\n        /* \"contracts/DeviceRegistry.sol\":2157:2168  devices[id] */\n      dup2\n      mstore\n      0x20\n      add\n      swap1\n      dup2\n      mstore\n      0x20\n      add\n      0x00\n      keccak256\n        /* \"contracts/DeviceRegistry.sol\":2157:2183  devices[id].decommissioned */\n      0x04\n      add\n      0x15\n        /* \"contracts/DeviceRegistry.sol\":2157:2190  devices[id].decommissioned = true */\n      0x0100\n      exp\n      dup2\n      sload\n      dup2\n      0xff\n      mul\n      not\n      and\n      swap1\n      dup4\n      iszero\n      iszero\n      mul\n      or\n      swap1\n      sstore\n      pop\n        /* \"contracts/DeviceRegistry.sol\":1949:2198  {... */\n      pop\n        /* \"contracts/DeviceRegistry.sol\":1891:2198  function decommission(string memory _serialNumber) public {... */\n      pop\n      jump\t// out\n        /* \"contracts/DeviceRegistry.sol\":704:751  mapping(bytes32 => Component) public components */\n    tag_21:\n      mstore(0x20, 0x02)\n      dup1\n      0x00\n      mstore\n      keccak256(0x00, 0x40)\n      0x00\n      swap2\n      pop\n      swap1\n      pop\n      dup1\n      0x00\n      add\n      dup1\n      sload\n      tag_67\n      swap1\n      tag_68\n      jump\t// in\n    tag_67:\n      dup1\n      0x1f\n      add\n      0x20\n      dup1\n      swap2\n      div\n      mul\n      0x20\n      add\n      mload(0x40)\n      swap1\n      dup2\n      add\n      0x40\n      mstore\n      dup1\n      swap3\n      swap2\n      swap1\n      dup2\n      dup2\n      mstore\n      0x20\n      add\n      dup3\n      dup1\n      sload\n      tag_69\n      swap1\n      tag_68\n      jump\t// in\n    tag_69:\n      dup1\n      iszero\n      tag_70\n      jumpi\n      dup1\n      0x1f\n      lt\n      tag_71\n      jumpi\n      0x0100\n      dup1\n      dup4\n      sload\n      div\n      mul\n      dup4\n      mstore\n      swap2\n      0x20\n      add\n      swap2\n      jump(tag_70)\n    tag_71:\n      dup3\n      add\n      swap2\n      swap1\n      0x00\n      mstore\n      keccak256(0x00, 0x20)\n      swap1\n    tag_72:\n      dup2\n      sload\n      dup2\n      mstore\n      swap1\n      0x01\n      add\n      swap1\n      0x20\n      add\n      dup1\n      dup4\n      gt\n      tag_72\n      jumpi\n      dup3\n      swap1\n      sub\n      0x1f\n      and\n      dup3\n      add\n      swap2\n    tag_70:\n      pop\n      pop\n      pop\n      pop\n      pop\n      swap1\n      dup1\n      0x01\n      add\n      dup1\n      sload\n      tag_73\n      swap1\n      tag_68\n      jump\t// in\n    tag_73:\n      dup1\n      0x1f\n      add\n      0x20\n      dup1\n      swap2\n      div\n      mul\n      0x20\n      add\n      mload(0x40)\n      swap1\n      dup2\n      add\n      0x40\n      mstore\n      dup1\n      swap3\n      swap2\n      swap1\n      dup2\n      dup2\n      mstore\n      0x20\n      add\n      dup3\n      dup1\n      sload\n      tag_74\n      swap1\n      tag_68\n      jump\t// in\n    tag_74:\n      dup1\n      iszero\n      tag_75\n      jumpi\n      dup1\n      0x1f\n      lt\n      tag_76\n      jumpi\n      0x0100\n      dup1\n      dup4\n      sload\n      div\n      mul\n      dup4\n      mstore\n      swap2\n      0x20\n      add\n      swap2\n      jump(tag_75)\n    tag_76:\n      dup3\n      add\n      swap2\n      swap1\n      0x00\n      mstore\n      keccak256(0x00, 0x20)\n      swap1\n    tag_77:\n      dup2\n      sload\n      dup2\n      mstore\n      swap1\n      0x01\n      add\n      swap1\n      0x20\n      add\n      dup1\n      dup4\n      gt\n      tag_77\n      jumpi\n      dup3\n      swap1\n      sub\n      0x1f\n      and\n      dup3\n      add\n      swap2\n    tag_75:\n      pop\n      pop\n      pop\n      pop\n      pop\n      swap1\n      dup1\n      0x02\n      add\n      sload\n      swap1\n      dup1\n      0x03\n      add\n      0x00\n      swap1\n      sload\n      swap1\n      0x0100\n      exp\n      swap1\n      div\n      0xff\n      and\n      swap1\n      pop\n      dup5\n      jump\t// out\n        /* \"contracts/DeviceRegistry.sol\":1125:1460  function registerComponent(string memory _partNumber, string memory _componentType) public onlyOEM {... */\n    tag_27:\n        /* \"contracts/DeviceRegistry.sol\":597:600  oem */\n      0x00\n      dup1\n      sload\n      swap1\n      0x0100\n      exp\n      swap1\n      div\n      0xffffffffffffffffffffffffffffffffffffffff\n      and\n        /* \"contracts/DeviceRegistry.sol\":583:600  msg.sender == oem */\n      0xffffffffffffffffffffffffffffffffffffffff\n      and\n        /* \"contracts/DeviceRegistry.sol\":583:593  msg.sender */\n      caller\n        /* \"contracts/DeviceRegistry.sol\":583:600  msg.sender == oem */\n      0xffffffffffffffffffffffffffffffffffffffff\n      and\n      eq\n        /* \"contracts/DeviceRegistry.sol\":575:627  require(msg.sender == oem, \"Only OEM can call this\") */\n      tag_79\n      jumpi\n      mload(0x40)\n      0x08c379a000000000000000000000000000000000000000000000000000000000\n      dup2\n      mstore\n      0x04\n      add\n      tag_80\n      swap1\n      tag_81\n      jump\t// in\n    tag_80:\n      mload(0x40)\n      dup1\n      swap2\n      sub\n      swap1\n      revert\n    tag_79:\n        /* \"contracts/DeviceRegistry.sol\":1235:1245  bytes32 id */\n      0x00\n        /* \"contracts/DeviceRegistry.sol\":1275:1286  _partNumber */\n      dup3\n        /* \"contracts/DeviceRegistry.sol\":1258:1287  abi.encodePacked(_partNumber) */\n      add(0x20, mload(0x40))\n      tag_83\n      swap2\n      swap1\n      tag_60\n      jump\t// in\n    tag_83:\n      mload(0x40)\n      0x20\n      dup2\n      dup4\n      sub\n      sub\n      dup2\n      mstore\n      swap1\n      0x40\n      mstore\n        /* \"contracts/DeviceRegistry.sol\":1248:1288  keccak256(abi.encodePacked(_partNumber)) */\n      dup1\n      mload\n      swap1\n      0x20\n      add\n      keccak256\n        /* \"contracts/DeviceRegistry.sol\":1235:1288  bytes32 id = keccak256(abi.encodePacked(_partNumber)) */\n      swap1\n      pop\n        /* \"contracts/DeviceRegistry.sol\":1308:1318  components */\n      0x02\n        /* \"contracts/DeviceRegistry.sol\":1308:1322  components[id] */\n      0x00\n        /* \"contracts/DeviceRegistry.sol\":1319:1321  id */\n      dup3\n        /* \"contracts/DeviceRegistry.sol\":1308:1322  components[id] */\n      dup2\n      mstore\n      0x20\n      add\n      swap1\n      dup2\n      mstore\n      0x20\n      add\n      0x00\n      keccak256\n        /* \"contracts/DeviceRegistry.sol\":1308:1330  components[id]. exists */\n      0x03\n      add\n      0x00\n      swap1\n      sload\n      swap1\n      0x0100\n      exp\n      swap1\n      div\n      0xff\n      and\n        /* \"contracts/DeviceRegistry.sol\":1307:1330  !components[id]. exists */\n      iszero\n        /* \"contracts/DeviceRegistry.sol\":1299:1363  require(!components[id]. exists, \"Component Already Registered\") */\n      tag_84\n      jumpi\n      mload(0x40)\n      0x08c379a000000000000000000000000000000000000000000000000000000000\n      dup2\n      mstore\n      0x04\n      add\n      tag_85\n      swap1\n      tag_86\n      jump\t// in\n    tag_85:\n      mload(0x40)\n      dup1\n      swap2\n      sub\n      swap1\n      revert\n    tag_84:\n        /* \"contracts/DeviceRegistry.sol\":1391:1452  Component(_partNumber, _componentType, block.timestamp, true) */\n      mload(0x40)\n      dup1\n      0x80\n      add\n      0x40\n      mstore\n      dup1\n        /* \"contracts/DeviceRegistry.sol\":1401:1412  _partNumber */\n      dup5\n        /* \"contracts/DeviceRegistry.sol\":1391:1452  Component(_partNumber, _componentType, block.timestamp, true) */\n      dup2\n      mstore\n      0x20\n      add\n        /* \"contracts/DeviceRegistry.sol\":1414:1428  _componentType */\n      dup4\n        /* \"contracts/DeviceRegistry.sol\":1391:1452  Component(_partNumber, _componentType, block.timestamp, true) */\n      dup2\n      mstore\n      0x20\n      add\n        /* \"contracts/DeviceRegistry.sol\":1430:1445  block.timestamp */\n      timestamp\n        /* \"contracts/DeviceRegistry.sol\":1391:1452  Component(_partNumber, _componentType, block.timestamp, true) */\n      dup2\n      mstore\n      0x20\n      add\n        /* \"contracts/DeviceRegistry.sol\":1447:1451  true */\n      0x01\n        /* \"contracts/DeviceRegistry.sol\":1391:1452  Component(_partNumber, _componentType, block.timestamp, true) */\n      iszero\n      iszero\n      dup2\n      mstore\n      pop\n        /* \"contracts/DeviceRegistry.sol\":1374:1384  components */\n      0x02\n        /* \"contracts/DeviceRegistry.sol\":1374:1388  components[id] */\n      0x00\n        /* \"contracts/DeviceRegistry.sol\":1385:1387  id */\n      dup4\n        /* \"contracts/DeviceRegistry.sol\":1374:1388  components[id] */\n      dup2\n      mstore\n      0x20\n      add\n      swap1\n      dup2\n      mstore\n      0x20\n      add\n      0x00\n      keccak256\n        /* \"contracts/DeviceRegistry.sol\":1374:1452  components[id] = Component(_partNumber, _componentType, block.timestamp, true) */\n      0x00\n      dup3\n      add\n      mload\n      dup2\n      0x00\n      add\n      swap1\n      dup2\n      tag_87\n      swap2\n      swap1\n      tag_88\n      jump\t// in\n    tag_87:\n      pop\n      0x20\n      dup3\n      add\n      mload\n      dup2\n      0x01\n      add\n      swap1\n      dup2\n      tag_89\n      swap2\n      swap1\n      tag_88\n      jump\t// in\n    tag_89:\n      pop\n      0x40\n      dup3\n      add\n      mload\n      dup2\n      0x02\n      add\n      sstore\n      0x60\n      dup3\n      add\n      mload\n      dup2\n      0x03\n      add\n      exp(0x0100, 0x00)\n      dup2\n      sload\n      dup2\n      0xff\n      mul\n      not\n      and\n      swap1\n      dup4\n      iszero\n      iszero\n      mul\n      or\n      swap1\n      sstore\n      pop\n      swap1\n      pop\n      pop\n        /* \"contracts/DeviceRegistry.sol\":1224:1460  {... */\n      pop\n        /* \"contracts/DeviceRegistry.sol\":1125:1460  function registerComponent(string memory _partNumber, string memory _componentType) public onlyOEM {... */\n      pop\n      pop\n      jump\t// out\n        /* \"contracts/DeviceRegistry.sol\":2206:2393  function deviceExists(string memory _serialNumber) public view returns (bool){... */\n    tag_30:\n        /* \"contracts/DeviceRegistry.sol\":2278:2282  bool */\n      0x00\n        /* \"contracts/DeviceRegistry.sol\":2294:2304  bytes32 id */\n      dup1\n        /* \"contracts/DeviceRegistry.sol\":2334:2347  _serialNumber */\n      dup3\n        /* \"contracts/DeviceRegistry.sol\":2317:2348  abi.encodePacked(_serialNumber) */\n      add(0x20, mload(0x40))\n      tag_91\n      swap2\n      swap1\n      tag_60\n      jump\t// in\n    tag_91:\n      mload(0x40)\n      0x20\n      dup2\n      dup4\n      sub\n      sub\n      dup2\n      mstore\n      swap1\n      0x40\n      mstore\n        /* \"contracts/DeviceRegistry.sol\":2307:2349  keccak256(abi.encodePacked(_serialNumber)) */\n      dup1\n      mload\n      swap1\n      0x20\n      add\n      keccak256\n        /* \"contracts/DeviceRegistry.sol\":2294:2349  bytes32 id = keccak256(abi.encodePacked(_serialNumber)) */\n      swap1\n      pop\n        /* \"contracts/DeviceRegistry.sol\":2367:2374  devices */\n      0x01\n        /* \"contracts/DeviceRegistry.sol\":2367:2378  devices[id] */\n      0x00\n        /* \"contracts/DeviceRegistry.sol\":2375:2377  id */\n      dup3\n        /* \"contracts/DeviceRegistry.sol\":2367:2378  devices[id] */\n      dup2\n      mstore\n      0x20\n      add\n      swap1\n      dup2\n      mstore\n      0x20\n      add\n      0x00\n      keccak256\n        /* \"contracts/DeviceRegistry.sol\":2367:2385  devices[id].exists */\n      0x04\n      add\n      0x14\n      swap1\n      sload\n      swap1\n      0x0100\n      exp\n      swap1\n      div\n      0xff\n      and\n        /* \"contracts/DeviceRegistry.sol\":2360:2385  return devices[id].exists */\n      swap2\n      pop\n      pop\n        /* \"contracts/DeviceRegistry.sol\":2206:2393  function deviceExists(string memory _serialNumber) public view returns (bool){... */\n      swap2\n      swap1\n      pop\n      jump\t// out\n        /* \"contracts/DeviceRegistry.sol\":2599:3232  function getDevice(string memory _serialNumber) ... */\n    tag_35:\n        /* \"contracts/DeviceRegistry.sol\":2684:2710  string memory serialNumber */\n      0x60\n        /* \"contracts/DeviceRegistry.sol\":2721:2739  string memory imei */\n      dup1\n        /* \"contracts/DeviceRegistry.sol\":2750:2769  string memory model */\n      0x60\n        /* \"contracts/DeviceRegistry.sol\":2780:2803  uint256 manufactureDate */\n      0x00\n        /* \"contracts/DeviceRegistry.sol\":2814:2834  address currentOwner */\n      dup1\n        /* \"contracts/DeviceRegistry.sol\":2845:2856  bool exists */\n      0x00\n        /* \"contracts/DeviceRegistry.sol\":2867:2886  bool decommissioned */\n      dup1\n        /* \"contracts/DeviceRegistry.sol\":2903:2913  bytes32 id */\n      0x00\n        /* \"contracts/DeviceRegistry.sol\":2943:2956  _serialNumber */\n      dup9\n        /* \"contracts/DeviceRegistry.sol\":2926:2957  abi.encodePacked(_serialNumber) */\n      add(0x20, mload(0x40))\n      tag_93\n      swap2\n      swap1\n      tag_60\n      jump\t// in\n    tag_93:\n      mload(0x40)\n      0x20\n      dup2\n      dup4\n      sub\n      sub\n      dup2\n      mstore\n      swap1\n      0x40\n      mstore\n        /* \"contracts/DeviceRegistry.sol\":2916:2958  keccak256(abi.encodePacked(_serialNumber)) */\n      dup1\n      mload\n      swap1\n      0x20\n      add\n      keccak256\n        /* \"contracts/DeviceRegistry.sol\":2903:2958  bytes32 id = keccak256(abi.encodePacked(_serialNumber)) */\n      swap1\n      pop\n        /* \"contracts/DeviceRegistry.sol\":2973:2980  devices */\n      0x01\n        /* \"contracts/DeviceRegistry.sol\":2973:2984  devices[id] */\n      0x00\n        /* \"contracts/DeviceRegistry.sol\":2981:2983  id */\n      dup3\n        /* \"contracts/DeviceRegistry.sol\":2973:2984  devices[id] */\n      dup2\n      mstore\n      0x20\n      add\n      swap1\n      dup2\n      mstore\n      0x20\n      add\n      0x00\n      keccak256\n        /* \"contracts/DeviceRegistry.sol\":2973:2991  devices[id].exists */\n      0x04\n      add\n      0x14\n      swap1\n      sload\n      swap1\n      0x0100\n      exp\n      swap1\n      div\n      0xff\n      and\n        /* \"contracts/DeviceRegistry.sol\":2965:3012  require(devices[id].exists, \"Device not found\") */\n      tag_94\n      jumpi\n      mload(0x40)\n      0x08c379a000000000000000000000000000000000000000000000000000000000\n      dup2\n      mstore\n      0x04\n      add\n      tag_95\n      swap1\n      tag_63\n      jump\t// in\n    tag_95:\n      mload(0x40)\n      dup1\n      swap2\n      sub\n      swap1\n      revert\n    tag_94:\n        /* \"contracts/DeviceRegistry.sol\":3019:3034  Device memory d */\n      0x00\n        /* \"contracts/DeviceRegistry.sol\":3037:3044  devices */\n      0x01\n        /* \"contracts/DeviceRegistry.sol\":3037:3048  devices[id] */\n      0x00\n        /* \"contracts/DeviceRegistry.sol\":3045:3047  id */\n      dup4\n        /* \"contracts/DeviceRegistry.sol\":3037:3048  devices[id] */\n      dup2\n      mstore\n      0x20\n      add\n      swap1\n      dup2\n      mstore\n      0x20\n      add\n      0x00\n      keccak256\n        /* \"contracts/DeviceRegistry.sol\":3019:3048  Device memory d = devices[id] */\n      mload(0x40)\n      dup1\n      0xe0\n      add\n      0x40\n      mstore\n      swap1\n      dup2\n      0x00\n      dup3\n      add\n      dup1\n      sload\n      tag_96\n      swap1\n      tag_68\n      jump\t// in\n    tag_96:\n      dup1\n      0x1f\n      add\n      0x20\n      dup1\n      swap2\n      div\n      mul\n      0x20\n      add\n      mload(0x40)\n      swap1\n      dup2\n      add\n      0x40\n      mstore\n      dup1\n      swap3\n      swap2\n      swap1\n      dup2\n      dup2\n      mstore\n      0x20\n      add\n      dup3\n      dup1\n      sload\n      tag_97\n      swap1\n      tag_68\n      jump\t// in\n    tag_97:\n      dup1\n      iszero\n      tag_98\n      jumpi\n      dup1\n      0x1f\n      lt\n      tag_99\n      jumpi\n      0x0100\n      dup1\n      dup4\n      sload\n      div\n      mul\n      dup4\n      mstore\n      swap2\n      0x20\n      add\n      swap2\n      jump(tag_98)\n    tag_99:\n      dup3\n      add\n      swap2\n      swap1\n      0x00\n      mstore\n      keccak256(0x00, 0x20)\n      swap1\n    tag_100:\n      dup2\n      sload\n      dup2\n      mstore\n      swap1\n      0x01\n      add\n      swap1\n      0x20\n      add\n      dup1\n      dup4\n      gt\n      tag_100\n      jumpi\n      dup3\n      swap1\n      sub\n      0x1f\n      and\n      dup3\n      add\n      swap2\n    tag_98:\n      pop\n      pop\n      pop\n      pop\n      pop\n      dup2\n      mstore\n      0x20\n      add\n      0x01\n      dup3\n      add\n      dup1\n      sload\n      tag_101\n      swap1\n      tag_68\n      jump\t// in\n    tag_101:\n      dup1\n      0x1f\n      add\n      0x20\n      dup1\n      swap2\n      div\n      mul\n      0x20\n      add\n      mload(0x40)\n      swap1\n      dup2\n      add\n      0x40\n      mstore\n      dup1\n      swap3\n      swap2\n      swap1\n      dup2\n      dup2\n      mstore\n      0x20\n      add\n      dup3\n      dup1\n      sload\n      tag_102\n      swap1\n      tag_68\n      jump\t// in\n    tag_102:\n      dup1\n      iszero\n      tag_103\n      jumpi\n      dup1\n      0x1f\n      lt\n      tag_104\n      jumpi\n      0x0100\n      dup1\n      dup4\n      sload\n      div\n      mul\n      dup4\n      mstore\n      swap2\n      0x20\n      add\n      swap2\n      jump(tag_103)\n    tag_104:\n      dup3\n      add\n      swap2\n      swap1\n      0x00\n      mstore\n      keccak256(0x00, 0x20)\n      swap1\n    tag_105:\n      dup2\n      sload\n      dup2\n      mstore\n      swap1\n      0x01\n      add\n      swap1\n      0x20\n      add\n      dup1\n      dup4\n      gt\n      tag_105\n      jumpi\n      dup3\n      swap1\n      sub\n      0x1f\n      and\n      dup3\n      add\n      swap2\n    tag_103:\n      pop\n      pop\n      pop\n      pop\n      pop\n      dup2\n      mstore\n      0x20\n      add\n      0x02\n      dup3\n      add\n      dup1\n      sload\n      tag_106\n      swap1\n      tag_68\n      jump\t// in\n    tag_106:\n      dup1\n      0x1f\n      add\n      0x20\n      dup1\n      swap2\n      div\n      mul\n      0x20\n      add\n      mload(0x40)\n      swap1\n      dup2\n      add\n      0x40\n      mstore\n      dup1\n      swap3\n      swap2\n      swap1\n      dup2\n      dup2\n      mstore\n      0x20\n      add\n      dup3\n      dup1\n      sload\n      tag_107\n      swap1\n      tag_68\n      jump\t// in\n    tag_107:\n      dup1\n      iszero\n      tag_108\n      jumpi\n      dup1\n      0x1f\n      lt\n      tag_109\n      jumpi\n      0x0100\n      dup1\n      dup4\n      sload\n      div\n      mul\n      dup4\n      mstore\n      swap2\n      0x20\n      add\n      swap2\n      jump(tag_108)\n    tag_109:\n      dup3\n      add\n      swap2\n      swap1\n      0x00\n      mstore\n      keccak256(0x00, 0x20)\n      swap1\n    tag_110:\n      dup2\n      sload\n      dup2\n      mstore\n      swap1\n      0x01\n      add\n      swap1\n      0x20\n      add\n      dup1\n      dup4\n      gt\n      tag_110\n      jumpi\n      dup3\n      swap1\n      sub\n      0x1f\n      and\n      dup3\n      add\n      swap2\n    tag_108:\n      pop\n      pop\n      pop\n      pop\n      pop\n      dup2\n      mstore\n      0x20\n      add\n      0x03\n      dup3\n      add\n      sload\n      dup2\n      mstore\n      0x20\n      add\n      0x04\n      dup3\n      add\n      0x00\n      swap1\n      sload\n      swap1\n      0x0100\n      exp\n      swap1\n      div\n      0xffffffffffffffffffffffffffffffffffffffff\n      and\n      0xffffffffffffffffffffffffffffffffffffffff\n      and\n      0xffffffffffffffffffffffffffffffffffffffff\n      and\n      dup2\n      mstore\n      0x20\n      add\n      0x04\n      dup3\n      add\n      0x14\n      swap1\n      sload\n      swap1\n      0x0100\n      exp\n      swap1\n      div\n      0xff\n      and\n      iszero\n      iszero\n      iszero\n      iszero\n      dup2\n      mstore\n      0x20\n      add\n      0x04\n      dup3\n      add\n      0x15\n      swap1\n      sload\n      swap1\n      0x0100\n      exp\n      swap1\n      div\n      0xff\n      and\n      iszero\n      iszero\n      iszero\n      iszero\n      dup2\n      mstore\n      pop\n      pop\n      swap1\n      pop\n        /* \"contracts/DeviceRegistry.sol\":3073:3074  d */\n      dup1\n        /* \"contracts/DeviceRegistry.sol\":3073:3087  d.serialNumber */\n      0x00\n      add\n      mload\n        /* \"contracts/DeviceRegistry.sol\":3098:3099  d */\n      dup2\n        /* \"contracts/DeviceRegistry.sol\":3098:3104  d.imei */\n      0x20\n      add\n      mload\n        /* \"contracts/DeviceRegistry.sol\":3115:3116  d */\n      dup3\n        /* \"contracts/DeviceRegistry.sol\":3115:3122  d.model */\n      0x40\n      add\n      mload\n        /* \"contracts/DeviceRegistry.sol\":3133:3134  d */\n      dup4\n        /* \"contracts/DeviceRegistry.sol\":3133:3150  d.manufactureDate */\n      0x60\n      add\n      mload\n        /* \"contracts/DeviceRegistry.sol\":3161:3162  d */\n      dup5\n        /* \"contracts/DeviceRegistry.sol\":3161:3175  d.currentOwner */\n      0x80\n      add\n      mload\n        /* \"contracts/DeviceRegistry.sol\":3186:3187  d */\n      dup6\n        /* \"contracts/DeviceRegistry.sol\":3186:3194  d.exists */\n      0xa0\n      add\n      mload\n        /* \"contracts/DeviceRegistry.sol\":3205:3206  d */\n      dup7\n        /* \"contracts/DeviceRegistry.sol\":3205:3221  d.decommissioned */\n      0xc0\n      add\n      mload\n        /* \"contracts/DeviceRegistry.sol\":3055:3228  return (... */\n      swap9\n      pop\n      swap9\n      pop\n      swap9\n      pop\n      swap9\n      pop\n      swap9\n      pop\n      swap9\n      pop\n      swap9\n      pop\n      pop\n      pop\n        /* \"contracts/DeviceRegistry.sol\":2599:3232  function getDevice(string memory _serialNumber) ... */\n      swap2\n      swap4\n      swap6\n      swap8\n      swap1\n      swap3\n      swap5\n      swap7\n      pop\n      jump\t// out\n        /* \"contracts/DeviceRegistry.sol\":760:1117  function registerDevice(string memory _serialNumber, string memory _imei, string memory _model) public onlyOEM {... */\n    tag_41:\n        /* \"contracts/DeviceRegistry.sol\":597:600  oem */\n      0x00\n      dup1\n      sload\n      swap1\n      0x0100\n      exp\n      swap1\n      div\n      0xffffffffffffffffffffffffffffffffffffffff\n      and\n        /* \"contracts/DeviceRegistry.sol\":583:600  msg.sender == oem */\n      0xffffffffffffffffffffffffffffffffffffffff\n      and\n        /* \"contracts/DeviceRegistry.sol\":583:593  msg.sender */\n      caller\n        /* \"contracts/DeviceRegistry.sol\":583:600  msg.sender == oem */\n      0xffffffffffffffffffffffffffffffffffffffff\n      and\n      eq\n        /* \"contracts/DeviceRegistry.sol\":575:627  require(msg.sender == oem, \"Only OEM can call this\") */\n      tag_112\n      jumpi\n      mload(0x40)\n      0x08c379a000000000000000000000000000000000000000000000000000000000\n      dup2\n      mstore\n      0x04\n      add\n      tag_113\n      swap1\n      tag_81\n      jump\t// in\n    tag_113:\n      mload(0x40)\n      dup1\n      swap2\n      sub\n      swap1\n      revert\n    tag_112:\n        /* \"contracts/DeviceRegistry.sol\":882:892  bytes32 id */\n      0x00\n        /* \"contracts/DeviceRegistry.sol\":922:935  _serialNumber */\n      dup4\n        /* \"contracts/DeviceRegistry.sol\":905:936  abi.encodePacked(_serialNumber) */\n      add(0x20, mload(0x40))\n      tag_115\n      swap2\n      swap1\n      tag_60\n      jump\t// in\n    tag_115:\n      mload(0x40)\n      0x20\n      dup2\n      dup4\n      sub\n      sub\n      dup2\n      mstore\n      swap1\n      0x40\n      mstore\n        /* \"contracts/DeviceRegistry.sol\":895:937  keccak256(abi.encodePacked(_serialNumber)) */\n      dup1\n      mload\n      swap1\n      0x20\n      add\n      keccak256\n        /* \"contracts/DeviceRegistry.sol\":882:937  bytes32 id = keccak256(abi.encodePacked(_serialNumber)) */\n      swap1\n      pop\n        /* \"contracts/DeviceRegistry.sol\":957:964  devices */\n      0x01\n        /* \"contracts/DeviceRegistry.sol\":957:969  devices [id] */\n      0x00\n        /* \"contracts/DeviceRegistry.sol\":966:968  id */\n      dup3\n        /* \"contracts/DeviceRegistry.sol\":957:969  devices [id] */\n      dup2\n      mstore\n      0x20\n      add\n      swap1\n      dup2\n      mstore\n      0x20\n      add\n      0x00\n      keccak256\n        /* \"contracts/DeviceRegistry.sol\":957:976  devices [id].exists */\n      0x04\n      add\n      0x14\n      swap1\n      sload\n      swap1\n      0x0100\n      exp\n      swap1\n      div\n      0xff\n      and\n        /* \"contracts/DeviceRegistry.sol\":956:976  !devices [id].exists */\n      iszero\n        /* \"contracts/DeviceRegistry.sol\":948:1006  require(!devices [id].exists, \"Device already registered\") */\n      tag_116\n      jumpi\n      mload(0x40)\n      0x08c379a000000000000000000000000000000000000000000000000000000000\n      dup2\n      mstore\n      0x04\n      add\n      tag_117\n      swap1\n      tag_118\n      jump\t// in\n    tag_117:\n      mload(0x40)\n      dup1\n      swap2\n      sub\n      swap1\n      revert\n    tag_116:\n        /* \"contracts/DeviceRegistry.sol\":1031:1109  Device (_serialNumber, _imei, _model, block.timestamp,msg.sender, true, false) */\n      mload(0x40)\n      dup1\n      0xe0\n      add\n      0x40\n      mstore\n      dup1\n        /* \"contracts/DeviceRegistry.sol\":1039:1052  _serialNumber */\n      dup6\n        /* \"contracts/DeviceRegistry.sol\":1031:1109  Device (_serialNumber, _imei, _model, block.timestamp,msg.sender, true, false) */\n      dup2\n      mstore\n      0x20\n      add\n        /* \"contracts/DeviceRegistry.sol\":1054:1059  _imei */\n      dup5\n        /* \"contracts/DeviceRegistry.sol\":1031:1109  Device (_serialNumber, _imei, _model, block.timestamp,msg.sender, true, false) */\n      dup2\n      mstore\n      0x20\n      add\n        /* \"contracts/DeviceRegistry.sol\":1061:1067  _model */\n      dup4\n        /* \"contracts/DeviceRegistry.sol\":1031:1109  Device (_serialNumber, _imei, _model, block.timestamp,msg.sender, true, false) */\n      dup2\n      mstore\n      0x20\n      add\n        /* \"contracts/DeviceRegistry.sol\":1069:1084  block.timestamp */\n      timestamp\n        /* \"contracts/DeviceRegistry.sol\":1031:1109  Device (_serialNumber, _imei, _model, block.timestamp,msg.sender, true, false) */\n      dup2\n      mstore\n      0x20\n      add\n        /* \"contracts/DeviceRegistry.sol\":1085:1095  msg.sender */\n      caller\n        /* \"contracts/DeviceRegistry.sol\":1031:1109  Device (_serialNumber, _imei, _model, block.timestamp,msg.sender, true, false) */\n      0xffffffffffffffffffffffffffffffffffffffff\n      and\n      dup2\n      mstore\n      0x20\n      add\n        /* \"contracts/DeviceRegistry.sol\":1097:1101  true */\n      0x01\n        /* \"contracts/DeviceRegistry.sol\":1031:1109  Device (_serialNumber, _imei, _model, block.timestamp,msg.sender, true, false) */\n      iszero\n      iszero\n      dup2\n      mstore\n      0x20\n      add\n        /* \"contracts/DeviceRegistry.sol\":1103:1108  false */\n      0x00\n        /* \"contracts/DeviceRegistry.sol\":1031:1109  Device (_serialNumber, _imei, _model, block.timestamp,msg.sender, true, false) */\n      iszero\n      iszero\n      dup2\n      mstore\n      pop\n        /* \"contracts/DeviceRegistry.sol\":1017:1024  devices */\n      0x01\n        /* \"contracts/DeviceRegistry.sol\":1017:1028  devices[id] */\n      0x00\n        /* \"contracts/DeviceRegistry.sol\":1025:1027  id */\n      dup4\n        /* \"contracts/DeviceRegistry.sol\":1017:1028  devices[id] */\n      dup2\n      mstore\n      0x20\n      add\n      swap1\n      dup2\n      mstore\n      0x20\n      add\n      0x00\n      keccak256\n        /* \"contracts/DeviceRegistry.sol\":1017:1109  devices[id] = Device (_serialNumber, _imei, _model, block.timestamp,msg.sender, true, false) */\n      0x00\n      dup3\n      add\n      mload\n      dup2\n      0x00\n      add\n      swap1\n      dup2\n      tag_119\n      swap2\n      swap1\n      tag_88\n      jump\t// in\n    tag_119:\n      pop\n      0x20\n      dup3\n      add\n      mload\n      dup2\n      0x01\n      add\n      swap1\n      dup2\n      tag_120\n      swap2\n      swap1\n      tag_88\n      jump\t// in\n    tag_120:\n      pop\n      0x40\n      dup3\n      add\n      mload\n      dup2\n      0x02\n      add\n      swap1\n      dup2\n      tag_121\n      swap2\n      swap1\n      tag_88\n      jump\t// in\n    tag_121:\n      pop\n      0x60\n      dup3\n      add\n      mload\n      dup2\n      0x03\n      add\n      sstore\n      0x80\n      dup3\n      add\n      mload\n      dup2\n      0x04\n      add\n      exp(0x0100, 0x00)\n      dup2\n      sload\n      dup2\n      0xffffffffffffffffffffffffffffffffffffffff\n      mul\n      not\n      and\n      swap1\n      dup4\n      0xffffffffffffffffffffffffffffffffffffffff\n      and\n      mul\n      or\n      swap1\n      sstore\n      pop\n      0xa0\n      dup3\n      add\n      mload\n      dup2\n      0x04\n      add\n      exp(0x0100, 0x14)\n      dup2\n      sload\n      dup2\n      0xff\n      mul\n      not\n      and\n      swap1\n      dup4\n      iszero\n      iszero\n      mul\n      or\n      swap1\n      sstore\n      pop\n      0xc0\n      dup3\n      add\n      mload\n      dup2\n      0x04\n      add\n      exp(0x0100, 0x15)\n      dup2\n      sload\n      dup2\n      0xff\n      mul\n      not\n      and\n      swap1\n      dup4\n      iszero\n      iszero\n      mul\n      or\n      swap1\n      sstore\n      pop\n      swap1\n      pop\n      pop\n        /* \"contracts/DeviceRegistry.sol\":871:1117  {... */\n      pop\n        /* \"contracts/DeviceRegistry.sol\":760:1117  function registerDevice(string memory _serialNumber, string memory _imei, string memory _model) public onlyOEM {... */\n      pop\n      pop\n      pop\n      jump\t// out\n        /* \"contracts/DeviceRegistry.sol\":1468:1883  function transferOwnership(string memory _serialNumber, address _newOwner) public {... */\n    tag_45:\n        /* \"contracts/DeviceRegistry.sol\":1561:1571  bytes32 id */\n      0x00\n        /* \"contracts/DeviceRegistry.sol\":1601:1614  _serialNumber */\n      dup3\n        /* \"contracts/DeviceRegistry.sol\":1584:1615  abi.encodePacked(_serialNumber) */\n      add(0x20, mload(0x40))\n      tag_123\n      swap2\n      swap1\n      tag_60\n      jump\t// in\n    tag_123:\n      mload(0x40)\n      0x20\n      dup2\n      dup4\n      sub\n      sub\n      dup2\n      mstore\n      swap1\n      0x40\n      mstore\n        /* \"contracts/DeviceRegistry.sol\":1574:1616  keccak256(abi.encodePacked(_serialNumber)) */\n      dup1\n      mload\n      swap1\n      0x20\n      add\n      keccak256\n        /* \"contracts/DeviceRegistry.sol\":1561:1616  bytes32 id = keccak256(abi.encodePacked(_serialNumber)) */\n      swap1\n      pop\n        /* \"contracts/DeviceRegistry.sol\":1635:1642  devices */\n      0x01\n        /* \"contracts/DeviceRegistry.sol\":1635:1646  devices[id] */\n      0x00\n        /* \"contracts/DeviceRegistry.sol\":1643:1645  id */\n      dup3\n        /* \"contracts/DeviceRegistry.sol\":1635:1646  devices[id] */\n      dup2\n      mstore\n      0x20\n      add\n      swap1\n      dup2\n      mstore\n      0x20\n      add\n      0x00\n      keccak256\n        /* \"contracts/DeviceRegistry.sol\":1635:1653  devices[id].exists */\n      0x04\n      add\n      0x14\n      swap1\n      sload\n      swap1\n      0x0100\n      exp\n      swap1\n      div\n      0xff\n      and\n        /* \"contracts/DeviceRegistry.sol\":1627:1674  require(devices[id].exists, \"Device not found\") */\n      tag_124\n      jumpi\n      mload(0x40)\n      0x08c379a000000000000000000000000000000000000000000000000000000000\n      dup2\n      mstore\n      0x04\n      add\n      tag_125\n      swap1\n      tag_63\n      jump\t// in\n    tag_125:\n      mload(0x40)\n      dup1\n      swap2\n      sub\n      swap1\n      revert\n    tag_124:\n        /* \"contracts/DeviceRegistry.sol\":1694:1701  devices */\n      0x01\n        /* \"contracts/DeviceRegistry.sol\":1694:1705  devices[id] */\n      0x00\n        /* \"contracts/DeviceRegistry.sol\":1702:1704  id */\n      dup3\n        /* \"contracts/DeviceRegistry.sol\":1694:1705  devices[id] */\n      dup2\n      mstore\n      0x20\n      add\n      swap1\n      dup2\n      mstore\n      0x20\n      add\n      0x00\n      keccak256\n        /* \"contracts/DeviceRegistry.sol\":1694:1720  devices[id].decommissioned */\n      0x04\n      add\n      0x15\n      swap1\n      sload\n      swap1\n      0x0100\n      exp\n      swap1\n      div\n      0xff\n      and\n        /* \"contracts/DeviceRegistry.sol\":1693:1720  !devices[id].decommissioned */\n      iszero\n        /* \"contracts/DeviceRegistry.sol\":1685:1749  require(!devices[id].decommissioned, \"Device is decommissioned\") */\n      tag_126\n      jumpi\n      mload(0x40)\n      0x08c379a000000000000000000000000000000000000000000000000000000000\n      dup2\n      mstore\n      0x04\n      add\n      tag_127\n      swap1\n      tag_128\n      jump\t// in\n    tag_127:\n      mload(0x40)\n      dup1\n      swap2\n      sub\n      swap1\n      revert\n    tag_126:\n        /* \"contracts/DeviceRegistry.sol\":1796:1806  msg.sender */\n      caller\n        /* \"contracts/DeviceRegistry.sol\":1768:1806  devices[id].currentOwner == msg.sender */\n      0xffffffffffffffffffffffffffffffffffffffff\n      and\n        /* \"contracts/DeviceRegistry.sol\":1768:1775  devices */\n      0x01\n        /* \"contracts/DeviceRegistry.sol\":1768:1779  devices[id] */\n      0x00\n        /* \"contracts/DeviceRegistry.sol\":1776:1778  id */\n      dup4\n        /* \"contracts/DeviceRegistry.sol\":1768:1779  devices[id] */\n      dup2\n      mstore\n      0x20\n      add\n      swap1\n      dup2\n      mstore\n      0x20\n      add\n      0x00\n      keccak256\n        /* \"contracts/DeviceRegistry.sol\":1768:1792  devices[id].currentOwner */\n      0x04\n      add\n      0x00\n      swap1\n      sload\n      swap1\n      0x0100\n      exp\n      swap1\n      div\n      0xffffffffffffffffffffffffffffffffffffffff\n      and\n        /* \"contracts/DeviceRegistry.sol\":1768:1806  devices[id].currentOwner == msg.sender */\n      0xffffffffffffffffffffffffffffffffffffffff\n      and\n      eq\n        /* \"contracts/DeviceRegistry.sol\":1760:1828  require(devices[id].currentOwner == msg.sender, \"Not current Owner\") */\n      tag_129\n      jumpi\n      mload(0x40)\n      0x08c379a000000000000000000000000000000000000000000000000000000000\n      dup2\n      mstore\n      0x04\n      add\n      tag_130\n      swap1\n      tag_131\n      jump\t// in\n    tag_130:\n      mload(0x40)\n      dup1\n      swap2\n      sub\n      swap1\n      revert\n    tag_129:\n        /* \"contracts/DeviceRegistry.sol\":1866:1875  _newOwner */\n      dup2\n        /* \"contracts/DeviceRegistry.sol\":1839:1846  devices */\n      0x01\n        /* \"contracts/DeviceRegistry.sol\":1839:1850  devices[id] */\n      0x00\n        /* \"contracts/DeviceRegistry.sol\":1847:1849  id */\n      dup4\n        /* \"contracts/DeviceRegistry.sol\":1839:1850  devices[id] */\n      dup2\n      mstore\n      0x20\n      add\n      swap1\n      dup2\n      mstore\n      0x20\n      add\n      0x00\n      keccak256\n        /* \"contracts/DeviceRegistry.sol\":1839:1863  devices[id].currentOwner */\n      0x04\n      add\n      0x00\n        /* \"contracts/DeviceRegistry.sol\":1839:1875  devices[id].currentOwner = _newOwner */\n      0x0100\n      exp\n      dup2\n      sload\n      dup2\n      0xffffffffffffffffffffffffffffffffffffffff\n      mul\n      not\n      and\n      swap1\n      dup4\n      0xffffffffffffffffffffffffffffffffffffffff\n      and\n      mul\n      or\n      swap1\n      sstore\n      pop\n        /* \"contracts/DeviceRegistry.sol\":1550:1883  {... */\n      pop\n        /* \"contracts/DeviceRegistry.sol\":1468:1883  function transferOwnership(string memory _serialNumber, address _newOwner) public {... */\n      pop\n      pop\n      jump\t// out\n        /* \"contracts/DeviceRegistry.sol\":655:697  mapping(bytes32 => Device) public  devices */\n    tag_48:\n      mstore(0x20, 0x01)\n      dup1\n      0x00\n      mstore\n      keccak256(0x00, 0x40)\n      0x00\n      swap2\n      pop\n      swap1\n      pop\n      dup1\n      0x00\n      add\n      dup1\n      sload\n      tag_132\n      swap1\n      tag_68\n      jump\t// in\n    tag_132:\n      dup1\n      0x1f\n      add\n      0x20\n      dup1\n      swap2\n      div\n      mul\n      0x20\n      add\n      mload(0x40)\n      swap1\n      dup2\n      add\n      0x40\n      mstore\n      dup1\n      swap3\n      swap2\n      swap1\n      dup2\n      dup2\n      mstore\n      0x20\n      add\n      dup3\n      dup1\n      sload\n      tag_133\n      swap1\n      tag_68\n      jump\t// in\n    tag_133:\n      dup1\n      iszero\n      tag_134\n      jumpi\n      dup1\n      0x1f\n      lt\n      tag_135\n      jumpi\n      0x0100\n      dup1\n      dup4\n      sload\n      div\n      mul\n      dup4\n      mstore\n      swap2\n      0x20\n      add\n      swap2\n      jump(tag_134)\n    tag_135:\n      dup3\n      add\n      swap2\n      swap1\n      0x00\n      mstore\n      keccak256(0x00, 0x20)\n      swap1\n    tag_136:\n      dup2\n      sload\n      dup2\n      mstore\n      swap1\n      0x01\n      add\n      swap1\n      0x20\n      add\n      dup1\n      dup4\n      gt\n      tag_136\n      jumpi\n      dup3\n      swap1\n      sub\n      0x1f\n      and\n      dup3\n      add\n      swap2\n    tag_134:\n      pop\n      pop\n      pop\n      pop\n      pop\n      swap1\n      dup1\n      0x01\n      add\n      dup1\n      sload\n      tag_137\n      swap1\n      tag_68\n      jump\t// in\n    tag_137:\n      dup1\n      0x1f\n      add\n      0x20\n      dup1\n      swap2\n      div\n      mul\n      0x20\n      add\n      mload(0x40)\n      swap1\n      dup2\n      add\n      0x40\n      mstore\n      dup1\n      swap3\n      swap2\n      swap1\n      dup2\n      dup2\n      mstore\n      0x20\n      add\n      dup3\n      dup1\n      sload\n      tag_138\n      swap1\n      tag_68\n      jump\t// in\n    tag_138:\n      dup1\n      iszero\n      tag_139\n      jumpi\n      dup1\n      0x1f\n      lt\n      tag_140\n      jumpi\n      0x0100\n      dup1\n      dup4\n      sload\n      div\n      mul\n      dup4\n      mstore\n      swap2\n      0x20\n      add\n      swap2\n      jump(tag_139)\n    tag_140:\n      dup3\n      add\n      swap2\n      swap1\n      0x00\n      mstore\n      keccak256(0x00, 0x20)\n      swap1\n    tag_141:\n      dup2\n      sload\n      dup2\n      mstore\n      swap1\n      0x01\n      add\n      swap1\n      0x20\n      add\n      dup1\n      dup4\n      gt\n      tag_141\n      jumpi\n      dup3\n      swap1\n      sub\n      0x1f\n      and\n      dup3\n      add\n      swap2\n    tag_139:\n      pop\n      pop\n      pop\n      pop\n      pop\n      swap1\n      dup1\n      0x02\n      add\n      dup1\n      sload\n      tag_142\n      swap1\n      tag_68\n      jump\t// in\n    tag_142:\n      dup1\n      0x1f\n      add\n      0x20\n      dup1\n      swap2\n      div\n      mul\n      0x20\n      add\n      mload(0x40)\n      swap1\n      dup2\n      add\n      0x40\n      mstore\n      dup1\n      swap3\n      swap2\n      swap1\n      dup2\n      dup2\n      mstore\n      0x20\n      add\n      dup3\n      dup1\n      sload\n      tag_143\n      swap1\n      tag_68\n      jump\t// in\n    tag_143:\n      dup1\n      iszero\n      tag_144\n      jumpi\n      dup1\n      0x1f\n      lt\n      tag_145\n      jumpi\n      0x0100\n      dup1\n      dup4\n      sload\n      div\n      mul\n      dup4\n      mstore\n      swap2\n      0x20\n      add\n      swap2\n      jump(tag_144)\n    tag_145:\n      dup3\n      add\n      swap2\n      swap1\n      0x00\n      mstore\n      keccak256(0x00, 0x20)\n      swap1\n    tag_146:\n      dup2\n      sload\n      dup2\n      mstore\n      swap1\n      0x01\n      add\n      swap1\n      0x20\n      add\n      dup1\n      dup4\n      gt\n      tag_146\n      jumpi\n      dup3\n      swap1\n      sub\n      0x1f\n      and\n      dup3\n      add\n      swap2\n    tag_144:\n      pop\n      pop\n      pop\n      pop\n      pop\n      swap1\n      dup1\n      0x03\n      add\n      sload\n      swap1\n      dup1\n      0x04\n      add\n      0x00\n      swap1\n      sload\n      swap1\n      0x0100\n      exp\n      swap1\n      div\n      0xffffffffffffffffffffffffffffffffffffffff\n      and\n      swap1\n      dup1\n      0x04\n      add\n      0x14\n      swap1\n      sload\n      swap1\n      0x0100\n      exp\n      swap1\n      div\n      0xff\n      and\n      swap1\n      dup1\n      0x04\n      add\n      0x15\n      swap1\n      sload\n      swap1\n      0x0100\n      exp\n      swap1\n      div\n      0xff\n      and\n      swap1\n      pop\n      dup8\n      jump\t// out\n        /* \"contracts/DeviceRegistry.sol\":90:108  address public oem */\n    tag_51:\n      0x00\n      dup1\n      sload\n      swap1\n      0x0100\n      exp\n      swap1\n      div\n      0xffffffffffffffffffffffffffffffffffffffff\n      and\n      dup2\n      jump\t// out\n        /* \"contracts/DeviceRegistry.sol\":2401:2591  function componentExists(string memory _partNumber) public view returns (bool) {... */\n    tag_56:\n        /* \"contracts/DeviceRegistry.sol\":2474:2478  bool */\n      0x00\n        /* \"contracts/DeviceRegistry.sol\":2491:2501  bytes32 id */\n      dup1\n        /* \"contracts/DeviceRegistry.sol\":2531:2542  _partNumber */\n      dup3\n        /* \"contracts/DeviceRegistry.sol\":2514:2543  abi.encodePacked(_partNumber) */\n      add(0x20, mload(0x40))\n      tag_148\n      swap2\n      swap1\n      tag_60\n      jump\t// in\n    tag_148:\n      mload(0x40)\n      0x20\n      dup2\n      dup4\n      sub\n      sub\n      dup2\n      mstore\n      swap1\n      0x40\n      mstore\n        /* \"contracts/DeviceRegistry.sol\":2504:2544  keccak256(abi.encodePacked(_partNumber)) */\n      dup1\n      mload\n      swap1\n      0x20\n      add\n      keccak256\n        /* \"contracts/DeviceRegistry.sol\":2491:2544  bytes32 id = keccak256(abi.encodePacked(_partNumber)) */\n      swap1\n      pop\n        /* \"contracts/DeviceRegistry.sol\":2562:2572  components */\n      0x02\n        /* \"contracts/DeviceRegistry.sol\":2562:2576  components[id] */\n      0x00\n        /* \"contracts/DeviceRegistry.sol\":2573:2575  id */\n      dup3\n        /* \"contracts/DeviceRegistry.sol\":2562:2576  components[id] */\n      dup2\n      mstore\n      0x20\n      add\n      swap1\n      dup2\n      mstore\n      0x20\n      add\n      0x00\n      keccak256\n        /* \"contracts/DeviceRegistry.sol\":2562:2583  components[id].exists */\n      0x03\n      add\n      0x00\n      swap1\n      sload\n      swap1\n      0x0100\n      exp\n      swap1\n      div\n      0xff\n      and\n        /* \"contracts/DeviceRegistry.sol\":2555:2583  return components[id].exists */\n      swap2\n      pop\n      pop\n        /* \"contracts/DeviceRegistry.sol\":2401:2591  function componentExists(string memory _partNumber) public view returns (bool) {... */\n      swap2\n      swap1\n      pop\n      jump\t// out\n        /* \"#utility.yul\":7:82   */\n    tag_149:\n        /* \"#utility.yul\":40:46   */\n      0x00\n        /* \"#utility.yul\":73:75   */\n      0x40\n        /* \"#utility.yul\":67:76   */\n      mload\n        /* \"#utility.yul\":57:76   */\n      swap1\n      pop\n        /* \"#utility.yul\":7:82   */\n      swap1\n      jump\t// out\n        /* \"#utility.yul\":88:205   */\n    tag_150:\n        /* \"#utility.yul\":197:198   */\n      0x00\n        /* \"#utility.yul\":194:195   */\n      dup1\n        /* \"#utility.yul\":187:199   */\n      revert\n        /* \"#utility.yul\":211:328   */\n    tag_151:\n        /* \"#utility.yul\":320:321   */\n      0x00\n        /* \"#utility.yul\":317:318   */\n      dup1\n        /* \"#utility.yul\":310:322   */\n      revert\n        /* \"#utility.yul\":334:451   */\n    tag_152:\n        /* \"#utility.yul\":443:444   */\n      0x00\n        /* \"#utility.yul\":440:441   */\n      dup1\n        /* \"#utility.yul\":433:445   */\n      revert\n        /* \"#utility.yul\":457:574   */\n    tag_153:\n        /* \"#utility.yul\":566:567   */\n      0x00\n        /* \"#utility.yul\":563:564   */\n      dup1\n        /* \"#utility.yul\":556:568   */\n      revert\n        /* \"#utility.yul\":580:682   */\n    tag_154:\n        /* \"#utility.yul\":621:627   */\n      0x00\n        /* \"#utility.yul\":672:674   */\n      0x1f\n        /* \"#utility.yul\":668:675   */\n      not\n        /* \"#utility.yul\":663:665   */\n      0x1f\n        /* \"#utility.yul\":656:661   */\n      dup4\n        /* \"#utility.yul\":652:666   */\n      add\n        /* \"#utility.yul\":648:676   */\n      and\n        /* \"#utility.yul\":638:676   */\n      swap1\n      pop\n        /* \"#utility.yul\":580:682   */\n      swap2\n      swap1\n      pop\n      jump\t// out\n        /* \"#utility.yul\":688:868   */\n    tag_155:\n        /* \"#utility.yul\":736:813   */\n      0x4e487b7100000000000000000000000000000000000000000000000000000000\n        /* \"#utility.yul\":733:734   */\n      0x00\n        /* \"#utility.yul\":726:814   */\n      mstore\n        /* \"#utility.yul\":833:837   */\n      0x41\n        /* \"#utility.yul\":830:831   */\n      0x04\n        /* \"#utility.yul\":823:838   */\n      mstore\n        /* \"#utility.yul\":857:861   */\n      0x24\n        /* \"#utility.yul\":854:855   */\n      0x00\n        /* \"#utility.yul\":847:862   */\n      revert\n        /* \"#utility.yul\":874:1155   */\n    tag_156:\n        /* \"#utility.yul\":957:984   */\n      tag_219\n        /* \"#utility.yul\":979:983   */\n      dup3\n        /* \"#utility.yul\":957:984   */\n      tag_154\n      jump\t// in\n    tag_219:\n        /* \"#utility.yul\":949:955   */\n      dup2\n        /* \"#utility.yul\":945:985   */\n      add\n        /* \"#utility.yul\":1087:1093   */\n      dup2\n        /* \"#utility.yul\":1075:1085   */\n      dup2\n        /* \"#utility.yul\":1072:1094   */\n      lt\n        /* \"#utility.yul\":1051:1069   */\n      0xffffffffffffffff\n        /* \"#utility.yul\":1039:1049   */\n      dup3\n        /* \"#utility.yul\":1036:1070   */\n      gt\n        /* \"#utility.yul\":1033:1095   */\n      or\n        /* \"#utility.yul\":1030:1118   */\n      iszero\n      tag_220\n      jumpi\n        /* \"#utility.yul\":1098:1116   */\n      tag_221\n      tag_155\n      jump\t// in\n    tag_221:\n        /* \"#utility.yul\":1030:1118   */\n    tag_220:\n        /* \"#utility.yul\":1138:1148   */\n      dup1\n        /* \"#utility.yul\":1134:1136   */\n      0x40\n        /* \"#utility.yul\":1127:1149   */\n      mstore\n        /* \"#utility.yul\":917:1155   */\n      pop\n        /* \"#utility.yul\":874:1155   */\n      pop\n      pop\n      jump\t// out\n        /* \"#utility.yul\":1161:1290   */\n    tag_157:\n        /* \"#utility.yul\":1195:1201   */\n      0x00\n        /* \"#utility.yul\":1222:1242   */\n      tag_223\n      tag_149\n      jump\t// in\n    tag_223:\n        /* \"#utility.yul\":1212:1242   */\n      swap1\n      pop\n        /* \"#utility.yul\":1251:1284   */\n      tag_224\n        /* \"#utility.yul\":1279:1283   */\n      dup3\n        /* \"#utility.yul\":1271:1277   */\n      dup3\n        /* \"#utility.yul\":1251:1284   */\n      tag_156\n      jump\t// in\n    tag_224:\n        /* \"#utility.yul\":1161:1290   */\n      swap2\n      swap1\n      pop\n      jump\t// out\n        /* \"#utility.yul\":1296:1604   */\n    tag_158:\n        /* \"#utility.yul\":1358:1362   */\n      0x00\n        /* \"#utility.yul\":1448:1466   */\n      0xffffffffffffffff\n        /* \"#utility.yul\":1440:1446   */\n      dup3\n        /* \"#utility.yul\":1437:1467   */\n      gt\n        /* \"#utility.yul\":1434:1490   */\n      iszero\n      tag_226\n      jumpi\n        /* \"#utility.yul\":1470:1488   */\n      tag_227\n      tag_155\n      jump\t// in\n    tag_227:\n        /* \"#utility.yul\":1434:1490   */\n    tag_226:\n        /* \"#utility.yul\":1508:1537   */\n      tag_228\n        /* \"#utility.yul\":1530:1536   */\n      dup3\n        /* \"#utility.yul\":1508:1537   */\n      tag_154\n      jump\t// in\n    tag_228:\n        /* \"#utility.yul\":1500:1537   */\n      swap1\n      pop\n        /* \"#utility.yul\":1592:1596   */\n      0x20\n        /* \"#utility.yul\":1586:1590   */\n      dup2\n        /* \"#utility.yul\":1582:1597   */\n      add\n        /* \"#utility.yul\":1574:1597   */\n      swap1\n      pop\n        /* \"#utility.yul\":1296:1604   */\n      swap2\n      swap1\n      pop\n      jump\t// out\n        /* \"#utility.yul\":1610:1758   */\n    tag_159:\n        /* \"#utility.yul\":1708:1714   */\n      dup3\n        /* \"#utility.yul\":1703:1706   */\n      dup2\n        /* \"#utility.yul\":1698:1701   */\n      dup4\n        /* \"#utility.yul\":1685:1715   */\n      calldatacopy\n        /* \"#utility.yul\":1749:1750   */\n      0x00\n        /* \"#utility.yul\":1740:1746   */\n      dup4\n        /* \"#utility.yul\":1735:1738   */\n      dup4\n        /* \"#utility.yul\":1731:1747   */\n      add\n        /* \"#utility.yul\":1724:1751   */\n      mstore\n        /* \"#utility.yul\":1610:1758   */\n      pop\n      pop\n      pop\n      jump\t// out\n        /* \"#utility.yul\":1764:2189   */\n    tag_160:\n        /* \"#utility.yul\":1842:1847   */\n      0x00\n        /* \"#utility.yul\":1867:1933   */\n      tag_231\n        /* \"#utility.yul\":1883:1932   */\n      tag_232\n        /* \"#utility.yul\":1925:1931   */\n      dup5\n        /* \"#utility.yul\":1883:1932   */\n      tag_158\n      jump\t// in\n    tag_232:\n        /* \"#utility.yul\":1867:1933   */\n      tag_157\n      jump\t// in\n    tag_231:\n        /* \"#utility.yul\":1858:1933   */\n      swap1\n      pop\n        /* \"#utility.yul\":1956:1962   */\n      dup3\n        /* \"#utility.yul\":1949:1954   */\n      dup2\n        /* \"#utility.yul\":1942:1963   */\n      mstore\n        /* \"#utility.yul\":1994:1998   */\n      0x20\n        /* \"#utility.yul\":1987:1992   */\n      dup2\n        /* \"#utility.yul\":1983:1999   */\n      add\n        /* \"#utility.yul\":2032:2035   */\n      dup5\n        /* \"#utility.yul\":2023:2029   */\n      dup5\n        /* \"#utility.yul\":2018:2021   */\n      dup5\n        /* \"#utility.yul\":2014:2030   */\n      add\n        /* \"#utility.yul\":2011:2036   */\n      gt\n        /* \"#utility.yul\":2008:2120   */\n      iszero\n      tag_233\n      jumpi\n        /* \"#utility.yul\":2039:2118   */\n      tag_234\n      tag_153\n      jump\t// in\n    tag_234:\n        /* \"#utility.yul\":2008:2120   */\n    tag_233:\n        /* \"#utility.yul\":2129:2183   */\n      tag_235\n        /* \"#utility.yul\":2176:2182   */\n      dup5\n        /* \"#utility.yul\":2171:2174   */\n      dup3\n        /* \"#utility.yul\":2166:2169   */\n      dup6\n        /* \"#utility.yul\":2129:2183   */\n      tag_159\n      jump\t// in\n    tag_235:\n        /* \"#utility.yul\":1848:2189   */\n      pop\n        /* \"#utility.yul\":1764:2189   */\n      swap4\n      swap3\n      pop\n      pop\n      pop\n      jump\t// out\n        /* \"#utility.yul\":2209:2549   */\n    tag_161:\n        /* \"#utility.yul\":2265:2270   */\n      0x00\n        /* \"#utility.yul\":2314:2317   */\n      dup3\n        /* \"#utility.yul\":2307:2311   */\n      0x1f\n        /* \"#utility.yul\":2299:2305   */\n      dup4\n        /* \"#utility.yul\":2295:2312   */\n      add\n        /* \"#utility.yul\":2291:2318   */\n      slt\n        /* \"#utility.yul\":2281:2403   */\n      tag_237\n      jumpi\n        /* \"#utility.yul\":2322:2401   */\n      tag_238\n      tag_152\n      jump\t// in\n    tag_238:\n        /* \"#utility.yul\":2281:2403   */\n    tag_237:\n        /* \"#utility.yul\":2439:2445   */\n      dup2\n        /* \"#utility.yul\":2426:2446   */\n      calldataload\n        /* \"#utility.yul\":2464:2543   */\n      tag_239\n        /* \"#utility.yul\":2539:2542   */\n      dup5\n        /* \"#utility.yul\":2531:2537   */\n      dup3\n        /* \"#utility.yul\":2524:2528   */\n      0x20\n        /* \"#utility.yul\":2516:2522   */\n      dup7\n        /* \"#utility.yul\":2512:2529   */\n      add\n        /* \"#utility.yul\":2464:2543   */\n      tag_160\n      jump\t// in\n    tag_239:\n        /* \"#utility.yul\":2455:2543   */\n      swap2\n      pop\n        /* \"#utility.yul\":2271:2549   */\n      pop\n        /* \"#utility.yul\":2209:2549   */\n      swap3\n      swap2\n      pop\n      pop\n      jump\t// out\n        /* \"#utility.yul\":2555:3064   */\n    tag_16:\n        /* \"#utility.yul\":2624:2630   */\n      0x00\n        /* \"#utility.yul\":2673:2675   */\n      0x20\n        /* \"#utility.yul\":2661:2670   */\n      dup3\n        /* \"#utility.yul\":2652:2659   */\n      dup5\n        /* \"#utility.yul\":2648:2671   */\n      sub\n        /* \"#utility.yul\":2644:2676   */\n      slt\n        /* \"#utility.yul\":2641:2760   */\n      iszero\n      tag_241\n      jumpi\n        /* \"#utility.yul\":2679:2758   */\n      tag_242\n      tag_150\n      jump\t// in\n    tag_242:\n        /* \"#utility.yul\":2641:2760   */\n    tag_241:\n        /* \"#utility.yul\":2827:2828   */\n      0x00\n        /* \"#utility.yul\":2816:2825   */\n      dup3\n        /* \"#utility.yul\":2812:2829   */\n      add\n        /* \"#utility.yul\":2799:2830   */\n      calldataload\n        /* \"#utility.yul\":2857:2875   */\n      0xffffffffffffffff\n        /* \"#utility.yul\":2849:2855   */\n      dup2\n        /* \"#utility.yul\":2846:2876   */\n      gt\n        /* \"#utility.yul\":2843:2960   */\n      iszero\n      tag_243\n      jumpi\n        /* \"#utility.yul\":2879:2958   */\n      tag_244\n      tag_151\n      jump\t// in\n    tag_244:\n        /* \"#utility.yul\":2843:2960   */\n    tag_243:\n        /* \"#utility.yul\":2984:3047   */\n      tag_245\n        /* \"#utility.yul\":3039:3046   */\n      dup5\n        /* \"#utility.yul\":3030:3036   */\n      dup3\n        /* \"#utility.yul\":3019:3028   */\n      dup6\n        /* \"#utility.yul\":3015:3037   */\n      add\n        /* \"#utility.yul\":2984:3047   */\n      tag_161\n      jump\t// in\n    tag_245:\n        /* \"#utility.yul\":2974:3047   */\n      swap2\n      pop\n        /* \"#utility.yul\":2770:3057   */\n      pop\n        /* \"#utility.yul\":2555:3064   */\n      swap3\n      swap2\n      pop\n      pop\n      jump\t// out\n        /* \"#utility.yul\":3070:3147   */\n    tag_162:\n        /* \"#utility.yul\":3107:3114   */\n      0x00\n        /* \"#utility.yul\":3136:3141   */\n      dup2\n        /* \"#utility.yul\":3125:3141   */\n      swap1\n      pop\n        /* \"#utility.yul\":3070:3147   */\n      swap2\n      swap1\n      pop\n      jump\t// out\n        /* \"#utility.yul\":3153:3275   */\n    tag_163:\n        /* \"#utility.yul\":3226:3250   */\n      tag_248\n        /* \"#utility.yul\":3244:3249   */\n      dup2\n        /* \"#utility.yul\":3226:3250   */\n      tag_162\n      jump\t// in\n    tag_248:\n        /* \"#utility.yul\":3219:3224   */\n      dup2\n        /* \"#utility.yul\":3216:3251   */\n      eq\n        /* \"#utility.yul\":3206:3269   */\n      tag_249\n      jumpi\n        /* \"#utility.yul\":3265:3266   */\n      0x00\n        /* \"#utility.yul\":3262:3263   */\n      dup1\n        /* \"#utility.yul\":3255:3267   */\n      revert\n        /* \"#utility.yul\":3206:3269   */\n    tag_249:\n        /* \"#utility.yul\":3153:3275   */\n      pop\n      jump\t// out\n        /* \"#utility.yul\":3281:3420   */\n    tag_164:\n        /* \"#utility.yul\":3327:3332   */\n      0x00\n        /* \"#utility.yul\":3365:3371   */\n      dup2\n        /* \"#utility.yul\":3352:3372   */\n      calldataload\n        /* \"#utility.yul\":3343:3372   */\n      swap1\n      pop\n        /* \"#utility.yul\":3381:3414   */\n      tag_251\n        /* \"#utility.yul\":3408:3413   */\n      dup2\n        /* \"#utility.yul\":3381:3414   */\n      tag_163\n      jump\t// in\n    tag_251:\n        /* \"#utility.yul\":3281:3420   */\n      swap3\n      swap2\n      pop\n      pop\n      jump\t// out\n        /* \"#utility.yul\":3426:3755   */\n    tag_20:\n        /* \"#utility.yul\":3485:3491   */\n      0x00\n        /* \"#utility.yul\":3534:3536   */\n      0x20\n        /* \"#utility.yul\":3522:3531   */\n      dup3\n        /* \"#utility.yul\":3513:3520   */\n      dup5\n        /* \"#utility.yul\":3509:3532   */\n      sub\n        /* \"#utility.yul\":3505:3537   */\n      slt\n        /* \"#utility.yul\":3502:3621   */\n      iszero\n      tag_253\n      jumpi\n        /* \"#utility.yul\":3540:3619   */\n      tag_254\n      tag_150\n      jump\t// in\n    tag_254:\n        /* \"#utility.yul\":3502:3621   */\n    tag_253:\n        /* \"#utility.yul\":3660:3661   */\n      0x00\n        /* \"#utility.yul\":3685:3738   */\n      tag_255\n        /* \"#utility.yul\":3730:3737   */\n      dup5\n        /* \"#utility.yul\":3721:3727   */\n      dup3\n        /* \"#utility.yul\":3710:3719   */\n      dup6\n        /* \"#utility.yul\":3706:3728   */\n      add\n        /* \"#utility.yul\":3685:3738   */\n      tag_164\n      jump\t// in\n    tag_255:\n        /* \"#utility.yul\":3675:3738   */\n      swap2\n      pop\n        /* \"#utility.yul\":3631:3748   */\n      pop\n        /* \"#utility.yul\":3426:3755   */\n      swap3\n      swap2\n      pop\n      pop\n      jump\t// out\n        /* \"#utility.yul\":3761:3860   */\n    tag_165:\n        /* \"#utility.yul\":3813:3819   */\n      0x00\n        /* \"#utility.yul\":3847:3852   */\n      dup2\n        /* \"#utility.yul\":3841:3853   */\n      mload\n        /* \"#utility.yul\":3831:3853   */\n      swap1\n      pop\n        /* \"#utility.yul\":3761:3860   */\n      swap2\n      swap1\n      pop\n      jump\t// out\n        /* \"#utility.yul\":3866:4035   */\n    tag_166:\n        /* \"#utility.yul\":3950:3961   */\n      0x00\n        /* \"#utility.yul\":3984:3990   */\n      dup3\n        /* \"#utility.yul\":3979:3982   */\n      dup3\n        /* \"#utility.yul\":3972:3991   */\n      mstore\n        /* \"#utility.yul\":4024:4028   */\n      0x20\n        /* \"#utility.yul\":4019:4022   */\n      dup3\n        /* \"#utility.yul\":4015:4029   */\n      add\n        /* \"#utility.yul\":4000:4029   */\n      swap1\n      pop\n        /* \"#utility.yul\":3866:4035   */\n      swap3\n      swap2\n      pop\n      pop\n      jump\t// out\n        /* \"#utility.yul\":4041:4289   */\n    tag_167:\n        /* \"#utility.yul\":4123:4124   */\n      0x00\n        /* \"#utility.yul\":4133:4246   */\n    tag_259:\n        /* \"#utility.yul\":4147:4153   */\n      dup4\n        /* \"#utility.yul\":4144:4145   */\n      dup2\n        /* \"#utility.yul\":4141:4154   */\n      lt\n        /* \"#utility.yul\":4133:4246   */\n      iszero\n      tag_261\n      jumpi\n        /* \"#utility.yul\":4232:4233   */\n      dup1\n        /* \"#utility.yul\":4227:4230   */\n      dup3\n        /* \"#utility.yul\":4223:4234   */\n      add\n        /* \"#utility.yul\":4217:4235   */\n      mload\n        /* \"#utility.yul\":4213:4214   */\n      dup2\n        /* \"#utility.yul\":4208:4211   */\n      dup5\n        /* \"#utility.yul\":4204:4215   */\n      add\n        /* \"#utility.yul\":4197:4236   */\n      mstore\n        /* \"#utility.yul\":4169:4171   */\n      0x20\n        /* \"#utility.yul\":4166:4167   */\n      dup2\n        /* \"#utility.yul\":4162:4172   */\n      add\n        /* \"#utility.yul\":4157:4172   */\n      swap1\n      pop\n        /* \"#utility.yul\":4133:4246   */\n      jump(tag_259)\n    tag_261:\n        /* \"#utility.yul\":4280:4281   */\n      0x00\n        /* \"#utility.yul\":4271:4277   */\n      dup5\n        /* \"#utility.yul\":4266:4269   */\n      dup5\n        /* \"#utility.yul\":4262:4278   */\n      add\n        /* \"#utility.yul\":4255:4282   */\n      mstore\n        /* \"#utility.yul\":4103:4289   */\n      pop\n        /* \"#utility.yul\":4041:4289   */\n      pop\n      pop\n      pop\n      jump\t// out\n        /* \"#utility.yul\":4295:4672   */\n    tag_168:\n        /* \"#utility.yul\":4383:4386   */\n      0x00\n        /* \"#utility.yul\":4411:4450   */\n      tag_263\n        /* \"#utility.yul\":4444:4449   */\n      dup3\n        /* \"#utility.yul\":4411:4450   */\n      tag_165\n      jump\t// in\n    tag_263:\n        /* \"#utility.yul\":4466:4537   */\n      tag_264\n        /* \"#utility.yul\":4530:4536   */\n      dup2\n        /* \"#utility.yul\":4525:4528   */\n      dup6\n        /* \"#utility.yul\":4466:4537   */\n      tag_166\n      jump\t// in\n    tag_264:\n        /* \"#utility.yul\":4459:4537   */\n      swap4\n      pop\n        /* \"#utility.yul\":4546:4611   */\n      tag_265\n        /* \"#utility.yul\":4604:4610   */\n      dup2\n        /* \"#utility.yul\":4599:4602   */\n      dup6\n        /* \"#utility.yul\":4592:4596   */\n      0x20\n        /* \"#utility.yul\":4585:4590   */\n      dup7\n        /* \"#utility.yul\":4581:4597   */\n      add\n        /* \"#utility.yul\":4546:4611   */\n      tag_167\n      jump\t// in\n    tag_265:\n        /* \"#utility.yul\":4636:4665   */\n      tag_266\n        /* \"#utility.yul\":4658:4664   */\n      dup2\n        /* \"#utility.yul\":4636:4665   */\n      tag_154\n      jump\t// in\n    tag_266:\n        /* \"#utility.yul\":4631:4634   */\n      dup5\n        /* \"#utility.yul\":4627:4666   */\n      add\n        /* \"#utility.yul\":4620:4666   */\n      swap2\n      pop\n        /* \"#utility.yul\":4387:4672   */\n      pop\n        /* \"#utility.yul\":4295:4672   */\n      swap3\n      swap2\n      pop\n      pop\n      jump\t// out\n        /* \"#utility.yul\":4678:4755   */\n    tag_169:\n        /* \"#utility.yul\":4715:4722   */\n      0x00\n        /* \"#utility.yul\":4744:4749   */\n      dup2\n        /* \"#utility.yul\":4733:4749   */\n      swap1\n      pop\n        /* \"#utility.yul\":4678:4755   */\n      swap2\n      swap1\n      pop\n      jump\t// out\n        /* \"#utility.yul\":4761:4879   */\n    tag_170:\n        /* \"#utility.yul\":4848:4872   */\n      tag_269\n        /* \"#utility.yul\":4866:4871   */\n      dup2\n        /* \"#utility.yul\":4848:4872   */\n      tag_169\n      jump\t// in\n    tag_269:\n        /* \"#utility.yul\":4843:4846   */\n      dup3\n        /* \"#utility.yul\":4836:4873   */\n      mstore\n        /* \"#utility.yul\":4761:4879   */\n      pop\n      pop\n      jump\t// out\n        /* \"#utility.yul\":4885:4975   */\n    tag_171:\n        /* \"#utility.yul\":4919:4926   */\n      0x00\n        /* \"#utility.yul\":4962:4967   */\n      dup2\n        /* \"#utility.yul\":4955:4968   */\n      iszero\n        /* \"#utility.yul\":4948:4969   */\n      iszero\n        /* \"#utility.yul\":4937:4969   */\n      swap1\n      pop\n        /* \"#utility.yul\":4885:4975   */\n      swap2\n      swap1\n      pop\n      jump\t// out\n        /* \"#utility.yul\":4981:5090   */\n    tag_172:\n        /* \"#utility.yul\":5062:5083   */\n      tag_272\n        /* \"#utility.yul\":5077:5082   */\n      dup2\n        /* \"#utility.yul\":5062:5083   */\n      tag_171\n      jump\t// in\n    tag_272:\n        /* \"#utility.yul\":5057:5060   */\n      dup3\n        /* \"#utility.yul\":5050:5084   */\n      mstore\n        /* \"#utility.yul\":4981:5090   */\n      pop\n      pop\n      jump\t// out\n        /* \"#utility.yul\":5096:5819   */\n    tag_23:\n        /* \"#utility.yul\":5307:5311   */\n      0x00\n        /* \"#utility.yul\":5345:5348   */\n      0x80\n        /* \"#utility.yul\":5334:5343   */\n      dup3\n        /* \"#utility.yul\":5330:5349   */\n      add\n        /* \"#utility.yul\":5322:5349   */\n      swap1\n      pop\n        /* \"#utility.yul\":5395:5404   */\n      dup2\n        /* \"#utility.yul\":5389:5393   */\n      dup2\n        /* \"#utility.yul\":5385:5405   */\n      sub\n        /* \"#utility.yul\":5381:5382   */\n      0x00\n        /* \"#utility.yul\":5370:5379   */\n      dup4\n        /* \"#utility.yul\":5366:5383   */\n      add\n        /* \"#utility.yul\":5359:5406   */\n      mstore\n        /* \"#utility.yul\":5423:5501   */\n      tag_274\n        /* \"#utility.yul\":5496:5500   */\n      dup2\n        /* \"#utility.yul\":5487:5493   */\n      dup8\n        /* \"#utility.yul\":5423:5501   */\n      tag_168\n      jump\t// in\n    tag_274:\n        /* \"#utility.yul\":5415:5501   */\n      swap1\n      pop\n        /* \"#utility.yul\":5548:5557   */\n      dup2\n        /* \"#utility.yul\":5542:5546   */\n      dup2\n        /* \"#utility.yul\":5538:5558   */\n      sub\n        /* \"#utility.yul\":5533:5535   */\n      0x20\n        /* \"#utility.yul\":5522:5531   */\n      dup4\n        /* \"#utility.yul\":5518:5536   */\n      add\n        /* \"#utility.yul\":5511:5559   */\n      mstore\n        /* \"#utility.yul\":5576:5654   */\n      tag_275\n        /* \"#utility.yul\":5649:5653   */\n      dup2\n        /* \"#utility.yul\":5640:5646   */\n      dup7\n        /* \"#utility.yul\":5576:5654   */\n      tag_168\n      jump\t// in\n    tag_275:\n        /* \"#utility.yul\":5568:5654   */\n      swap1\n      pop\n        /* \"#utility.yul\":5664:5736   */\n      tag_276\n        /* \"#utility.yul\":5732:5734   */\n      0x40\n        /* \"#utility.yul\":5721:5730   */\n      dup4\n        /* \"#utility.yul\":5717:5735   */\n      add\n        /* \"#utility.yul\":5708:5714   */\n      dup6\n        /* \"#utility.yul\":5664:5736   */\n      tag_170\n      jump\t// in\n    tag_276:\n        /* \"#utility.yul\":5746:5812   */\n      tag_277\n        /* \"#utility.yul\":5808:5810   */\n      0x60\n        /* \"#utility.yul\":5797:5806   */\n      dup4\n        /* \"#utility.yul\":5793:5811   */\n      add\n        /* \"#utility.yul\":5784:5790   */\n      dup5\n        /* \"#utility.yul\":5746:5812   */\n      tag_172\n      jump\t// in\n    tag_277:\n        /* \"#utility.yul\":5096:5819   */\n      swap6\n      swap5\n      pop\n      pop\n      pop\n      pop\n      pop\n      jump\t// out\n        /* \"#utility.yul\":5825:6659   */\n    tag_26:\n        /* \"#utility.yul\":5913:5919   */\n      0x00\n        /* \"#utility.yul\":5921:5927   */\n      dup1\n        /* \"#utility.yul\":5970:5972   */\n      0x40\n        /* \"#utility.yul\":5958:5967   */\n      dup4\n        /* \"#utility.yul\":5949:5956   */\n      dup6\n        /* \"#utility.yul\":5945:5968   */\n      sub\n        /* \"#utility.yul\":5941:5973   */\n      slt\n        /* \"#utility.yul\":5938:6057   */\n      iszero\n      tag_279\n      jumpi\n        /* \"#utility.yul\":5976:6055   */\n      tag_280\n      tag_150\n      jump\t// in\n    tag_280:\n        /* \"#utility.yul\":5938:6057   */\n    tag_279:\n        /* \"#utility.yul\":6124:6125   */\n      0x00\n        /* \"#utility.yul\":6113:6122   */\n      dup4\n        /* \"#utility.yul\":6109:6126   */\n      add\n        /* \"#utility.yul\":6096:6127   */\n      calldataload\n        /* \"#utility.yul\":6154:6172   */\n      0xffffffffffffffff\n        /* \"#utility.yul\":6146:6152   */\n      dup2\n        /* \"#utility.yul\":6143:6173   */\n      gt\n        /* \"#utility.yul\":6140:6257   */\n      iszero\n      tag_281\n      jumpi\n        /* \"#utility.yul\":6176:6255   */\n      tag_282\n      tag_151\n      jump\t// in\n    tag_282:\n        /* \"#utility.yul\":6140:6257   */\n    tag_281:\n        /* \"#utility.yul\":6281:6344   */\n      tag_283\n        /* \"#utility.yul\":6336:6343   */\n      dup6\n        /* \"#utility.yul\":6327:6333   */\n      dup3\n        /* \"#utility.yul\":6316:6325   */\n      dup7\n        /* \"#utility.yul\":6312:6334   */\n      add\n        /* \"#utility.yul\":6281:6344   */\n      tag_161\n      jump\t// in\n    tag_283:\n        /* \"#utility.yul\":6271:6344   */\n      swap3\n      pop\n        /* \"#utility.yul\":6067:6354   */\n      pop\n        /* \"#utility.yul\":6421:6423   */\n      0x20\n        /* \"#utility.yul\":6410:6419   */\n      dup4\n        /* \"#utility.yul\":6406:6424   */\n      add\n        /* \"#utility.yul\":6393:6425   */\n      calldataload\n        /* \"#utility.yul\":6452:6470   */\n      0xffffffffffffffff\n        /* \"#utility.yul\":6444:6450   */\n      dup2\n        /* \"#utility.yul\":6441:6471   */\n      gt\n        /* \"#utility.yul\":6438:6555   */\n      iszero\n      tag_284\n      jumpi\n        /* \"#utility.yul\":6474:6553   */\n      tag_285\n      tag_151\n      jump\t// in\n    tag_285:\n        /* \"#utility.yul\":6438:6555   */\n    tag_284:\n        /* \"#utility.yul\":6579:6642   */\n      tag_286\n        /* \"#utility.yul\":6634:6641   */\n      dup6\n        /* \"#utility.yul\":6625:6631   */\n      dup3\n        /* \"#utility.yul\":6614:6623   */\n      dup7\n        /* \"#utility.yul\":6610:6632   */\n      add\n        /* \"#utility.yul\":6579:6642   */\n      tag_161\n      jump\t// in\n    tag_286:\n        /* \"#utility.yul\":6569:6642   */\n      swap2\n      pop\n        /* \"#utility.yul\":6364:6652   */\n      pop\n        /* \"#utility.yul\":5825:6659   */\n      swap3\n      pop\n      swap3\n      swap1\n      pop\n      jump\t// out\n        /* \"#utility.yul\":6665:6875   */\n    tag_32:\n        /* \"#utility.yul\":6752:6756   */\n      0x00\n        /* \"#utility.yul\":6790:6792   */\n      0x20\n        /* \"#utility.yul\":6779:6788   */\n      dup3\n        /* \"#utility.yul\":6775:6793   */\n      add\n        /* \"#utility.yul\":6767:6793   */\n      swap1\n      pop\n        /* \"#utility.yul\":6803:6868   */\n      tag_288\n        /* \"#utility.yul\":6865:6866   */\n      0x00\n        /* \"#utility.yul\":6854:6863   */\n      dup4\n        /* \"#utility.yul\":6850:6867   */\n      add\n        /* \"#utility.yul\":6841:6847   */\n      dup5\n        /* \"#utility.yul\":6803:6868   */\n      tag_172\n      jump\t// in\n    tag_288:\n        /* \"#utility.yul\":6665:6875   */\n      swap3\n      swap2\n      pop\n      pop\n      jump\t// out\n        /* \"#utility.yul\":6881:7007   */\n    tag_173:\n        /* \"#utility.yul\":6918:6925   */\n      0x00\n        /* \"#utility.yul\":6958:7000   */\n      0xffffffffffffffffffffffffffffffffffffffff\n        /* \"#utility.yul\":6951:6956   */\n      dup3\n        /* \"#utility.yul\":6947:7001   */\n      and\n        /* \"#utility.yul\":6936:7001   */\n      swap1\n      pop\n        /* \"#utility.yul\":6881:7007   */\n      swap2\n      swap1\n      pop\n      jump\t// out\n        /* \"#utility.yul\":7013:7109   */\n    tag_174:\n        /* \"#utility.yul\":7050:7057   */\n      0x00\n        /* \"#utility.yul\":7079:7103   */\n      tag_291\n        /* \"#utility.yul\":7097:7102   */\n      dup3\n        /* \"#utility.yul\":7079:7103   */\n      tag_173\n      jump\t// in\n    tag_291:\n        /* \"#utility.yul\":7068:7103   */\n      swap1\n      pop\n        /* \"#utility.yul\":7013:7109   */\n      swap2\n      swap1\n      pop\n      jump\t// out\n        /* \"#utility.yul\":7115:7233   */\n    tag_175:\n        /* \"#utility.yul\":7202:7226   */\n      tag_293\n        /* \"#utility.yul\":7220:7225   */\n      dup2\n        /* \"#utility.yul\":7202:7226   */\n      tag_174\n      jump\t// in\n    tag_293:\n        /* \"#utility.yul\":7197:7200   */\n      dup3\n        /* \"#utility.yul\":7190:7227   */\n      mstore\n        /* \"#utility.yul\":7115:7233   */\n      pop\n      pop\n      jump\t// out\n        /* \"#utility.yul\":7239:8374   */\n    tag_37:\n        /* \"#utility.yul\":7548:7552   */\n      0x00\n        /* \"#utility.yul\":7586:7589   */\n      0xe0\n        /* \"#utility.yul\":7575:7584   */\n      dup3\n        /* \"#utility.yul\":7571:7590   */\n      add\n        /* \"#utility.yul\":7563:7590   */\n      swap1\n      pop\n        /* \"#utility.yul\":7636:7645   */\n      dup2\n        /* \"#utility.yul\":7630:7634   */\n      dup2\n        /* \"#utility.yul\":7626:7646   */\n      sub\n        /* \"#utility.yul\":7622:7623   */\n      0x00\n        /* \"#utility.yul\":7611:7620   */\n      dup4\n        /* \"#utility.yul\":7607:7624   */\n      add\n        /* \"#utility.yul\":7600:7647   */\n      mstore\n        /* \"#utility.yul\":7664:7742   */\n      tag_295\n        /* \"#utility.yul\":7737:7741   */\n      dup2\n        /* \"#utility.yul\":7728:7734   */\n      dup11\n        /* \"#utility.yul\":7664:7742   */\n      tag_168\n      jump\t// in\n    tag_295:\n        /* \"#utility.yul\":7656:7742   */\n      swap1\n      pop\n        /* \"#utility.yul\":7789:7798   */\n      dup2\n        /* \"#utility.yul\":7783:7787   */\n      dup2\n        /* \"#utility.yul\":7779:7799   */\n      sub\n        /* \"#utility.yul\":7774:7776   */\n      0x20\n        /* \"#utility.yul\":7763:7772   */\n      dup4\n        /* \"#utility.yul\":7759:7777   */\n      add\n        /* \"#utility.yul\":7752:7800   */\n      mstore\n        /* \"#utility.yul\":7817:7895   */\n      tag_296\n        /* \"#utility.yul\":7890:7894   */\n      dup2\n        /* \"#utility.yul\":7881:7887   */\n      dup10\n        /* \"#utility.yul\":7817:7895   */\n      tag_168\n      jump\t// in\n    tag_296:\n        /* \"#utility.yul\":7809:7895   */\n      swap1\n      pop\n        /* \"#utility.yul\":7942:7951   */\n      dup2\n        /* \"#utility.yul\":7936:7940   */\n      dup2\n        /* \"#utility.yul\":7932:7952   */\n      sub\n        /* \"#utility.yul\":7927:7929   */\n      0x40\n        /* \"#utility.yul\":7916:7925   */\n      dup4\n        /* \"#utility.yul\":7912:7930   */\n      add\n        /* \"#utility.yul\":7905:7953   */\n      mstore\n        /* \"#utility.yul\":7970:8048   */\n      tag_297\n        /* \"#utility.yul\":8043:8047   */\n      dup2\n        /* \"#utility.yul\":8034:8040   */\n      dup9\n        /* \"#utility.yul\":7970:8048   */\n      tag_168\n      jump\t// in\n    tag_297:\n        /* \"#utility.yul\":7962:8048   */\n      swap1\n      pop\n        /* \"#utility.yul\":8058:8130   */\n      tag_298\n        /* \"#utility.yul\":8126:8128   */\n      0x60\n        /* \"#utility.yul\":8115:8124   */\n      dup4\n        /* \"#utility.yul\":8111:8129   */\n      add\n        /* \"#utility.yul\":8102:8108   */\n      dup8\n        /* \"#utility.yul\":8058:8130   */\n      tag_170\n      jump\t// in\n    tag_298:\n        /* \"#utility.yul\":8140:8213   */\n      tag_299\n        /* \"#utility.yul\":8208:8211   */\n      0x80\n        /* \"#utility.yul\":8197:8206   */\n      dup4\n        /* \"#utility.yul\":8193:8212   */\n      add\n        /* \"#utility.yul\":8184:8190   */\n      dup7\n        /* \"#utility.yul\":8140:8213   */\n      tag_175\n      jump\t// in\n    tag_299:\n        /* \"#utility.yul\":8223:8290   */\n      tag_300\n        /* \"#utility.yul\":8285:8288   */\n      0xa0\n        /* \"#utility.yul\":8274:8283   */\n      dup4\n        /* \"#utility.yul\":8270:8289   */\n      add\n        /* \"#utility.yul\":8261:8267   */\n      dup6\n        /* \"#utility.yul\":8223:8290   */\n      tag_172\n      jump\t// in\n    tag_300:\n        /* \"#utility.yul\":8300:8367   */\n      tag_301\n        /* \"#utility.yul\":8362:8365   */\n      0xc0\n        /* \"#utility.yul\":8351:8360   */\n      dup4\n        /* \"#utility.yul\":8347:8366   */\n      add\n        /* \"#utility.yul\":8338:8344   */\n      dup5\n        /* \"#utility.yul\":8300:8367   */\n      tag_172\n      jump\t// in\n    tag_301:\n        /* \"#utility.yul\":7239:8374   */\n      swap9\n      swap8\n      pop\n      pop\n      pop\n      pop\n      pop\n      pop\n      pop\n      pop\n      jump\t// out\n        /* \"#utility.yul\":8380:9539   */\n    tag_40:\n        /* \"#utility.yul\":8487:8493   */\n      0x00\n        /* \"#utility.yul\":8495:8501   */\n      dup1\n        /* \"#utility.yul\":8503:8509   */\n      0x00\n        /* \"#utility.yul\":8552:8554   */\n      0x60\n        /* \"#utility.yul\":8540:8549   */\n      dup5\n        /* \"#utility.yul\":8531:8538   */\n      dup7\n        /* \"#utility.yul\":8527:8550   */\n      sub\n        /* \"#utility.yul\":8523:8555   */\n      slt\n        /* \"#utility.yul\":8520:8639   */\n      iszero\n      tag_303\n      jumpi\n        /* \"#utility.yul\":8558:8637   */\n      tag_304\n      tag_150\n      jump\t// in\n    tag_304:\n        /* \"#utility.yul\":8520:8639   */\n    tag_303:\n        /* \"#utility.yul\":8706:8707   */\n      0x00\n        /* \"#utility.yul\":8695:8704   */\n      dup5\n        /* \"#utility.yul\":8691:8708   */\n      add\n        /* \"#utility.yul\":8678:8709   */\n      calldataload\n        /* \"#utility.yul\":8736:8754   */\n      0xffffffffffffffff\n        /* \"#utility.yul\":8728:8734   */\n      dup2\n        /* \"#utility.yul\":8725:8755   */\n      gt\n        /* \"#utility.yul\":8722:8839   */\n      iszero\n      tag_305\n      jumpi\n        /* \"#utility.yul\":8758:8837   */\n      tag_306\n      tag_151\n      jump\t// in\n    tag_306:\n        /* \"#utility.yul\":8722:8839   */\n    tag_305:\n        /* \"#utility.yul\":8863:8926   */\n      tag_307\n        /* \"#utility.yul\":8918:8925   */\n      dup7\n        /* \"#utility.yul\":8909:8915   */\n      dup3\n        /* \"#utility.yul\":8898:8907   */\n      dup8\n        /* \"#utility.yul\":8894:8916   */\n      add\n        /* \"#utility.yul\":8863:8926   */\n      tag_161\n      jump\t// in\n    tag_307:\n        /* \"#utility.yul\":8853:8926   */\n      swap4\n      pop\n        /* \"#utility.yul\":8649:8936   */\n      pop\n        /* \"#utility.yul\":9003:9005   */\n      0x20\n        /* \"#utility.yul\":8992:9001   */\n      dup5\n        /* \"#utility.yul\":8988:9006   */\n      add\n        /* \"#utility.yul\":8975:9007   */\n      calldataload\n        /* \"#utility.yul\":9034:9052   */\n      0xffffffffffffffff\n        /* \"#utility.yul\":9026:9032   */\n      dup2\n        /* \"#utility.yul\":9023:9053   */\n      gt\n        /* \"#utility.yul\":9020:9137   */\n      iszero\n      tag_308\n      jumpi\n        /* \"#utility.yul\":9056:9135   */\n      tag_309\n      tag_151\n      jump\t// in\n    tag_309:\n        /* \"#utility.yul\":9020:9137   */\n    tag_308:\n        /* \"#utility.yul\":9161:9224   */\n      tag_310\n        /* \"#utility.yul\":9216:9223   */\n      dup7\n        /* \"#utility.yul\":9207:9213   */\n      dup3\n        /* \"#utility.yul\":9196:9205   */\n      dup8\n        /* \"#utility.yul\":9192:9214   */\n      add\n        /* \"#utility.yul\":9161:9224   */\n      tag_161\n      jump\t// in\n    tag_310:\n        /* \"#utility.yul\":9151:9224   */\n      swap3\n      pop\n        /* \"#utility.yul\":8946:9234   */\n      pop\n        /* \"#utility.yul\":9301:9303   */\n      0x40\n        /* \"#utility.yul\":9290:9299   */\n      dup5\n        /* \"#utility.yul\":9286:9304   */\n      add\n        /* \"#utility.yul\":9273:9305   */\n      calldataload\n        /* \"#utility.yul\":9332:9350   */\n      0xffffffffffffffff\n        /* \"#utility.yul\":9324:9330   */\n      dup2\n        /* \"#utility.yul\":9321:9351   */\n      gt\n        /* \"#utility.yul\":9318:9435   */\n      iszero\n      tag_311\n      jumpi\n        /* \"#utility.yul\":9354:9433   */\n      tag_312\n      tag_151\n      jump\t// in\n    tag_312:\n        /* \"#utility.yul\":9318:9435   */\n    tag_311:\n        /* \"#utility.yul\":9459:9522   */\n      tag_313\n        /* \"#utility.yul\":9514:9521   */\n      dup7\n        /* \"#utility.yul\":9505:9511   */\n      dup3\n        /* \"#utility.yul\":9494:9503   */\n      dup8\n        /* \"#utility.yul\":9490:9512   */\n      add\n        /* \"#utility.yul\":9459:9522   */\n      tag_161\n      jump\t// in\n    tag_313:\n        /* \"#utility.yul\":9449:9522   */\n      swap2\n      pop\n        /* \"#utility.yul\":9244:9532   */\n      pop\n        /* \"#utility.yul\":8380:9539   */\n      swap3\n      pop\n      swap3\n      pop\n      swap3\n      jump\t// out\n        /* \"#utility.yul\":9545:9667   */\n    tag_176:\n        /* \"#utility.yul\":9618:9642   */\n      tag_315\n        /* \"#utility.yul\":9636:9641   */\n      dup2\n        /* \"#utility.yul\":9618:9642   */\n      tag_174\n      jump\t// in\n    tag_315:\n        /* \"#utility.yul\":9611:9616   */\n      dup2\n        /* \"#utility.yul\":9608:9643   */\n      eq\n        /* \"#utility.yul\":9598:9661   */\n      tag_316\n      jumpi\n        /* \"#utility.yul\":9657:9658   */\n      0x00\n        /* \"#utility.yul\":9654:9655   */\n      dup1\n        /* \"#utility.yul\":9647:9659   */\n      revert\n        /* \"#utility.yul\":9598:9661   */\n    tag_316:\n        /* \"#utility.yul\":9545:9667   */\n      pop\n      jump\t// out\n        /* \"#utility.yul\":9673:9812   */\n    tag_177:\n        /* \"#utility.yul\":9719:9724   */\n      0x00\n        /* \"#utility.yul\":9757:9763   */\n      dup2\n        /* \"#utility.yul\":9744:9764   */\n      calldataload\n        /* \"#utility.yul\":9735:9764   */\n      swap1\n      pop\n        /* \"#utility.yul\":9773:9806   */\n      tag_318\n        /* \"#utility.yul\":9800:9805   */\n      dup2\n        /* \"#utility.yul\":9773:9806   */\n      tag_176\n      jump\t// in\n    tag_318:\n        /* \"#utility.yul\":9673:9812   */\n      swap3\n      swap2\n      pop\n      pop\n      jump\t// out\n        /* \"#utility.yul\":9818:10472   */\n    tag_44:\n        /* \"#utility.yul\":9896:9902   */\n      0x00\n        /* \"#utility.yul\":9904:9910   */\n      dup1\n        /* \"#utility.yul\":9953:9955   */\n      0x40\n        /* \"#utility.yul\":9941:9950   */\n      dup4\n        /* \"#utility.yul\":9932:9939   */\n      dup6\n        /* \"#utility.yul\":9928:9951   */\n      sub\n        /* \"#utility.yul\":9924:9956   */\n      slt\n        /* \"#utility.yul\":9921:10040   */\n      iszero\n      tag_320\n      jumpi\n        /* \"#utility.yul\":9959:10038   */\n      tag_321\n      tag_150\n      jump\t// in\n    tag_321:\n        /* \"#utility.yul\":9921:10040   */\n    tag_320:\n        /* \"#utility.yul\":10107:10108   */\n      0x00\n        /* \"#utility.yul\":10096:10105   */\n      dup4\n        /* \"#utility.yul\":10092:10109   */\n      add\n        /* \"#utility.yul\":10079:10110   */\n      calldataload\n        /* \"#utility.yul\":10137:10155   */\n      0xffffffffffffffff\n        /* \"#utility.yul\":10129:10135   */\n      dup2\n        /* \"#utility.yul\":10126:10156   */\n      gt\n        /* \"#utility.yul\":10123:10240   */\n      iszero\n      tag_322\n      jumpi\n        /* \"#utility.yul\":10159:10238   */\n      tag_323\n      tag_151\n      jump\t// in\n    tag_323:\n        /* \"#utility.yul\":10123:10240   */\n    tag_322:\n        /* \"#utility.yul\":10264:10327   */\n      tag_324\n        /* \"#utility.yul\":10319:10326   */\n      dup6\n        /* \"#utility.yul\":10310:10316   */\n      dup3\n        /* \"#utility.yul\":10299:10308   */\n      dup7\n        /* \"#utility.yul\":10295:10317   */\n      add\n        /* \"#utility.yul\":10264:10327   */\n      tag_161\n      jump\t// in\n    tag_324:\n        /* \"#utility.yul\":10254:10327   */\n      swap3\n      pop\n        /* \"#utility.yul\":10050:10337   */\n      pop\n        /* \"#utility.yul\":10376:10378   */\n      0x20\n        /* \"#utility.yul\":10402:10455   */\n      tag_325\n        /* \"#utility.yul\":10447:10454   */\n      dup6\n        /* \"#utility.yul\":10438:10444   */\n      dup3\n        /* \"#utility.yul\":10427:10436   */\n      dup7\n        /* \"#utility.yul\":10423:10445   */\n      add\n        /* \"#utility.yul\":10402:10455   */\n      tag_177\n      jump\t// in\n    tag_325:\n        /* \"#utility.yul\":10392:10455   */\n      swap2\n      pop\n        /* \"#utility.yul\":10347:10465   */\n      pop\n        /* \"#utility.yul\":9818:10472   */\n      swap3\n      pop\n      swap3\n      swap1\n      pop\n      jump\t// out\n        /* \"#utility.yul\":10478:10700   */\n    tag_53:\n        /* \"#utility.yul\":10571:10575   */\n      0x00\n        /* \"#utility.yul\":10609:10611   */\n      0x20\n        /* \"#utility.yul\":10598:10607   */\n      dup3\n        /* \"#utility.yul\":10594:10612   */\n      add\n        /* \"#utility.yul\":10586:10612   */\n      swap1\n      pop\n        /* \"#utility.yul\":10622:10693   */\n      tag_327\n        /* \"#utility.yul\":10690:10691   */\n      0x00\n        /* \"#utility.yul\":10679:10688   */\n      dup4\n        /* \"#utility.yul\":10675:10692   */\n      add\n        /* \"#utility.yul\":10666:10672   */\n      dup5\n        /* \"#utility.yul\":10622:10693   */\n      tag_175\n      jump\t// in\n    tag_327:\n        /* \"#utility.yul\":10478:10700   */\n      swap3\n      swap2\n      pop\n      pop\n      jump\t// out\n        /* \"#utility.yul\":10706:10854   */\n    tag_178:\n        /* \"#utility.yul\":10808:10819   */\n      0x00\n        /* \"#utility.yul\":10845:10848   */\n      dup2\n        /* \"#utility.yul\":10830:10848   */\n      swap1\n      pop\n        /* \"#utility.yul\":10706:10854   */\n      swap3\n      swap2\n      pop\n      pop\n      jump\t// out\n        /* \"#utility.yul\":10860:11250   */\n    tag_179:\n        /* \"#utility.yul\":10966:10969   */\n      0x00\n        /* \"#utility.yul\":10994:11033   */\n      tag_330\n        /* \"#utility.yul\":11027:11032   */\n      dup3\n        /* \"#utility.yul\":10994:11033   */\n      tag_165\n      jump\t// in\n    tag_330:\n        /* \"#utility.yul\":11049:11138   */\n      tag_331\n        /* \"#utility.yul\":11131:11137   */\n      dup2\n        /* \"#utility.yul\":11126:11129   */\n      dup6\n        /* \"#utility.yul\":11049:11138   */\n      tag_178\n      jump\t// in\n    tag_331:\n        /* \"#utility.yul\":11042:11138   */\n      swap4\n      pop\n        /* \"#utility.yul\":11147:11212   */\n      tag_332\n        /* \"#utility.yul\":11205:11211   */\n      dup2\n        /* \"#utility.yul\":11200:11203   */\n      dup6\n        /* \"#utility.yul\":11193:11197   */\n      0x20\n        /* \"#utility.yul\":11186:11191   */\n      dup7\n        /* \"#utility.yul\":11182:11198   */\n      add\n        /* \"#utility.yul\":11147:11212   */\n      tag_167\n      jump\t// in\n    tag_332:\n        /* \"#utility.yul\":11237:11243   */\n      dup1\n        /* \"#utility.yul\":11232:11235   */\n      dup5\n        /* \"#utility.yul\":11228:11244   */\n      add\n        /* \"#utility.yul\":11221:11244   */\n      swap2\n      pop\n        /* \"#utility.yul\":10970:11250   */\n      pop\n        /* \"#utility.yul\":10860:11250   */\n      swap3\n      swap2\n      pop\n      pop\n      jump\t// out\n        /* \"#utility.yul\":11256:11531   */\n    tag_60:\n        /* \"#utility.yul\":11388:11391   */\n      0x00\n        /* \"#utility.yul\":11410:11505   */\n      tag_334\n        /* \"#utility.yul\":11501:11504   */\n      dup3\n        /* \"#utility.yul\":11492:11498   */\n      dup5\n        /* \"#utility.yul\":11410:11505   */\n      tag_179\n      jump\t// in\n    tag_334:\n        /* \"#utility.yul\":11403:11505   */\n      swap2\n      pop\n        /* \"#utility.yul\":11522:11525   */\n      dup2\n        /* \"#utility.yul\":11515:11525   */\n      swap1\n      pop\n        /* \"#utility.yul\":11256:11531   */\n      swap3\n      swap2\n      pop\n      pop\n      jump\t// out\n        /* \"#utility.yul\":11537:11703   */\n    tag_180:\n        /* \"#utility.yul\":11677:11695   */\n      0x446576696365206e6f7420666f756e6400000000000000000000000000000000\n        /* \"#utility.yul\":11673:11674   */\n      0x00\n        /* \"#utility.yul\":11665:11671   */\n      dup3\n        /* \"#utility.yul\":11661:11675   */\n      add\n        /* \"#utility.yul\":11654:11696   */\n      mstore\n        /* \"#utility.yul\":11537:11703   */\n      pop\n      jump\t// out\n        /* \"#utility.yul\":11709:12075   */\n    tag_181:\n        /* \"#utility.yul\":11851:11854   */\n      0x00\n        /* \"#utility.yul\":11872:11939   */\n      tag_337\n        /* \"#utility.yul\":11936:11938   */\n      0x10\n        /* \"#utility.yul\":11931:11934   */\n      dup4\n        /* \"#utility.yul\":11872:11939   */\n      tag_166\n      jump\t// in\n    tag_337:\n        /* \"#utility.yul\":11865:11939   */\n      swap2\n      pop\n        /* \"#utility.yul\":11948:12041   */\n      tag_338\n        /* \"#utility.yul\":12037:12040   */\n      dup3\n        /* \"#utility.yul\":11948:12041   */\n      tag_180\n      jump\t// in\n    tag_338:\n        /* \"#utility.yul\":12066:12068   */\n      0x20\n        /* \"#utility.yul\":12061:12064   */\n      dup3\n        /* \"#utility.yul\":12057:12069   */\n      add\n        /* \"#utility.yul\":12050:12069   */\n      swap1\n      pop\n        /* \"#utility.yul\":11709:12075   */\n      swap2\n      swap1\n      pop\n      jump\t// out\n        /* \"#utility.yul\":12081:12500   */\n    tag_63:\n        /* \"#utility.yul\":12247:12251   */\n      0x00\n        /* \"#utility.yul\":12285:12287   */\n      0x20\n        /* \"#utility.yul\":12274:12283   */\n      dup3\n        /* \"#utility.yul\":12270:12288   */\n      add\n        /* \"#utility.yul\":12262:12288   */\n      swap1\n      pop\n        /* \"#utility.yul\":12334:12343   */\n      dup2\n        /* \"#utility.yul\":12328:12332   */\n      dup2\n        /* \"#utility.yul\":12324:12344   */\n      sub\n        /* \"#utility.yul\":12320:12321   */\n      0x00\n        /* \"#utility.yul\":12309:12318   */\n      dup4\n        /* \"#utility.yul\":12305:12322   */\n      add\n        /* \"#utility.yul\":12298:12345   */\n      mstore\n        /* \"#utility.yul\":12362:12493   */\n      tag_340\n        /* \"#utility.yul\":12488:12492   */\n      dup2\n        /* \"#utility.yul\":12362:12493   */\n      tag_181\n      jump\t// in\n    tag_340:\n        /* \"#utility.yul\":12354:12493   */\n      swap1\n      pop\n        /* \"#utility.yul\":12081:12500   */\n      swap2\n      swap1\n      pop\n      jump\t// out\n        /* \"#utility.yul\":12506:12678   */\n    tag_182:\n        /* \"#utility.yul\":12646:12670   */\n      0x416c7265616479206465636f6d6d697373696f6e656400000000000000000000\n        /* \"#utility.yul\":12642:12643   */\n      0x00\n        /* \"#utility.yul\":12634:12640   */\n      dup3\n        /* \"#utility.yul\":12630:12644   */\n      add\n        /* \"#utility.yul\":12623:12671   */\n      mstore\n        /* \"#utility.yul\":12506:12678   */\n      pop\n      jump\t// out\n        /* \"#utility.yul\":12684:13050   */\n    tag_183:\n        /* \"#utility.yul\":12826:12829   */\n      0x00\n        /* \"#utility.yul\":12847:12914   */\n      tag_343\n        /* \"#utility.yul\":12911:12913   */\n      0x16\n        /* \"#utility.yul\":12906:12909   */\n      dup4\n        /* \"#utility.yul\":12847:12914   */\n      tag_166\n      jump\t// in\n    tag_343:\n        /* \"#utility.yul\":12840:12914   */\n      swap2\n      pop\n        /* \"#utility.yul\":12923:13016   */\n      tag_344\n        /* \"#utility.yul\":13012:13015   */\n      dup3\n        /* \"#utility.yul\":12923:13016   */\n      tag_182\n      jump\t// in\n    tag_344:\n        /* \"#utility.yul\":13041:13043   */\n      0x20\n        /* \"#utility.yul\":13036:13039   */\n      dup3\n        /* \"#utility.yul\":13032:13044   */\n      add\n        /* \"#utility.yul\":13025:13044   */\n      swap1\n      pop\n        /* \"#utility.yul\":12684:13050   */\n      swap2\n      swap1\n      pop\n      jump\t// out\n        /* \"#utility.yul\":13056:13475   */\n    tag_66:\n        /* \"#utility.yul\":13222:13226   */\n      0x00\n        /* \"#utility.yul\":13260:13262   */\n      0x20\n        /* \"#utility.yul\":13249:13258   */\n      dup3\n        /* \"#utility.yul\":13245:13263   */\n      add\n        /* \"#utility.yul\":13237:13263   */\n      swap1\n      pop\n        /* \"#utility.yul\":13309:13318   */\n      dup2\n        /* \"#utility.yul\":13303:13307   */\n      dup2\n        /* \"#utility.yul\":13299:13319   */\n      sub\n        /* \"#utility.yul\":13295:13296   */\n      0x00\n        /* \"#utility.yul\":13284:13293   */\n      dup4\n        /* \"#utility.yul\":13280:13297   */\n      add\n        /* \"#utility.yul\":13273:13320   */\n      mstore\n        /* \"#utility.yul\":13337:13468   */\n      tag_346\n        /* \"#utility.yul\":13463:13467   */\n      dup2\n        /* \"#utility.yul\":13337:13468   */\n      tag_183\n      jump\t// in\n    tag_346:\n        /* \"#utility.yul\":13329:13468   */\n      swap1\n      pop\n        /* \"#utility.yul\":13056:13475   */\n      swap2\n      swap1\n      pop\n      jump\t// out\n        /* \"#utility.yul\":13481:13661   */\n    tag_184:\n        /* \"#utility.yul\":13529:13606   */\n      0x4e487b7100000000000000000000000000000000000000000000000000000000\n        /* \"#utility.yul\":13526:13527   */\n      0x00\n        /* \"#utility.yul\":13519:13607   */\n      mstore\n        /* \"#utility.yul\":13626:13630   */\n      0x22\n        /* \"#utility.yul\":13623:13624   */\n      0x04\n        /* \"#utility.yul\":13616:13631   */\n      mstore\n        /* \"#utility.yul\":13650:13654   */\n      0x24\n        /* \"#utility.yul\":13647:13648   */\n      0x00\n        /* \"#utility.yul\":13640:13655   */\n      revert\n        /* \"#utility.yul\":13667:13987   */\n    tag_68:\n        /* \"#utility.yul\":13711:13717   */\n      0x00\n        /* \"#utility.yul\":13748:13749   */\n      0x02\n        /* \"#utility.yul\":13742:13746   */\n      dup3\n        /* \"#utility.yul\":13738:13750   */\n      div\n        /* \"#utility.yul\":13728:13750   */\n      swap1\n      pop\n        /* \"#utility.yul\":13795:13796   */\n      0x01\n        /* \"#utility.yul\":13789:13793   */\n      dup3\n        /* \"#utility.yul\":13785:13797   */\n      and\n        /* \"#utility.yul\":13816:13834   */\n      dup1\n        /* \"#utility.yul\":13806:13887   */\n      tag_349\n      jumpi\n        /* \"#utility.yul\":13872:13876   */\n      0x7f\n        /* \"#utility.yul\":13864:13870   */\n      dup3\n        /* \"#utility.yul\":13860:13877   */\n      and\n        /* \"#utility.yul\":13850:13877   */\n      swap2\n      pop\n        /* \"#utility.yul\":13806:13887   */\n    tag_349:\n        /* \"#utility.yul\":13934:13936   */\n      0x20\n        /* \"#utility.yul\":13926:13932   */\n      dup3\n        /* \"#utility.yul\":13923:13937   */\n      lt\n        /* \"#utility.yul\":13903:13921   */\n      dup2\n        /* \"#utility.yul\":13900:13938   */\n      sub\n        /* \"#utility.yul\":13897:13981   */\n      tag_350\n      jumpi\n        /* \"#utility.yul\":13953:13971   */\n      tag_351\n      tag_184\n      jump\t// in\n    tag_351:\n        /* \"#utility.yul\":13897:13981   */\n    tag_350:\n        /* \"#utility.yul\":13718:13987   */\n      pop\n        /* \"#utility.yul\":13667:13987   */\n      swap2\n      swap1\n      pop\n      jump\t// out\n        /* \"#utility.yul\":13993:14165   */\n    tag_185:\n        /* \"#utility.yul\":14133:14157   */\n      0x4f6e6c79204f454d2063616e2063616c6c207468697300000000000000000000\n        /* \"#utility.yul\":14129:14130   */\n      0x00\n        /* \"#utility.yul\":14121:14127   */\n      dup3\n        /* \"#utility.yul\":14117:14131   */\n      add\n        /* \"#utility.yul\":14110:14158   */\n      mstore\n        /* \"#utility.yul\":13993:14165   */\n      pop\n      jump\t// out\n        /* \"#utility.yul\":14171:14537   */\n    tag_186:\n        /* \"#utility.yul\":14313:14316   */\n      0x00\n        /* \"#utility.yul\":14334:14401   */\n      tag_354\n        /* \"#utility.yul\":14398:14400   */\n      0x16\n        /* \"#utility.yul\":14393:14396   */\n      dup4\n        /* \"#utility.yul\":14334:14401   */\n      tag_166\n      jump\t// in\n    tag_354:\n        /* \"#utility.yul\":14327:14401   */\n      swap2\n      pop\n        /* \"#utility.yul\":14410:14503   */\n      tag_355\n        /* \"#utility.yul\":14499:14502   */\n      dup3\n        /* \"#utility.yul\":14410:14503   */\n      tag_185\n      jump\t// in\n    tag_355:\n        /* \"#utility.yul\":14528:14530   */\n      0x20\n        /* \"#utility.yul\":14523:14526   */\n      dup3\n        /* \"#utility.yul\":14519:14531   */\n      add\n        /* \"#utility.yul\":14512:14531   */\n      swap1\n      pop\n        /* \"#utility.yul\":14171:14537   */\n      swap2\n      swap1\n      pop\n      jump\t// out\n        /* \"#utility.yul\":14543:14962   */\n    tag_81:\n        /* \"#utility.yul\":14709:14713   */\n      0x00\n        /* \"#utility.yul\":14747:14749   */\n      0x20\n        /* \"#utility.yul\":14736:14745   */\n      dup3\n        /* \"#utility.yul\":14732:14750   */\n      add\n        /* \"#utility.yul\":14724:14750   */\n      swap1\n      pop\n        /* \"#utility.yul\":14796:14805   */\n      dup2\n        /* \"#utility.yul\":14790:14794   */\n      dup2\n        /* \"#utility.yul\":14786:14806   */\n      sub\n        /* \"#utility.yul\":14782:14783   */\n      0x00\n        /* \"#utility.yul\":14771:14780   */\n      dup4\n        /* \"#utility.yul\":14767:14784   */\n      add\n        /* \"#utility.yul\":14760:14807   */\n      mstore\n        /* \"#utility.yul\":14824:14955   */\n      tag_357\n        /* \"#utility.yul\":14950:14954   */\n      dup2\n        /* \"#utility.yul\":14824:14955   */\n      tag_186\n      jump\t// in\n    tag_357:\n        /* \"#utility.yul\":14816:14955   */\n      swap1\n      pop\n        /* \"#utility.yul\":14543:14962   */\n      swap2\n      swap1\n      pop\n      jump\t// out\n        /* \"#utility.yul\":14968:15146   */\n    tag_187:\n        /* \"#utility.yul\":15108:15138   */\n      0x436f6d706f6e656e7420416c7265616479205265676973746572656400000000\n        /* \"#utility.yul\":15104:15105   */\n      0x00\n        /* \"#utility.yul\":15096:15102   */\n      dup3\n        /* \"#utility.yul\":15092:15106   */\n      add\n        /* \"#utility.yul\":15085:15139   */\n      mstore\n        /* \"#utility.yul\":14968:15146   */\n      pop\n      jump\t// out\n        /* \"#utility.yul\":15152:15518   */\n    tag_188:\n        /* \"#utility.yul\":15294:15297   */\n      0x00\n        /* \"#utility.yul\":15315:15382   */\n      tag_360\n        /* \"#utility.yul\":15379:15381   */\n      0x1c\n        /* \"#utility.yul\":15374:15377   */\n      dup4\n        /* \"#utility.yul\":15315:15382   */\n      tag_166\n      jump\t// in\n    tag_360:\n        /* \"#utility.yul\":15308:15382   */\n      swap2\n      pop\n        /* \"#utility.yul\":15391:15484   */\n      tag_361\n        /* \"#utility.yul\":15480:15483   */\n      dup3\n        /* \"#utility.yul\":15391:15484   */\n      tag_187\n      jump\t// in\n    tag_361:\n        /* \"#utility.yul\":15509:15511   */\n      0x20\n        /* \"#utility.yul\":15504:15507   */\n      dup3\n        /* \"#utility.yul\":15500:15512   */\n      add\n        /* \"#utility.yul\":15493:15512   */\n      swap1\n      pop\n        /* \"#utility.yul\":15152:15518   */\n      swap2\n      swap1\n      pop\n      jump\t// out\n        /* \"#utility.yul\":15524:15943   */\n    tag_86:\n        /* \"#utility.yul\":15690:15694   */\n      0x00\n        /* \"#utility.yul\":15728:15730   */\n      0x20\n        /* \"#utility.yul\":15717:15726   */\n      dup3\n        /* \"#utility.yul\":15713:15731   */\n      add\n        /* \"#utility.yul\":15705:15731   */\n      swap1\n      pop\n        /* \"#utility.yul\":15777:15786   */\n      dup2\n        /* \"#utility.yul\":15771:15775   */\n      dup2\n        /* \"#utility.yul\":15767:15787   */\n      sub\n        /* \"#utility.yul\":15763:15764   */\n      0x00\n        /* \"#utility.yul\":15752:15761   */\n      dup4\n        /* \"#utility.yul\":15748:15765   */\n      add\n        /* \"#utility.yul\":15741:15788   */\n      mstore\n        /* \"#utility.yul\":15805:15936   */\n      tag_363\n        /* \"#utility.yul\":15931:15935   */\n      dup2\n        /* \"#utility.yul\":15805:15936   */\n      tag_188\n      jump\t// in\n    tag_363:\n        /* \"#utility.yul\":15797:15936   */\n      swap1\n      pop\n        /* \"#utility.yul\":15524:15943   */\n      swap2\n      swap1\n      pop\n      jump\t// out\n        /* \"#utility.yul\":15949:16090   */\n    tag_189:\n        /* \"#utility.yul\":15998:16002   */\n      0x00\n        /* \"#utility.yul\":16021:16024   */\n      dup2\n        /* \"#utility.yul\":16013:16024   */\n      swap1\n      pop\n        /* \"#utility.yul\":16044:16047   */\n      dup2\n        /* \"#utility.yul\":16041:16042   */\n      0x00\n        /* \"#utility.yul\":16034:16048   */\n      mstore\n        /* \"#utility.yul\":16078:16082   */\n      0x20\n        /* \"#utility.yul\":16075:16076   */\n      0x00\n        /* \"#utility.yul\":16065:16083   */\n      keccak256\n        /* \"#utility.yul\":16057:16083   */\n      swap1\n      pop\n        /* \"#utility.yul\":15949:16090   */\n      swap2\n      swap1\n      pop\n      jump\t// out\n        /* \"#utility.yul\":16096:16189   */\n    tag_190:\n        /* \"#utility.yul\":16133:16139   */\n      0x00\n        /* \"#utility.yul\":16180:16182   */\n      0x20\n        /* \"#utility.yul\":16175:16177   */\n      0x1f\n        /* \"#utility.yul\":16168:16173   */\n      dup4\n        /* \"#utility.yul\":16164:16178   */\n      add\n        /* \"#utility.yul\":16160:16183   */\n      div\n        /* \"#utility.yul\":16150:16183   */\n      swap1\n      pop\n        /* \"#utility.yul\":16096:16189   */\n      swap2\n      swap1\n      pop\n      jump\t// out\n        /* \"#utility.yul\":16195:16302   */\n    tag_191:\n        /* \"#utility.yul\":16239:16247   */\n      0x00\n        /* \"#utility.yul\":16289:16294   */\n      dup3\n        /* \"#utility.yul\":16283:16287   */\n      dup3\n        /* \"#utility.yul\":16279:16295   */\n      shl\n        /* \"#utility.yul\":16258:16295   */\n      swap1\n      pop\n        /* \"#utility.yul\":16195:16302   */\n      swap3\n      swap2\n      pop\n      pop\n      jump\t// out\n        /* \"#utility.yul\":16308:16701   */\n    tag_192:\n        /* \"#utility.yul\":16377:16383   */\n      0x00\n        /* \"#utility.yul\":16427:16428   */\n      0x08\n        /* \"#utility.yul\":16415:16425   */\n      dup4\n        /* \"#utility.yul\":16411:16429   */\n      mul\n        /* \"#utility.yul\":16450:16547   */\n      tag_368\n        /* \"#utility.yul\":16480:16546   */\n      0xffffffffffffffffffffffffffffffffffffffffffffffffffffffffffffffff\n        /* \"#utility.yul\":16469:16478   */\n      dup3\n        /* \"#utility.yul\":16450:16547   */\n      tag_191\n      jump\t// in\n    tag_368:\n        /* \"#utility.yul\":16568:16607   */\n      tag_369\n        /* \"#utility.yul\":16598:16606   */\n      dup7\n        /* \"#utility.yul\":16587:16596   */\n      dup4\n        /* \"#utility.yul\":16568:16607   */\n      tag_191\n      jump\t// in\n    tag_369:\n        /* \"#utility.yul\":16556:16607   */\n      swap6\n      pop\n        /* \"#utility.yul\":16640:16644   */\n      dup1\n        /* \"#utility.yul\":16636:16645   */\n      not\n        /* \"#utility.yul\":16629:16634   */\n      dup5\n        /* \"#utility.yul\":16625:16646   */\n      and\n        /* \"#utility.yul\":16616:16646   */\n      swap4\n      pop\n        /* \"#utility.yul\":16689:16693   */\n      dup1\n        /* \"#utility.yul\":16679:16687   */\n      dup7\n        /* \"#utility.yul\":16675:16694   */\n      and\n        /* \"#utility.yul\":16668:16673   */\n      dup5\n        /* \"#utility.yul\":16665:16695   */\n      or\n        /* \"#utility.yul\":16655:16695   */\n      swap3\n      pop\n        /* \"#utility.yul\":16384:16701   */\n      pop\n      pop\n        /* \"#utility.yul\":16308:16701   */\n      swap4\n      swap3\n      pop\n      pop\n      pop\n      jump\t// out\n        /* \"#utility.yul\":16707:16767   */\n    tag_193:\n        /* \"#utility.yul\":16735:16738   */\n      0x00\n        /* \"#utility.yul\":16756:16761   */\n      dup2\n        /* \"#utility.yul\":16749:16761   */\n      swap1\n      pop\n        /* \"#utility.yul\":16707:16767   */\n      swap2\n      swap1\n      pop\n      jump\t// out\n        /* \"#utility.yul\":16773:16915   */\n    tag_194:\n        /* \"#utility.yul\":16823:16832   */\n      0x00\n        /* \"#utility.yul\":16856:16909   */\n      tag_372\n        /* \"#utility.yul\":16874:16908   */\n      tag_373\n        /* \"#utility.yul\":16883:16907   */\n      tag_374\n        /* \"#utility.yul\":16901:16906   */\n      dup5\n        /* \"#utility.yul\":16883:16907   */\n      tag_169\n      jump\t// in\n    tag_374:\n        /* \"#utility.yul\":16874:16908   */\n      tag_193\n      jump\t// in\n    tag_373:\n        /* \"#utility.yul\":16856:16909   */\n      tag_169\n      jump\t// in\n    tag_372:\n        /* \"#utility.yul\":16843:16909   */\n      swap1\n      pop\n        /* \"#utility.yul\":16773:16915   */\n      swap2\n      swap1\n      pop\n      jump\t// out\n        /* \"#utility.yul\":16921:16996   */\n    tag_195:\n        /* \"#utility.yul\":16964:16967   */\n      0x00\n        /* \"#utility.yul\":16985:16990   */\n      dup2\n        /* \"#utility.yul\":16978:16990   */\n      swap1\n      pop\n        /* \"#utility.yul\":16921:16996   */\n      swap2\n      swap1\n      pop\n      jump\t// out\n        /* \"#utility.yul\":17002:17271   */\n    tag_196:\n        /* \"#utility.yul\":17112:17151   */\n      tag_377\n        /* \"#utility.yul\":17143:17150   */\n      dup4\n        /* \"#utility.yul\":17112:17151   */\n      tag_194\n      jump\t// in\n    tag_377:\n        /* \"#utility.yul\":17173:17264   */\n      tag_378\n        /* \"#utility.yul\":17222:17263   */\n      tag_379\n        /* \"#utility.yul\":17246:17262   */\n      dup3\n        /* \"#utility.yul\":17222:17263   */\n      tag_195\n      jump\t// in\n    tag_379:\n        /* \"#utility.yul\":17214:17220   */\n      dup5\n        /* \"#utility.yul\":17207:17211   */\n      dup5\n        /* \"#utility.yul\":17201:17212   */\n      sload\n        /* \"#utility.yul\":17173:17264   */\n      tag_192\n      jump\t// in\n    tag_378:\n        /* \"#utility.yul\":17167:17171   */\n      dup3\n        /* \"#utility.yul\":17160:17265   */\n      sstore\n        /* \"#utility.yul\":17078:17271   */\n      pop\n        /* \"#utility.yul\":17002:17271   */\n      pop\n      pop\n      pop\n      jump\t// out\n        /* \"#utility.yul\":17277:17350   */\n    tag_197:\n        /* \"#utility.yul\":17322:17325   */\n      0x00\n        /* \"#utility.yul\":17277:17350   */\n      swap1\n      jump\t// out\n        /* \"#utility.yul\":17356:17545   */\n    tag_198:\n        /* \"#utility.yul\":17433:17465   */\n      tag_382\n      tag_197\n      jump\t// in\n    tag_382:\n        /* \"#utility.yul\":17474:17539   */\n      tag_383\n        /* \"#utility.yul\":17532:17538   */\n      dup2\n        /* \"#utility.yul\":17524:17530   */\n      dup5\n        /* \"#utility.yul\":17518:17522   */\n      dup5\n        /* \"#utility.yul\":17474:17539   */\n      tag_196\n      jump\t// in\n    tag_383:\n        /* \"#utility.yul\":17409:17545   */\n      pop\n        /* \"#utility.yul\":17356:17545   */\n      pop\n      pop\n      jump\t// out\n        /* \"#utility.yul\":17551:17737   */\n    tag_199:\n        /* \"#utility.yul\":17611:17731   */\n    tag_385:\n        /* \"#utility.yul\":17628:17631   */\n      dup2\n        /* \"#utility.yul\":17621:17626   */\n      dup2\n        /* \"#utility.yul\":17618:17632   */\n      lt\n        /* \"#utility.yul\":17611:17731   */\n      iszero\n      tag_387\n      jumpi\n        /* \"#utility.yul\":17682:17721   */\n      tag_388\n        /* \"#utility.yul\":17719:17720   */\n      0x00\n        /* \"#utility.yul\":17712:17717   */\n      dup3\n        /* \"#utility.yul\":17682:17721   */\n      tag_198\n      jump\t// in\n    tag_388:\n        /* \"#utility.yul\":17655:17656   */\n      0x01\n        /* \"#utility.yul\":17648:17653   */\n      dup2\n        /* \"#utility.yul\":17644:17657   */\n      add\n        /* \"#utility.yul\":17635:17657   */\n      swap1\n      pop\n        /* \"#utility.yul\":17611:17731   */\n      jump(tag_385)\n    tag_387:\n        /* \"#utility.yul\":17551:17737   */\n      pop\n      pop\n      jump\t// out\n        /* \"#utility.yul\":17743:18286   */\n    tag_200:\n        /* \"#utility.yul\":17844:17846   */\n      0x1f\n        /* \"#utility.yul\":17839:17842   */\n      dup3\n        /* \"#utility.yul\":17836:17847   */\n      gt\n        /* \"#utility.yul\":17833:18279   */\n      iszero\n      tag_390\n      jumpi\n        /* \"#utility.yul\":17878:17916   */\n      tag_391\n        /* \"#utility.yul\":17910:17915   */\n      dup2\n        /* \"#utility.yul\":17878:17916   */\n      tag_189\n      jump\t// in\n    tag_391:\n        /* \"#utility.yul\":17962:17991   */\n      tag_392\n        /* \"#utility.yul\":17980:17990   */\n      dup5\n        /* \"#utility.yul\":17962:17991   */\n      tag_190\n      jump\t// in\n    tag_392:\n        /* \"#utility.yul\":17952:17960   */\n      dup2\n        /* \"#utility.yul\":17948:17992   */\n      add\n        /* \"#utility.yul\":18145:18147   */\n      0x20\n        /* \"#utility.yul\":18133:18143   */\n      dup6\n        /* \"#utility.yul\":18130:18148   */\n      lt\n        /* \"#utility.yul\":18127:18176   */\n      iszero\n      tag_393\n      jumpi\n        /* \"#utility.yul\":18166:18174   */\n      dup2\n        /* \"#utility.yul\":18151:18174   */\n      swap1\n      pop\n        /* \"#utility.yul\":18127:18176   */\n    tag_393:\n        /* \"#utility.yul\":18189:18269   */\n      tag_394\n        /* \"#utility.yul\":18245:18267   */\n      tag_395\n        /* \"#utility.yul\":18263:18266   */\n      dup6\n        /* \"#utility.yul\":18245:18267   */\n      tag_190\n      jump\t// in\n    tag_395:\n        /* \"#utility.yul\":18235:18243   */\n      dup4\n        /* \"#utility.yul\":18231:18268   */\n      add\n        /* \"#utility.yul\":18218:18229   */\n      dup3\n        /* \"#utility.yul\":18189:18269   */\n      tag_199\n      jump\t// in\n    tag_394:\n        /* \"#utility.yul\":17848:18279   */\n      pop\n      pop\n        /* \"#utility.yul\":17833:18279   */\n    tag_390:\n        /* \"#utility.yul\":17743:18286   */\n      pop\n      pop\n      pop\n      jump\t// out\n        /* \"#utility.yul\":18292:18409   */\n    tag_201:\n        /* \"#utility.yul\":18346:18354   */\n      0x00\n        /* \"#utility.yul\":18396:18401   */\n      dup3\n        /* \"#utility.yul\":18390:18394   */\n      dup3\n        /* \"#utility.yul\":18386:18402   */\n      shr\n        /* \"#utility.yul\":18365:18402   */\n      swap1\n      pop\n        /* \"#utility.yul\":18292:18409   */\n      swap3\n      swap2\n      pop\n      pop\n      jump\t// out\n        /* \"#utility.yul\":18415:18584   */\n    tag_202:\n        /* \"#utility.yul\":18459:18465   */\n      0x00\n        /* \"#utility.yul\":18492:18543   */\n      tag_398\n        /* \"#utility.yul\":18540:18541   */\n      0x00\n        /* \"#utility.yul\":18536:18542   */\n      not\n        /* \"#utility.yul\":18528:18533   */\n      dup5\n        /* \"#utility.yul\":18525:18526   */\n      0x08\n        /* \"#utility.yul\":18521:18534   */\n      mul\n        /* \"#utility.yul\":18492:18543   */\n      tag_201\n      jump\t// in\n    tag_398:\n        /* \"#utility.yul\":18488:18544   */\n      not\n        /* \"#utility.yul\":18573:18577   */\n      dup1\n        /* \"#utility.yul\":18567:18571   */\n      dup4\n        /* \"#utility.yul\":18563:18578   */\n      and\n        /* \"#utility.yul\":18553:18578   */\n      swap2\n      pop\n        /* \"#utility.yul\":18466:18584   */\n      pop\n        /* \"#utility.yul\":18415:18584   */\n      swap3\n      swap2\n      pop\n      pop\n      jump\t// out\n        /* \"#utility.yul\":18589:18884   */\n    tag_203:\n        /* \"#utility.yul\":18665:18669   */\n      0x00\n        /* \"#utility.yul\":18811:18840   */\n      tag_400\n        /* \"#utility.yul\":18836:18839   */\n      dup4\n        /* \"#utility.yul\":18830:18834   */\n      dup4\n        /* \"#utility.yul\":18811:18840   */\n      tag_202\n      jump\t// in\n    tag_400:\n        /* \"#utility.yul\":18803:18840   */\n      swap2\n      pop\n        /* \"#utility.yul\":18873:18876   */\n      dup3\n        /* \"#utility.yul\":18870:18871   */\n      0x02\n        /* \"#utility.yul\":18866:18877   */\n      mul\n        /* \"#utility.yul\":18860:18864   */\n      dup3\n        /* \"#utility.yul\":18857:18878   */\n      or\n        /* \"#utility.yul\":18849:18878   */\n      swap1\n      pop\n        /* \"#utility.yul\":18589:18884   */\n      swap3\n      swap2\n      pop\n      pop\n      jump\t// out\n        /* \"#utility.yul\":18889:20284   */\n    tag_88:\n        /* \"#utility.yul\":19006:19043   */\n      tag_402\n        /* \"#utility.yul\":19039:19042   */\n      dup3\n        /* \"#utility.yul\":19006:19043   */\n      tag_165\n      jump\t// in\n    tag_402:\n        /* \"#utility.yul\":19108:19126   */\n      0xffffffffffffffff\n        /* \"#utility.yul\":19100:19106   */\n      dup2\n        /* \"#utility.yul\":19097:19127   */\n      gt\n        /* \"#utility.yul\":19094:19150   */\n      iszero\n      tag_403\n      jumpi\n        /* \"#utility.yul\":19130:19148   */\n      tag_404\n      tag_155\n      jump\t// in\n    tag_404:\n        /* \"#utility.yul\":19094:19150   */\n    tag_403:\n        /* \"#utility.yul\":19174:19212   */\n      tag_405\n        /* \"#utility.yul\":19206:19210   */\n      dup3\n        /* \"#utility.yul\":19200:19211   */\n      sload\n        /* \"#utility.yul\":19174:19212   */\n      tag_68\n      jump\t// in\n    tag_405:\n        /* \"#utility.yul\":19259:19326   */\n      tag_406\n        /* \"#utility.yul\":19319:19325   */\n      dup3\n        /* \"#utility.yul\":19311:19317   */\n      dup3\n        /* \"#utility.yul\":19305:19309   */\n      dup6\n        /* \"#utility.yul\":19259:19326   */\n      tag_200\n      jump\t// in\n    tag_406:\n        /* \"#utility.yul\":19353:19354   */\n      0x00\n        /* \"#utility.yul\":19377:19381   */\n      0x20\n        /* \"#utility.yul\":19364:19381   */\n      swap1\n      pop\n        /* \"#utility.yul\":19409:19411   */\n      0x1f\n        /* \"#utility.yul\":19401:19407   */\n      dup4\n        /* \"#utility.yul\":19398:19412   */\n      gt\n        /* \"#utility.yul\":19426:19427   */\n      0x01\n        /* \"#utility.yul\":19421:20039   */\n      dup2\n      eq\n      tag_408\n      jumpi\n        /* \"#utility.yul\":20083:20084   */\n      0x00\n        /* \"#utility.yul\":20100:20106   */\n      dup5\n        /* \"#utility.yul\":20097:20174   */\n      iszero\n      tag_409\n      jumpi\n        /* \"#utility.yul\":20149:20158   */\n      dup3\n        /* \"#utility.yul\":20144:20147   */\n      dup8\n        /* \"#utility.yul\":20140:20159   */\n      add\n        /* \"#utility.yul\":20134:20160   */\n      mload\n        /* \"#utility.yul\":20125:20160   */\n      swap1\n      pop\n        /* \"#utility.yul\":20097:20174   */\n    tag_409:\n        /* \"#utility.yul\":20200:20267   */\n      tag_410\n        /* \"#utility.yul\":20260:20266   */\n      dup6\n        /* \"#utility.yul\":20253:20258   */\n      dup3\n        /* \"#utility.yul\":20200:20267   */\n      tag_203\n      jump\t// in\n    tag_410:\n        /* \"#utility.yul\":20194:20198   */\n      dup7\n        /* \"#utility.yul\":20187:20268   */\n      sstore\n        /* \"#utility.yul\":20056:20278   */\n      pop\n        /* \"#utility.yul\":19391:20278   */\n      jump(tag_407)\n        /* \"#utility.yul\":19421:20039   */\n    tag_408:\n        /* \"#utility.yul\":19473:19477   */\n      0x1f\n        /* \"#utility.yul\":19469:19478   */\n      not\n        /* \"#utility.yul\":19461:19467   */\n      dup5\n        /* \"#utility.yul\":19457:19479   */\n      and\n        /* \"#utility.yul\":19507:19544   */\n      tag_411\n        /* \"#utility.yul\":19539:19543   */\n      dup7\n        /* \"#utility.yul\":19507:19544   */\n      tag_189\n      jump\t// in\n    tag_411:\n        /* \"#utility.yul\":19566:19567   */\n      0x00\n        /* \"#utility.yul\":19580:19788   */\n    tag_412:\n        /* \"#utility.yul\":19594:19601   */\n      dup3\n        /* \"#utility.yul\":19591:19592   */\n      dup2\n        /* \"#utility.yul\":19588:19602   */\n      lt\n        /* \"#utility.yul\":19580:19788   */\n      iszero\n      tag_414\n      jumpi\n        /* \"#utility.yul\":19673:19682   */\n      dup5\n        /* \"#utility.yul\":19668:19671   */\n      dup10\n        /* \"#utility.yul\":19664:19683   */\n      add\n        /* \"#utility.yul\":19658:19684   */\n      mload\n        /* \"#utility.yul\":19650:19656   */\n      dup3\n        /* \"#utility.yul\":19643:19685   */\n      sstore\n        /* \"#utility.yul\":19724:19725   */\n      0x01\n        /* \"#utility.yul\":19716:19722   */\n      dup3\n        /* \"#utility.yul\":19712:19726   */\n      add\n        /* \"#utility.yul\":19702:19726   */\n      swap2\n      pop\n        /* \"#utility.yul\":19771:19773   */\n      0x20\n        /* \"#utility.yul\":19760:19769   */\n      dup6\n        /* \"#utility.yul\":19756:19774   */\n      add\n        /* \"#utility.yul\":19743:19774   */\n      swap5\n      pop\n        /* \"#utility.yul\":19617:19621   */\n      0x20\n        /* \"#utility.yul\":19614:19615   */\n      dup2\n        /* \"#utility.yul\":19610:19622   */\n      add\n        /* \"#utility.yul\":19605:19622   */\n      swap1\n      pop\n        /* \"#utility.yul\":19580:19788   */\n      jump(tag_412)\n    tag_414:\n        /* \"#utility.yul\":19816:19822   */\n      dup7\n        /* \"#utility.yul\":19807:19814   */\n      dup4\n        /* \"#utility.yul\":19804:19823   */\n      lt\n        /* \"#utility.yul\":19801:19980   */\n      iszero\n      tag_415\n      jumpi\n        /* \"#utility.yul\":19874:19883   */\n      dup5\n        /* \"#utility.yul\":19869:19872   */\n      dup10\n        /* \"#utility.yul\":19865:19884   */\n      add\n        /* \"#utility.yul\":19859:19885   */\n      mload\n        /* \"#utility.yul\":19917:19965   */\n      tag_416\n        /* \"#utility.yul\":19959:19963   */\n      0x1f\n        /* \"#utility.yul\":19951:19957   */\n      dup10\n        /* \"#utility.yul\":19947:19964   */\n      and\n        /* \"#utility.yul\":19936:19945   */\n      dup3\n        /* \"#utility.yul\":19917:19965   */\n      tag_202\n      jump\t// in\n    tag_416:\n        /* \"#utility.yul\":19909:19915   */\n      dup4\n        /* \"#utility.yul\":19902:19966   */\n      sstore\n        /* \"#utility.yul\":19824:19980   */\n      pop\n        /* \"#utility.yul\":19801:19980   */\n    tag_415:\n        /* \"#utility.yul\":20026:20027   */\n      0x01\n        /* \"#utility.yul\":20022:20023   */\n      0x02\n        /* \"#utility.yul\":20014:20020   */\n      dup9\n        /* \"#utility.yul\":20010:20024   */\n      mul\n        /* \"#utility.yul\":20006:20028   */\n      add\n        /* \"#utility.yul\":20000:20004   */\n      dup9\n        /* \"#utility.yul\":19993:20029   */\n      sstore\n        /* \"#utility.yul\":19428:20039   */\n      pop\n      pop\n      pop\n        /* \"#utility.yul\":19391:20278   */\n    tag_407:\n      pop\n        /* \"#utility.yul\":18981:20284   */\n      pop\n      pop\n      pop\n        /* \"#utility.yul\":18889:20284   */\n      pop\n      pop\n      jump\t// out\n        /* \"#utility.yul\":20290:20465   */\n    tag_204:\n        /* \"#utility.yul\":20430:20457   */\n      0x44657669636520616c7265616479207265676973746572656400000000000000\n        /* \"#utility.yul\":20426:20427   */\n      0x00\n        /* \"#utility.yul\":20418:20424   */\n      dup3\n        /* \"#utility.yul\":20414:20428   */\n      add\n        /* \"#utility.yul\":20407:20458   */\n      mstore\n        /* \"#utility.yul\":20290:20465   */\n      pop\n      jump\t// out\n        /* \"#utility.yul\":20471:20837   */\n    tag_205:\n        /* \"#utility.yul\":20613:20616   */\n      0x00\n        /* \"#utility.yul\":20634:20701   */\n      tag_419\n        /* \"#utility.yul\":20698:20700   */\n      0x19\n        /* \"#utility.yul\":20693:20696   */\n      dup4\n        /* \"#utility.yul\":20634:20701   */\n      tag_166\n      jump\t// in\n    tag_419:\n        /* \"#utility.yul\":20627:20701   */\n      swap2\n      pop\n        /* \"#utility.yul\":20710:20803   */\n      tag_420\n        /* \"#utility.yul\":20799:20802   */\n      dup3\n        /* \"#utility.yul\":20710:20803   */\n      tag_204\n      jump\t// in\n    tag_420:\n        /* \"#utility.yul\":20828:20830   */\n      0x20\n        /* \"#utility.yul\":20823:20826   */\n      dup3\n        /* \"#utility.yul\":20819:20831   */\n      add\n        /* \"#utility.yul\":20812:20831   */\n      swap1\n      pop\n        /* \"#utility.yul\":20471:20837   */\n      swap2\n      swap1\n      pop\n      jump\t// out\n        /* \"#utility.yul\":20843:21262   */\n    tag_118:\n        /* \"#utility.yul\":21009:21013   */\n      0x00\n        /* \"#utility.yul\":21047:21049   */\n      0x20\n        /* \"#utility.yul\":21036:21045   */\n      dup3\n        /* \"#utility.yul\":21032:21050   */\n      add\n        /* \"#utility.yul\":21024:21050   */\n      swap1\n      pop\n        /* \"#utility.yul\":21096:21105   */\n      dup2\n        /* \"#utility.yul\":21090:21094   */\n      dup2\n        /* \"#utility.yul\":21086:21106   */\n      sub\n        /* \"#utility.yul\":21082:21083   */\n      0x00\n        /* \"#utility.yul\":21071:21080   */\n      dup4\n        /* \"#utility.yul\":21067:21084   */\n      add\n        /* \"#utility.yul\":21060:21107   */\n      mstore\n        /* \"#utility.yul\":21124:21255   */\n      tag_422\n        /* \"#utility.yul\":21250:21254   */\n      dup2\n        /* \"#utility.yul\":21124:21255   */\n      tag_205\n      jump\t// in\n    tag_422:\n        /* \"#utility.yul\":21116:21255   */\n      swap1\n      pop\n        /* \"#utility.yul\":20843:21262   */\n      swap2\n      swap1\n      pop\n      jump\t// out\n        /* \"#utility.yul\":21268:21442   */\n    tag_206:\n        /* \"#utility.yul\":21408:21434   */\n      0x446576696365206973206465636f6d6d697373696f6e65640000000000000000\n        /* \"#utility.yul\":21404:21405   */\n      0x00\n        /* \"#utility.yul\":21396:21402   */\n      dup3\n        /* \"#utility.yul\":21392:21406   */\n      add\n        /* \"#utility.yul\":21385:21435   */\n      mstore\n        /* \"#utility.yul\":21268:21442   */\n      pop\n      jump\t// out\n        /* \"#utility.yul\":21448:21814   */\n    tag_207:\n        /* \"#utility.yul\":21590:21593   */\n      0x00\n        /* \"#utility.yul\":21611:21678   */\n      tag_425\n        /* \"#utility.yul\":21675:21677   */\n      0x18\n        /* \"#utility.yul\":21670:21673   */\n      dup4\n        /* \"#utility.yul\":21611:21678   */\n      tag_166\n      jump\t// in\n    tag_425:\n        /* \"#utility.yul\":21604:21678   */\n      swap2\n      pop\n        /* \"#utility.yul\":21687:21780   */\n      tag_426\n        /* \"#utility.yul\":21776:21779   */\n      dup3\n        /* \"#utility.yul\":21687:21780   */\n      tag_206\n      jump\t// in\n    tag_426:\n        /* \"#utility.yul\":21805:21807   */\n      0x20\n        /* \"#utility.yul\":21800:21803   */\n      dup3\n        /* \"#utility.yul\":21796:21808   */\n      add\n        /* \"#utility.yul\":21789:21808   */\n      swap1\n      pop\n        /* \"#utility.yul\":21448:21814   */\n      swap2\n      swap1\n      pop\n      jump\t// out\n        /* \"#utility.yul\":21820:22239   */\n    tag_128:\n        /* \"#utility.yul\":21986:21990   */\n      0x00\n        /* \"#utility.yul\":22024:22026   */\n      0x20\n        /* \"#utility.yul\":22013:22022   */\n      dup3\n        /* \"#utility.yul\":22009:22027   */\n      add\n        /* \"#utility.yul\":22001:22027   */\n      swap1\n      pop\n        /* \"#utility.yul\":22073:22082   */\n      dup2\n        /* \"#utility.yul\":22067:22071   */\n      dup2\n        /* \"#utility.yul\":22063:22083   */\n      sub\n        /* \"#utility.yul\":22059:22060   */\n      0x00\n        /* \"#utility.yul\":22048:22057   */\n      dup4\n        /* \"#utility.yul\":22044:22061   */\n      add\n        /* \"#utility.yul\":22037:22084   */\n      mstore\n        /* \"#utility.yul\":22101:22232   */\n      tag_428\n        /* \"#utility.yul\":22227:22231   */\n      dup2\n        /* \"#utility.yul\":22101:22232   */\n      tag_207\n      jump\t// in\n    tag_428:\n        /* \"#utility.yul\":22093:22232   */\n      swap1\n      pop\n        /* \"#utility.yul\":21820:22239   */\n      swap2\n      swap1\n      pop\n      jump\t// out\n        /* \"#utility.yul\":22245:22412   */\n    tag_208:\n        /* \"#utility.yul\":22385:22404   */\n      0x4e6f742063757272656e74204f776e6572000000000000000000000000000000\n        /* \"#utility.yul\":22381:22382   */\n      0x00\n        /* \"#utility.yul\":22373:22379   */\n      dup3\n        /* \"#utility.yul\":22369:22383   */\n      add\n        /* \"#utility.yul\":22362:22405   */\n      mstore\n        /* \"#utility.yul\":22245:22412   */\n      pop\n      jump\t// out\n        /* \"#utility.yul\":22418:22784   */\n    tag_209:\n        /* \"#utility.yul\":22560:22563   */\n      0x00\n        /* \"#utility.yul\":22581:22648   */\n      tag_431\n        /* \"#utility.yul\":22645:22647   */\n      0x11\n        /* \"#utility.yul\":22640:22643   */\n      dup4\n        /* \"#utility.yul\":22581:22648   */\n      tag_166\n      jump\t// in\n    tag_431:\n        /* \"#utility.yul\":22574:22648   */\n      swap2\n      pop\n        /* \"#utility.yul\":22657:22750   */\n      tag_432\n        /* \"#utility.yul\":22746:22749   */\n      dup3\n        /* \"#utility.yul\":22657:22750   */\n      tag_208\n      jump\t// in\n    tag_432:\n        /* \"#utility.yul\":22775:22777   */\n      0x20\n        /* \"#utility.yul\":22770:22773   */\n      dup3\n        /* \"#utility.yul\":22766:22778   */\n      add\n        /* \"#utility.yul\":22759:22778   */\n      swap1\n      pop\n        /* \"#utility.yul\":22418:22784   */\n      swap2\n      swap1\n      pop\n      jump\t// out\n        /* \"#utility.yul\":22790:23209   */\n    tag_131:\n        /* \"#utility.yul\":22956:22960   */\n      0x00\n        /* \"#utility.yul\":22994:22996   */\n      0x20\n        /* \"#utility.yul\":22983:22992   */\n      dup3\n        /* \"#utility.yul\":22979:22997   */\n      add\n        /* \"#utility.yul\":22971:22997   */\n      swap1\n      pop\n        /* \"#utility.yul\":23043:23052   */\n      dup2\n        /* \"#utility.yul\":23037:23041   */\n      dup2\n        /* \"#utility.yul\":23033:23053   */\n      sub\n        /* \"#utility.yul\":23029:23030   */\n      0x00\n        /* \"#utility.yul\":23018:23027   */\n      dup4\n        /* \"#utility.yul\":23014:23031   */\n      add\n        /* \"#utility.yul\":23007:23054   */\n      mstore\n        /* \"#utility.yul\":23071:23202   */\n      tag_434\n        /* \"#utility.yul\":23197:23201   */\n      dup2\n        /* \"#utility.yul\":23071:23202   */\n      tag_209\n      jump\t// in\n    tag_434:\n        /* \"#utility.yul\":23063:23202   */\n      swap1\n      pop\n        /* \"#utility.yul\":22790:23209   */\n      swap2\n      swap1\n      pop\n      jump\t// out\n\n    auxdata: 0xa264697066735822122031d85e53c2ae31dafb7d9c8d77b1b0910b981bbe4a9718460f94d6ba6860df2164736f6c634300081e0033\n}\n",
				"bytecode": {
					"linkReferences": {},
					"object": "6080604052348015600f57600080fd5b50336000806101000a81548173ffffffffffffffffffffffffffffffffffffffff021916908373ffffffffffffffffffffffffffffffffffffffff160217905550611cd48061005f6000396000f3fe608060405234801561001057600080fd5b506004361061009e5760003560e01c8063bceaa96a11610066578063bceaa96a14610174578063c0e793c214610190578063c5c400de146101ac578063e96f2fd8146101e2578063ea460cb6146102005761009e565b80630d514338146100a35780631a4999c9146100bf5780635b906884146100f2578063aaed589d1461010e578063b71a03461461013e575b600080fd5b6100bd60048036038101906100b89190611225565b610230565b005b6100d960048036038101906100d491906112a4565b610354565b6040516100e99493929190611384565b60405180910390f35b61010c600480360381019061010791906113d7565b6104a1565b005b61012860048036038101906101239190611225565b610653565b604051610135919061144f565b60405180910390f35b61015860048036038101906101539190611225565b6106ab565b60405161016b97969594939291906114ab565b60405180910390f35b61018e6004803603810190610189919061152f565b6109f0565b005b6101aa60048036038101906101a59190611602565b610c4b565b005b6101c660048036038101906101c191906112a4565b610e3b565b6040516101d997969594939291906114ab565b60405180910390f35b6101ea61104f565b6040516101f7919061165e565b60405180910390f35b61021a60048036038101906102159190611225565b611073565b604051610227919061144f565b60405180910390f35b60008160405160200161024391906116b5565b6040516020818303038152906040528051906020012090506001600082815260200190815260200160002060040160149054906101000a900460ff166102be576040517f08c379a00000000000000000000000000000000000000000000000000000000081526004016102b590611718565b60405180910390fd5b6001600082815260200190815260200160002060040160159054906101000a900460ff1615610322576040517f08c379a000000000000000000000000000000000000000000000000000000000815260040161031990611784565b60405180910390fd5b600180600083815260200190815260200160002060040160156101000a81548160ff0219169083151502179055505050565b6002602052806000526040600020600091509050806000018054610377906117d3565b80601f01602080910402602001604051908101604052809291908181526020018280546103a3906117d3565b80156103f05780601f106103c5576101008083540402835291602001916103f0565b820191906000526020600020905b8154815290600101906020018083116103d357829003601f168201915b505050505090806001018054610405906117d3565b80601f0160208091040260200160405190810160405280929190818152602001828054610431906117d3565b801561047e5780601f106104535761010080835404028352916020019161047e565b820191906000526020600020905b81548152906001019060200180831161046157829003601f168201915b5050505050908060020154908060030160009054906101000a900460ff16905084565b60008054906101000a900473ffffffffffffffffffffffffffffffffffffffff1673ffffffffffffffffffffffffffffffffffffffff163373ffffffffffffffffffffffffffffffffffffffff161461052f576040517f08c379a000000000000000000000000000000000000000000000000000000000815260040161052690611850565b60405180910390fd5b60008260405160200161054291906116b5565b6040516020818303038152906040528051906020012090506002600082815260200190815260200160002060030160009054906101000a900460ff16156105be576040517f08c379a00000000000000000000000000000000000000000000000000000000081526004016105b5906118bc565b60405180910390fd5b60405180608001604052808481526020018381526020014281526020016001151581525060026000838152602001908152602001600020600082015181600001908161060a9190611a88565b5060208201518160010190816106209190611a88565b506040820151816002015560608201518160030160006101000a81548160ff021916908315150217905550905050505050565b6000808260405160200161066791906116b5565b6040516020818303038152906040528051906020012090506001600082815260200190815260200160002060040160149054906101000a900460ff16915050919050565b60608060606000806000806000886040516020016106c991906116b5565b6040516020818303038152906040528051906020012090506001600082815260200190815260200160002060040160149054906101000a900460ff16610744576040517f08c379a000000000000000000000000000000000000000000000000000000000815260040161073b90611718565b60405180910390fd5b6000600160008381526020019081526020016000206040518060e0016040529081600082018054610774906117d3565b80601f01602080910402602001604051908101604052809291908181526020018280546107a0906117d3565b80156107ed5780601f106107c2576101008083540402835291602001916107ed565b820191906000526020600020905b8154815290600101906020018083116107d057829003601f168201915b50505050508152602001600182018054610806906117d3565b80601f0160208091040260200160405190810160405280929190818152602001828054610832906117d3565b801561087f5780601f106108545761010080835404028352916020019161087f565b820191906000526020600020905b81548152906001019060200180831161086257829003601f168201915b50505050508152602001600282018054610898906117d3565b80601f01602080910402602001604051908101604052809291908181526020018280546108c4906117d3565b80156109115780601f106108e657610100808354040283529160200191610911565b820191906000526020600020905b8154815290600101906020018083116108f457829003601f168201915b50505050508152602001600382015481526020016004820160009054906101000a900473ffffffffffffffffffffffffffffffffffffffff1673ffffffffffffffffffffffffffffffffffffffff1673ffffffffffffffffffffffffffffffffffffffff1681526020016004820160149054906101000a900460ff161515151581526020016004820160159054906101000a900460ff1615151515815250509050806000015181602001518260400151836060015184608001518560a001518660c0015198509850985098509850985098505050919395979092949650565b60008054906101000a900473ffffffffffffffffffffffffffffffffffffffff1673ffffffffffffffffffffffffffffffffffffffff163373ffffffffffffffffffffffffffffffffffffffff1614610a7e576040517f08c379a0000000000000000000000000000000000000000000000000000000008152600401610a7590611850565b60405180910390fd5b600083604051602001610a9191906116b5565b6040516020818303038152906040528051906020012090506001600082815260200190815260200160002060040160149054906101000a900460ff1615610b0d576040517f08c379a0000000000000000000000000000000000000000000000000000000008152600401610b0490611ba6565b60405180910390fd5b6040518060e001604052808581526020018481526020018381526020014281526020013373ffffffffffffffffffffffffffffffffffffffff16815260200160011515815260200160001515815250600160008381526020019081526020016000206000820151816000019081610b849190611a88565b506020820151816001019081610b9a9190611a88565b506040820151816002019081610bb09190611a88565b506060820151816003015560808201518160040160006101000a81548173ffffffffffffffffffffffffffffffffffffffff021916908373ffffffffffffffffffffffffffffffffffffffff16021790555060a08201518160040160146101000a81548160ff02191690831515021790555060c08201518160040160156101000a81548160ff02191690831515021790555090505050505050565b600082604051602001610c5e91906116b5565b6040516020818303038152906040528051906020012090506001600082815260200190815260200160002060040160149054906101000a900460ff16610cd9576040517f08c379a0000000000000000000000000000000000000000000000000000000008152600401610cd090611718565b60405180910390fd5b6001600082815260200190815260200160002060040160159054906101000a900460ff1615610d3d576040517f08c379a0000000000000000000000000000000000000000000000000000000008152600401610d3490611c12565b60405180910390fd5b3373ffffffffffffffffffffffffffffffffffffffff166001600083815260200190815260200160002060040160009054906101000a900473ffffffffffffffffffffffffffffffffffffffff1673ffffffffffffffffffffffffffffffffffffffff1614610de1576040517f08c379a0000000000000000000000000000000000000000000000000000000008152600401610dd890611c7e565b60405180910390fd5b816001600083815260200190815260200160002060040160006101000a81548173ffffffffffffffffffffffffffffffffffffffff021916908373ffffffffffffffffffffffffffffffffffffffff160217905550505050565b6001602052806000526040600020600091509050806000018054610e5e906117d3565b80601f0160208091040260200160405190810160405280929190818152602001828054610e8a906117d3565b8015610ed75780601f10610eac57610100808354040283529160200191610ed7565b820191906000526020600020905b815481529060010190602001808311610eba57829003601f168201915b505050505090806001018054610eec906117d3565b80601f0160208091040260200160405190810160405280929190818152602001828054610f18906117d3565b8015610f655780601f10610f3a57610100808354040283529160200191610f65565b820191906000526020600020905b815481529060010190602001808311610f4857829003601f168201915b505050505090806002018054610f7a906117d3565b80601f0160208091040260200160405190810160405280929190818152602001828054610fa6906117d3565b8015610ff35780601f10610fc857610100808354040283529160200191610ff3565b820191906000526020600020905b815481529060010190602001808311610fd657829003601f168201915b5050505050908060030154908060040160009054906101000a900473ffffffffffffffffffffffffffffffffffffffff16908060040160149054906101000a900460ff16908060040160159054906101000a900460ff16905087565b60008054906101000a900473ffffffffffffffffffffffffffffffffffffffff1681565b6000808260405160200161108791906116b5565b6040516020818303038152906040528051906020012090506002600082815260200190815260200160002060030160009054906101000a900460ff16915050919050565b6000604051905090565b600080fd5b600080fd5b600080fd5b600080fd5b6000601f19601f8301169050919050565b7f4e487b7100000000000000000000000000000000000000000000000000000000600052604160045260246000fd5b611132826110e9565b810181811067ffffffffffffffff82111715611151576111506110fa565b5b80604052505050565b60006111646110cb565b90506111708282611129565b919050565b600067ffffffffffffffff8211156111905761118f6110fa565b5b611199826110e9565b9050602081019050919050565b82818337600083830152505050565b60006111c86111c384611175565b61115a565b9050828152602081018484840111156111e4576111e36110e4565b5b6111ef8482856111a6565b509392505050565b600082601f83011261120c5761120b6110df565b5b813561121c8482602086016111b5565b91505092915050565b60006020828403121561123b5761123a6110d5565b5b600082013567ffffffffffffffff811115611259576112586110da565b5b611265848285016111f7565b91505092915050565b6000819050919050565b6112818161126e565b811461128c57600080fd5b50565b60008135905061129e81611278565b92915050565b6000602082840312156112ba576112b96110d5565b5b60006112c88482850161128f565b91505092915050565b600081519050919050565b600082825260208201905092915050565b60005b8381101561130b5780820151818401526020810190506112f0565b60008484015250505050565b6000611322826112d1565b61132c81856112dc565b935061133c8185602086016112ed565b611345816110e9565b840191505092915050565b6000819050919050565b61136381611350565b82525050565b60008115159050919050565b61137e81611369565b82525050565b6000608082019050818103600083015261139e8187611317565b905081810360208301526113b28186611317565b90506113c1604083018561135a565b6113ce6060830184611375565b95945050505050565b600080604083850312156113ee576113ed6110d5565b5b600083013567ffffffffffffffff81111561140c5761140b6110da565b5b611418858286016111f7565b925050602083013567ffffffffffffffff811115611439576114386110da565b5b611445858286016111f7565b9150509250929050565b60006020820190506114646000830184611375565b92915050565b600073ffffffffffffffffffffffffffffffffffffffff82169050919050565b60006114958261146a565b9050919050565b6114a58161148a565b82525050565b600060e08201905081810360008301526114c5818a611317565b905081810360208301526114d98189611317565b905081810360408301526114ed8188611317565b90506114fc606083018761135a565b611509608083018661149c565b61151660a0830185611375565b61152360c0830184611375565b98975050505050505050565b600080600060608486031215611548576115476110d5565b5b600084013567ffffffffffffffff811115611566576115656110da565b5b611572868287016111f7565b935050602084013567ffffffffffffffff811115611593576115926110da565b5b61159f868287016111f7565b925050604084013567ffffffffffffffff8111156115c0576115bf6110da565b5b6115cc868287016111f7565b9150509250925092565b6115df8161148a565b81146115ea57600080fd5b50565b6000813590506115fc816115d6565b92915050565b60008060408385031215611619576116186110d5565b5b600083013567ffffffffffffffff811115611637576116366110da565b5b611643858286016111f7565b9250506020611654858286016115ed565b9150509250929050565b6000602082019050611673600083018461149c565b92915050565b600081905092915050565b600061168f826112d1565b6116998185611679565b93506116a98185602086016112ed565b80840191505092915050565b60006116c18284611684565b915081905092915050565b7f446576696365206e6f7420666f756e6400000000000000000000000000000000600082015250565b60006117026010836112dc565b915061170d826116cc565b602082019050919050565b60006020820190508181036000830152611731816116f5565b9050919050565b7f416c7265616479206465636f6d6d697373696f6e656400000000000000000000600082015250565b600061176e6016836112dc565b915061177982611738565b602082019050919050565b6000602082019050818103600083015261179d81611761565b9050919050565b7f4e487b7100000000000000000000000000000000000000000000000000000000600052602260045260246000fd5b600060028204905060018216806117eb57607f821691505b6020821081036117fe576117fd6117a4565b5b50919050565b7f4f6e6c79204f454d2063616e2063616c6c207468697300000000000000000000600082015250565b600061183a6016836112dc565b915061184582611804565b602082019050919050565b600060208201905081810360008301526118698161182d565b9050919050565b7f436f6d706f6e656e7420416c7265616479205265676973746572656400000000600082015250565b60006118a6601c836112dc565b91506118b182611870565b602082019050919050565b600060208201905081810360008301526118d581611899565b9050919050565b60008190508160005260206000209050919050565b60006020601f8301049050919050565b600082821b905092915050565b60006008830261193e7fffffffffffffffffffffffffffffffffffffffffffffffffffffffffffffffff82611901565b6119488683611901565b95508019841693508086168417925050509392505050565b6000819050919050565b600061198561198061197b84611350565b611960565b611350565b9050919050565b6000819050919050565b61199f8361196a565b6119b36119ab8261198c565b84845461190e565b825550505050565b600090565b6119c86119bb565b6119d3818484611996565b505050565b5b818110156119f7576119ec6000826119c0565b6001810190506119d9565b5050565b601f821115611a3c57611a0d816118dc565b611a16846118f1565b81016020851015611a25578190505b611a39611a31856118f1565b8301826119d8565b50505b505050565b600082821c905092915050565b6000611a5f60001984600802611a41565b1980831691505092915050565b6000611a788383611a4e565b9150826002028217905092915050565b611a91826112d1565b67ffffffffffffffff811115611aaa57611aa96110fa565b5b611ab482546117d3565b611abf8282856119fb565b600060209050601f831160018114611af25760008415611ae0578287015190505b611aea8582611a6c565b865550611b52565b601f198416611b00866118dc565b60005b82811015611b2857848901518255600182019150602085019450602081019050611b03565b86831015611b455784890151611b41601f891682611a4e565b8355505b6001600288020188555050505b505050505050565b7f44657669636520616c7265616479207265676973746572656400000000000000600082015250565b6000611b906019836112dc565b9150611b9b82611b5a565b602082019050919050565b60006020820190508181036000830152611bbf81611b83565b9050919050565b7f446576696365206973206465636f6d6d697373696f6e65640000000000000000600082015250565b6000611bfc6018836112dc565b9150611c0782611bc6565b602082019050919050565b60006020820190508181036000830152611c2b81611bef565b9050919050565b7f4e6f742063757272656e74204f776e6572000000000000000000000000000000600082015250565b6000611c686011836112dc565b9150611c7382611c32565b602082019050919050565b60006020820190508181036000830152611c9781611c5b565b905091905056fea264697066735822122031d85e53c2ae31dafb7d9c8d77b1b0910b981bbe4a9718460f94d6ba6860df2164736f6c634300081e0033",
					"opcodes": "PUSH1 0x80 PUSH1 0x40 MSTORE CALLVALUE DUP1 ISZERO PUSH1 0xF JUMPI PUSH1 0x0 DUP1 REVERT JUMPDEST POP CALLER PUSH1 0x0 DUP1 PUSH2 0x100 EXP DUP2 SLOAD DUP2 PUSH20 0xFFFFFFFFFFFFFFFFFFFFFFFFFFFFFFFFFFFFFFFF MUL NOT AND SWAP1 DUP4 PUSH20 0xFFFFFFFFFFFFFFFFFFFFFFFFFFFFFFFFFFFFFFFF AND MUL OR SWAP1 SSTORE POP PUSH2 0x1CD4 DUP1 PUSH2 0x5F PUSH1 0x0 CODECOPY PUSH1 0x0 RETURN INVALID PUSH1 0x80 PUSH1 0x40 MSTORE CALLVALUE DUP1 ISZERO PUSH2 0x10 JUMPI PUSH1 0x0 DUP1 REVERT JUMPDEST POP PUSH1 0x4 CALLDATASIZE LT PUSH2 0x9E JUMPI PUSH1 0x0 CALLDATALOAD PUSH1 0xE0 SHR DUP1 PUSH4 0xBCEAA96A GT PUSH2 0x66 JUMPI DUP1 PUSH4 0xBCEAA96A EQ PUSH2 0x174 JUMPI DUP1 PUSH4 0xC0E793C2 EQ PUSH2 0x190 JUMPI DUP1 PUSH4 0xC5C400DE EQ PUSH2 0x1AC JUMPI DUP1 PUSH4 0xE96F2FD8 EQ PUSH2 0x1E2 JUMPI DUP1 PUSH4 0xEA460CB6 EQ PUSH2 0x200 JUMPI PUSH2 0x9E JUMP JUMPDEST DUP1 PUSH4 0xD514338 EQ PUSH2 0xA3 JUMPI DUP1 PUSH4 0x1A4999C9 EQ PUSH2 0xBF JUMPI DUP1 PUSH4 0x5B906884 EQ PUSH2 0xF2 JUMPI DUP1 PUSH4 0xAAED589D EQ PUSH2 0x10E JUMPI DUP1 PUSH4 0xB71A0346 EQ PUSH2 0x13E JUMPI JUMPDEST PUSH1 0x0 DUP1 REVERT JUMPDEST PUSH2 0xBD PUSH1 0x4 DUP1 CALLDATASIZE SUB DUP2 ADD SWAP1 PUSH2 0xB8 SWAP2 SWAP1 PUSH2 0x1225 JUMP JUMPDEST PUSH2 0x230 JUMP JUMPDEST STOP JUMPDEST PUSH2 0xD9 PUSH1 0x4 DUP1 CALLDATASIZE SUB DUP2 ADD SWAP1 PUSH2 0xD4 SWAP2 SWAP1 PUSH2 0x12A4 JUMP JUMPDEST PUSH2 0x354 JUMP JUMPDEST PUSH1 0x40 MLOAD PUSH2 0xE9 SWAP5 SWAP4 SWAP3 SWAP2 SWAP1 PUSH2 0x1384 JUMP JUMPDEST PUSH1 0x40 MLOAD DUP1 SWAP2 SUB SWAP1 RETURN JUMPDEST PUSH2 0x10C PUSH1 0x4 DUP1 CALLDATASIZE SUB DUP2 ADD SWAP1 PUSH2 0x107 SWAP2 SWAP1 PUSH2 0x13D7 JUMP JUMPDEST PUSH2 0x4A1 JUMP JUMPDEST STOP JUMPDEST PUSH2 0x128 PUSH1 0x4 DUP1 CALLDATASIZE SUB DUP2 ADD SWAP1 PUSH2 0x123 SWAP2 SWAP1 PUSH2 0x1225 JUMP JUMPDEST PUSH2 0x653 JUMP JUMPDEST PUSH1 0x40 MLOAD PUSH2 0x135 SWAP2 SWAP1 PUSH2 0x144F JUMP JUMPDEST PUSH1 0x40 MLOAD DUP1 SWAP2 SUB SWAP1 RETURN JUMPDEST PUSH2 0x158 PUSH1 0x4 DUP1 CALLDATASIZE SUB DUP2 ADD SWAP1 PUSH2 0x153 SWAP2 SWAP1 PUSH2 0x1225 JUMP JUMPDEST PUSH2 0x6AB JUMP JUMPDEST PUSH1 0x40 MLOAD PUSH2 0x16B SWAP8 SWAP7 SWAP6 SWAP5 SWAP4 SWAP3 SWAP2 SWAP1 PUSH2 0x14AB JUMP JUMPDEST PUSH1 0x40 MLOAD DUP1 SWAP2 SUB SWAP1 RETURN JUMPDEST PUSH2 0x18E PUSH1 0x4 DUP1 CALLDATASIZE SUB DUP2 ADD SWAP1 PUSH2 0x189 SWAP2 SWAP1 PUSH2 0x152F JUMP JUMPDEST PUSH2 0x9F0 JUMP JUMPDEST STOP JUMPDEST PUSH2 0x1AA PUSH1 0x4 DUP1 CALLDATASIZE SUB DUP2 ADD SWAP1 PUSH2 0x1A5 SWAP2 SWAP1 PUSH2 0x1602 JUMP JUMPDEST PUSH2 0xC4B JUMP JUMPDEST STOP JUMPDEST PUSH2 0x1C6 PUSH1 0x4 DUP1 CALLDATASIZE SUB DUP2 ADD SWAP1 PUSH2 0x1C1 SWAP2 SWAP1 PUSH2 0x12A4 JUMP JUMPDEST PUSH2 0xE3B JUMP JUMPDEST PUSH1 0x40 MLOAD PUSH2 0x1D9 SWAP8 SWAP7 SWAP6 SWAP5 SWAP4 SWAP3 SWAP2 SWAP1 PUSH2 0x14AB JUMP JUMPDEST PUSH1 0x40 MLOAD DUP1 SWAP2 SUB SWAP1 RETURN JUMPDEST PUSH2 0x1EA PUSH2 0x104F JUMP JUMPDEST PUSH1 0x40 MLOAD PUSH2 0x1F7 SWAP2 SWAP1 PUSH2 0x165E JUMP JUMPDEST PUSH1 0x40 MLOAD DUP1 SWAP2 SUB SWAP1 RETURN JUMPDEST PUSH2 0x21A PUSH1 0x4 DUP1 CALLDATASIZE SUB DUP2 ADD SWAP1 PUSH2 0x215 SWAP2 SWAP1 PUSH2 0x1225 JUMP JUMPDEST PUSH2 0x1073 JUMP JUMPDEST PUSH1 0x40 MLOAD PUSH2 0x227 SWAP2 SWAP1 PUSH2 0x144F JUMP JUMPDEST PUSH1 0x40 MLOAD DUP1 SWAP2 SUB SWAP1 RETURN JUMPDEST PUSH1 0x0 DUP2 PUSH1 0x40 MLOAD PUSH1 0x20 ADD PUSH2 0x243 SWAP2 SWAP1 PUSH2 0x16B5 JUMP JUMPDEST PUSH1 0x40 MLOAD PUSH1 0x20 DUP2 DUP4 SUB SUB DUP2 MSTORE SWAP1 PUSH1 0x40 MSTORE DUP1 MLOAD SWAP1 PUSH1 0x20 ADD KECCAK256 SWAP1 POP PUSH1 0x1 PUSH1 0x0 DUP3 DUP2 MSTORE PUSH1 0x20 ADD SWAP1 DUP2 MSTORE PUSH1 0x20 ADD PUSH1 0x0 KECCAK256 PUSH1 0x4 ADD PUSH1 0x14 SWAP1 SLOAD SWAP1 PUSH2 0x100 EXP SWAP1 DIV PUSH1 0xFF AND PUSH2 0x2BE JUMPI PUSH1 0x40 MLOAD PUSH32 0x8C379A000000000000000000000000000000000000000000000000000000000 DUP2 MSTORE PUSH1 0x4 ADD PUSH2 0x2B5 SWAP1 PUSH2 0x1718 JUMP JUMPDEST PUSH1 0x40 MLOAD DUP1 SWAP2 SUB SWAP1 REVERT JUMPDEST PUSH1 0x1 PUSH1 0x0 DUP3 DUP2 MSTORE PUSH1 0x20 ADD SWAP1 DUP2 MSTORE PUSH1 0x20 ADD PUSH1 0x0 KECCAK256 PUSH1 0x4 ADD PUSH1 0x15 SWAP1 SLOAD SWAP1 PUSH2 0x100 EXP SWAP1 DIV PUSH1 0xFF AND ISZERO PUSH2 0x322 JUMPI PUSH1 0x40 MLOAD PUSH32 0x8C379A000000000000000000000000000000000000000000000000000000000 DUP2 MSTORE PUSH1 0x4 ADD PUSH2 0x319 SWAP1 PUSH2 0x1784 JUMP JUMPDEST PUSH1 0x40 MLOAD DUP1 SWAP2 SUB SWAP1 REVERT JUMPDEST PUSH1 0x1 DUP1 PUSH1 0x0 DUP4 DUP2 MSTORE PUSH1 0x20 ADD SWAP1 DUP2 MSTORE PUSH1 0x20 ADD PUSH1 0x0 KECCAK256 PUSH1 0x4 ADD PUSH1 0x15 PUSH2 0x100 EXP DUP2 SLOAD DUP2 PUSH1 0xFF MUL NOT AND SWAP1 DUP4 ISZERO ISZERO MUL OR SWAP1 SSTORE POP POP POP JUMP JUMPDEST PUSH1 0x2 PUSH1 0x20 MSTORE DUP1 PUSH1 0x0 MSTORE PUSH1 0x40 PUSH1 0x0 KECCAK256 PUSH1 0x0 SWAP2 POP SWAP1 POP DUP1 PUSH1 0x0 ADD DUP1 SLOAD PUSH2 0x377 SWAP1 PUSH2 0x17D3 JUMP JUMPDEST DUP1 PUSH1 0x1F ADD PUSH1 0x20 DUP1 SWAP2 DIV MUL PUSH1 0x20 ADD PUSH1 0x40 MLOAD SWAP1 DUP2 ADD PUSH1 0x40 MSTORE DUP1 SWAP3 SWAP2 SWAP1 DUP2 DUP2 MSTORE PUSH1 0x20 ADD DUP3 DUP1 SLOAD PUSH2 0x3A3 SWAP1 PUSH2 0x17D3 JUMP JUMPDEST DUP1 ISZERO PUSH2 0x3F0 JUMPI DUP1 PUSH1 0x1F LT PUSH2 0x3C5 JUMPI PUSH2 0x100 DUP1 DUP4 SLOAD DIV MUL DUP4 MSTORE SWAP2 PUSH1 0x20 ADD SWAP2 PUSH2 0x3F0 JUMP JUMPDEST DUP3 ADD SWAP2 SWAP1 PUSH1 0x0 MSTORE PUSH1 0x20 PUSH1 0x0 KECCAK256 SWAP1 JUMPDEST DUP2 SLOAD DUP2 MSTORE SWAP1 PUSH1 0x1 ADD SWAP1 PUSH1 0x20 ADD DUP1 DUP4 GT PUSH2 0x3D3 JUMPI DUP3 SWAP1 SUB PUSH1 0x1F AND DUP3 ADD SWAP2 JUMPDEST POP POP POP POP POP SWAP1 DUP1 PUSH1 0x1 ADD DUP1 SLOAD PUSH2 0x405 SWAP1 PUSH2 0x17D3 JUMP JUMPDEST DUP1 PUSH1 0x1F ADD PUSH1 0x20 DUP1 SWAP2 DIV MUL PUSH1 0x20 ADD PUSH1 0x40 MLOAD SWAP1 DUP2 ADD PUSH1 0x40 MSTORE DUP1 SWAP3 SWAP2 SWAP1 DUP2 DUP2 MSTORE PUSH1 0x20 ADD DUP3 DUP1 SLOAD PUSH2 0x431 SWAP1 PUSH2 0x17D3 JUMP JUMPDEST DUP1 ISZERO PUSH2 0x47E JUMPI DUP1 PUSH1 0x1F LT PUSH2 0x453 JUMPI PUSH2 0x100 DUP1 DUP4 SLOAD DIV MUL DUP4 MSTORE SWAP2 PUSH1 0x20 ADD SWAP2 PUSH2 0x47E JUMP JUMPDEST DUP3 ADD SWAP2 SWAP1 PUSH1 0x0 MSTORE PUSH1 0x20 PUSH1 0x0 KECCAK256 SWAP1 JUMPDEST DUP2 SLOAD DUP2 MSTORE SWAP1 PUSH1 0x1 ADD SWAP1 PUSH1 0x20 ADD DUP1 DUP4 GT PUSH2 0x461 JUMPI DUP3 SWAP1 SUB PUSH1 0x1F AND DUP3 ADD SWAP2 JUMPDEST POP POP POP POP POP SWAP1 DUP1 PUSH1 0x2 ADD SLOAD SWAP1 DUP1 PUSH1 0x3 ADD PUSH1 0x0 SWAP1 SLOAD SWAP1 PUSH2 0x100 EXP SWAP1 DIV PUSH1 0xFF AND SWAP1 POP DUP5 JUMP JUMPDEST PUSH1 0x0 DUP1 SLOAD SWAP1 PUSH2 0x100 EXP SWAP1 DIV PUSH20 0xFFFFFFFFFFFFFFFFFFFFFFFFFFFFFFFFFFFFFFFF AND PUSH20 0xFFFFFFFFFFFFFFFFFFFFFFFFFFFFFFFFFFFFFFFF AND CALLER PUSH20 0xFFFFFFFFFFFFFFFFFFFFFFFFFFFFFFFFFFFFFFFF AND EQ PUSH2 0x52F JUMPI PUSH1 0x40 MLOAD PUSH32 0x8C379A000000000000000000000000000000000000000000000000000000000 DUP2 MSTORE PUSH1 0x4 ADD PUSH2 0x526 SWAP1 PUSH2 0x1850 JUMP JUMPDEST PUSH1 0x40 MLOAD DUP1 SWAP2 SUB SWAP1 REVERT JUMPDEST PUSH1 0x0 DUP3 PUSH1 0x40 MLOAD PUSH1 0x20 ADD PUSH2 0x542 SWAP2 SWAP1 PUSH2 0x16B5 JUMP JUMPDEST PUSH1 0x40 MLOAD PUSH1 0x20 DUP2 DUP4 SUB SUB DUP2 MSTORE SWAP1 PUSH1 0x40 MSTORE DUP1 MLOAD SWAP1 PUSH1 0x20 ADD KECCAK256 SWAP1 POP PUSH1 0x2 PUSH1 0x0 DUP3 DUP2 MSTORE PUSH1 0x20 ADD SWAP1 DUP2 MSTORE PUSH1 0x20 ADD PUSH1 0x0 KECCAK256 PUSH1 0x3 ADD PUSH1 0x0 SWAP1 SLOAD SWAP1 PUSH2 0x100 EXP SWAP1 DIV PUSH1 0xFF AND ISZERO PUSH2 0x5BE JUMPI PUSH1 0x40 MLOAD PUSH32 0x8C379A000000000000000000000000000000000000000000000000000000000 DUP2 MSTORE PUSH1 0x4 ADD PUSH2 0x5B5 SWAP1 PUSH2 0x18BC JUMP JUMPDEST PUSH1 0x40 MLOAD DUP1 SWAP2 SUB SWAP1 REVERT JUMPDEST PUSH1 0x40 MLOAD DUP1 PUSH1 0x80 ADD PUSH1 0x40 MSTORE DUP1 DUP5 DUP2 MSTORE PUSH1 0x20 ADD DUP4 DUP2 MSTORE PUSH1 0x20 ADD TIMESTAMP DUP2 MSTORE PUSH1 0x20 ADD PUSH1 0x1 ISZERO ISZERO DUP2 MSTORE POP PUSH1 0x2 PUSH1 0x0 DUP4 DUP2 MSTORE PUSH1 0x20 ADD SWAP1 DUP2 MSTORE PUSH1 0x20 ADD PUSH1 0x0 KECCAK256 PUSH1 0x0 DUP3 ADD MLOAD DUP2 PUSH1 0x0 ADD SWAP1 DUP2 PUSH2 0x60A SWAP2 SWAP1 PUSH2 0x1A88 JUMP JUMPDEST POP PUSH1 0x20 DUP3 ADD MLOAD DUP2 PUSH1 0x1 ADD SWAP1 DUP2 PUSH2 0x620 SWAP2 SWAP1 PUSH2 0x1A88 JUMP JUMPDEST POP PUSH1 0x40 DUP3 ADD MLOAD DUP2 PUSH1 0x2 ADD SSTORE PUSH1 0x60 DUP3 ADD MLOAD DUP2 PUSH1 0x3 ADD PUSH1 0x0 PUSH2 0x100 EXP DUP2 SLOAD DUP2 PUSH1 0xFF MUL NOT AND SWAP1 DUP4 ISZERO ISZERO MUL OR SWAP1 SSTORE POP SWAP1 POP POP POP POP POP JUMP JUMPDEST PUSH1 0x0 DUP1 DUP3 PUSH1 0x40 MLOAD PUSH1 0x20 ADD PUSH2 0x667 SWAP2 SWAP1 PUSH2 0x16B5 JUMP JUMPDEST PUSH1 0x40 MLOAD PUSH1 0x20 DUP2 DUP4 SUB SUB DUP2 MSTORE SWAP1 PUSH1 0x40 MSTORE DUP1 MLOAD SWAP1 PUSH1 0x20 ADD KECCAK256 SWAP1 POP PUSH1 0x1 PUSH1 0x0 DUP3 DUP2 MSTORE PUSH1 0x20 ADD SWAP1 DUP2 MSTORE PUSH1 0x20 ADD PUSH1 0x0 KECCAK256 PUSH1 0x4 ADD PUSH1 0x14 SWAP1 SLOAD SWAP1 PUSH2 0x100 EXP SWAP1 DIV PUSH1 0xFF AND SWAP2 POP POP SWAP2 SWAP1 POP JUMP JUMPDEST PUSH1 0x60 DUP1 PUSH1 0x60 PUSH1 0x0 DUP1 PUSH1 0x0 DUP1 PUSH1 0x0 DUP9 PUSH1 0x40 MLOAD PUSH1 0x20 ADD PUSH2 0x6C9 SWAP2 SWAP1 PUSH2 0x16B5 JUMP JUMPDEST PUSH1 0x40 MLOAD PUSH1 0x20 DUP2 DUP4 SUB SUB DUP2 MSTORE SWAP1 PUSH1 0x40 MSTORE DUP1 MLOAD SWAP1 PUSH1 0x20 ADD KECCAK256 SWAP1 POP PUSH1 0x1 PUSH1 0x0 DUP3 DUP2 MSTORE PUSH1 0x20 ADD SWAP1 DUP2 MSTORE PUSH1 0x20 ADD PUSH1 0x0 KECCAK256 PUSH1 0x4 ADD PUSH1 0x14 SWAP1 SLOAD SWAP1 PUSH2 0x100 EXP SWAP1 DIV PUSH1 0xFF AND PUSH2 0x744 JUMPI PUSH1 0x40 MLOAD PUSH32 0x8C379A000000000000000000000000000000000000000000000000000000000 DUP2 MSTORE PUSH1 0x4 ADD PUSH2 0x73B SWAP1 PUSH2 0x1718 JUMP JUMPDEST PUSH1 0x40 MLOAD DUP1 SWAP2 SUB SWAP1 REVERT JUMPDEST PUSH1 0x0 PUSH1 0x1 PUSH1 0x0 DUP4 DUP2 MSTORE PUSH1 0x20 ADD SWAP1 DUP2 MSTORE PUSH1 0x20 ADD PUSH1 0x0 KECCAK256 PUSH1 0x40 MLOAD DUP1 PUSH1 0xE0 ADD PUSH1 0x40 MSTORE SWAP1 DUP2 PUSH1 0x0 DUP3 ADD DUP1 SLOAD PUSH2 0x774 SWAP1 PUSH2 0x17D3 JUMP JUMPDEST DUP1 PUSH1 0x1F ADD PUSH1 0x20 DUP1 SWAP2 DIV MUL PUSH1 0x20 ADD PUSH1 0x40 MLOAD SWAP1 DUP2 ADD PUSH1 0x40 MSTORE DUP1 SWAP3 SWAP2 SWAP1 DUP2 DUP2 MSTORE PUSH1 0x20 ADD DUP3 DUP1 SLOAD PUSH2 0x7A0 SWAP1 PUSH2 0x17D3 JUMP JUMPDEST DUP1 ISZERO PUSH2 0x7ED JUMPI DUP1 PUSH1 0x1F LT PUSH2 0x7C2 JUMPI PUSH2 0x100 DUP1 DUP4 SLOAD DIV MUL DUP4 MSTORE SWAP2 PUSH1 0x20 ADD SWAP2 PUSH2 0x7ED JUMP JUMPDEST DUP3 ADD SWAP2 SWAP1 PUSH1 0x0 MSTORE PUSH1 0x20 PUSH1 0x0 KECCAK256 SWAP1 JUMPDEST DUP2 SLOAD DUP2 MSTORE SWAP1 PUSH1 0x1 ADD SWAP1 PUSH1 0x20 ADD DUP1 DUP4 GT PUSH2 0x7D0 JUMPI DUP3 SWAP1 SUB PUSH1 0x1F AND DUP3 ADD SWAP2 JUMPDEST POP POP POP POP POP DUP2 MSTORE PUSH1 0x20 ADD PUSH1 0x1 DUP3 ADD DUP1 SLOAD PUSH2 0x806 SWAP1 PUSH2 0x17D3 JUMP JUMPDEST DUP1 PUSH1 0x1F ADD PUSH1 0x20 DUP1 SWAP2 DIV MUL PUSH1 0x20 ADD PUSH1 0x40 MLOAD SWAP1 DUP2 ADD PUSH1 0x40 MSTORE DUP1 SWAP3 SWAP2 SWAP1 DUP2 DUP2 MSTORE PUSH1 0x20 ADD DUP3 DUP1 SLOAD PUSH2 0x832 SWAP1 PUSH2 0x17D3 JUMP JUMPDEST DUP1 ISZERO PUSH2 0x87F JUMPI DUP1 PUSH1 0x1F LT PUSH2 0x854 JUMPI PUSH2 0x100 DUP1 DUP4 SLOAD DIV MUL DUP4 MSTORE SWAP2 PUSH1 0x20 ADD SWAP2 PUSH2 0x87F JUMP JUMPDEST DUP3 ADD SWAP2 SWAP1 PUSH1 0x0 MSTORE PUSH1 0x20 PUSH1 0x0 KECCAK256 SWAP1 JUMPDEST DUP2 SLOAD DUP2 MSTORE SWAP1 PUSH1 0x1 ADD SWAP1 PUSH1 0x20 ADD DUP1 DUP4 GT PUSH2 0x862 JUMPI DUP3 SWAP1 SUB PUSH1 0x1F AND DUP3 ADD SWAP2 JUMPDEST POP POP POP POP POP DUP2 MSTORE PUSH1 0x20 ADD PUSH1 0x2 DUP3 ADD DUP1 SLOAD PUSH2 0x898 SWAP1 PUSH2 0x17D3 JUMP JUMPDEST DUP1 PUSH1 0x1F ADD PUSH1 0x20 DUP1 SWAP2 DIV MUL PUSH1 0x20 ADD PUSH1 0x40 MLOAD SWAP1 DUP2 ADD PUSH1 0x40 MSTORE DUP1 SWAP3 SWAP2 SWAP1 DUP2 DUP2 MSTORE PUSH1 0x20 ADD DUP3 DUP1 SLOAD PUSH2 0x8C4 SWAP1 PUSH2 0x17D3 JUMP JUMPDEST DUP1 ISZERO PUSH2 0x911 JUMPI DUP1 PUSH1 0x1F LT PUSH2 0x8E6 JUMPI PUSH2 0x100 DUP1 DUP4 SLOAD DIV MUL DUP4 MSTORE SWAP2 PUSH1 0x20 ADD SWAP2 PUSH2 0x911 JUMP JUMPDEST DUP3 ADD SWAP2 SWAP1 PUSH1 0x0 MSTORE PUSH1 0x20 PUSH1 0x0 KECCAK256 SWAP1 JUMPDEST DUP2 SLOAD DUP2 MSTORE SWAP1 PUSH1 0x1 ADD SWAP1 PUSH1 0x20 ADD DUP1 DUP4 GT PUSH2 0x8F4 JUMPI DUP3 SWAP1 SUB PUSH1 0x1F AND DUP3 ADD SWAP2 JUMPDEST POP POP POP POP POP DUP2 MSTORE PUSH1 0x20 ADD PUSH1 0x3 DUP3 ADD SLOAD DUP2 MSTORE PUSH1 0x20 ADD PUSH1 0x4 DUP3 ADD PUSH1 0x0 SWAP1 SLOAD SWAP1 PUSH2 0x100 EXP SWAP1 DIV PUSH20 0xFFFFFFFFFFFFFFFFFFFFFFFFFFFFFFFFFFFFFFFF AND PUSH20 0xFFFFFFFFFFFFFFFFFFFFFFFFFFFFFFFFFFFFFFFF AND PUSH20 0xFFFFFFFFFFFFFFFFFFFFFFFFFFFFFFFFFFFFFFFF AND DUP2 MSTORE PUSH1 0x20 ADD PUSH1 0x4 DUP3 ADD PUSH1 0x14 SWAP1 SLOAD SWAP1 PUSH2 0x100 EXP SWAP1 DIV PUSH1 0xFF AND ISZERO ISZERO ISZERO ISZERO DUP2 MSTORE PUSH1 0x20 ADD PUSH1 0x4 DUP3 ADD PUSH1 0x15 SWAP1 SLOAD SWAP1 PUSH2 0x100 EXP SWAP1 DIV PUSH1 0xFF AND ISZERO ISZERO ISZERO ISZERO DUP2 MSTORE POP POP SWAP1 POP DUP1 PUSH1 0x0 ADD MLOAD DUP2 PUSH1 0x20 ADD MLOAD DUP3 PUSH1 0x40 ADD MLOAD DUP4 PUSH1 0x60 ADD MLOAD DUP5 PUSH1 0x80 ADD MLOAD DUP6 PUSH1 0xA0 ADD MLOAD DUP7 PUSH1 0xC0 ADD MLOAD SWAP9 POP SWAP9 POP SWAP9 POP SWAP9 POP SWAP9 POP SWAP9 POP SWAP9 POP POP POP SWAP2 SWAP4 SWAP6 SWAP8 SWAP1 SWAP3 SWAP5 SWAP7 POP JUMP JUMPDEST PUSH1 0x0 DUP1 SLOAD SWAP1 PUSH2 0x100 EXP SWAP1 DIV PUSH20 0xFFFFFFFFFFFFFFFFFFFFFFFFFFFFFFFFFFFFFFFF AND PUSH20 0xFFFFFFFFFFFFFFFFFFFFFFFFFFFFFFFFFFFFFFFF AND CALLER PUSH20 0xFFFFFFFFFFFFFFFFFFFFFFFFFFFFFFFFFFFFFFFF AND EQ PUSH2 0xA7E JUMPI PUSH1 0x40 MLOAD PUSH32 0x8C379A000000000000000000000000000000000000000000000000000000000 DUP2 MSTORE PUSH1 0x4 ADD PUSH2 0xA75 SWAP1 PUSH2 0x1850 JUMP JUMPDEST PUSH1 0x40 MLOAD DUP1 SWAP2 SUB SWAP1 REVERT JUMPDEST PUSH1 0x0 DUP4 PUSH1 0x40 MLOAD PUSH1 0x20 ADD PUSH2 0xA91 SWAP2 SWAP1 PUSH2 0x16B5 JUMP JUMPDEST PUSH1 0x40 MLOAD PUSH1 0x20 DUP2 DUP4 SUB SUB DUP2 MSTORE SWAP1 PUSH1 0x40 MSTORE DUP1 MLOAD SWAP1 PUSH1 0x20 ADD KECCAK256 SWAP1 POP PUSH1 0x1 PUSH1 0x0 DUP3 DUP2 MSTORE PUSH1 0x20 ADD SWAP1 DUP2 MSTORE PUSH1 0x20 ADD PUSH1 0x0 KECCAK256 PUSH1 0x4 ADD PUSH1 0x14 SWAP1 SLOAD SWAP1 PUSH2 0x100 EXP SWAP1 DIV PUSH1 0xFF AND ISZERO PUSH2 0xB0D JUMPI PUSH1 0x40 MLOAD PUSH32 0x8C379A000000000000000000000000000000000000000000000000000000000 DUP2 MSTORE PUSH1 0x4 ADD PUSH2 0xB04 SWAP1 PUSH2 0x1BA6 JUMP JUMPDEST PUSH1 0x40 MLOAD DUP1 SWAP2 SUB SWAP1 REVERT JUMPDEST PUSH1 0x40 MLOAD DUP1 PUSH1 0xE0 ADD PUSH1 0x40 MSTORE DUP1 DUP6 DUP2 MSTORE PUSH1 0x20 ADD DUP5 DUP2 MSTORE PUSH1 0x20 ADD DUP4 DUP2 MSTORE PUSH1 0x20 ADD TIMESTAMP DUP2 MSTORE PUSH1 0x20 ADD CALLER PUSH20 0xFFFFFFFFFFFFFFFFFFFFFFFFFFFFFFFFFFFFFFFF AND DUP2 MSTORE PUSH1 0x20 ADD PUSH1 0x1 ISZERO ISZERO DUP2 MSTORE PUSH1 0x20 ADD PUSH1 0x0 ISZERO ISZERO DUP2 MSTORE POP PUSH1 0x1 PUSH1 0x0 DUP4 DUP2 MSTORE PUSH1 0x20 ADD SWAP1 DUP2 MSTORE PUSH1 0x20 ADD PUSH1 0x0 KECCAK256 PUSH1 0x0 DUP3 ADD MLOAD DUP2 PUSH1 0x0 ADD SWAP1 DUP2 PUSH2 0xB84 SWAP2 SWAP1 PUSH2 0x1A88 JUMP JUMPDEST POP PUSH1 0x20 DUP3 ADD MLOAD DUP2 PUSH1 0x1 ADD SWAP1 DUP2 PUSH2 0xB9A SWAP2 SWAP1 PUSH2 0x1A88 JUMP JUMPDEST POP PUSH1 0x40 DUP3 ADD MLOAD DUP2 PUSH1 0x2 ADD SWAP1 DUP2 PUSH2 0xBB0 SWAP2 SWAP1 PUSH2 0x1A88 JUMP JUMPDEST POP PUSH1 0x60 DUP3 ADD MLOAD DUP2 PUSH1 0x3 ADD SSTORE PUSH1 0x80 DUP3 ADD MLOAD DUP2 PUSH1 0x4 ADD PUSH1 0x0 PUSH2 0x100 EXP DUP2 SLOAD DUP2 PUSH20 0xFFFFFFFFFFFFFFFFFFFFFFFFFFFFFFFFFFFFFFFF MUL NOT AND SWAP1 DUP4 PUSH20 0xFFFFFFFFFFFFFFFFFFFFFFFFFFFFFFFFFFFFFFFF AND MUL OR SWAP1 SSTORE POP PUSH1 0xA0 DUP3 ADD MLOAD DUP2 PUSH1 0x4 ADD PUSH1 0x14 PUSH2 0x100 EXP DUP2 SLOAD DUP2 PUSH1 0xFF MUL NOT AND SWAP1 DUP4 ISZERO ISZERO MUL OR SWAP1 SSTORE POP PUSH1 0xC0 DUP3 ADD MLOAD DUP2 PUSH1 0x4 ADD PUSH1 0x15 PUSH2 0x100 EXP DUP2 SLOAD DUP2 PUSH1 0xFF MUL NOT AND SWAP1 DUP4 ISZERO ISZERO MUL OR SWAP1 SSTORE POP SWAP1 POP POP POP POP POP POP JUMP JUMPDEST PUSH1 0x0 DUP3 PUSH1 0x40 MLOAD PUSH1 0x20 ADD PUSH2 0xC5E SWAP2 SWAP1 PUSH2 0x16B5 JUMP JUMPDEST PUSH1 0x40 MLOAD PUSH1 0x20 DUP2 DUP4 SUB SUB DUP2 MSTORE SWAP1 PUSH1 0x40 MSTORE DUP1 MLOAD SWAP1 PUSH1 0x20 ADD KECCAK256 SWAP1 POP PUSH1 0x1 PUSH1 0x0 DUP3 DUP2 MSTORE PUSH1 0x20 ADD SWAP1 DUP2 MSTORE PUSH1 0x20 ADD PUSH1 0x0 KECCAK256 PUSH1 0x4 ADD PUSH1 0x14 SWAP1 SLOAD SWAP1 PUSH2 0x100 EXP SWAP1 DIV PUSH1 0xFF AND PUSH2 0xCD9 JUMPI PUSH1 0x40 MLOAD PUSH32 0x8C379A000000000000000000000000000000000000000000000000000000000 DUP2 MSTORE PUSH1 0x4 ADD PUSH2 0xCD0 SWAP1 PUSH2 0x1718 JUMP JUMPDEST PUSH1 0x40 MLOAD DUP1 SWAP2 SUB SWAP1 REVERT JUMPDEST PUSH1 0x1 PUSH1 0x0 DUP3 DUP2 MSTORE PUSH1 0x20 ADD SWAP1 DUP2 MSTORE PUSH1 0x20 ADD PUSH1 0x0 KECCAK256 PUSH1 0x4 ADD PUSH1 0x15 SWAP1 SLOAD SWAP1 PUSH2 0x100 EXP SWAP1 DIV PUSH1 0xFF AND ISZERO PUSH2 0xD3D JUMPI PUSH1 0x40 MLOAD PUSH32 0x8C379A000000000000000000000000000000000000000000000000000000000 DUP2 MSTORE PUSH1 0x4 ADD PUSH2 0xD34 SWAP1 PUSH2 0x1C12 JUMP JUMPDEST PUSH1 0x40 MLOAD DUP1 SWAP2 SUB SWAP1 REVERT JUMPDEST CALLER PUSH20 0xFFFFFFFFFFFFFFFFFFFFFFFFFFFFFFFFFFFFFFFF AND PUSH1 0x1 PUSH1 0x0 DUP4 DUP2 MSTORE PUSH1 0x20 ADD SWAP1 DUP2 MSTORE PUSH1 0x20 ADD PUSH1 0x0 KECCAK256 PUSH1 0x4 ADD PUSH1 0x0 SWAP1 SLOAD SWAP1 PUSH2 0x100 EXP SWAP1 DIV PUSH20 0xFFFFFFFFFFFFFFFFFFFFFFFFFFFFFFFFFFFFFFFF AND PUSH20 0xFFFFFFFFFFFFFFFFFFFFFFFFFFFFFFFFFFFFFFFF AND EQ PUSH2 0xDE1 JUMPI PUSH1 0x40 MLOAD PUSH32 0x8C379A000000000000000000000000000000000000000000000000000000000 DUP2 MSTORE PUSH1 0x4 ADD PUSH2 0xDD8 SWAP1 PUSH2 0x1C7E JUMP JUMPDEST PUSH1 0x40 MLOAD DUP1 SWAP2 SUB SWAP1 REVERT JUMPDEST DUP2 PUSH1 0x1 PUSH1 0x0 DUP4 DUP2 MSTORE PUSH1 0x20 ADD SWAP1 DUP2 MSTORE PUSH1 0x20 ADD PUSH1 0x0 KECCAK256 PUSH1 0x4 ADD PUSH1 0x0 PUSH2 0x100 EXP DUP2 SLOAD DUP2 PUSH20 0xFFFFFFFFFFFFFFFFFFFFFFFFFFFFFFFFFFFFFFFF MUL NOT AND SWAP1 DUP4 PUSH20 0xFFFFFFFFFFFFFFFFFFFFFFFFFFFFFFFFFFFFFFFF AND MUL OR SWAP1 SSTORE POP POP POP POP JUMP JUMPDEST PUSH1 0x1 PUSH1 0x20 MSTORE DUP1 PUSH1 0x0 MSTORE PUSH1 0x40 PUSH1 0x0 KECCAK256 PUSH1 0x0 SWAP2 POP SWAP1 POP DUP1 PUSH1 0x0 ADD DUP1 SLOAD PUSH2 0xE5E SWAP1 PUSH2 0x17D3 JUMP JUMPDEST DUP1 PUSH1 0x1F ADD PUSH1 0x20 DUP1 SWAP2 DIV MUL PUSH1 0x20 ADD PUSH1 0x40 MLOAD SWAP1 DUP2 ADD PUSH1 0x40 MSTORE DUP1 SWAP3 SWAP2 SWAP1 DUP2 DUP2 MSTORE PUSH1 0x20 ADD DUP3 DUP1 SLOAD PUSH2 0xE8A SWAP1 PUSH2 0x17D3 JUMP JUMPDEST DUP1 ISZERO PUSH2 0xED7 JUMPI DUP1 PUSH1 0x1F LT PUSH2 0xEAC JUMPI PUSH2 0x100 DUP1 DUP4 SLOAD DIV MUL DUP4 MSTORE SWAP2 PUSH1 0x20 ADD SWAP2 PUSH2 0xED7 JUMP JUMPDEST DUP3 ADD SWAP2 SWAP1 PUSH1 0x0 MSTORE PUSH1 0x20 PUSH1 0x0 KECCAK256 SWAP1 JUMPDEST DUP2 SLOAD DUP2 MSTORE SWAP1 PUSH1 0x1 ADD SWAP1 PUSH1 0x20 ADD DUP1 DUP4 GT PUSH2 0xEBA JUMPI DUP3 SWAP1 SUB PUSH1 0x1F AND DUP3 ADD SWAP2 JUMPDEST POP POP POP POP POP SWAP1 DUP1 PUSH1 0x1 ADD DUP1 SLOAD PUSH2 0xEEC SWAP1 PUSH2 0x17D3 JUMP JUMPDEST DUP1 PUSH1 0x1F ADD PUSH1 0x20 DUP1 SWAP2 DIV MUL PUSH1 0x20 ADD PUSH1 0x40 MLOAD SWAP1 DUP2 ADD PUSH1 0x40 MSTORE DUP1 SWAP3 SWAP2 SWAP1 DUP2 DUP2 MSTORE PUSH1 0x20 ADD DUP3 DUP1 SLOAD PUSH2 0xF18 SWAP1 PUSH2 0x17D3 JUMP JUMPDEST DUP1 ISZERO PUSH2 0xF65 JUMPI DUP1 PUSH1 0x1F LT PUSH2 0xF3A JUMPI PUSH2 0x100 DUP1 DUP4 SLOAD DIV MUL DUP4 MSTORE SWAP2 PUSH1 0x20 ADD SWAP2 PUSH2 0xF65 JUMP JUMPDEST DUP3 ADD SWAP2 SWAP1 PUSH1 0x0 MSTORE PUSH1 0x20 PUSH1 0x0 KECCAK256 SWAP1 JUMPDEST DUP2 SLOAD DUP2 MSTORE SWAP1 PUSH1 0x1 ADD SWAP1 PUSH1 0x20 ADD DUP1 DUP4 GT PUSH2 0xF48 JUMPI DUP3 SWAP1 SUB PUSH1 0x1F AND DUP3 ADD SWAP2 JUMPDEST POP POP POP POP POP SWAP1 DUP1 PUSH1 0x2 ADD DUP1 SLOAD PUSH2 0xF7A SWAP1 PUSH2 0x17D3 JUMP JUMPDEST DUP1 PUSH1 0x1F ADD PUSH1 0x20 DUP1 SWAP2 DIV MUL PUSH1 0x20 ADD PUSH1 0x40 MLOAD SWAP1 DUP2 ADD PUSH1 0x40 MSTORE DUP1 SWAP3 SWAP2 SWAP1 DUP2 DUP2 MSTORE PUSH1 0x20 ADD DUP3 DUP1 SLOAD PUSH2 0xFA6 SWAP1 PUSH2 0x17D3 JUMP JUMPDEST DUP1 ISZERO PUSH2 0xFF3 JUMPI DUP1 PUSH1 0x1F LT PUSH2 0xFC8 JUMPI PUSH2 0x100 DUP1 DUP4 SLOAD DIV MUL DUP4 MSTORE SWAP2 PUSH1 0x20 ADD SWAP2 PUSH2 0xFF3 JUMP JUMPDEST DUP3 ADD SWAP2 SWAP1 PUSH1 0x0 MSTORE PUSH1 0x20 PUSH1 0x0 KECCAK256 SWAP1 JUMPDEST DUP2 SLOAD DUP2 MSTORE SWAP1 PUSH1 0x1 ADD SWAP1 PUSH1 0x20 ADD DUP1 DUP4 GT PUSH2 0xFD6 JUMPI DUP3 SWAP1 SUB PUSH1 0x1F AND DUP3 ADD SWAP2 JUMPDEST POP POP POP POP POP SWAP1 DUP1 PUSH1 0x3 ADD SLOAD SWAP1 DUP1 PUSH1 0x4 ADD PUSH1 0x0 SWAP1 SLOAD SWAP1 PUSH2 0x100 EXP SWAP1 DIV PUSH20 0xFFFFFFFFFFFFFFFFFFFFFFFFFFFFFFFFFFFFFFFF AND SWAP1 DUP1 PUSH1 0x4 ADD PUSH1 0x14 SWAP1 SLOAD SWAP1 PUSH2 0x100 EXP SWAP1 DIV PUSH1 0xFF AND SWAP1 DUP1 PUSH1 0x4 ADD PUSH1 0x15 SWAP1 SLOAD SWAP1 PUSH2 0x100 EXP SWAP1 DIV PUSH1 0xFF AND SWAP1 POP DUP8 JUMP JUMPDEST PUSH1 0x0 DUP1 SLOAD SWAP1 PUSH2 0x100 EXP SWAP1 DIV PUSH20 0xFFFFFFFFFFFFFFFFFFFFFFFFFFFFFFFFFFFFFFFF AND DUP2 JUMP JUMPDEST PUSH1 0x0 DUP1 DUP3 PUSH1 0x40 MLOAD PUSH1 0x20 ADD PUSH2 0x1087 SWAP2 SWAP1 PUSH2 0x16B5 JUMP JUMPDEST PUSH1 0x40 MLOAD PUSH1 0x20 DUP2 DUP4 SUB SUB DUP2 MSTORE SWAP1 PUSH1 0x40 MSTORE DUP1 MLOAD SWAP1 PUSH1 0x20 ADD KECCAK256 SWAP1 POP PUSH1 0x2 PUSH1 0x0 DUP3 DUP2 MSTORE PUSH1 0x20 ADD SWAP1 DUP2 MSTORE PUSH1 0x20 ADD PUSH1 0x0 KECCAK256 PUSH1 0x3 ADD PUSH1 0x0 SWAP1 SLOAD SWAP1 PUSH2 0x100 EXP SWAP1 DIV PUSH1 0xFF AND SWAP2 POP POP SWAP2 SWAP1 POP JUMP JUMPDEST PUSH1 0x0 PUSH1 0x40 MLOAD SWAP1 POP SWAP1 JUMP JUMPDEST PUSH1 0x0 DUP1 REVERT JUMPDEST PUSH1 0x0 DUP1 REVERT JUMPDEST PUSH1 0x0 DUP1 REVERT JUMPDEST PUSH1 0x0 DUP1 REVERT JUMPDEST PUSH1 0x0 PUSH1 0x1F NOT PUSH1 0x1F DUP4 ADD AND SWAP1 POP SWAP2 SWAP1 POP JUMP JUMPDEST PUSH32 0x4E487B7100000000000000000000000000000000000000000000000000000000 PUSH1 0x0 MSTORE PUSH1 0x41 PUSH1 0x4 MSTORE PUSH1 0x24 PUSH1 0x0 REVERT JUMPDEST PUSH2 0x1132 DUP3 PUSH2 0x10E9 JUMP JUMPDEST DUP2 ADD DUP2 DUP2 LT PUSH8 0xFFFFFFFFFFFFFFFF DUP3 GT OR ISZERO PUSH2 0x1151 JUMPI PUSH2 0x1150 PUSH2 0x10FA JUMP JUMPDEST JUMPDEST DUP1 PUSH1 0x40 MSTORE POP POP POP JUMP JUMPDEST PUSH1 0x0 PUSH2 0x1164 PUSH2 0x10CB JUMP JUMPDEST SWAP1 POP PUSH2 0x1170 DUP3 DUP3 PUSH2 0x1129 JUMP JUMPDEST SWAP2 SWAP1 POP JUMP JUMPDEST PUSH1 0x0 PUSH8 0xFFFFFFFFFFFFFFFF DUP3 GT ISZERO PUSH2 0x1190 JUMPI PUSH2 0x118F PUSH2 0x10FA JUMP JUMPDEST JUMPDEST PUSH2 0x1199 DUP3 PUSH2 0x10E9 JUMP JUMPDEST SWAP1 POP PUSH1 0x20 DUP2 ADD SWAP1 POP SWAP2 SWAP1 POP JUMP JUMPDEST DUP3 DUP2 DUP4 CALLDATACOPY PUSH1 0x0 DUP4 DUP4 ADD MSTORE POP POP POP JUMP JUMPDEST PUSH1 0x0 PUSH2 0x11C8 PUSH2 0x11C3 DUP5 PUSH2 0x1175 JUMP JUMPDEST PUSH2 0x115A JUMP JUMPDEST SWAP1 POP DUP3 DUP2 MSTORE PUSH1 0x20 DUP2 ADD DUP5 DUP5 DUP5 ADD GT ISZERO PUSH2 0x11E4 JUMPI PUSH2 0x11E3 PUSH2 0x10E4 JUMP JUMPDEST JUMPDEST PUSH2 0x11EF DUP5 DUP3 DUP6 PUSH2 0x11A6 JUMP JUMPDEST POP SWAP4 SWAP3 POP POP POP JUMP JUMPDEST PUSH1 0x0 DUP3 PUSH1 0x1F DUP4 ADD SLT PUSH2 0x120C JUMPI PUSH2 0x120B PUSH2 0x10DF JUMP JUMPDEST JUMPDEST DUP2 CALLDATALOAD PUSH2 0x121C DUP5 DUP3 PUSH1 0x20 DUP7 ADD PUSH2 0x11B5 JUMP JUMPDEST SWAP2 POP POP SWAP3 SWAP2 POP POP JUMP JUMPDEST PUSH1 0x0 PUSH1 0x20 DUP3 DUP5 SUB SLT ISZERO PUSH2 0x123B JUMPI PUSH2 0x123A PUSH2 0x10D5 JUMP JUMPDEST JUMPDEST PUSH1 0x0 DUP3 ADD CALLDATALOAD PUSH8 0xFFFFFFFFFFFFFFFF DUP2 GT ISZERO PUSH2 0x1259 JUMPI PUSH2 0x1258 PUSH2 0x10DA JUMP JUMPDEST JUMPDEST PUSH2 0x1265 DUP5 DUP3 DUP6 ADD PUSH2 0x11F7 JUMP JUMPDEST SWAP2 POP POP SWAP3 SWAP2 POP POP JUMP JUMPDEST PUSH1 0x0 DUP2 SWAP1 POP SWAP2 SWAP1 POP JUMP JUMPDEST PUSH2 0x1281 DUP2 PUSH2 0x126E JUMP JUMPDEST DUP2 EQ PUSH2 0x128C JUMPI PUSH1 0x0 DUP1 REVERT JUMPDEST POP JUMP JUMPDEST PUSH1 0x0 DUP2 CALLDATALOAD SWAP1 POP PUSH2 0x129E DUP2 PUSH2 0x1278 JUMP JUMPDEST SWAP3 SWAP2 POP POP JUMP JUMPDEST PUSH1 0x0 PUSH1 0x20 DUP3 DUP5 SUB SLT ISZERO PUSH2 0x12BA JUMPI PUSH2 0x12B9 PUSH2 0x10D5 JUMP JUMPDEST JUMPDEST PUSH1 0x0 PUSH2 0x12C8 DUP5 DUP3 DUP6 ADD PUSH2 0x128F JUMP JUMPDEST SWAP2 POP POP SWAP3 SWAP2 POP POP JUMP JUMPDEST PUSH1 0x0 DUP2 MLOAD SWAP1 POP SWAP2 SWAP1 POP JUMP JUMPDEST PUSH1 0x0 DUP3 DUP3 MSTORE PUSH1 0x20 DUP3 ADD SWAP1 POP SWAP3 SWAP2 POP POP JUMP JUMPDEST PUSH1 0x0 JUMPDEST DUP4 DUP2 LT ISZERO PUSH2 0x130B JUMPI DUP1 DUP3 ADD MLOAD DUP2 DUP5 ADD MSTORE PUSH1 0x20 DUP2 ADD SWAP1 POP PUSH2 0x12F0 JUMP JUMPDEST PUSH1 0x0 DUP5 DUP5 ADD MSTORE POP POP POP POP JUMP JUMPDEST PUSH1 0x0 PUSH2 0x1322 DUP3 PUSH2 0x12D1 JUMP JUMPDEST PUSH2 0x132C DUP2 DUP6 PUSH2 0x12DC JUMP JUMPDEST SWAP4 POP PUSH2 0x133C DUP2 DUP6 PUSH1 0x20 DUP7 ADD PUSH2 0x12ED JUMP JUMPDEST PUSH2 0x1345 DUP2 PUSH2 0x10E9 JUMP JUMPDEST DUP5 ADD SWAP2 POP POP SWAP3 SWAP2 POP POP JUMP JUMPDEST PUSH1 0x0 DUP2 SWAP1 POP SWAP2 SWAP1 POP JUMP JUMPDEST PUSH2 0x1363 DUP2 PUSH2 0x1350 JUMP JUMPDEST DUP3 MSTORE POP POP JUMP JUMPDEST PUSH1 0x0 DUP2 ISZERO ISZERO SWAP1 POP SWAP2 SWAP1 POP JUMP JUMPDEST PUSH2 0x137E DUP2 PUSH2 0x1369 JUMP JUMPDEST DUP3 MSTORE POP POP JUMP JUMPDEST PUSH1 0x0 PUSH1 0x80 DUP3 ADD SWAP1 POP DUP2 DUP2 SUB PUSH1 0x0 DUP4 ADD MSTORE PUSH2 0x139E DUP2 DUP8 PUSH2 0x1317 JUMP JUMPDEST SWAP1 POP DUP2 DUP2 SUB PUSH1 0x20 DUP4 ADD MSTORE PUSH2 0x13B2 DUP2 DUP7 PUSH2 0x1317 JUMP JUMPDEST SWAP1 POP PUSH2 0x13C1 PUSH1 0x40 DUP4 ADD DUP6 PUSH2 0x135A JUMP JUMPDEST PUSH2 0x13CE PUSH1 0x60 DUP4 ADD DUP5 PUSH2 0x1375 JUMP JUMPDEST SWAP6 SWAP5 POP POP POP POP POP JUMP JUMPDEST PUSH1 0x0 DUP1 PUSH1 0x40 DUP4 DUP6 SUB SLT ISZERO PUSH2 0x13EE JUMPI PUSH2 0x13ED PUSH2 0x10D5 JUMP JUMPDEST JUMPDEST PUSH1 0x0 DUP4 ADD CALLDATALOAD PUSH8 0xFFFFFFFFFFFFFFFF DUP2 GT ISZERO PUSH2 0x140C JUMPI PUSH2 0x140B PUSH2 0x10DA JUMP JUMPDEST JUMPDEST PUSH2 0x1418 DUP6 DUP3 DUP7 ADD PUSH2 0x11F7 JUMP JUMPDEST SWAP3 POP POP PUSH1 0x20 DUP4 ADD CALLDATALOAD PUSH8 0xFFFFFFFFFFFFFFFF DUP2 GT ISZERO PUSH2 0x1439 JUMPI PUSH2 0x1438 PUSH2 0x10DA JUMP JUMPDEST JUMPDEST PUSH2 0x1445 DUP6 DUP3 DUP7 ADD PUSH2 0x11F7 JUMP JUMPDEST SWAP2 POP POP SWAP3 POP SWAP3 SWAP1 POP JUMP JUMPDEST PUSH1 0x0 PUSH1 0x20 DUP3 ADD SWAP1 POP PUSH2 0x1464 PUSH1 0x0 DUP4 ADD DUP5 PUSH2 0x1375 JUMP JUMPDEST SWAP3 SWAP2 POP POP JUMP JUMPDEST PUSH1 0x0 PUSH20 0xFFFFFFFFFFFFFFFFFFFFFFFFFFFFFFFFFFFFFFFF DUP3 AND SWAP1 POP SWAP2 SWAP1 POP JUMP JUMPDEST PUSH1 0x0 PUSH2 0x1495 DUP3 PUSH2 0x146A JUMP JUMPDEST SWAP1 POP SWAP2 SWAP1 POP JUMP JUMPDEST PUSH2 0x14A5 DUP2 PUSH2 0x148A JUMP JUMPDEST DUP3 MSTORE POP POP JUMP JUMPDEST PUSH1 0x0 PUSH1 0xE0 DUP3 ADD SWAP1 POP DUP2 DUP2 SUB PUSH1 0x0 DUP4 ADD MSTORE PUSH2 0x14C5 DUP2 DUP11 PUSH2 0x1317 JUMP JUMPDEST SWAP1 POP DUP2 DUP2 SUB PUSH1 0x20 DUP4 ADD MSTORE PUSH2 0x14D9 DUP2 DUP10 PUSH2 0x1317 JUMP JUMPDEST SWAP1 POP DUP2 DUP2 SUB PUSH1 0x40 DUP4 ADD MSTORE PUSH2 0x14ED DUP2 DUP9 PUSH2 0x1317 JUMP JUMPDEST SWAP1 POP PUSH2 0x14FC PUSH1 0x60 DUP4 ADD DUP8 PUSH2 0x135A JUMP JUMPDEST PUSH2 0x1509 PUSH1 0x80 DUP4 ADD DUP7 PUSH2 0x149C JUMP JUMPDEST PUSH2 0x1516 PUSH1 0xA0 DUP4 ADD DUP6 PUSH2 0x1375 JUMP JUMPDEST PUSH2 0x1523 PUSH1 0xC0 DUP4 ADD DUP5 PUSH2 0x1375 JUMP JUMPDEST SWAP9 SWAP8 POP POP POP POP POP POP POP POP JUMP JUMPDEST PUSH1 0x0 DUP1 PUSH1 0x0 PUSH1 0x60 DUP5 DUP7 SUB SLT ISZERO PUSH2 0x1548 JUMPI PUSH2 0x1547 PUSH2 0x10D5 JUMP JUMPDEST JUMPDEST PUSH1 0x0 DUP5 ADD CALLDATALOAD PUSH8 0xFFFFFFFFFFFFFFFF DUP2 GT ISZERO PUSH2 0x1566 JUMPI PUSH2 0x1565 PUSH2 0x10DA JUMP JUMPDEST JUMPDEST PUSH2 0x1572 DUP7 DUP3 DUP8 ADD PUSH2 0x11F7 JUMP JUMPDEST SWAP4 POP POP PUSH1 0x20 DUP5 ADD CALLDATALOAD PUSH8 0xFFFFFFFFFFFFFFFF DUP2 GT ISZERO PUSH2 0x1593 JUMPI PUSH2 0x1592 PUSH2 0x10DA JUMP JUMPDEST JUMPDEST PUSH2 0x159F DUP7 DUP3 DUP8 ADD PUSH2 0x11F7 JUMP JUMPDEST SWAP3 POP POP PUSH1 0x40 DUP5 ADD CALLDATALOAD PUSH8 0xFFFFFFFFFFFFFFFF DUP2 GT ISZERO PUSH2 0x15C0 JUMPI PUSH2 0x15BF PUSH2 0x10DA JUMP JUMPDEST JUMPDEST PUSH2 0x15CC DUP7 DUP3 DUP8 ADD PUSH2 0x11F7 JUMP JUMPDEST SWAP2 POP POP SWAP3 POP SWAP3 POP SWAP3 JUMP JUMPDEST PUSH2 0x15DF DUP2 PUSH2 0x148A JUMP JUMPDEST DUP2 EQ PUSH2 0x15EA JUMPI PUSH1 0x0 DUP1 REVERT JUMPDEST POP JUMP JUMPDEST PUSH1 0x0 DUP2 CALLDATALOAD SWAP1 POP PUSH2 0x15FC DUP2 PUSH2 0x15D6 JUMP JUMPDEST SWAP3 SWAP2 POP POP JUMP JUMPDEST PUSH1 0x0 DUP1 PUSH1 0x40 DUP4 DUP6 SUB SLT ISZERO PUSH2 0x1619 JUMPI PUSH2 0x1618 PUSH2 0x10D5 JUMP JUMPDEST JUMPDEST PUSH1 0x0 DUP4 ADD CALLDATALOAD PUSH8 0xFFFFFFFFFFFFFFFF DUP2 GT ISZERO PUSH2 0x1637 JUMPI PUSH2 0x1636 PUSH2 0x10DA JUMP JUMPDEST JUMPDEST PUSH2 0x1643 DUP6 DUP3 DUP7 ADD PUSH2 0x11F7 JUMP JUMPDEST SWAP3 POP POP PUSH1 0x20 PUSH2 0x1654 DUP6 DUP3 DUP7 ADD PUSH2 0x15ED JUMP JUMPDEST SWAP2 POP POP SWAP3 POP SWAP3 SWAP1 POP JUMP JUMPDEST PUSH1 0x0 PUSH1 0x20 DUP3 ADD SWAP1 POP PUSH2 0x1673 PUSH1 0x0 DUP4 ADD DUP5 PUSH2 0x149C JUMP JUMPDEST SWAP3 SWAP2 POP POP JUMP JUMPDEST PUSH1 0x0 DUP2 SWAP1 POP SWAP3 SWAP2 POP POP JUMP JUMPDEST PUSH1 0x0 PUSH2 0x168F DUP3 PUSH2 0x12D1 JUMP JUMPDEST PUSH2 0x1699 DUP2 DUP6 PUSH2 0x1679 JUMP JUMPDEST SWAP4 POP PUSH2 0x16A9 DUP2 DUP6 PUSH1 0x20 DUP7 ADD PUSH2 0x12ED JUMP JUMPDEST DUP1 DUP5 ADD SWAP2 POP POP SWAP3 SWAP2 POP POP JUMP JUMPDEST PUSH1 0x0 PUSH2 0x16C1 DUP3 DUP5 PUSH2 0x1684 JUMP JUMPDEST SWAP2 POP DUP2 SWAP1 POP SWAP3 SWAP2 POP POP JUMP JUMPDEST PUSH32 0x446576696365206E6F7420666F756E6400000000000000000000000000000000 PUSH1 0x0 DUP3 ADD MSTORE POP JUMP JUMPDEST PUSH1 0x0 PUSH2 0x1702 PUSH1 0x10 DUP4 PUSH2 0x12DC JUMP JUMPDEST SWAP2 POP PUSH2 0x170D DUP3 PUSH2 0x16CC JUMP JUMPDEST PUSH1 0x20 DUP3 ADD SWAP1 POP SWAP2 SWAP1 POP JUMP JUMPDEST PUSH1 0x0 PUSH1 0x20 DUP3 ADD SWAP1 POP DUP2 DUP2 SUB PUSH1 0x0 DUP4 ADD MSTORE PUSH2 0x1731 DUP2 PUSH2 0x16F5 JUMP JUMPDEST SWAP1 POP SWAP2 SWAP1 POP JUMP JUMPDEST PUSH32 0x416C7265616479206465636F6D6D697373696F6E656400000000000000000000 PUSH1 0x0 DUP3 ADD MSTORE POP JUMP JUMPDEST PUSH1 0x0 PUSH2 0x176E PUSH1 0x16 DUP4 PUSH2 0x12DC JUMP JUMPDEST SWAP2 POP PUSH2 0x1779 DUP3 PUSH2 0x1738 JUMP JUMPDEST PUSH1 0x20 DUP3 ADD SWAP1 POP SWAP2 SWAP1 POP JUMP JUMPDEST PUSH1 0x0 PUSH1 0x20 DUP3 ADD SWAP1 POP DUP2 DUP2 SUB PUSH1 0x0 DUP4 ADD MSTORE PUSH2 0x179D DUP2 PUSH2 0x1761 JUMP JUMPDEST SWAP1 POP SWAP2 SWAP1 POP JUMP JUMPDEST PUSH32 0x4E487B7100000000000000000000000000000000000000000000000000000000 PUSH1 0x0 MSTORE PUSH1 0x22 PUSH1 0x4 MSTORE PUSH1 0x24 PUSH1 0x0 REVERT JUMPDEST PUSH1 0x0 PUSH1 0x2 DUP3 DIV SWAP1 POP PUSH1 0x1 DUP3 AND DUP1 PUSH2 0x17EB JUMPI PUSH1 0x7F DUP3 AND SWAP2 POP JUMPDEST PUSH1 0x20 DUP3 LT DUP2 SUB PUSH2 0x17FE JUMPI PUSH2 0x17FD PUSH2 0x17A4 JUMP JUMPDEST JUMPDEST POP SWAP2 SWAP1 POP JUMP JUMPDEST PUSH32 0x4F6E6C79204F454D2063616E2063616C6C207468697300000000000000000000 PUSH1 0x0 DUP3 ADD MSTORE POP JUMP JUMPDEST PUSH1 0x0 PUSH2 0x183A PUSH1 0x16 DUP4 PUSH2 0x12DC JUMP JUMPDEST SWAP2 POP PUSH2 0x1845 DUP3 PUSH2 0x1804 JUMP JUMPDEST PUSH1 0x20 DUP3 ADD SWAP1 POP SWAP2 SWAP1 POP JUMP JUMPDEST PUSH1 0x0 PUSH1 0x20 DUP3 ADD SWAP1 POP DUP2 DUP2 SUB PUSH1 0x0 DUP4 ADD MSTORE PUSH2 0x1869 DUP2 PUSH2 0x182D JUMP JUMPDEST SWAP1 POP SWAP2 SWAP1 POP JUMP JUMPDEST PUSH32 0x436F6D706F6E656E7420416C7265616479205265676973746572656400000000 PUSH1 0x0 DUP3 ADD MSTORE POP JUMP JUMPDEST PUSH1 0x0 PUSH2 0x18A6 PUSH1 0x1C DUP4 PUSH2 0x12DC JUMP JUMPDEST SWAP2 POP PUSH2 0x18B1 DUP3 PUSH2 0x1870 JUMP JUMPDEST PUSH1 0x20 DUP3 ADD SWAP1 POP SWAP2 SWAP1 POP JUMP JUMPDEST PUSH1 0x0 PUSH1 0x20 DUP3 ADD SWAP1 POP DUP2 DUP2 SUB PUSH1 0x0 DUP4 ADD MSTORE PUSH2 0x18D5 DUP2 PUSH2 0x1899 JUMP JUMPDEST SWAP1 POP SWAP2 SWAP1 POP JUMP JUMPDEST PUSH1 0x0 DUP2 SWAP1 POP DUP2 PUSH1 0x0 MSTORE PUSH1 0x20 PUSH1 0x0 KECCAK256 SWAP1 POP SWAP2 SWAP1 POP JUMP JUMPDEST PUSH1 0x0 PUSH1 0x20 PUSH1 0x1F DUP4 ADD DIV SWAP1 POP SWAP2 SWAP1 POP JUMP JUMPDEST PUSH1 0x0 DUP3 DUP3 SHL SWAP1 POP SWAP3 SWAP2 POP POP JUMP JUMPDEST PUSH1 0x0 PUSH1 0x8 DUP4 MUL PUSH2 0x193E PUSH32 0xFFFFFFFFFFFFFFFFFFFFFFFFFFFFFFFFFFFFFFFFFFFFFFFFFFFFFFFFFFFFFFFF DUP3 PUSH2 0x1901 JUMP JUMPDEST PUSH2 0x1948 DUP7 DUP4 PUSH2 0x1901 JUMP JUMPDEST SWAP6 POP DUP1 NOT DUP5 AND SWAP4 POP DUP1 DUP7 AND DUP5 OR SWAP3 POP POP POP SWAP4 SWAP3 POP POP POP JUMP JUMPDEST PUSH1 0x0 DUP2 SWAP1 POP SWAP2 SWAP1 POP JUMP JUMPDEST PUSH1 0x0 PUSH2 0x1985 PUSH2 0x1980 PUSH2 0x197B DUP5 PUSH2 0x1350 JUMP JUMPDEST PUSH2 0x1960 JUMP JUMPDEST PUSH2 0x1350 JUMP JUMPDEST SWAP1 POP SWAP2 SWAP1 POP JUMP JUMPDEST PUSH1 0x0 DUP2 SWAP1 POP SWAP2 SWAP1 POP JUMP JUMPDEST PUSH2 0x199F DUP4 PUSH2 0x196A JUMP JUMPDEST PUSH2 0x19B3 PUSH2 0x19AB DUP3 PUSH2 0x198C JUMP JUMPDEST DUP5 DUP5 SLOAD PUSH2 0x190E JUMP JUMPDEST DUP3 SSTORE POP POP POP POP JUMP JUMPDEST PUSH1 0x0 SWAP1 JUMP JUMPDEST PUSH2 0x19C8 PUSH2 0x19BB JUMP JUMPDEST PUSH2 0x19D3 DUP2 DUP5 DUP5 PUSH2 0x1996 JUMP JUMPDEST POP POP POP JUMP JUMPDEST JUMPDEST DUP2 DUP2 LT ISZERO PUSH2 0x19F7 JUMPI PUSH2 0x19EC PUSH1 0x0 DUP3 PUSH2 0x19C0 JUMP JUMPDEST PUSH1 0x1 DUP2 ADD SWAP1 POP PUSH2 0x19D9 JUMP JUMPDEST POP POP JUMP JUMPDEST PUSH1 0x1F DUP3 GT ISZERO PUSH2 0x1A3C JUMPI PUSH2 0x1A0D DUP2 PUSH2 0x18DC JUMP JUMPDEST PUSH2 0x1A16 DUP5 PUSH2 0x18F1 JUMP JUMPDEST DUP2 ADD PUSH1 0x20 DUP6 LT ISZERO PUSH2 0x1A25 JUMPI DUP2 SWAP1 POP JUMPDEST PUSH2 0x1A39 PUSH2 0x1A31 DUP6 PUSH2 0x18F1 JUMP JUMPDEST DUP4 ADD DUP3 PUSH2 0x19D8 JUMP JUMPDEST POP POP JUMPDEST POP POP POP JUMP JUMPDEST PUSH1 0x0 DUP3 DUP3 SHR SWAP1 POP SWAP3 SWAP2 POP POP JUMP JUMPDEST PUSH1 0x0 PUSH2 0x1A5F PUSH1 0x0 NOT DUP5 PUSH1 0x8 MUL PUSH2 0x1A41 JUMP JUMPDEST NOT DUP1 DUP4 AND SWAP2 POP POP SWAP3 SWAP2 POP POP JUMP JUMPDEST PUSH1 0x0 PUSH2 0x1A78 DUP4 DUP4 PUSH2 0x1A4E JUMP JUMPDEST SWAP2 POP DUP3 PUSH1 0x2 MUL DUP3 OR SWAP1 POP SWAP3 SWAP2 POP POP JUMP JUMPDEST PUSH2 0x1A91 DUP3 PUSH2 0x12D1 JUMP JUMPDEST PUSH8 0xFFFFFFFFFFFFFFFF DUP2 GT ISZERO PUSH2 0x1AAA JUMPI PUSH2 0x1AA9 PUSH2 0x10FA JUMP JUMPDEST JUMPDEST PUSH2 0x1AB4 DUP3 SLOAD PUSH2 0x17D3 JUMP JUMPDEST PUSH2 0x1ABF DUP3 DUP3 DUP6 PUSH2 0x19FB JUMP JUMPDEST PUSH1 0x0 PUSH1 0x20 SWAP1 POP PUSH1 0x1F DUP4 GT PUSH1 0x1 DUP2 EQ PUSH2 0x1AF2 JUMPI PUSH1 0x0 DUP5 ISZERO PUSH2 0x1AE0 JUMPI DUP3 DUP8 ADD MLOAD SWAP1 POP JUMPDEST PUSH2 0x1AEA DUP6 DUP3 PUSH2 0x1A6C JUMP JUMPDEST DUP7 SSTORE POP PUSH2 0x1B52 JUMP JUMPDEST PUSH1 0x1F NOT DUP5 AND PUSH2 0x1B00 DUP7 PUSH2 0x18DC JUMP JUMPDEST PUSH1 0x0 JUMPDEST DUP3 DUP2 LT ISZERO PUSH2 0x1B28 JUMPI DUP5 DUP10 ADD MLOAD DUP3 SSTORE PUSH1 0x1 DUP3 ADD SWAP2 POP PUSH1 0x20 DUP6 ADD SWAP5 POP PUSH1 0x20 DUP2 ADD SWAP1 POP PUSH2 0x1B03 JUMP JUMPDEST DUP7 DUP4 LT ISZERO PUSH2 0x1B45 JUMPI DUP5 DUP10 ADD MLOAD PUSH2 0x1B41 PUSH1 0x1F DUP10 AND DUP3 PUSH2 0x1A4E JUMP JUMPDEST DUP4 SSTORE POP JUMPDEST PUSH1 0x1 PUSH1 0x2 DUP9 MUL ADD DUP9 SSTORE POP POP POP JUMPDEST POP POP POP POP POP POP JUMP JUMPDEST PUSH32 0x44657669636520616C7265616479207265676973746572656400000000000000 PUSH1 0x0 DUP3 ADD MSTORE POP JUMP JUMPDEST PUSH1 0x0 PUSH2 0x1B90 PUSH1 0x19 DUP4 PUSH2 0x12DC JUMP JUMPDEST SWAP2 POP PUSH2 0x1B9B DUP3 PUSH2 0x1B5A JUMP JUMPDEST PUSH1 0x20 DUP3 ADD SWAP1 POP SWAP2 SWAP1 POP JUMP JUMPDEST PUSH1 0x0 PUSH1 0x20 DUP3 ADD SWAP1 POP DUP2 DUP2 SUB PUSH1 0x0 DUP4 ADD MSTORE PUSH2 0x1BBF DUP2 PUSH2 0x1B83 JUMP JUMPDEST SWAP1 POP SWAP2 SWAP1 POP JUMP JUMPDEST PUSH32 0x446576696365206973206465636F6D6D697373696F6E65640000000000000000 PUSH1 0x0 DUP3 ADD MSTORE POP JUMP JUMPDEST PUSH1 0x0 PUSH2 0x1BFC PUSH1 0x18 DUP4 PUSH2 0x12DC JUMP JUMPDEST SWAP2 POP PUSH2 0x1C07 DUP3 PUSH2 0x1BC6 JUMP JUMPDEST PUSH1 0x20 DUP3 ADD SWAP1 POP SWAP2 SWAP1 POP JUMP JUMPDEST PUSH1 0x0 PUSH1 0x20 DUP3 ADD SWAP1 POP DUP2 DUP2 SUB PUSH1 0x0 DUP4 ADD MSTORE PUSH2 0x1C2B DUP2 PUSH2 0x1BEF JUMP JUMPDEST SWAP1 POP SWAP2 SWAP1 POP JUMP JUMPDEST PUSH32 0x4E6F742063757272656E74204F776E6572000000000000000000000000000000 PUSH1 0x0 DUP3 ADD MSTORE POP JUMP JUMPDEST PUSH1 0x0 PUSH2 0x1C68 PUSH1 0x11 DUP4 PUSH2 0x12DC JUMP JUMPDEST SWAP2 POP PUSH2 0x1C73 DUP3 PUSH2 0x1C32 JUMP JUMPDEST PUSH1 0x20 DUP3 ADD SWAP1 POP SWAP2 SWAP1 POP JUMP JUMPDEST PUSH1 0x0 PUSH1 0x20 DUP3 ADD SWAP1 POP DUP2 DUP2 SUB PUSH1 0x0 DUP4 ADD MSTORE PUSH2 0x1C97 DUP2 PUSH2 0x1C5B JUMP JUMPDEST SWAP1 POP SWAP2 SWAP1 POP JUMP INVALID LOG2 PUSH5 0x6970667358 0x22 SLT KECCAK256 BALANCE 0xD8 MCOPY MSTORE8 0xC2 0xAE BALANCE 0xDA EXTSTATICCALL PUSH30 0x9C8D77B1B0910B981BBE4A9718460F94D6BA6860DF2164736F6C63430008 0x1E STOP CALLER "
				},
				"gasEstimates": {
					"creation": {
						"codeDepositCost": "1476000",
						"executionCost": "25807",
						"totalCost": "1501807"
					},
					"external": {
						"componentExists(string)": "infinite",
						"components(bytes32)": "infinite",
						"decommission(string)": "infinite",
						"deviceExists(string)": "infinite",
						"devices(bytes32)": "infinite",
						"getDevice(string)": "infinite",
						"oem()": "2577",
						"registerComponent(string,string)": "infinite",
						"registerDevice(string,string,string)": "infinite",
						"transferOwnership(string,address)": "infinite"
					}
				},
				"methodIdentifiers": {
					"componentExists(string)": "ea460cb6",
					"components(bytes32)": "1a4999c9",
					"decommission(string)": "0d514338",
					"deviceExists(string)": "aaed589d",
					"devices(bytes32)": "c5c400de",
					"getDevice(string)": "b71a0346",
					"oem()": "e96f2fd8",
					"registerComponent(string,string)": "5b906884",
					"registerDevice(string,string,string)": "bceaa96a",
					"transferOwnership(string,address)": "c0e793c2"
				}
			},
			"storageLayout": {
				"storage": [
					{
						"astId": 3,
						"contract": "contracts/DeviceRegistry.sol:DeviceRegistry",
						"label": "oem",
						"offset": 0,
						"slot": "0",
						"type": "t_address"
					},
					{
						"astId": 53,
						"contract": "contracts/DeviceRegistry.sol:DeviceRegistry",
						"label": "devices",
						"offset": 0,
						"slot": "1",
						"type": "t_mapping(t_bytes32,t_struct(Device)27_storage)"
					},
					{
						"astId": 58,
						"contract": "contracts/DeviceRegistry.sol:DeviceRegistry",
						"label": "components",
						"offset": 0,
						"slot": "2",
						"type": "t_mapping(t_bytes32,t_struct(Component)36_storage)"
					}
				],
				"types": {
					"t_address": {
						"encoding": "inplace",
						"label": "address",
						"numberOfBytes": "20"
					},
					"t_bool": {
						"encoding": "inplace",
						"label": "bool",
						"numberOfBytes": "1"
					},
					"t_bytes32": {
						"encoding": "inplace",
						"label": "bytes32",
						"numberOfBytes": "32"
					},
					"t_mapping(t_bytes32,t_struct(Component)36_storage)": {
						"encoding": "mapping",
						"key": "t_bytes32",
						"label": "mapping(bytes32 => struct DeviceRegistry.Component)",
						"numberOfBytes": "32",
						"value": "t_struct(Component)36_storage"
					},
					"t_mapping(t_bytes32,t_struct(Device)27_storage)": {
						"encoding": "mapping",
						"key": "t_bytes32",
						"label": "mapping(bytes32 => struct DeviceRegistry.Device)",
						"numberOfBytes": "32",
						"value": "t_struct(Device)27_storage"
					},
					"t_string_storage": {
						"encoding": "bytes",
						"label": "string",
						"numberOfBytes": "32"
					},
					"t_struct(Component)36_storage": {
						"encoding": "inplace",
						"label": "struct DeviceRegistry.Component",
						"members": [
							{
								"astId": 29,
								"contract": "contracts/DeviceRegistry.sol:DeviceRegistry",
								"label": "partNumber",
								"offset": 0,
								"slot": "0",
								"type": "t_string_storage"
							},
							{
								"astId": 31,
								"contract": "contracts/DeviceRegistry.sol:DeviceRegistry",
								"label": "componentType",
								"offset": 0,
								"slot": "1",
								"type": "t_string_storage"
							},
							{
								"astId": 33,
								"contract": "contracts/DeviceRegistry.sol:DeviceRegistry",
								"label": "manufactureDate",
								"offset": 0,
								"slot": "2",
								"type": "t_uint256"
							},
							{
								"astId": 35,
								"contract": "contracts/DeviceRegistry.sol:DeviceRegistry",
								"label": "exists",
								"offset": 0,
								"slot": "3",
								"type": "t_bool"
							}
						],
						"numberOfBytes": "128"
					},
					"t_struct(Device)27_storage": {
						"encoding": "inplace",
						"label": "struct DeviceRegistry.Device",
						"members": [
							{
								"astId": 14,
								"contract": "contracts/DeviceRegistry.sol:DeviceRegistry",
								"label": "serialNumber",
								"offset": 0,
								"slot": "0",
								"type": "t_string_storage"
							},
							{
								"astId": 16,
								"contract": "contracts/DeviceRegistry.sol:DeviceRegistry",
								"label": "imei",
								"offset": 0,
								"slot": "1",
								"type": "t_string_storage"
							},
							{
								"astId": 18,
								"contract": "contracts/DeviceRegistry.sol:DeviceRegistry",
								"label": "model",
								"offset": 0,
								"slot": "2",
								"type": "t_string_storage"
							},
							{
								"astId": 20,
								"contract": "contracts/DeviceRegistry.sol:DeviceRegistry",
								"label": "manufactureDate",
								"offset": 0,
								"slot": "3",
								"type": "t_uint256"
							},
							{
								"astId": 22,
								"contract": "contracts/DeviceRegistry.sol:DeviceRegistry",
								"label": "currentOwner",
								"offset": 0,
								"slot": "4",
								"type": "t_address"
							},
							{
								"astId": 24,
								"contract": "contracts/DeviceRegistry.sol:DeviceRegistry",
								"label": "exists",
								"offset": 20,
								"slot": "4",
								"type": "t_bool"
							},
							{
								"astId": 26,
								"contract": "contracts/DeviceRegistry.sol:DeviceRegistry",
								"label": "decommissioned",
								"offset": 21,
								"slot": "4",
								"type": "t_bool"
							}
						],
						"numberOfBytes": "160"
					},
					"t_uint256": {
						"encoding": "inplace",
						"label": "uint256",
						"numberOfBytes": "32"
					}
				}
			},
			"userdoc": {
				"kind": "user",
				"methods": {},
				"version": 1
			}
		}
	}
}