{
	"contracts/RepairEvent.sol": {
		"RepairEvent": {
			"abi": [
				{
					"inputs": [
						{
							"internalType": "address",
							"name": "_deviceRegistryAddress",
							"type": "address"
						}
					],
					"stateMutability": "nonpayable",
					"type": "constructor"
				},
				{
					"anonymous": false,
					"inputs": [
						{
							"indexed": true,
							"internalType": "string",
							"name": "serialNumber",
							"type": "string"
						},
						{
							"indexed": true,
							"internalType": "address",
							"name": "repairer",
							"type": "address"
						},
						{
							"indexed": false,
							"internalType": "string",
							"name": "newPart",
							"type": "string"
						},
						{
							"indexed": false,
							"internalType": "enum RepairEvent.RepairStatus",
							"name": "status",
							"type": "uint8"
						},
						{
							"indexed": false,
							"internalType": "uint256",
							"name": "timestamp",
							"type": "uint256"
						}
					],
					"name": "RepairLogged",
					"type": "event"
				},
				{
					"inputs": [
						{
							"internalType": "string",
							"name": "_serialNumber",
							"type": "string"
						}
					],
					"name": "getRepairCount",
					"outputs": [
						{
							"internalType": "uint256",
							"name": "",
							"type": "uint256"
						}
					],
					"stateMutability": "view",
					"type": "function"
				},
				{
					"inputs": [
						{
							"internalType": "string",
							"name": "_serialNumber",
							"type": "string"
						}
					],
					"name": "getRepairHistory",
					"outputs": [
						{
							"components": [
								{
									"internalType": "string",
									"name": "serialNumber",
									"type": "string"
								},
								{
									"internalType": "string",
									"name": "removedPart",
									"type": "string"
								},
								{
									"internalType": "string",
									"name": "newPart",
									"type": "string"
								},
								{
									"internalType": "address",
									"name": "repairer",
									"type": "address"
								},
								{
									"internalType": "uint256",
									"name": "timestamp",
									"type": "uint256"
								},
								{
									"internalType": "enum RepairEvent.RepairStatus",
									"name": "status",
									"type": "uint8"
								}
							],
							"internalType": "struct RepairEvent.Repair[]",
							"name": "",
							"type": "tuple[]"
						}
					],
					"stateMutability": "view",
					"type": "function"
				},
				{
					"inputs": [
						{
							"internalType": "string",
							"name": "_serialNumber",
							"type": "string"
						},
						{
							"internalType": "string",
							"name": "_removedPart",
							"type": "string"
						},
						{
							"internalType": "string",
							"name": "_newPart",
							"type": "string"
						}
					],
					"name": "logRepair",
					"outputs": [],
					"stateMutability": "nonpayable",
					"type": "function"
				}
			],
			"devdoc": {
				"kind": "dev",
				"methods": {},
				"version": 1
			},
			"evm": {
				"assembly": "    /* \"contracts/RepairEvent.sol\":265:2384  contract RepairEvent {... */\n  mstore(0x40, 0x80)\n    /* \"contracts/RepairEvent.sol\":831:1034  constructor(address _deviceRegistryAddress) {... */\n  callvalue\n  dup1\n  iszero\n  tag_1\n  jumpi\n  revert(0x00, 0x00)\ntag_1:\n  pop\n  mload(0x40)\n  sub(codesize, bytecodeSize)\n  dup1\n  bytecodeSize\n  dup4\n  codecopy\n  dup2\n  dup2\n  add\n  0x40\n  mstore\n  dup2\n  add\n  swap1\n  tag_2\n  swap2\n  swap1\n  tag_3\n  jump\t// in\ntag_2:\n    /* \"contracts/RepairEvent.sol\":928:929  0 */\n  0x00\n    /* \"contracts/RepairEvent.sol\":894:930  _deviceRegistryAddress != address(0) */\n  0xffffffffffffffffffffffffffffffffffffffff\n  and\n    /* \"contracts/RepairEvent.sol\":894:916  _deviceRegistryAddress */\n  dup2\n    /* \"contracts/RepairEvent.sol\":894:930  _deviceRegistryAddress != address(0) */\n  0xffffffffffffffffffffffffffffffffffffffff\n  and\n  sub\n    /* \"contracts/RepairEvent.sol\":886:959  require(_deviceRegistryAddress != address(0), \"Invalid registry address\") */\n  tag_6\n  jumpi\n  mload(0x40)\n  0x08c379a000000000000000000000000000000000000000000000000000000000\n  dup2\n  mstore\n  0x04\n  add\n  tag_7\n  swap1\n  tag_8\n  jump\t// in\ntag_7:\n  mload(0x40)\n  dup1\n  swap2\n  sub\n  swap1\n  revert\ntag_6:\n    /* \"contracts/RepairEvent.sol\":1003:1025  _deviceRegistryAddress */\n  dup1\n    /* \"contracts/RepairEvent.sol\":970:984  deviceRegistry */\n  0x00\n  0x00\n    /* \"contracts/RepairEvent.sol\":970:1026  deviceRegistry = IDeviceRegistry(_deviceRegistryAddress) */\n  0x0100\n  exp\n  dup2\n  sload\n  dup2\n  0xffffffffffffffffffffffffffffffffffffffff\n  mul\n  not\n  and\n  swap1\n  dup4\n  0xffffffffffffffffffffffffffffffffffffffff\n  and\n  mul\n  or\n  swap1\n  sstore\n  pop\n    /* \"contracts/RepairEvent.sol\":831:1034  constructor(address _deviceRegistryAddress) {... */\n  pop\n    /* \"contracts/RepairEvent.sol\":265:2384  contract RepairEvent {... */\n  jump(tag_9)\n    /* \"#utility.yul\":88:205   */\ntag_11:\n    /* \"#utility.yul\":197:198   */\n  0x00\n    /* \"#utility.yul\":194:195   */\n  0x00\n    /* \"#utility.yul\":187:199   */\n  revert\n    /* \"#utility.yul\":334:460   */\ntag_13:\n    /* \"#utility.yul\":371:378   */\n  0x00\n    /* \"#utility.yul\":411:453   */\n  0xffffffffffffffffffffffffffffffffffffffff\n    /* \"#utility.yul\":404:409   */\n  dup3\n    /* \"#utility.yul\":400:454   */\n  and\n    /* \"#utility.yul\":389:454   */\n  swap1\n  pop\n    /* \"#utility.yul\":334:460   */\n  swap2\n  swap1\n  pop\n  jump\t// out\n    /* \"#utility.yul\":466:562   */\ntag_14:\n    /* \"#utility.yul\":503:510   */\n  0x00\n    /* \"#utility.yul\":532:556   */\n  tag_26\n    /* \"#utility.yul\":550:555   */\n  dup3\n    /* \"#utility.yul\":532:556   */\n  tag_13\n  jump\t// in\ntag_26:\n    /* \"#utility.yul\":521:556   */\n  swap1\n  pop\n    /* \"#utility.yul\":466:562   */\n  swap2\n  swap1\n  pop\n  jump\t// out\n    /* \"#utility.yul\":568:690   */\ntag_15:\n    /* \"#utility.yul\":641:665   */\n  tag_28\n    /* \"#utility.yul\":659:664   */\n  dup2\n    /* \"#utility.yul\":641:665   */\n  tag_14\n  jump\t// in\ntag_28:\n    /* \"#utility.yul\":634:639   */\n  dup2\n    /* \"#utility.yul\":631:666   */\n  eq\n    /* \"#utility.yul\":621:684   */\n  tag_29\n  jumpi\n    /* \"#utility.yul\":680:681   */\n  0x00\n    /* \"#utility.yul\":677:678   */\n  0x00\n    /* \"#utility.yul\":670:682   */\n  revert\n    /* \"#utility.yul\":621:684   */\ntag_29:\n    /* \"#utility.yul\":568:690   */\n  pop\n  jump\t// out\n    /* \"#utility.yul\":696:839   */\ntag_16:\n    /* \"#utility.yul\":753:758   */\n  0x00\n    /* \"#utility.yul\":784:790   */\n  dup2\n    /* \"#utility.yul\":778:791   */\n  mload\n    /* \"#utility.yul\":769:791   */\n  swap1\n  pop\n    /* \"#utility.yul\":800:833   */\n  tag_31\n    /* \"#utility.yul\":827:832   */\n  dup2\n    /* \"#utility.yul\":800:833   */\n  tag_15\n  jump\t// in\ntag_31:\n    /* \"#utility.yul\":696:839   */\n  swap3\n  swap2\n  pop\n  pop\n  jump\t// out\n    /* \"#utility.yul\":845:1196   */\ntag_3:\n    /* \"#utility.yul\":915:921   */\n  0x00\n    /* \"#utility.yul\":964:966   */\n  0x20\n    /* \"#utility.yul\":952:961   */\n  dup3\n    /* \"#utility.yul\":943:950   */\n  dup5\n    /* \"#utility.yul\":939:962   */\n  sub\n    /* \"#utility.yul\":935:967   */\n  slt\n    /* \"#utility.yul\":932:1051   */\n  iszero\n  tag_33\n  jumpi\n    /* \"#utility.yul\":970:1049   */\n  tag_34\n  tag_11\n  jump\t// in\ntag_34:\n    /* \"#utility.yul\":932:1051   */\ntag_33:\n    /* \"#utility.yul\":1090:1091   */\n  0x00\n    /* \"#utility.yul\":1115:1179   */\n  tag_35\n    /* \"#utility.yul\":1171:1178   */\n  dup5\n    /* \"#utility.yul\":1162:1168   */\n  dup3\n    /* \"#utility.yul\":1151:1160   */\n  dup6\n    /* \"#utility.yul\":1147:1169   */\n  add\n    /* \"#utility.yul\":1115:1179   */\n  tag_16\n  jump\t// in\ntag_35:\n    /* \"#utility.yul\":1105:1179   */\n  swap2\n  pop\n    /* \"#utility.yul\":1061:1189   */\n  pop\n    /* \"#utility.yul\":845:1196   */\n  swap3\n  swap2\n  pop\n  pop\n  jump\t// out\n    /* \"#utility.yul\":1202:1371   */\ntag_17:\n    /* \"#utility.yul\":1286:1297   */\n  0x00\n    /* \"#utility.yul\":1320:1326   */\n  dup3\n    /* \"#utility.yul\":1315:1318   */\n  dup3\n    /* \"#utility.yul\":1308:1327   */\n  mstore\n    /* \"#utility.yul\":1360:1364   */\n  0x20\n    /* \"#utility.yul\":1355:1358   */\n  dup3\n    /* \"#utility.yul\":1351:1365   */\n  add\n    /* \"#utility.yul\":1336:1365   */\n  swap1\n  pop\n    /* \"#utility.yul\":1202:1371   */\n  swap3\n  swap2\n  pop\n  pop\n  jump\t// out\n    /* \"#utility.yul\":1377:1551   */\ntag_18:\n    /* \"#utility.yul\":1517:1543   */\n  0x496e76616c696420726567697374727920616464726573730000000000000000\n    /* \"#utility.yul\":1513:1514   */\n  0x00\n    /* \"#utility.yul\":1505:1511   */\n  dup3\n    /* \"#utility.yul\":1501:1515   */\n  add\n    /* \"#utility.yul\":1494:1544   */\n  mstore\n    /* \"#utility.yul\":1377:1551   */\n  pop\n  jump\t// out\n    /* \"#utility.yul\":1557:1923   */\ntag_19:\n    /* \"#utility.yul\":1699:1702   */\n  0x00\n    /* \"#utility.yul\":1720:1787   */\n  tag_39\n    /* \"#utility.yul\":1784:1786   */\n  0x18\n    /* \"#utility.yul\":1779:1782   */\n  dup4\n    /* \"#utility.yul\":1720:1787   */\n  tag_17\n  jump\t// in\ntag_39:\n    /* \"#utility.yul\":1713:1787   */\n  swap2\n  pop\n    /* \"#utility.yul\":1796:1889   */\n  tag_40\n    /* \"#utility.yul\":1885:1888   */\n  dup3\n    /* \"#utility.yul\":1796:1889   */\n  tag_18\n  jump\t// in\ntag_40:\n    /* \"#utility.yul\":1914:1916   */\n  0x20\n    /* \"#utility.yul\":1909:1912   */\n  dup3\n    /* \"#utility.yul\":1905:1917   */\n  add\n    /* \"#utility.yul\":1898:1917   */\n  swap1\n  pop\n    /* \"#utility.yul\":1557:1923   */\n  swap2\n  swap1\n  pop\n  jump\t// out\n    /* \"#utility.yul\":1929:2348   */\ntag_8:\n    /* \"#utility.yul\":2095:2099   */\n  0x00\n    /* \"#utility.yul\":2133:2135   */\n  0x20\n    /* \"#utility.yul\":2122:2131   */\n  dup3\n    /* \"#utility.yul\":2118:2136   */\n  add\n    /* \"#utility.yul\":2110:2136   */\n  swap1\n  pop\n    /* \"#utility.yul\":2182:2191   */\n  dup2\n    /* \"#utility.yul\":2176:2180   */\n  dup2\n    /* \"#utility.yul\":2172:2192   */\n  sub\n    /* \"#utility.yul\":2168:2169   */\n  0x00\n    /* \"#utility.yul\":2157:2166   */\n  dup4\n    /* \"#utility.yul\":2153:2170   */\n  add\n    /* \"#utility.yul\":2146:2193   */\n  mstore\n    /* \"#utility.yul\":2210:2341   */\n  tag_42\n    /* \"#utility.yul\":2336:2340   */\n  dup2\n    /* \"#utility.yul\":2210:2341   */\n  tag_19\n  jump\t// in\ntag_42:\n    /* \"#utility.yul\":2202:2341   */\n  swap1\n  pop\n    /* \"#utility.yul\":1929:2348   */\n  swap2\n  swap1\n  pop\n  jump\t// out\n    /* \"contracts/RepairEvent.sol\":265:2384  contract RepairEvent {... */\ntag_9:\n  dataSize(sub_0)\n  dup1\n  dataOffset(sub_0)\n  0x00\n  codecopy\n  0x00\n  return\nstop\n\nsub_0: assembly {\n        /* \"contracts/RepairEvent.sol\":265:2384  contract RepairEvent {... */\n      mstore(0x40, 0x80)\n      callvalue\n      dup1\n      iszero\n      tag_1\n      jumpi\n      revert(0x00, 0x00)\n    tag_1:\n      pop\n      jumpi(tag_2, lt(calldatasize, 0x04))\n      shr(0xe0, calldataload(0x00))\n      dup1\n      0x1c789aa9\n      eq\n      tag_3\n      jumpi\n      dup1\n      0x727b703f\n      eq\n      tag_4\n      jumpi\n      dup1\n      0xbd6c1c85\n      eq\n      tag_5\n      jumpi\n    tag_2:\n      revert(0x00, 0x00)\n        /* \"contracts/RepairEvent.sol\":1042:1936  function logRepair(... */\n    tag_3:\n      tag_6\n      0x04\n      dup1\n      calldatasize\n      sub\n      dup2\n      add\n      swap1\n      tag_7\n      swap2\n      swap1\n      tag_8\n      jump\t// in\n    tag_7:\n      tag_9\n      jump\t// in\n    tag_6:\n      stop\n        /* \"contracts/RepairEvent.sol\":2168:2381  function getRepairCount(string memory _serialNumber)... */\n    tag_4:\n      tag_10\n      0x04\n      dup1\n      calldatasize\n      sub\n      dup2\n      add\n      swap1\n      tag_11\n      swap2\n      swap1\n      tag_12\n      jump\t// in\n    tag_11:\n      tag_13\n      jump\t// in\n    tag_10:\n      mload(0x40)\n      tag_14\n      swap2\n      swap1\n      tag_15\n      jump\t// in\n    tag_14:\n      mload(0x40)\n      dup1\n      swap2\n      sub\n      swap1\n      return\n        /* \"contracts/RepairEvent.sol\":1944:2160  function getRepairHistory(string memory _serialNumber)... */\n    tag_5:\n      tag_16\n      0x04\n      dup1\n      calldatasize\n      sub\n      dup2\n      add\n      swap1\n      tag_17\n      swap2\n      swap1\n      tag_12\n      jump\t// in\n    tag_17:\n      tag_18\n      jump\t// in\n    tag_16:\n      mload(0x40)\n      tag_19\n      swap2\n      swap1\n      tag_20\n      jump\t// in\n    tag_19:\n      mload(0x40)\n      dup1\n      swap2\n      sub\n      swap1\n      return\n        /* \"contracts/RepairEvent.sol\":1042:1936  function logRepair(... */\n    tag_9:\n        /* \"contracts/RepairEvent.sol\":1201:1215  deviceRegistry */\n      0x00\n      0x00\n      swap1\n      sload\n      swap1\n      0x0100\n      exp\n      swap1\n      div\n      0xffffffffffffffffffffffffffffffffffffffff\n      and\n        /* \"contracts/RepairEvent.sol\":1201:1228  deviceRegistry.deviceExists */\n      0xffffffffffffffffffffffffffffffffffffffff\n      and\n      0xaaed589d\n        /* \"contracts/RepairEvent.sol\":1229:1242  _serialNumber */\n      dup5\n        /* \"contracts/RepairEvent.sol\":1201:1243  deviceRegistry.deviceExists(_serialNumber) */\n      mload(0x40)\n      dup3\n      0xffffffff\n      and\n      0xe0\n      shl\n      dup2\n      mstore\n      0x04\n      add\n      tag_22\n      swap2\n      swap1\n      tag_23\n      jump\t// in\n    tag_22:\n      0x20\n      mload(0x40)\n      dup1\n      dup4\n      sub\n      dup2\n      dup7\n      gas\n      staticcall\n      iszero\n      dup1\n      iszero\n      tag_25\n      jumpi\n      returndatacopy(0x00, 0x00, returndatasize)\n      revert(0x00, returndatasize)\n    tag_25:\n      pop\n      pop\n      pop\n      pop\n      mload(0x40)\n      returndatasize\n      not(0x1f)\n      0x1f\n      dup3\n      add\n      and\n      dup3\n      add\n      dup1\n      0x40\n      mstore\n      pop\n      dup2\n      add\n      swap1\n      tag_26\n      swap2\n      swap1\n      tag_27\n      jump\t// in\n    tag_26:\n        /* \"contracts/RepairEvent.sol\":1193:1269  require(deviceRegistry.deviceExists(_serialNumber), \"Device not registered\") */\n      tag_28\n      jumpi\n      mload(0x40)\n      0x08c379a000000000000000000000000000000000000000000000000000000000\n      dup2\n      mstore\n      0x04\n      add\n      tag_29\n      swap1\n      tag_30\n      jump\t// in\n    tag_29:\n      mload(0x40)\n      dup1\n      swap2\n      sub\n      swap1\n      revert\n    tag_28:\n        /* \"contracts/RepairEvent.sol\":1282:1301  RepairStatus status */\n      0x00\n        /* \"contracts/RepairEvent.sol\":1316:1330  deviceRegistry */\n      0x00\n      0x00\n      swap1\n      sload\n      swap1\n      0x0100\n      exp\n      swap1\n      div\n      0xffffffffffffffffffffffffffffffffffffffff\n      and\n        /* \"contracts/RepairEvent.sol\":1316:1346  deviceRegistry.componentExists */\n      0xffffffffffffffffffffffffffffffffffffffff\n      and\n      0xea460cb6\n        /* \"contracts/RepairEvent.sol\":1347:1355  _newPart */\n      dup4\n        /* \"contracts/RepairEvent.sol\":1316:1356  deviceRegistry.componentExists(_newPart) */\n      mload(0x40)\n      dup3\n      0xffffffff\n      and\n      0xe0\n      shl\n      dup2\n      mstore\n      0x04\n      add\n      tag_31\n      swap2\n      swap1\n      tag_23\n      jump\t// in\n    tag_31:\n      0x20\n      mload(0x40)\n      dup1\n      dup4\n      sub\n      dup2\n      dup7\n      gas\n      staticcall\n      iszero\n      dup1\n      iszero\n      tag_33\n      jumpi\n      returndatacopy(0x00, 0x00, returndatasize)\n      revert(0x00, returndatasize)\n    tag_33:\n      pop\n      pop\n      pop\n      pop\n      mload(0x40)\n      returndatasize\n      not(0x1f)\n      0x1f\n      dup3\n      add\n      and\n      dup3\n      add\n      dup1\n      0x40\n      mstore\n      pop\n      dup2\n      add\n      swap1\n      tag_34\n      swap2\n      swap1\n      tag_27\n      jump\t// in\n    tag_34:\n        /* \"contracts/RepairEvent.sol\":1312:1477  if (deviceRegistry.componentExists(_newPart)) {... */\n      iszero\n      tag_35\n      jumpi\n        /* \"contracts/RepairEvent.sol\":1382:1403  RepairStatus.VERIFIED */\n      0x00\n        /* \"contracts/RepairEvent.sol\":1373:1403  status = RepairStatus.VERIFIED */\n      swap1\n      pop\n        /* \"contracts/RepairEvent.sol\":1312:1477  if (deviceRegistry.componentExists(_newPart)) {... */\n      jump(tag_36)\n    tag_35:\n        /* \"contracts/RepairEvent.sol\":1445:1465  RepairStatus.FLAGGED */\n      0x01\n        /* \"contracts/RepairEvent.sol\":1436:1465  status = RepairStatus.FLAGGED */\n      swap1\n      pop\n        /* \"contracts/RepairEvent.sol\":1312:1477  if (deviceRegistry.componentExists(_newPart)) {... */\n    tag_36:\n        /* \"contracts/RepairEvent.sol\":1489:1499  bytes32 id */\n      0x00\n        /* \"contracts/RepairEvent.sol\":1529:1542  _serialNumber */\n      dup5\n        /* \"contracts/RepairEvent.sol\":1512:1543  abi.encodePacked(_serialNumber) */\n      add(0x20, mload(0x40))\n      tag_37\n      swap2\n      swap1\n      tag_38\n      jump\t// in\n    tag_37:\n      mload(0x40)\n      0x20\n      dup2\n      dup4\n      sub\n      sub\n      dup2\n      mstore\n      swap1\n      0x40\n      mstore\n        /* \"contracts/RepairEvent.sol\":1502:1544  keccak256(abi.encodePacked(_serialNumber)) */\n      dup1\n      mload\n      swap1\n      0x20\n      add\n      keccak256\n        /* \"contracts/RepairEvent.sol\":1489:1544  bytes32 id = keccak256(abi.encodePacked(_serialNumber)) */\n      swap1\n      pop\n        /* \"contracts/RepairEvent.sol\":1555:1568  repairHistory */\n      0x01\n        /* \"contracts/RepairEvent.sol\":1555:1572  repairHistory[id] */\n      0x00\n        /* \"contracts/RepairEvent.sol\":1569:1571  id */\n      dup3\n        /* \"contracts/RepairEvent.sol\":1555:1572  repairHistory[id] */\n      dup2\n      mstore\n      0x20\n      add\n      swap1\n      dup2\n      mstore\n      0x20\n      add\n      0x00\n      keccak256\n        /* \"contracts/RepairEvent.sol\":1578:1835  Repair({... */\n      mload(0x40)\n      dup1\n      0xc0\n      add\n      0x40\n      mstore\n      dup1\n        /* \"contracts/RepairEvent.sol\":1614:1627  _serialNumber */\n      dup8\n        /* \"contracts/RepairEvent.sol\":1578:1835  Repair({... */\n      dup2\n      mstore\n      0x20\n      add\n        /* \"contracts/RepairEvent.sol\":1656:1668  _removedPart */\n      dup7\n        /* \"contracts/RepairEvent.sol\":1578:1835  Repair({... */\n      dup2\n      mstore\n      0x20\n      add\n        /* \"contracts/RepairEvent.sol\":1697:1705  _newPart */\n      dup6\n        /* \"contracts/RepairEvent.sol\":1578:1835  Repair({... */\n      dup2\n      mstore\n      0x20\n      add\n        /* \"contracts/RepairEvent.sol\":1734:1744  msg.sender */\n      caller\n        /* \"contracts/RepairEvent.sol\":1578:1835  Repair({... */\n      0xffffffffffffffffffffffffffffffffffffffff\n      and\n      dup2\n      mstore\n      0x20\n      add\n        /* \"contracts/RepairEvent.sol\":1773:1788  block.timestamp */\n      timestamp\n        /* \"contracts/RepairEvent.sol\":1578:1835  Repair({... */\n      dup2\n      mstore\n      0x20\n      add\n        /* \"contracts/RepairEvent.sol\":1817:1823  status */\n      dup5\n        /* \"contracts/RepairEvent.sol\":1578:1835  Repair({... */\n      0x01\n      dup2\n      gt\n      iszero\n      tag_39\n      jumpi\n      tag_40\n      tag_41\n      jump\t// in\n    tag_40:\n    tag_39:\n      dup2\n      mstore\n      pop\n        /* \"contracts/RepairEvent.sol\":1555:1836  repairHistory[id].push(Repair({... */\n      swap1\n      dup1\n      0x01\n      dup2\n      sload\n      add\n      dup1\n      dup3\n      sstore\n      dup1\n      swap2\n      pop\n      pop\n      0x01\n      swap1\n      sub\n      swap1\n      0x00\n      mstore\n      keccak256(0x00, 0x20)\n      swap1\n      0x06\n      mul\n      add\n      0x00\n      swap1\n      swap2\n      swap1\n      swap2\n      swap1\n      swap2\n      pop\n      0x00\n      dup3\n      add\n      mload\n      dup2\n      0x00\n      add\n      swap1\n      dup2\n      tag_43\n      swap2\n      swap1\n      tag_44\n      jump\t// in\n    tag_43:\n      pop\n      0x20\n      dup3\n      add\n      mload\n      dup2\n      0x01\n      add\n      swap1\n      dup2\n      tag_45\n      swap2\n      swap1\n      tag_44\n      jump\t// in\n    tag_45:\n      pop\n      0x40\n      dup3\n      add\n      mload\n      dup2\n      0x02\n      add\n      swap1\n      dup2\n      tag_46\n      swap2\n      swap1\n      tag_44\n      jump\t// in\n    tag_46:\n      pop\n      0x60\n      dup3\n      add\n      mload\n      dup2\n      0x03\n      add\n      exp(0x0100, 0x00)\n      dup2\n      sload\n      dup2\n      0xffffffffffffffffffffffffffffffffffffffff\n      mul\n      not\n      and\n      swap1\n      dup4\n      0xffffffffffffffffffffffffffffffffffffffff\n      and\n      mul\n      or\n      swap1\n      sstore\n      pop\n      0x80\n      dup3\n      add\n      mload\n      dup2\n      0x04\n      add\n      sstore\n      0xa0\n      dup3\n      add\n      mload\n      dup2\n      0x05\n      add\n      exp(0x0100, 0x00)\n      dup2\n      sload\n      dup2\n      0xff\n      mul\n      not\n      and\n      swap1\n      dup4\n      0x01\n      dup2\n      gt\n      iszero\n      tag_47\n      jumpi\n      tag_48\n      tag_41\n      jump\t// in\n    tag_48:\n    tag_47:\n      mul\n      or\n      swap1\n      sstore\n      pop\n      pop\n      pop\n        /* \"contracts/RepairEvent.sol\":1882:1892  msg.sender */\n      caller\n        /* \"contracts/RepairEvent.sol\":1854:1928  RepairLogged(_serialNumber, msg.sender, _newPart, status, block.timestamp) */\n      0xffffffffffffffffffffffffffffffffffffffff\n      and\n        /* \"contracts/RepairEvent.sol\":1867:1880  _serialNumber */\n      dup6\n        /* \"contracts/RepairEvent.sol\":1854:1928  RepairLogged(_serialNumber, msg.sender, _newPart, status, block.timestamp) */\n      mload(0x40)\n      tag_49\n      swap2\n      swap1\n      tag_38\n      jump\t// in\n    tag_49:\n      mload(0x40)\n      dup1\n      swap2\n      sub\n      swap1\n      keccak256\n      0xd6b746fd971fc540c1d652542bd3efac69f898d225db1f55b53321d58c36dcb4\n        /* \"contracts/RepairEvent.sol\":1894:1902  _newPart */\n      dup6\n        /* \"contracts/RepairEvent.sol\":1904:1910  status */\n      dup6\n        /* \"contracts/RepairEvent.sol\":1912:1927  block.timestamp */\n      timestamp\n        /* \"contracts/RepairEvent.sol\":1854:1928  RepairLogged(_serialNumber, msg.sender, _newPart, status, block.timestamp) */\n      mload(0x40)\n      tag_50\n      swap4\n      swap3\n      swap2\n      swap1\n      tag_51\n      jump\t// in\n    tag_50:\n      mload(0x40)\n      dup1\n      swap2\n      sub\n      swap1\n      log3\n        /* \"contracts/RepairEvent.sol\":1182:1936  {... */\n      pop\n      pop\n        /* \"contracts/RepairEvent.sol\":1042:1936  function logRepair(... */\n      pop\n      pop\n      pop\n      jump\t// out\n        /* \"contracts/RepairEvent.sol\":2168:2381  function getRepairCount(string memory _serialNumber)... */\n    tag_13:\n        /* \"contracts/RepairEvent.sol\":2251:2258  uint256 */\n      0x00\n        /* \"contracts/RepairEvent.sol\":2276:2286  bytes32 id */\n      0x00\n        /* \"contracts/RepairEvent.sol\":2316:2329  _serialNumber */\n      dup3\n        /* \"contracts/RepairEvent.sol\":2299:2330  abi.encodePacked(_serialNumber) */\n      add(0x20, mload(0x40))\n      tag_53\n      swap2\n      swap1\n      tag_38\n      jump\t// in\n    tag_53:\n      mload(0x40)\n      0x20\n      dup2\n      dup4\n      sub\n      sub\n      dup2\n      mstore\n      swap1\n      0x40\n      mstore\n        /* \"contracts/RepairEvent.sol\":2289:2331  keccak256(abi.encodePacked(_serialNumber)) */\n      dup1\n      mload\n      swap1\n      0x20\n      add\n      keccak256\n        /* \"contracts/RepairEvent.sol\":2276:2331  bytes32 id = keccak256(abi.encodePacked(_serialNumber)) */\n      swap1\n      pop\n        /* \"contracts/RepairEvent.sol\":2349:2362  repairHistory */\n      0x01\n        /* \"contracts/RepairEvent.sol\":2349:2366  repairHistory[id] */\n      0x00\n        /* \"contracts/RepairEvent.sol\":2363:2365  id */\n      dup3\n        /* \"contracts/RepairEvent.sol\":2349:2366  repairHistory[id] */\n      dup2\n      mstore\n      0x20\n      add\n      swap1\n      dup2\n      mstore\n      0x20\n      add\n      0x00\n      keccak256\n        /* \"contracts/RepairEvent.sol\":2349:2373  repairHistory[id].length */\n      dup1\n      sload\n      swap1\n      pop\n        /* \"contracts/RepairEvent.sol\":2342:2373  return repairHistory[id].length */\n      swap2\n      pop\n      pop\n        /* \"contracts/RepairEvent.sol\":2168:2381  function getRepairCount(string memory _serialNumber)... */\n      swap2\n      swap1\n      pop\n      jump\t// out\n        /* \"contracts/RepairEvent.sol\":1944:2160  function getRepairHistory(string memory _serialNumber)... */\n    tag_18:\n        /* \"contracts/RepairEvent.sol\":2029:2044  Repair[] memory */\n      0x60\n        /* \"contracts/RepairEvent.sol\":2062:2072  bytes32 id */\n      0x00\n        /* \"contracts/RepairEvent.sol\":2102:2115  _serialNumber */\n      dup3\n        /* \"contracts/RepairEvent.sol\":2085:2116  abi.encodePacked(_serialNumber) */\n      add(0x20, mload(0x40))\n      tag_55\n      swap2\n      swap1\n      tag_38\n      jump\t// in\n    tag_55:\n      mload(0x40)\n      0x20\n      dup2\n      dup4\n      sub\n      sub\n      dup2\n      mstore\n      swap1\n      0x40\n      mstore\n        /* \"contracts/RepairEvent.sol\":2075:2117  keccak256(abi.encodePacked(_serialNumber)) */\n      dup1\n      mload\n      swap1\n      0x20\n      add\n      keccak256\n        /* \"contracts/RepairEvent.sol\":2062:2117  bytes32 id = keccak256(abi.encodePacked(_serialNumber)) */\n      swap1\n      pop\n        /* \"contracts/RepairEvent.sol\":2135:2148  repairHistory */\n      0x01\n        /* \"contracts/RepairEvent.sol\":2135:2152  repairHistory[id] */\n      0x00\n        /* \"contracts/RepairEvent.sol\":2149:2151  id */\n      dup3\n        /* \"contracts/RepairEvent.sol\":2135:2152  repairHistory[id] */\n      dup2\n      mstore\n      0x20\n      add\n      swap1\n      dup2\n      mstore\n      0x20\n      add\n      0x00\n      keccak256\n        /* \"contracts/RepairEvent.sol\":2128:2152  return repairHistory[id] */\n      dup1\n      sload\n      dup1\n      0x20\n      mul\n      0x20\n      add\n      mload(0x40)\n      swap1\n      dup2\n      add\n      0x40\n      mstore\n      dup1\n      swap3\n      swap2\n      swap1\n      dup2\n      dup2\n      mstore\n      0x20\n      add\n      0x00\n      swap1\n    tag_56:\n      dup3\n      dup3\n      lt\n      iszero\n      tag_57\n      jumpi\n      dup4\n      dup3\n      swap1\n      0x00\n      mstore\n      keccak256(0x00, 0x20)\n      swap1\n      0x06\n      mul\n      add\n      mload(0x40)\n      dup1\n      0xc0\n      add\n      0x40\n      mstore\n      swap1\n      dup2\n      0x00\n      dup3\n      add\n      dup1\n      sload\n      tag_59\n      swap1\n      tag_60\n      jump\t// in\n    tag_59:\n      dup1\n      0x1f\n      add\n      0x20\n      dup1\n      swap2\n      div\n      mul\n      0x20\n      add\n      mload(0x40)\n      swap1\n      dup2\n      add\n      0x40\n      mstore\n      dup1\n      swap3\n      swap2\n      swap1\n      dup2\n      dup2\n      mstore\n      0x20\n      add\n      dup3\n      dup1\n      sload\n      tag_61\n      swap1\n      tag_60\n      jump\t// in\n    tag_61:\n      dup1\n      iszero\n      tag_62\n      jumpi\n      dup1\n      0x1f\n      lt\n      tag_63\n      jumpi\n      0x0100\n      dup1\n      dup4\n      sload\n      div\n      mul\n      dup4\n      mstore\n      swap2\n      0x20\n      add\n      swap2\n      jump(tag_62)\n    tag_63:\n      dup3\n      add\n      swap2\n      swap1\n      0x00\n      mstore\n      keccak256(0x00, 0x20)\n      swap1\n    tag_64:\n      dup2\n      sload\n      dup2\n      mstore\n      swap1\n      0x01\n      add\n      swap1\n      0x20\n      add\n      dup1\n      dup4\n      gt\n      tag_64\n      jumpi\n      dup3\n      swap1\n      sub\n      0x1f\n      and\n      dup3\n      add\n      swap2\n    tag_62:\n      pop\n      pop\n      pop\n      pop\n      pop\n      dup2\n      mstore\n      0x20\n      add\n      0x01\n      dup3\n      add\n      dup1\n      sload\n      tag_65\n      swap1\n      tag_60\n      jump\t// in\n    tag_65:\n      dup1\n      0x1f\n      add\n      0x20\n      dup1\n      swap2\n      div\n      mul\n      0x20\n      add\n      mload(0x40)\n      swap1\n      dup2\n      add\n      0x40\n      mstore\n      dup1\n      swap3\n      swap2\n      swap1\n      dup2\n      dup2\n      mstore\n      0x20\n      add\n      dup3\n      dup1\n      sload\n      tag_66\n      swap1\n      tag_60\n      jump\t// in\n    tag_66:\n      dup1\n      iszero\n      tag_67\n      jumpi\n      dup1\n      0x1f\n      lt\n      tag_68\n      jumpi\n      0x0100\n      dup1\n      dup4\n      sload\n      div\n      mul\n      dup4\n      mstore\n      swap2\n      0x20\n      add\n      swap2\n      jump(tag_67)\n    tag_68:\n      dup3\n      add\n      swap2\n      swap1\n      0x00\n      mstore\n      keccak256(0x00, 0x20)\n      swap1\n    tag_69:\n      dup2\n      sload\n      dup2\n      mstore\n      swap1\n      0x01\n      add\n      swap1\n      0x20\n      add\n      dup1\n      dup4\n      gt\n      tag_69\n      jumpi\n      dup3\n      swap1\n      sub\n      0x1f\n      and\n      dup3\n      add\n      swap2\n    tag_67:\n      pop\n      pop\n      pop\n      pop\n      pop\n      dup2\n      mstore\n      0x20\n      add\n      0x02\n      dup3\n      add\n      dup1\n      sload\n      tag_70\n      swap1\n      tag_60\n      jump\t// in\n    tag_70:\n      dup1\n      0x1f\n      add\n      0x20\n      dup1\n      swap2\n      div\n      mul\n      0x20\n      add\n      mload(0x40)\n      swap1\n      dup2\n      add\n      0x40\n      mstore\n      dup1\n      swap3\n      swap2\n      swap1\n      dup2\n      dup2\n      mstore\n      0x20\n      add\n      dup3\n      dup1\n      sload\n      tag_71\n      swap1\n      tag_60\n      jump\t// in\n    tag_71:\n      dup1\n      iszero\n      tag_72\n      jumpi\n      dup1\n      0x1f\n      lt\n      tag_73\n      jumpi\n      0x0100\n      dup1\n      dup4\n      sload\n      div\n      mul\n      dup4\n      mstore\n      swap2\n      0x20\n      add\n      swap2\n      jump(tag_72)\n    tag_73:\n      dup3\n      add\n      swap2\n      swap1\n      0x00\n      mstore\n      keccak256(0x00, 0x20)\n      swap1\n    tag_74:\n      dup2\n      sload\n      dup2\n      mstore\n      swap1\n      0x01\n      add\n      swap1\n      0x20\n      add\n      dup1\n      dup4\n      gt\n      tag_74\n      jumpi\n      dup3\n      swap1\n      sub\n      0x1f\n      and\n      dup3\n      add\n      swap2\n    tag_72:\n      pop\n      pop\n      pop\n      pop\n      pop\n      dup2\n      mstore\n      0x20\n      add\n      0x03\n      dup3\n      add\n      0x00\n      swap1\n      sload\n      swap1\n      0x0100\n      exp\n      swap1\n      div\n      0xffffffffffffffffffffffffffffffffffffffff\n      and\n      0xffffffffffffffffffffffffffffffffffffffff\n      and\n      0xffffffffffffffffffffffffffffffffffffffff\n      and\n      dup2\n      mstore\n      0x20\n      add\n      0x04\n      dup3\n      add\n      sload\n      dup2\n      mstore\n      0x20\n      add\n      0x05\n      dup3\n      add\n      0x00\n      swap1\n      sload\n      swap1\n      0x0100\n      exp\n      swap1\n      div\n      0xff\n      and\n      0x01\n      dup2\n      gt\n      iszero\n      tag_75\n      jumpi\n      tag_76\n      tag_41\n      jump\t// in\n    tag_76:\n    tag_75:\n      0x01\n      dup2\n      gt\n      iszero\n      tag_77\n      jumpi\n      tag_78\n      tag_41\n      jump\t// in\n    tag_78:\n    tag_77:\n      dup2\n      mstore\n      pop\n      pop\n      dup2\n      mstore\n      0x20\n      add\n      swap1\n      0x01\n      add\n      swap1\n      jump(tag_56)\n    tag_57:\n      pop\n      pop\n      pop\n      pop\n      swap2\n      pop\n      pop\n        /* \"contracts/RepairEvent.sol\":1944:2160  function getRepairHistory(string memory _serialNumber)... */\n      swap2\n      swap1\n      pop\n      jump\t// out\n        /* \"#utility.yul\":7:82   */\n    tag_79:\n        /* \"#utility.yul\":40:46   */\n      0x00\n        /* \"#utility.yul\":73:75   */\n      0x40\n        /* \"#utility.yul\":67:76   */\n      mload\n        /* \"#utility.yul\":57:76   */\n      swap1\n      pop\n        /* \"#utility.yul\":7:82   */\n      swap1\n      jump\t// out\n        /* \"#utility.yul\":88:205   */\n    tag_80:\n        /* \"#utility.yul\":197:198   */\n      0x00\n        /* \"#utility.yul\":194:195   */\n      0x00\n        /* \"#utility.yul\":187:199   */\n      revert\n        /* \"#utility.yul\":211:328   */\n    tag_81:\n        /* \"#utility.yul\":320:321   */\n      0x00\n        /* \"#utility.yul\":317:318   */\n      0x00\n        /* \"#utility.yul\":310:322   */\n      revert\n        /* \"#utility.yul\":334:451   */\n    tag_82:\n        /* \"#utility.yul\":443:444   */\n      0x00\n        /* \"#utility.yul\":440:441   */\n      0x00\n        /* \"#utility.yul\":433:445   */\n      revert\n        /* \"#utility.yul\":457:574   */\n    tag_83:\n        /* \"#utility.yul\":566:567   */\n      0x00\n        /* \"#utility.yul\":563:564   */\n      0x00\n        /* \"#utility.yul\":556:568   */\n      revert\n        /* \"#utility.yul\":580:682   */\n    tag_84:\n        /* \"#utility.yul\":621:627   */\n      0x00\n        /* \"#utility.yul\":672:674   */\n      0x1f\n        /* \"#utility.yul\":668:675   */\n      not\n        /* \"#utility.yul\":663:665   */\n      0x1f\n        /* \"#utility.yul\":656:661   */\n      dup4\n        /* \"#utility.yul\":652:666   */\n      add\n        /* \"#utility.yul\":648:676   */\n      and\n        /* \"#utility.yul\":638:676   */\n      swap1\n      pop\n        /* \"#utility.yul\":580:682   */\n      swap2\n      swap1\n      pop\n      jump\t// out\n        /* \"#utility.yul\":688:868   */\n    tag_85:\n        /* \"#utility.yul\":736:813   */\n      0x4e487b7100000000000000000000000000000000000000000000000000000000\n        /* \"#utility.yul\":733:734   */\n      0x00\n        /* \"#utility.yul\":726:814   */\n      mstore\n        /* \"#utility.yul\":833:837   */\n      0x41\n        /* \"#utility.yul\":830:831   */\n      0x04\n        /* \"#utility.yul\":823:838   */\n      mstore\n        /* \"#utility.yul\":857:861   */\n      0x24\n        /* \"#utility.yul\":854:855   */\n      0x00\n        /* \"#utility.yul\":847:862   */\n      revert\n        /* \"#utility.yul\":874:1155   */\n    tag_86:\n        /* \"#utility.yul\":957:984   */\n      tag_148\n        /* \"#utility.yul\":979:983   */\n      dup3\n        /* \"#utility.yul\":957:984   */\n      tag_84\n      jump\t// in\n    tag_148:\n        /* \"#utility.yul\":949:955   */\n      dup2\n        /* \"#utility.yul\":945:985   */\n      add\n        /* \"#utility.yul\":1087:1093   */\n      dup2\n        /* \"#utility.yul\":1075:1085   */\n      dup2\n        /* \"#utility.yul\":1072:1094   */\n      lt\n        /* \"#utility.yul\":1051:1069   */\n      0xffffffffffffffff\n        /* \"#utility.yul\":1039:1049   */\n      dup3\n        /* \"#utility.yul\":1036:1070   */\n      gt\n        /* \"#utility.yul\":1033:1095   */\n      or\n        /* \"#utility.yul\":1030:1118   */\n      iszero\n      tag_149\n      jumpi\n        /* \"#utility.yul\":1098:1116   */\n      tag_150\n      tag_85\n      jump\t// in\n    tag_150:\n        /* \"#utility.yul\":1030:1118   */\n    tag_149:\n        /* \"#utility.yul\":1138:1148   */\n      dup1\n        /* \"#utility.yul\":1134:1136   */\n      0x40\n        /* \"#utility.yul\":1127:1149   */\n      mstore\n        /* \"#utility.yul\":917:1155   */\n      pop\n        /* \"#utility.yul\":874:1155   */\n      pop\n      pop\n      jump\t// out\n        /* \"#utility.yul\":1161:1290   */\n    tag_87:\n        /* \"#utility.yul\":1195:1201   */\n      0x00\n        /* \"#utility.yul\":1222:1242   */\n      tag_152\n      tag_79\n      jump\t// in\n    tag_152:\n        /* \"#utility.yul\":1212:1242   */\n      swap1\n      pop\n        /* \"#utility.yul\":1251:1284   */\n      tag_153\n        /* \"#utility.yul\":1279:1283   */\n      dup3\n        /* \"#utility.yul\":1271:1277   */\n      dup3\n        /* \"#utility.yul\":1251:1284   */\n      tag_86\n      jump\t// in\n    tag_153:\n        /* \"#utility.yul\":1161:1290   */\n      swap2\n      swap1\n      pop\n      jump\t// out\n        /* \"#utility.yul\":1296:1604   */\n    tag_88:\n        /* \"#utility.yul\":1358:1362   */\n      0x00\n        /* \"#utility.yul\":1448:1466   */\n      0xffffffffffffffff\n        /* \"#utility.yul\":1440:1446   */\n      dup3\n        /* \"#utility.yul\":1437:1467   */\n      gt\n        /* \"#utility.yul\":1434:1490   */\n      iszero\n      tag_155\n      jumpi\n        /* \"#utility.yul\":1470:1488   */\n      tag_156\n      tag_85\n      jump\t// in\n    tag_156:\n        /* \"#utility.yul\":1434:1490   */\n    tag_155:\n        /* \"#utility.yul\":1508:1537   */\n      tag_157\n        /* \"#utility.yul\":1530:1536   */\n      dup3\n        /* \"#utility.yul\":1508:1537   */\n      tag_84\n      jump\t// in\n    tag_157:\n        /* \"#utility.yul\":1500:1537   */\n      swap1\n      pop\n        /* \"#utility.yul\":1592:1596   */\n      0x20\n        /* \"#utility.yul\":1586:1590   */\n      dup2\n        /* \"#utility.yul\":1582:1597   */\n      add\n        /* \"#utility.yul\":1574:1597   */\n      swap1\n      pop\n        /* \"#utility.yul\":1296:1604   */\n      swap2\n      swap1\n      pop\n      jump\t// out\n        /* \"#utility.yul\":1610:1758   */\n    tag_89:\n        /* \"#utility.yul\":1708:1714   */\n      dup3\n        /* \"#utility.yul\":1703:1706   */\n      dup2\n        /* \"#utility.yul\":1698:1701   */\n      dup4\n        /* \"#utility.yul\":1685:1715   */\n      calldatacopy\n        /* \"#utility.yul\":1749:1750   */\n      0x00\n        /* \"#utility.yul\":1740:1746   */\n      dup4\n        /* \"#utility.yul\":1735:1738   */\n      dup4\n        /* \"#utility.yul\":1731:1747   */\n      add\n        /* \"#utility.yul\":1724:1751   */\n      mstore\n        /* \"#utility.yul\":1610:1758   */\n      pop\n      pop\n      pop\n      jump\t// out\n        /* \"#utility.yul\":1764:2189   */\n    tag_90:\n        /* \"#utility.yul\":1842:1847   */\n      0x00\n        /* \"#utility.yul\":1867:1933   */\n      tag_160\n        /* \"#utility.yul\":1883:1932   */\n      tag_161\n        /* \"#utility.yul\":1925:1931   */\n      dup5\n        /* \"#utility.yul\":1883:1932   */\n      tag_88\n      jump\t// in\n    tag_161:\n        /* \"#utility.yul\":1867:1933   */\n      tag_87\n      jump\t// in\n    tag_160:\n        /* \"#utility.yul\":1858:1933   */\n      swap1\n      pop\n        /* \"#utility.yul\":1956:1962   */\n      dup3\n        /* \"#utility.yul\":1949:1954   */\n      dup2\n        /* \"#utility.yul\":1942:1963   */\n      mstore\n        /* \"#utility.yul\":1994:1998   */\n      0x20\n        /* \"#utility.yul\":1987:1992   */\n      dup2\n        /* \"#utility.yul\":1983:1999   */\n      add\n        /* \"#utility.yul\":2032:2035   */\n      dup5\n        /* \"#utility.yul\":2023:2029   */\n      dup5\n        /* \"#utility.yul\":2018:2021   */\n      dup5\n        /* \"#utility.yul\":2014:2030   */\n      add\n        /* \"#utility.yul\":2011:2036   */\n      gt\n        /* \"#utility.yul\":2008:2120   */\n      iszero\n      tag_162\n      jumpi\n        /* \"#utility.yul\":2039:2118   */\n      tag_163\n      tag_83\n      jump\t// in\n    tag_163:\n        /* \"#utility.yul\":2008:2120   */\n    tag_162:\n        /* \"#utility.yul\":2129:2183   */\n      tag_164\n        /* \"#utility.yul\":2176:2182   */\n      dup5\n        /* \"#utility.yul\":2171:2174   */\n      dup3\n        /* \"#utility.yul\":2166:2169   */\n      dup6\n        /* \"#utility.yul\":2129:2183   */\n      tag_89\n      jump\t// in\n    tag_164:\n        /* \"#utility.yul\":1848:2189   */\n      pop\n        /* \"#utility.yul\":1764:2189   */\n      swap4\n      swap3\n      pop\n      pop\n      pop\n      jump\t// out\n        /* \"#utility.yul\":2209:2549   */\n    tag_91:\n        /* \"#utility.yul\":2265:2270   */\n      0x00\n        /* \"#utility.yul\":2314:2317   */\n      dup3\n        /* \"#utility.yul\":2307:2311   */\n      0x1f\n        /* \"#utility.yul\":2299:2305   */\n      dup4\n        /* \"#utility.yul\":2295:2312   */\n      add\n        /* \"#utility.yul\":2291:2318   */\n      slt\n        /* \"#utility.yul\":2281:2403   */\n      tag_166\n      jumpi\n        /* \"#utility.yul\":2322:2401   */\n      tag_167\n      tag_82\n      jump\t// in\n    tag_167:\n        /* \"#utility.yul\":2281:2403   */\n    tag_166:\n        /* \"#utility.yul\":2439:2445   */\n      dup2\n        /* \"#utility.yul\":2426:2446   */\n      calldataload\n        /* \"#utility.yul\":2464:2543   */\n      tag_168\n        /* \"#utility.yul\":2539:2542   */\n      dup5\n        /* \"#utility.yul\":2531:2537   */\n      dup3\n        /* \"#utility.yul\":2524:2528   */\n      0x20\n        /* \"#utility.yul\":2516:2522   */\n      dup7\n        /* \"#utility.yul\":2512:2529   */\n      add\n        /* \"#utility.yul\":2464:2543   */\n      tag_90\n      jump\t// in\n    tag_168:\n        /* \"#utility.yul\":2455:2543   */\n      swap2\n      pop\n        /* \"#utility.yul\":2271:2549   */\n      pop\n        /* \"#utility.yul\":2209:2549   */\n      swap3\n      swap2\n      pop\n      pop\n      jump\t// out\n        /* \"#utility.yul\":2555:3714   */\n    tag_8:\n        /* \"#utility.yul\":2662:2668   */\n      0x00\n        /* \"#utility.yul\":2670:2676   */\n      0x00\n        /* \"#utility.yul\":2678:2684   */\n      0x00\n        /* \"#utility.yul\":2727:2729   */\n      0x60\n        /* \"#utility.yul\":2715:2724   */\n      dup5\n        /* \"#utility.yul\":2706:2713   */\n      dup7\n        /* \"#utility.yul\":2702:2725   */\n      sub\n        /* \"#utility.yul\":2698:2730   */\n      slt\n        /* \"#utility.yul\":2695:2814   */\n      iszero\n      tag_170\n      jumpi\n        /* \"#utility.yul\":2733:2812   */\n      tag_171\n      tag_80\n      jump\t// in\n    tag_171:\n        /* \"#utility.yul\":2695:2814   */\n    tag_170:\n        /* \"#utility.yul\":2881:2882   */\n      0x00\n        /* \"#utility.yul\":2870:2879   */\n      dup5\n        /* \"#utility.yul\":2866:2883   */\n      add\n        /* \"#utility.yul\":2853:2884   */\n      calldataload\n        /* \"#utility.yul\":2911:2929   */\n      0xffffffffffffffff\n        /* \"#utility.yul\":2903:2909   */\n      dup2\n        /* \"#utility.yul\":2900:2930   */\n      gt\n        /* \"#utility.yul\":2897:3014   */\n      iszero\n      tag_172\n      jumpi\n        /* \"#utility.yul\":2933:3012   */\n      tag_173\n      tag_81\n      jump\t// in\n    tag_173:\n        /* \"#utility.yul\":2897:3014   */\n    tag_172:\n        /* \"#utility.yul\":3038:3101   */\n      tag_174\n        /* \"#utility.yul\":3093:3100   */\n      dup7\n        /* \"#utility.yul\":3084:3090   */\n      dup3\n        /* \"#utility.yul\":3073:3082   */\n      dup8\n        /* \"#utility.yul\":3069:3091   */\n      add\n        /* \"#utility.yul\":3038:3101   */\n      tag_91\n      jump\t// in\n    tag_174:\n        /* \"#utility.yul\":3028:3101   */\n      swap4\n      pop\n        /* \"#utility.yul\":2824:3111   */\n      pop\n        /* \"#utility.yul\":3178:3180   */\n      0x20\n        /* \"#utility.yul\":3167:3176   */\n      dup5\n        /* \"#utility.yul\":3163:3181   */\n      add\n        /* \"#utility.yul\":3150:3182   */\n      calldataload\n        /* \"#utility.yul\":3209:3227   */\n      0xffffffffffffffff\n        /* \"#utility.yul\":3201:3207   */\n      dup2\n        /* \"#utility.yul\":3198:3228   */\n      gt\n        /* \"#utility.yul\":3195:3312   */\n      iszero\n      tag_175\n      jumpi\n        /* \"#utility.yul\":3231:3310   */\n      tag_176\n      tag_81\n      jump\t// in\n    tag_176:\n        /* \"#utility.yul\":3195:3312   */\n    tag_175:\n        /* \"#utility.yul\":3336:3399   */\n      tag_177\n        /* \"#utility.yul\":3391:3398   */\n      dup7\n        /* \"#utility.yul\":3382:3388   */\n      dup3\n        /* \"#utility.yul\":3371:3380   */\n      dup8\n        /* \"#utility.yul\":3367:3389   */\n      add\n        /* \"#utility.yul\":3336:3399   */\n      tag_91\n      jump\t// in\n    tag_177:\n        /* \"#utility.yul\":3326:3399   */\n      swap3\n      pop\n        /* \"#utility.yul\":3121:3409   */\n      pop\n        /* \"#utility.yul\":3476:3478   */\n      0x40\n        /* \"#utility.yul\":3465:3474   */\n      dup5\n        /* \"#utility.yul\":3461:3479   */\n      add\n        /* \"#utility.yul\":3448:3480   */\n      calldataload\n        /* \"#utility.yul\":3507:3525   */\n      0xffffffffffffffff\n        /* \"#utility.yul\":3499:3505   */\n      dup2\n        /* \"#utility.yul\":3496:3526   */\n      gt\n        /* \"#utility.yul\":3493:3610   */\n      iszero\n      tag_178\n      jumpi\n        /* \"#utility.yul\":3529:3608   */\n      tag_179\n      tag_81\n      jump\t// in\n    tag_179:\n        /* \"#utility.yul\":3493:3610   */\n    tag_178:\n        /* \"#utility.yul\":3634:3697   */\n      tag_180\n        /* \"#utility.yul\":3689:3696   */\n      dup7\n        /* \"#utility.yul\":3680:3686   */\n      dup3\n        /* \"#utility.yul\":3669:3678   */\n      dup8\n        /* \"#utility.yul\":3665:3687   */\n      add\n        /* \"#utility.yul\":3634:3697   */\n      tag_91\n      jump\t// in\n    tag_180:\n        /* \"#utility.yul\":3624:3697   */\n      swap2\n      pop\n        /* \"#utility.yul\":3419:3707   */\n      pop\n        /* \"#utility.yul\":2555:3714   */\n      swap3\n      pop\n      swap3\n      pop\n      swap3\n      jump\t// out\n        /* \"#utility.yul\":3720:4229   */\n    tag_12:\n        /* \"#utility.yul\":3789:3795   */\n      0x00\n        /* \"#utility.yul\":3838:3840   */\n      0x20\n        /* \"#utility.yul\":3826:3835   */\n      dup3\n        /* \"#utility.yul\":3817:3824   */\n      dup5\n        /* \"#utility.yul\":3813:3836   */\n      sub\n        /* \"#utility.yul\":3809:3841   */\n      slt\n        /* \"#utility.yul\":3806:3925   */\n      iszero\n      tag_182\n      jumpi\n        /* \"#utility.yul\":3844:3923   */\n      tag_183\n      tag_80\n      jump\t// in\n    tag_183:\n        /* \"#utility.yul\":3806:3925   */\n    tag_182:\n        /* \"#utility.yul\":3992:3993   */\n      0x00\n        /* \"#utility.yul\":3981:3990   */\n      dup3\n        /* \"#utility.yul\":3977:3994   */\n      add\n        /* \"#utility.yul\":3964:3995   */\n      calldataload\n        /* \"#utility.yul\":4022:4040   */\n      0xffffffffffffffff\n        /* \"#utility.yul\":4014:4020   */\n      dup2\n        /* \"#utility.yul\":4011:4041   */\n      gt\n        /* \"#utility.yul\":4008:4125   */\n      iszero\n      tag_184\n      jumpi\n        /* \"#utility.yul\":4044:4123   */\n      tag_185\n      tag_81\n      jump\t// in\n    tag_185:\n        /* \"#utility.yul\":4008:4125   */\n    tag_184:\n        /* \"#utility.yul\":4149:4212   */\n      tag_186\n        /* \"#utility.yul\":4204:4211   */\n      dup5\n        /* \"#utility.yul\":4195:4201   */\n      dup3\n        /* \"#utility.yul\":4184:4193   */\n      dup6\n        /* \"#utility.yul\":4180:4202   */\n      add\n        /* \"#utility.yul\":4149:4212   */\n      tag_91\n      jump\t// in\n    tag_186:\n        /* \"#utility.yul\":4139:4212   */\n      swap2\n      pop\n        /* \"#utility.yul\":3935:4222   */\n      pop\n        /* \"#utility.yul\":3720:4229   */\n      swap3\n      swap2\n      pop\n      pop\n      jump\t// out\n        /* \"#utility.yul\":4235:4312   */\n    tag_92:\n        /* \"#utility.yul\":4272:4279   */\n      0x00\n        /* \"#utility.yul\":4301:4306   */\n      dup2\n        /* \"#utility.yul\":4290:4306   */\n      swap1\n      pop\n        /* \"#utility.yul\":4235:4312   */\n      swap2\n      swap1\n      pop\n      jump\t// out\n        /* \"#utility.yul\":4318:4436   */\n    tag_93:\n        /* \"#utility.yul\":4405:4429   */\n      tag_189\n        /* \"#utility.yul\":4423:4428   */\n      dup2\n        /* \"#utility.yul\":4405:4429   */\n      tag_92\n      jump\t// in\n    tag_189:\n        /* \"#utility.yul\":4400:4403   */\n      dup3\n        /* \"#utility.yul\":4393:4430   */\n      mstore\n        /* \"#utility.yul\":4318:4436   */\n      pop\n      pop\n      jump\t// out\n        /* \"#utility.yul\":4442:4664   */\n    tag_15:\n        /* \"#utility.yul\":4535:4539   */\n      0x00\n        /* \"#utility.yul\":4573:4575   */\n      0x20\n        /* \"#utility.yul\":4562:4571   */\n      dup3\n        /* \"#utility.yul\":4558:4576   */\n      add\n        /* \"#utility.yul\":4550:4576   */\n      swap1\n      pop\n        /* \"#utility.yul\":4586:4657   */\n      tag_191\n        /* \"#utility.yul\":4654:4655   */\n      0x00\n        /* \"#utility.yul\":4643:4652   */\n      dup4\n        /* \"#utility.yul\":4639:4656   */\n      add\n        /* \"#utility.yul\":4630:4636   */\n      dup5\n        /* \"#utility.yul\":4586:4657   */\n      tag_93\n      jump\t// in\n    tag_191:\n        /* \"#utility.yul\":4442:4664   */\n      swap3\n      swap2\n      pop\n      pop\n      jump\t// out\n        /* \"#utility.yul\":4670:4806   */\n    tag_94:\n        /* \"#utility.yul\":4759:4765   */\n      0x00\n        /* \"#utility.yul\":4793:4798   */\n      dup2\n        /* \"#utility.yul\":4787:4799   */\n      mload\n        /* \"#utility.yul\":4777:4799   */\n      swap1\n      pop\n        /* \"#utility.yul\":4670:4806   */\n      swap2\n      swap1\n      pop\n      jump\t// out\n        /* \"#utility.yul\":4812:5018   */\n    tag_95:\n        /* \"#utility.yul\":4933:4944   */\n      0x00\n        /* \"#utility.yul\":4967:4973   */\n      dup3\n        /* \"#utility.yul\":4962:4965   */\n      dup3\n        /* \"#utility.yul\":4955:4974   */\n      mstore\n        /* \"#utility.yul\":5007:5011   */\n      0x20\n        /* \"#utility.yul\":5002:5005   */\n      dup3\n        /* \"#utility.yul\":4998:5012   */\n      add\n        /* \"#utility.yul\":4983:5012   */\n      swap1\n      pop\n        /* \"#utility.yul\":4812:5018   */\n      swap3\n      swap2\n      pop\n      pop\n      jump\t// out\n        /* \"#utility.yul\":5024:5178   */\n    tag_96:\n        /* \"#utility.yul\":5113:5117   */\n      0x00\n        /* \"#utility.yul\":5136:5139   */\n      dup2\n        /* \"#utility.yul\":5128:5139   */\n      swap1\n      pop\n        /* \"#utility.yul\":5166:5170   */\n      0x20\n        /* \"#utility.yul\":5161:5164   */\n      dup3\n        /* \"#utility.yul\":5157:5171   */\n      add\n        /* \"#utility.yul\":5149:5171   */\n      swap1\n      pop\n        /* \"#utility.yul\":5024:5178   */\n      swap2\n      swap1\n      pop\n      jump\t// out\n        /* \"#utility.yul\":5184:5283   */\n    tag_97:\n        /* \"#utility.yul\":5236:5242   */\n      0x00\n        /* \"#utility.yul\":5270:5275   */\n      dup2\n        /* \"#utility.yul\":5264:5276   */\n      mload\n        /* \"#utility.yul\":5254:5276   */\n      swap1\n      pop\n        /* \"#utility.yul\":5184:5283   */\n      swap2\n      swap1\n      pop\n      jump\t// out\n        /* \"#utility.yul\":5289:5448   */\n    tag_98:\n        /* \"#utility.yul\":5363:5374   */\n      0x00\n        /* \"#utility.yul\":5397:5403   */\n      dup3\n        /* \"#utility.yul\":5392:5395   */\n      dup3\n        /* \"#utility.yul\":5385:5404   */\n      mstore\n        /* \"#utility.yul\":5437:5441   */\n      0x20\n        /* \"#utility.yul\":5432:5435   */\n      dup3\n        /* \"#utility.yul\":5428:5442   */\n      add\n        /* \"#utility.yul\":5413:5442   */\n      swap1\n      pop\n        /* \"#utility.yul\":5289:5448   */\n      swap3\n      swap2\n      pop\n      pop\n      jump\t// out\n        /* \"#utility.yul\":5454:5593   */\n    tag_99:\n        /* \"#utility.yul\":5543:5549   */\n      dup3\n        /* \"#utility.yul\":5538:5541   */\n      dup2\n        /* \"#utility.yul\":5533:5536   */\n      dup4\n        /* \"#utility.yul\":5527:5550   */\n      mcopy\n        /* \"#utility.yul\":5584:5585   */\n      0x00\n        /* \"#utility.yul\":5575:5581   */\n      dup4\n        /* \"#utility.yul\":5570:5573   */\n      dup4\n        /* \"#utility.yul\":5566:5582   */\n      add\n        /* \"#utility.yul\":5559:5586   */\n      mstore\n        /* \"#utility.yul\":5454:5593   */\n      pop\n      pop\n      pop\n      jump\t// out\n        /* \"#utility.yul\":5599:5956   */\n    tag_100:\n        /* \"#utility.yul\":5677:5680   */\n      0x00\n        /* \"#utility.yul\":5705:5744   */\n      tag_199\n        /* \"#utility.yul\":5738:5743   */\n      dup3\n        /* \"#utility.yul\":5705:5744   */\n      tag_97\n      jump\t// in\n    tag_199:\n        /* \"#utility.yul\":5760:5821   */\n      tag_200\n        /* \"#utility.yul\":5814:5820   */\n      dup2\n        /* \"#utility.yul\":5809:5812   */\n      dup6\n        /* \"#utility.yul\":5760:5821   */\n      tag_98\n      jump\t// in\n    tag_200:\n        /* \"#utility.yul\":5753:5821   */\n      swap4\n      pop\n        /* \"#utility.yul\":5830:5895   */\n      tag_201\n        /* \"#utility.yul\":5888:5894   */\n      dup2\n        /* \"#utility.yul\":5883:5886   */\n      dup6\n        /* \"#utility.yul\":5876:5880   */\n      0x20\n        /* \"#utility.yul\":5869:5874   */\n      dup7\n        /* \"#utility.yul\":5865:5881   */\n      add\n        /* \"#utility.yul\":5830:5895   */\n      tag_99\n      jump\t// in\n    tag_201:\n        /* \"#utility.yul\":5920:5949   */\n      tag_202\n        /* \"#utility.yul\":5942:5948   */\n      dup2\n        /* \"#utility.yul\":5920:5949   */\n      tag_84\n      jump\t// in\n    tag_202:\n        /* \"#utility.yul\":5915:5918   */\n      dup5\n        /* \"#utility.yul\":5911:5950   */\n      add\n        /* \"#utility.yul\":5904:5950   */\n      swap2\n      pop\n        /* \"#utility.yul\":5681:5956   */\n      pop\n        /* \"#utility.yul\":5599:5956   */\n      swap3\n      swap2\n      pop\n      pop\n      jump\t// out\n        /* \"#utility.yul\":5962:6088   */\n    tag_101:\n        /* \"#utility.yul\":5999:6006   */\n      0x00\n        /* \"#utility.yul\":6039:6081   */\n      0xffffffffffffffffffffffffffffffffffffffff\n        /* \"#utility.yul\":6032:6037   */\n      dup3\n        /* \"#utility.yul\":6028:6082   */\n      and\n        /* \"#utility.yul\":6017:6082   */\n      swap1\n      pop\n        /* \"#utility.yul\":5962:6088   */\n      swap2\n      swap1\n      pop\n      jump\t// out\n        /* \"#utility.yul\":6094:6190   */\n    tag_102:\n        /* \"#utility.yul\":6131:6138   */\n      0x00\n        /* \"#utility.yul\":6160:6184   */\n      tag_205\n        /* \"#utility.yul\":6178:6183   */\n      dup3\n        /* \"#utility.yul\":6160:6184   */\n      tag_101\n      jump\t// in\n    tag_205:\n        /* \"#utility.yul\":6149:6184   */\n      swap1\n      pop\n        /* \"#utility.yul\":6094:6190   */\n      swap2\n      swap1\n      pop\n      jump\t// out\n        /* \"#utility.yul\":6196:6304   */\n    tag_103:\n        /* \"#utility.yul\":6273:6297   */\n      tag_207\n        /* \"#utility.yul\":6291:6296   */\n      dup2\n        /* \"#utility.yul\":6273:6297   */\n      tag_102\n      jump\t// in\n    tag_207:\n        /* \"#utility.yul\":6268:6271   */\n      dup3\n        /* \"#utility.yul\":6261:6298   */\n      mstore\n        /* \"#utility.yul\":6196:6304   */\n      pop\n      pop\n      jump\t// out\n        /* \"#utility.yul\":6310:6418   */\n    tag_104:\n        /* \"#utility.yul\":6387:6411   */\n      tag_209\n        /* \"#utility.yul\":6405:6410   */\n      dup2\n        /* \"#utility.yul\":6387:6411   */\n      tag_92\n      jump\t// in\n    tag_209:\n        /* \"#utility.yul\":6382:6385   */\n      dup3\n        /* \"#utility.yul\":6375:6412   */\n      mstore\n        /* \"#utility.yul\":6310:6418   */\n      pop\n      pop\n      jump\t// out\n        /* \"#utility.yul\":6424:6604   */\n    tag_41:\n        /* \"#utility.yul\":6472:6549   */\n      0x4e487b7100000000000000000000000000000000000000000000000000000000\n        /* \"#utility.yul\":6469:6470   */\n      0x00\n        /* \"#utility.yul\":6462:6550   */\n      mstore\n        /* \"#utility.yul\":6569:6573   */\n      0x21\n        /* \"#utility.yul\":6566:6567   */\n      0x04\n        /* \"#utility.yul\":6559:6574   */\n      mstore\n        /* \"#utility.yul\":6593:6597   */\n      0x24\n        /* \"#utility.yul\":6590:6591   */\n      0x00\n        /* \"#utility.yul\":6583:6598   */\n      revert\n        /* \"#utility.yul\":6610:6730   */\n    tag_105:\n        /* \"#utility.yul\":6698:6699   */\n      0x02\n        /* \"#utility.yul\":6691:6696   */\n      dup2\n        /* \"#utility.yul\":6688:6700   */\n      lt\n        /* \"#utility.yul\":6678:6724   */\n      tag_212\n      jumpi\n        /* \"#utility.yul\":6704:6722   */\n      tag_213\n      tag_41\n      jump\t// in\n    tag_213:\n        /* \"#utility.yul\":6678:6724   */\n    tag_212:\n        /* \"#utility.yul\":6610:6730   */\n      pop\n      jump\t// out\n        /* \"#utility.yul\":6736:6877   */\n    tag_106:\n        /* \"#utility.yul\":6788:6795   */\n      0x00\n        /* \"#utility.yul\":6817:6822   */\n      dup2\n        /* \"#utility.yul\":6806:6822   */\n      swap1\n      pop\n        /* \"#utility.yul\":6823:6871   */\n      tag_215\n        /* \"#utility.yul\":6865:6870   */\n      dup3\n        /* \"#utility.yul\":6823:6871   */\n      tag_105\n      jump\t// in\n    tag_215:\n        /* \"#utility.yul\":6736:6877   */\n      swap2\n      swap1\n      pop\n      jump\t// out\n        /* \"#utility.yul\":6883:7024   */\n    tag_107:\n        /* \"#utility.yul\":6946:6955   */\n      0x00\n        /* \"#utility.yul\":6979:7018   */\n      tag_217\n        /* \"#utility.yul\":7012:7017   */\n      dup3\n        /* \"#utility.yul\":6979:7018   */\n      tag_106\n      jump\t// in\n    tag_217:\n        /* \"#utility.yul\":6966:7018   */\n      swap1\n      pop\n        /* \"#utility.yul\":6883:7024   */\n      swap2\n      swap1\n      pop\n      jump\t// out\n        /* \"#utility.yul\":7030:7177   */\n    tag_108:\n        /* \"#utility.yul\":7120:7170   */\n      tag_219\n        /* \"#utility.yul\":7164:7169   */\n      dup2\n        /* \"#utility.yul\":7120:7170   */\n      tag_107\n      jump\t// in\n    tag_219:\n        /* \"#utility.yul\":7115:7118   */\n      dup3\n        /* \"#utility.yul\":7108:7171   */\n      mstore\n        /* \"#utility.yul\":7030:7177   */\n      pop\n      pop\n      jump\t// out\n        /* \"#utility.yul\":7245:8715   */\n    tag_109:\n        /* \"#utility.yul\":7348:7351   */\n      0x00\n        /* \"#utility.yul\":7384:7388   */\n      0xc0\n        /* \"#utility.yul\":7379:7382   */\n      dup4\n        /* \"#utility.yul\":7375:7389   */\n      add\n        /* \"#utility.yul\":7479:7483   */\n      0x00\n        /* \"#utility.yul\":7472:7477   */\n      dup4\n        /* \"#utility.yul\":7468:7484   */\n      add\n        /* \"#utility.yul\":7462:7485   */\n      mload\n        /* \"#utility.yul\":7532:7535   */\n      dup5\n        /* \"#utility.yul\":7526:7530   */\n      dup3\n        /* \"#utility.yul\":7522:7536   */\n      sub\n        /* \"#utility.yul\":7515:7519   */\n      0x00\n        /* \"#utility.yul\":7510:7513   */\n      dup7\n        /* \"#utility.yul\":7506:7520   */\n      add\n        /* \"#utility.yul\":7499:7537   */\n      mstore\n        /* \"#utility.yul\":7558:7631   */\n      tag_221\n        /* \"#utility.yul\":7626:7630   */\n      dup3\n        /* \"#utility.yul\":7612:7624   */\n      dup3\n        /* \"#utility.yul\":7558:7631   */\n      tag_100\n      jump\t// in\n    tag_221:\n        /* \"#utility.yul\":7550:7631   */\n      swap2\n      pop\n        /* \"#utility.yul\":7399:7642   */\n      pop\n        /* \"#utility.yul\":7731:7735   */\n      0x20\n        /* \"#utility.yul\":7724:7729   */\n      dup4\n        /* \"#utility.yul\":7720:7736   */\n      add\n        /* \"#utility.yul\":7714:7737   */\n      mload\n        /* \"#utility.yul\":7784:7787   */\n      dup5\n        /* \"#utility.yul\":7778:7782   */\n      dup3\n        /* \"#utility.yul\":7774:7788   */\n      sub\n        /* \"#utility.yul\":7767:7771   */\n      0x20\n        /* \"#utility.yul\":7762:7765   */\n      dup7\n        /* \"#utility.yul\":7758:7772   */\n      add\n        /* \"#utility.yul\":7751:7789   */\n      mstore\n        /* \"#utility.yul\":7810:7883   */\n      tag_222\n        /* \"#utility.yul\":7878:7882   */\n      dup3\n        /* \"#utility.yul\":7864:7876   */\n      dup3\n        /* \"#utility.yul\":7810:7883   */\n      tag_100\n      jump\t// in\n    tag_222:\n        /* \"#utility.yul\":7802:7883   */\n      swap2\n      pop\n        /* \"#utility.yul\":7652:7894   */\n      pop\n        /* \"#utility.yul\":7979:7983   */\n      0x40\n        /* \"#utility.yul\":7972:7977   */\n      dup4\n        /* \"#utility.yul\":7968:7984   */\n      add\n        /* \"#utility.yul\":7962:7985   */\n      mload\n        /* \"#utility.yul\":8032:8035   */\n      dup5\n        /* \"#utility.yul\":8026:8030   */\n      dup3\n        /* \"#utility.yul\":8022:8036   */\n      sub\n        /* \"#utility.yul\":8015:8019   */\n      0x40\n        /* \"#utility.yul\":8010:8013   */\n      dup7\n        /* \"#utility.yul\":8006:8020   */\n      add\n        /* \"#utility.yul\":7999:8037   */\n      mstore\n        /* \"#utility.yul\":8058:8131   */\n      tag_223\n        /* \"#utility.yul\":8126:8130   */\n      dup3\n        /* \"#utility.yul\":8112:8124   */\n      dup3\n        /* \"#utility.yul\":8058:8131   */\n      tag_100\n      jump\t// in\n    tag_223:\n        /* \"#utility.yul\":8050:8131   */\n      swap2\n      pop\n        /* \"#utility.yul\":7904:8142   */\n      pop\n        /* \"#utility.yul\":8228:8232   */\n      0x60\n        /* \"#utility.yul\":8221:8226   */\n      dup4\n        /* \"#utility.yul\":8217:8233   */\n      add\n        /* \"#utility.yul\":8211:8234   */\n      mload\n        /* \"#utility.yul\":8247:8310   */\n      tag_224\n        /* \"#utility.yul\":8304:8308   */\n      0x60\n        /* \"#utility.yul\":8299:8302   */\n      dup7\n        /* \"#utility.yul\":8295:8309   */\n      add\n        /* \"#utility.yul\":8281:8293   */\n      dup3\n        /* \"#utility.yul\":8247:8310   */\n      tag_103\n      jump\t// in\n    tag_224:\n        /* \"#utility.yul\":8152:8320   */\n      pop\n        /* \"#utility.yul\":8407:8411   */\n      0x80\n        /* \"#utility.yul\":8400:8405   */\n      dup4\n        /* \"#utility.yul\":8396:8412   */\n      add\n        /* \"#utility.yul\":8390:8413   */\n      mload\n        /* \"#utility.yul\":8426:8489   */\n      tag_225\n        /* \"#utility.yul\":8483:8487   */\n      0x80\n        /* \"#utility.yul\":8478:8481   */\n      dup7\n        /* \"#utility.yul\":8474:8488   */\n      add\n        /* \"#utility.yul\":8460:8472   */\n      dup3\n        /* \"#utility.yul\":8426:8489   */\n      tag_104\n      jump\t// in\n    tag_225:\n        /* \"#utility.yul\":8330:8499   */\n      pop\n        /* \"#utility.yul\":8583:8587   */\n      0xa0\n        /* \"#utility.yul\":8576:8581   */\n      dup4\n        /* \"#utility.yul\":8572:8588   */\n      add\n        /* \"#utility.yul\":8566:8589   */\n      mload\n        /* \"#utility.yul\":8602:8678   */\n      tag_226\n        /* \"#utility.yul\":8672:8676   */\n      0xa0\n        /* \"#utility.yul\":8667:8670   */\n      dup7\n        /* \"#utility.yul\":8663:8677   */\n      add\n        /* \"#utility.yul\":8649:8661   */\n      dup3\n        /* \"#utility.yul\":8602:8678   */\n      tag_108\n      jump\t// in\n    tag_226:\n        /* \"#utility.yul\":8509:8688   */\n      pop\n        /* \"#utility.yul\":8705:8709   */\n      dup1\n        /* \"#utility.yul\":8698:8709   */\n      swap2\n      pop\n        /* \"#utility.yul\":7353:8715   */\n      pop\n        /* \"#utility.yul\":7245:8715   */\n      swap3\n      swap2\n      pop\n      pop\n      jump\t// out\n        /* \"#utility.yul\":8721:8965   */\n    tag_110:\n        /* \"#utility.yul\":8834:8844   */\n      0x00\n        /* \"#utility.yul\":8869:8959   */\n      tag_228\n        /* \"#utility.yul\":8955:8958   */\n      dup4\n        /* \"#utility.yul\":8947:8953   */\n      dup4\n        /* \"#utility.yul\":8869:8959   */\n      tag_109\n      jump\t// in\n    tag_228:\n        /* \"#utility.yul\":8855:8959   */\n      swap1\n      pop\n        /* \"#utility.yul\":8721:8965   */\n      swap3\n      swap2\n      pop\n      pop\n      jump\t// out\n        /* \"#utility.yul\":8971:9106   */\n    tag_111:\n        /* \"#utility.yul\":9063:9067   */\n      0x00\n        /* \"#utility.yul\":9095:9099   */\n      0x20\n        /* \"#utility.yul\":9090:9093   */\n      dup3\n        /* \"#utility.yul\":9086:9100   */\n      add\n        /* \"#utility.yul\":9078:9100   */\n      swap1\n      pop\n        /* \"#utility.yul\":8971:9106   */\n      swap2\n      swap1\n      pop\n      jump\t// out\n        /* \"#utility.yul\":9178:10265   */\n    tag_112:\n        /* \"#utility.yul\":9341:9344   */\n      0x00\n        /* \"#utility.yul\":9370:9446   */\n      tag_231\n        /* \"#utility.yul\":9440:9445   */\n      dup3\n        /* \"#utility.yul\":9370:9446   */\n      tag_94\n      jump\t// in\n    tag_231:\n        /* \"#utility.yul\":9462:9570   */\n      tag_232\n        /* \"#utility.yul\":9563:9569   */\n      dup2\n        /* \"#utility.yul\":9558:9561   */\n      dup6\n        /* \"#utility.yul\":9462:9570   */\n      tag_95\n      jump\t// in\n    tag_232:\n        /* \"#utility.yul\":9455:9570   */\n      swap4\n      pop\n        /* \"#utility.yul\":9596:9599   */\n      dup4\n        /* \"#utility.yul\":9641:9645   */\n      0x20\n        /* \"#utility.yul\":9633:9639   */\n      dup3\n        /* \"#utility.yul\":9629:9646   */\n      mul\n        /* \"#utility.yul\":9624:9627   */\n      dup6\n        /* \"#utility.yul\":9620:9647   */\n      add\n        /* \"#utility.yul\":9671:9749   */\n      tag_233\n        /* \"#utility.yul\":9743:9748   */\n      dup6\n        /* \"#utility.yul\":9671:9749   */\n      tag_96\n      jump\t// in\n    tag_233:\n        /* \"#utility.yul\":9772:9779   */\n      dup1\n        /* \"#utility.yul\":9803:9804   */\n      0x00\n        /* \"#utility.yul\":9788:10220   */\n    tag_234:\n        /* \"#utility.yul\":9813:9819   */\n      dup6\n        /* \"#utility.yul\":9810:9811   */\n      dup2\n        /* \"#utility.yul\":9807:9820   */\n      lt\n        /* \"#utility.yul\":9788:10220   */\n      iszero\n      tag_236\n      jumpi\n        /* \"#utility.yul\":9884:9893   */\n      dup5\n        /* \"#utility.yul\":9878:9882   */\n      dup5\n        /* \"#utility.yul\":9874:9894   */\n      sub\n        /* \"#utility.yul\":9869:9872   */\n      dup10\n        /* \"#utility.yul\":9862:9895   */\n      mstore\n        /* \"#utility.yul\":9935:9941   */\n      dup2\n        /* \"#utility.yul\":9929:9942   */\n      mload\n        /* \"#utility.yul\":9963:10071   */\n      tag_237\n        /* \"#utility.yul\":10066:10070   */\n      dup6\n        /* \"#utility.yul\":10051:10064   */\n      dup3\n        /* \"#utility.yul\":9963:10071   */\n      tag_110\n      jump\t// in\n    tag_237:\n        /* \"#utility.yul\":9955:10071   */\n      swap5\n      pop\n        /* \"#utility.yul\":10094:10176   */\n      tag_238\n        /* \"#utility.yul\":10169:10175   */\n      dup4\n        /* \"#utility.yul\":10094:10176   */\n      tag_111\n      jump\t// in\n    tag_238:\n        /* \"#utility.yul\":10084:10176   */\n      swap3\n      pop\n        /* \"#utility.yul\":10205:10209   */\n      0x20\n        /* \"#utility.yul\":10200:10203   */\n      dup11\n        /* \"#utility.yul\":10196:10210   */\n      add\n        /* \"#utility.yul\":10189:10210   */\n      swap10\n      pop\n        /* \"#utility.yul\":9848:10220   */\n      pop\n        /* \"#utility.yul\":9835:9836   */\n      0x01\n        /* \"#utility.yul\":9832:9833   */\n      dup2\n        /* \"#utility.yul\":9828:9837   */\n      add\n        /* \"#utility.yul\":9823:9837   */\n      swap1\n      pop\n        /* \"#utility.yul\":9788:10220   */\n      jump(tag_234)\n    tag_236:\n        /* \"#utility.yul\":9792:9806   */\n      pop\n        /* \"#utility.yul\":10236:10240   */\n      dup3\n        /* \"#utility.yul\":10229:10240   */\n      swap8\n      pop\n        /* \"#utility.yul\":10256:10259   */\n      dup8\n        /* \"#utility.yul\":10249:10259   */\n      swap6\n      pop\n        /* \"#utility.yul\":9346:10265   */\n      pop\n      pop\n      pop\n      pop\n      pop\n        /* \"#utility.yul\":9178:10265   */\n      swap3\n      swap2\n      pop\n      pop\n      jump\t// out\n        /* \"#utility.yul\":10271:10732   */\n    tag_20:\n        /* \"#utility.yul\":10458:10462   */\n      0x00\n        /* \"#utility.yul\":10496:10498   */\n      0x20\n        /* \"#utility.yul\":10485:10494   */\n      dup3\n        /* \"#utility.yul\":10481:10499   */\n      add\n        /* \"#utility.yul\":10473:10499   */\n      swap1\n      pop\n        /* \"#utility.yul\":10545:10554   */\n      dup2\n        /* \"#utility.yul\":10539:10543   */\n      dup2\n        /* \"#utility.yul\":10535:10555   */\n      sub\n        /* \"#utility.yul\":10531:10532   */\n      0x00\n        /* \"#utility.yul\":10520:10529   */\n      dup4\n        /* \"#utility.yul\":10516:10533   */\n      add\n        /* \"#utility.yul\":10509:10556   */\n      mstore\n        /* \"#utility.yul\":10573:10725   */\n      tag_240\n        /* \"#utility.yul\":10720:10724   */\n      dup2\n        /* \"#utility.yul\":10711:10717   */\n      dup5\n        /* \"#utility.yul\":10573:10725   */\n      tag_112\n      jump\t// in\n    tag_240:\n        /* \"#utility.yul\":10565:10725   */\n      swap1\n      pop\n        /* \"#utility.yul\":10271:10732   */\n      swap3\n      swap2\n      pop\n      pop\n      jump\t// out\n        /* \"#utility.yul\":10738:10907   */\n    tag_113:\n        /* \"#utility.yul\":10822:10833   */\n      0x00\n        /* \"#utility.yul\":10856:10862   */\n      dup3\n        /* \"#utility.yul\":10851:10854   */\n      dup3\n        /* \"#utility.yul\":10844:10863   */\n      mstore\n        /* \"#utility.yul\":10896:10900   */\n      0x20\n        /* \"#utility.yul\":10891:10894   */\n      dup3\n        /* \"#utility.yul\":10887:10901   */\n      add\n        /* \"#utility.yul\":10872:10901   */\n      swap1\n      pop\n        /* \"#utility.yul\":10738:10907   */\n      swap3\n      swap2\n      pop\n      pop\n      jump\t// out\n        /* \"#utility.yul\":10913:11290   */\n    tag_114:\n        /* \"#utility.yul\":11001:11004   */\n      0x00\n        /* \"#utility.yul\":11029:11068   */\n      tag_243\n        /* \"#utility.yul\":11062:11067   */\n      dup3\n        /* \"#utility.yul\":11029:11068   */\n      tag_97\n      jump\t// in\n    tag_243:\n        /* \"#utility.yul\":11084:11155   */\n      tag_244\n        /* \"#utility.yul\":11148:11154   */\n      dup2\n        /* \"#utility.yul\":11143:11146   */\n      dup6\n        /* \"#utility.yul\":11084:11155   */\n      tag_113\n      jump\t// in\n    tag_244:\n        /* \"#utility.yul\":11077:11155   */\n      swap4\n      pop\n        /* \"#utility.yul\":11164:11229   */\n      tag_245\n        /* \"#utility.yul\":11222:11228   */\n      dup2\n        /* \"#utility.yul\":11217:11220   */\n      dup6\n        /* \"#utility.yul\":11210:11214   */\n      0x20\n        /* \"#utility.yul\":11203:11208   */\n      dup7\n        /* \"#utility.yul\":11199:11215   */\n      add\n        /* \"#utility.yul\":11164:11229   */\n      tag_99\n      jump\t// in\n    tag_245:\n        /* \"#utility.yul\":11254:11283   */\n      tag_246\n        /* \"#utility.yul\":11276:11282   */\n      dup2\n        /* \"#utility.yul\":11254:11283   */\n      tag_84\n      jump\t// in\n    tag_246:\n        /* \"#utility.yul\":11249:11252   */\n      dup5\n        /* \"#utility.yul\":11245:11284   */\n      add\n        /* \"#utility.yul\":11238:11284   */\n      swap2\n      pop\n        /* \"#utility.yul\":11005:11290   */\n      pop\n        /* \"#utility.yul\":10913:11290   */\n      swap3\n      swap2\n      pop\n      pop\n      jump\t// out\n        /* \"#utility.yul\":11296:11609   */\n    tag_23:\n        /* \"#utility.yul\":11409:11413   */\n      0x00\n        /* \"#utility.yul\":11447:11449   */\n      0x20\n        /* \"#utility.yul\":11436:11445   */\n      dup3\n        /* \"#utility.yul\":11432:11450   */\n      add\n        /* \"#utility.yul\":11424:11450   */\n      swap1\n      pop\n        /* \"#utility.yul\":11496:11505   */\n      dup2\n        /* \"#utility.yul\":11490:11494   */\n      dup2\n        /* \"#utility.yul\":11486:11506   */\n      sub\n        /* \"#utility.yul\":11482:11483   */\n      0x00\n        /* \"#utility.yul\":11471:11480   */\n      dup4\n        /* \"#utility.yul\":11467:11484   */\n      add\n        /* \"#utility.yul\":11460:11507   */\n      mstore\n        /* \"#utility.yul\":11524:11602   */\n      tag_248\n        /* \"#utility.yul\":11597:11601   */\n      dup2\n        /* \"#utility.yul\":11588:11594   */\n      dup5\n        /* \"#utility.yul\":11524:11602   */\n      tag_114\n      jump\t// in\n    tag_248:\n        /* \"#utility.yul\":11516:11602   */\n      swap1\n      pop\n        /* \"#utility.yul\":11296:11609   */\n      swap3\n      swap2\n      pop\n      pop\n      jump\t// out\n        /* \"#utility.yul\":11615:11705   */\n    tag_115:\n        /* \"#utility.yul\":11649:11656   */\n      0x00\n        /* \"#utility.yul\":11692:11697   */\n      dup2\n        /* \"#utility.yul\":11685:11698   */\n      iszero\n        /* \"#utility.yul\":11678:11699   */\n      iszero\n        /* \"#utility.yul\":11667:11699   */\n      swap1\n      pop\n        /* \"#utility.yul\":11615:11705   */\n      swap2\n      swap1\n      pop\n      jump\t// out\n        /* \"#utility.yul\":11711:11827   */\n    tag_116:\n        /* \"#utility.yul\":11781:11802   */\n      tag_251\n        /* \"#utility.yul\":11796:11801   */\n      dup2\n        /* \"#utility.yul\":11781:11802   */\n      tag_115\n      jump\t// in\n    tag_251:\n        /* \"#utility.yul\":11774:11779   */\n      dup2\n        /* \"#utility.yul\":11771:11803   */\n      eq\n        /* \"#utility.yul\":11761:11821   */\n      tag_252\n      jumpi\n        /* \"#utility.yul\":11817:11818   */\n      0x00\n        /* \"#utility.yul\":11814:11815   */\n      0x00\n        /* \"#utility.yul\":11807:11819   */\n      revert\n        /* \"#utility.yul\":11761:11821   */\n    tag_252:\n        /* \"#utility.yul\":11711:11827   */\n      pop\n      jump\t// out\n        /* \"#utility.yul\":11833:11970   */\n    tag_117:\n        /* \"#utility.yul\":11887:11892   */\n      0x00\n        /* \"#utility.yul\":11918:11924   */\n      dup2\n        /* \"#utility.yul\":11912:11925   */\n      mload\n        /* \"#utility.yul\":11903:11925   */\n      swap1\n      pop\n        /* \"#utility.yul\":11934:11964   */\n      tag_254\n        /* \"#utility.yul\":11958:11963   */\n      dup2\n        /* \"#utility.yul\":11934:11964   */\n      tag_116\n      jump\t// in\n    tag_254:\n        /* \"#utility.yul\":11833:11970   */\n      swap3\n      swap2\n      pop\n      pop\n      jump\t// out\n        /* \"#utility.yul\":11976:12321   */\n    tag_27:\n        /* \"#utility.yul\":12043:12049   */\n      0x00\n        /* \"#utility.yul\":12092:12094   */\n      0x20\n        /* \"#utility.yul\":12080:12089   */\n      dup3\n        /* \"#utility.yul\":12071:12078   */\n      dup5\n        /* \"#utility.yul\":12067:12090   */\n      sub\n        /* \"#utility.yul\":12063:12095   */\n      slt\n        /* \"#utility.yul\":12060:12179   */\n      iszero\n      tag_256\n      jumpi\n        /* \"#utility.yul\":12098:12177   */\n      tag_257\n      tag_80\n      jump\t// in\n    tag_257:\n        /* \"#utility.yul\":12060:12179   */\n    tag_256:\n        /* \"#utility.yul\":12218:12219   */\n      0x00\n        /* \"#utility.yul\":12243:12304   */\n      tag_258\n        /* \"#utility.yul\":12296:12303   */\n      dup5\n        /* \"#utility.yul\":12287:12293   */\n      dup3\n        /* \"#utility.yul\":12276:12285   */\n      dup6\n        /* \"#utility.yul\":12272:12294   */\n      add\n        /* \"#utility.yul\":12243:12304   */\n      tag_117\n      jump\t// in\n    tag_258:\n        /* \"#utility.yul\":12233:12304   */\n      swap2\n      pop\n        /* \"#utility.yul\":12189:12314   */\n      pop\n        /* \"#utility.yul\":11976:12321   */\n      swap3\n      swap2\n      pop\n      pop\n      jump\t// out\n        /* \"#utility.yul\":12327:12498   */\n    tag_118:\n        /* \"#utility.yul\":12467:12490   */\n      0x446576696365206e6f7420726567697374657265640000000000000000000000\n        /* \"#utility.yul\":12463:12464   */\n      0x00\n        /* \"#utility.yul\":12455:12461   */\n      dup3\n        /* \"#utility.yul\":12451:12465   */\n      add\n        /* \"#utility.yul\":12444:12491   */\n      mstore\n        /* \"#utility.yul\":12327:12498   */\n      pop\n      jump\t// out\n        /* \"#utility.yul\":12504:12870   */\n    tag_119:\n        /* \"#utility.yul\":12646:12649   */\n      0x00\n        /* \"#utility.yul\":12667:12734   */\n      tag_261\n        /* \"#utility.yul\":12731:12733   */\n      0x15\n        /* \"#utility.yul\":12726:12729   */\n      dup4\n        /* \"#utility.yul\":12667:12734   */\n      tag_113\n      jump\t// in\n    tag_261:\n        /* \"#utility.yul\":12660:12734   */\n      swap2\n      pop\n        /* \"#utility.yul\":12743:12836   */\n      tag_262\n        /* \"#utility.yul\":12832:12835   */\n      dup3\n        /* \"#utility.yul\":12743:12836   */\n      tag_118\n      jump\t// in\n    tag_262:\n        /* \"#utility.yul\":12861:12863   */\n      0x20\n        /* \"#utility.yul\":12856:12859   */\n      dup3\n        /* \"#utility.yul\":12852:12864   */\n      add\n        /* \"#utility.yul\":12845:12864   */\n      swap1\n      pop\n        /* \"#utility.yul\":12504:12870   */\n      swap2\n      swap1\n      pop\n      jump\t// out\n        /* \"#utility.yul\":12876:13295   */\n    tag_30:\n        /* \"#utility.yul\":13042:13046   */\n      0x00\n        /* \"#utility.yul\":13080:13082   */\n      0x20\n        /* \"#utility.yul\":13069:13078   */\n      dup3\n        /* \"#utility.yul\":13065:13083   */\n      add\n        /* \"#utility.yul\":13057:13083   */\n      swap1\n      pop\n        /* \"#utility.yul\":13129:13138   */\n      dup2\n        /* \"#utility.yul\":13123:13127   */\n      dup2\n        /* \"#utility.yul\":13119:13139   */\n      sub\n        /* \"#utility.yul\":13115:13116   */\n      0x00\n        /* \"#utility.yul\":13104:13113   */\n      dup4\n        /* \"#utility.yul\":13100:13117   */\n      add\n        /* \"#utility.yul\":13093:13140   */\n      mstore\n        /* \"#utility.yul\":13157:13288   */\n      tag_264\n        /* \"#utility.yul\":13283:13287   */\n      dup2\n        /* \"#utility.yul\":13157:13288   */\n      tag_119\n      jump\t// in\n    tag_264:\n        /* \"#utility.yul\":13149:13288   */\n      swap1\n      pop\n        /* \"#utility.yul\":12876:13295   */\n      swap2\n      swap1\n      pop\n      jump\t// out\n        /* \"#utility.yul\":13301:13449   */\n    tag_120:\n        /* \"#utility.yul\":13403:13414   */\n      0x00\n        /* \"#utility.yul\":13440:13443   */\n      dup2\n        /* \"#utility.yul\":13425:13443   */\n      swap1\n      pop\n        /* \"#utility.yul\":13301:13449   */\n      swap3\n      swap2\n      pop\n      pop\n      jump\t// out\n        /* \"#utility.yul\":13455:13845   */\n    tag_121:\n        /* \"#utility.yul\":13561:13564   */\n      0x00\n        /* \"#utility.yul\":13589:13628   */\n      tag_267\n        /* \"#utility.yul\":13622:13627   */\n      dup3\n        /* \"#utility.yul\":13589:13628   */\n      tag_97\n      jump\t// in\n    tag_267:\n        /* \"#utility.yul\":13644:13733   */\n      tag_268\n        /* \"#utility.yul\":13726:13732   */\n      dup2\n        /* \"#utility.yul\":13721:13724   */\n      dup6\n        /* \"#utility.yul\":13644:13733   */\n      tag_120\n      jump\t// in\n    tag_268:\n        /* \"#utility.yul\":13637:13733   */\n      swap4\n      pop\n        /* \"#utility.yul\":13742:13807   */\n      tag_269\n        /* \"#utility.yul\":13800:13806   */\n      dup2\n        /* \"#utility.yul\":13795:13798   */\n      dup6\n        /* \"#utility.yul\":13788:13792   */\n      0x20\n        /* \"#utility.yul\":13781:13786   */\n      dup7\n        /* \"#utility.yul\":13777:13793   */\n      add\n        /* \"#utility.yul\":13742:13807   */\n      tag_99\n      jump\t// in\n    tag_269:\n        /* \"#utility.yul\":13832:13838   */\n      dup1\n        /* \"#utility.yul\":13827:13830   */\n      dup5\n        /* \"#utility.yul\":13823:13839   */\n      add\n        /* \"#utility.yul\":13816:13839   */\n      swap2\n      pop\n        /* \"#utility.yul\":13565:13845   */\n      pop\n        /* \"#utility.yul\":13455:13845   */\n      swap3\n      swap2\n      pop\n      pop\n      jump\t// out\n        /* \"#utility.yul\":13851:14126   */\n    tag_38:\n        /* \"#utility.yul\":13983:13986   */\n      0x00\n        /* \"#utility.yul\":14005:14100   */\n      tag_271\n        /* \"#utility.yul\":14096:14099   */\n      dup3\n        /* \"#utility.yul\":14087:14093   */\n      dup5\n        /* \"#utility.yul\":14005:14100   */\n      tag_121\n      jump\t// in\n    tag_271:\n        /* \"#utility.yul\":13998:14100   */\n      swap2\n      pop\n        /* \"#utility.yul\":14117:14120   */\n      dup2\n        /* \"#utility.yul\":14110:14120   */\n      swap1\n      pop\n        /* \"#utility.yul\":13851:14126   */\n      swap3\n      swap2\n      pop\n      pop\n      jump\t// out\n        /* \"#utility.yul\":14132:14312   */\n    tag_122:\n        /* \"#utility.yul\":14180:14257   */\n      0x4e487b7100000000000000000000000000000000000000000000000000000000\n        /* \"#utility.yul\":14177:14178   */\n      0x00\n        /* \"#utility.yul\":14170:14258   */\n      mstore\n        /* \"#utility.yul\":14277:14281   */\n      0x22\n        /* \"#utility.yul\":14274:14275   */\n      0x04\n        /* \"#utility.yul\":14267:14282   */\n      mstore\n        /* \"#utility.yul\":14301:14305   */\n      0x24\n        /* \"#utility.yul\":14298:14299   */\n      0x00\n        /* \"#utility.yul\":14291:14306   */\n      revert\n        /* \"#utility.yul\":14318:14638   */\n    tag_60:\n        /* \"#utility.yul\":14362:14368   */\n      0x00\n        /* \"#utility.yul\":14399:14400   */\n      0x02\n        /* \"#utility.yul\":14393:14397   */\n      dup3\n        /* \"#utility.yul\":14389:14401   */\n      div\n        /* \"#utility.yul\":14379:14401   */\n      swap1\n      pop\n        /* \"#utility.yul\":14446:14447   */\n      0x01\n        /* \"#utility.yul\":14440:14444   */\n      dup3\n        /* \"#utility.yul\":14436:14448   */\n      and\n        /* \"#utility.yul\":14467:14485   */\n      dup1\n        /* \"#utility.yul\":14457:14538   */\n      tag_274\n      jumpi\n        /* \"#utility.yul\":14523:14527   */\n      0x7f\n        /* \"#utility.yul\":14515:14521   */\n      dup3\n        /* \"#utility.yul\":14511:14528   */\n      and\n        /* \"#utility.yul\":14501:14528   */\n      swap2\n      pop\n        /* \"#utility.yul\":14457:14538   */\n    tag_274:\n        /* \"#utility.yul\":14585:14587   */\n      0x20\n        /* \"#utility.yul\":14577:14583   */\n      dup3\n        /* \"#utility.yul\":14574:14588   */\n      lt\n        /* \"#utility.yul\":14554:14572   */\n      dup2\n        /* \"#utility.yul\":14551:14589   */\n      sub\n        /* \"#utility.yul\":14548:14632   */\n      tag_275\n      jumpi\n        /* \"#utility.yul\":14604:14622   */\n      tag_276\n      tag_122\n      jump\t// in\n    tag_276:\n        /* \"#utility.yul\":14548:14632   */\n    tag_275:\n        /* \"#utility.yul\":14369:14638   */\n      pop\n        /* \"#utility.yul\":14318:14638   */\n      swap2\n      swap1\n      pop\n      jump\t// out\n        /* \"#utility.yul\":14644:14785   */\n    tag_123:\n        /* \"#utility.yul\":14693:14697   */\n      0x00\n        /* \"#utility.yul\":14716:14719   */\n      dup2\n        /* \"#utility.yul\":14708:14719   */\n      swap1\n      pop\n        /* \"#utility.yul\":14739:14742   */\n      dup2\n        /* \"#utility.yul\":14736:14737   */\n      0x00\n        /* \"#utility.yul\":14729:14743   */\n      mstore\n        /* \"#utility.yul\":14773:14777   */\n      0x20\n        /* \"#utility.yul\":14770:14771   */\n      0x00\n        /* \"#utility.yul\":14760:14778   */\n      keccak256\n        /* \"#utility.yul\":14752:14778   */\n      swap1\n      pop\n        /* \"#utility.yul\":14644:14785   */\n      swap2\n      swap1\n      pop\n      jump\t// out\n        /* \"#utility.yul\":14791:14884   */\n    tag_124:\n        /* \"#utility.yul\":14828:14834   */\n      0x00\n        /* \"#utility.yul\":14875:14877   */\n      0x20\n        /* \"#utility.yul\":14870:14872   */\n      0x1f\n        /* \"#utility.yul\":14863:14868   */\n      dup4\n        /* \"#utility.yul\":14859:14873   */\n      add\n        /* \"#utility.yul\":14855:14878   */\n      div\n        /* \"#utility.yul\":14845:14878   */\n      swap1\n      pop\n        /* \"#utility.yul\":14791:14884   */\n      swap2\n      swap1\n      pop\n      jump\t// out\n        /* \"#utility.yul\":14890:14997   */\n    tag_125:\n        /* \"#utility.yul\":14934:14942   */\n      0x00\n        /* \"#utility.yul\":14984:14989   */\n      dup3\n        /* \"#utility.yul\":14978:14982   */\n      dup3\n        /* \"#utility.yul\":14974:14990   */\n      shl\n        /* \"#utility.yul\":14953:14990   */\n      swap1\n      pop\n        /* \"#utility.yul\":14890:14997   */\n      swap3\n      swap2\n      pop\n      pop\n      jump\t// out\n        /* \"#utility.yul\":15003:15396   */\n    tag_126:\n        /* \"#utility.yul\":15072:15078   */\n      0x00\n        /* \"#utility.yul\":15122:15123   */\n      0x08\n        /* \"#utility.yul\":15110:15120   */\n      dup4\n        /* \"#utility.yul\":15106:15124   */\n      mul\n        /* \"#utility.yul\":15145:15242   */\n      tag_281\n        /* \"#utility.yul\":15175:15241   */\n      0xffffffffffffffffffffffffffffffffffffffffffffffffffffffffffffffff\n        /* \"#utility.yul\":15164:15173   */\n      dup3\n        /* \"#utility.yul\":15145:15242   */\n      tag_125\n      jump\t// in\n    tag_281:\n        /* \"#utility.yul\":15263:15302   */\n      tag_282\n        /* \"#utility.yul\":15293:15301   */\n      dup7\n        /* \"#utility.yul\":15282:15291   */\n      dup4\n        /* \"#utility.yul\":15263:15302   */\n      tag_125\n      jump\t// in\n    tag_282:\n        /* \"#utility.yul\":15251:15302   */\n      swap6\n      pop\n        /* \"#utility.yul\":15335:15339   */\n      dup1\n        /* \"#utility.yul\":15331:15340   */\n      not\n        /* \"#utility.yul\":15324:15329   */\n      dup5\n        /* \"#utility.yul\":15320:15341   */\n      and\n        /* \"#utility.yul\":15311:15341   */\n      swap4\n      pop\n        /* \"#utility.yul\":15384:15388   */\n      dup1\n        /* \"#utility.yul\":15374:15382   */\n      dup7\n        /* \"#utility.yul\":15370:15389   */\n      and\n        /* \"#utility.yul\":15363:15368   */\n      dup5\n        /* \"#utility.yul\":15360:15390   */\n      or\n        /* \"#utility.yul\":15350:15390   */\n      swap3\n      pop\n        /* \"#utility.yul\":15079:15396   */\n      pop\n      pop\n        /* \"#utility.yul\":15003:15396   */\n      swap4\n      swap3\n      pop\n      pop\n      pop\n      jump\t// out\n        /* \"#utility.yul\":15402:15462   */\n    tag_127:\n        /* \"#utility.yul\":15430:15433   */\n      0x00\n        /* \"#utility.yul\":15451:15456   */\n      dup2\n        /* \"#utility.yul\":15444:15456   */\n      swap1\n      pop\n        /* \"#utility.yul\":15402:15462   */\n      swap2\n      swap1\n      pop\n      jump\t// out\n        /* \"#utility.yul\":15468:15610   */\n    tag_128:\n        /* \"#utility.yul\":15518:15527   */\n      0x00\n        /* \"#utility.yul\":15551:15604   */\n      tag_285\n        /* \"#utility.yul\":15569:15603   */\n      tag_286\n        /* \"#utility.yul\":15578:15602   */\n      tag_287\n        /* \"#utility.yul\":15596:15601   */\n      dup5\n        /* \"#utility.yul\":15578:15602   */\n      tag_92\n      jump\t// in\n    tag_287:\n        /* \"#utility.yul\":15569:15603   */\n      tag_127\n      jump\t// in\n    tag_286:\n        /* \"#utility.yul\":15551:15604   */\n      tag_92\n      jump\t// in\n    tag_285:\n        /* \"#utility.yul\":15538:15604   */\n      swap1\n      pop\n        /* \"#utility.yul\":15468:15610   */\n      swap2\n      swap1\n      pop\n      jump\t// out\n        /* \"#utility.yul\":15616:15691   */\n    tag_129:\n        /* \"#utility.yul\":15659:15662   */\n      0x00\n        /* \"#utility.yul\":15680:15685   */\n      dup2\n        /* \"#utility.yul\":15673:15685   */\n      swap1\n      pop\n        /* \"#utility.yul\":15616:15691   */\n      swap2\n      swap1\n      pop\n      jump\t// out\n        /* \"#utility.yul\":15697:15966   */\n    tag_130:\n        /* \"#utility.yul\":15807:15846   */\n      tag_290\n        /* \"#utility.yul\":15838:15845   */\n      dup4\n        /* \"#utility.yul\":15807:15846   */\n      tag_128\n      jump\t// in\n    tag_290:\n        /* \"#utility.yul\":15868:15959   */\n      tag_291\n        /* \"#utility.yul\":15917:15958   */\n      tag_292\n        /* \"#utility.yul\":15941:15957   */\n      dup3\n        /* \"#utility.yul\":15917:15958   */\n      tag_129\n      jump\t// in\n    tag_292:\n        /* \"#utility.yul\":15909:15915   */\n      dup5\n        /* \"#utility.yul\":15902:15906   */\n      dup5\n        /* \"#utility.yul\":15896:15907   */\n      sload\n        /* \"#utility.yul\":15868:15959   */\n      tag_126\n      jump\t// in\n    tag_291:\n        /* \"#utility.yul\":15862:15866   */\n      dup3\n        /* \"#utility.yul\":15855:15960   */\n      sstore\n        /* \"#utility.yul\":15773:15966   */\n      pop\n        /* \"#utility.yul\":15697:15966   */\n      pop\n      pop\n      pop\n      jump\t// out\n        /* \"#utility.yul\":15972:16045   */\n    tag_131:\n        /* \"#utility.yul\":16017:16020   */\n      0x00\n        /* \"#utility.yul\":16038:16039   */\n      0x00\n        /* \"#utility.yul\":16031:16039   */\n      swap1\n      pop\n        /* \"#utility.yul\":15972:16045   */\n      swap1\n      jump\t// out\n        /* \"#utility.yul\":16051:16240   */\n    tag_132:\n        /* \"#utility.yul\":16128:16160   */\n      tag_295\n      tag_131\n      jump\t// in\n    tag_295:\n        /* \"#utility.yul\":16169:16234   */\n      tag_296\n        /* \"#utility.yul\":16227:16233   */\n      dup2\n        /* \"#utility.yul\":16219:16225   */\n      dup5\n        /* \"#utility.yul\":16213:16217   */\n      dup5\n        /* \"#utility.yul\":16169:16234   */\n      tag_130\n      jump\t// in\n    tag_296:\n        /* \"#utility.yul\":16104:16240   */\n      pop\n        /* \"#utility.yul\":16051:16240   */\n      pop\n      pop\n      jump\t// out\n        /* \"#utility.yul\":16246:16432   */\n    tag_133:\n        /* \"#utility.yul\":16306:16426   */\n    tag_298:\n        /* \"#utility.yul\":16323:16326   */\n      dup2\n        /* \"#utility.yul\":16316:16321   */\n      dup2\n        /* \"#utility.yul\":16313:16327   */\n      lt\n        /* \"#utility.yul\":16306:16426   */\n      iszero\n      tag_300\n      jumpi\n        /* \"#utility.yul\":16377:16416   */\n      tag_301\n        /* \"#utility.yul\":16414:16415   */\n      0x00\n        /* \"#utility.yul\":16407:16412   */\n      dup3\n        /* \"#utility.yul\":16377:16416   */\n      tag_132\n      jump\t// in\n    tag_301:\n        /* \"#utility.yul\":16350:16351   */\n      0x01\n        /* \"#utility.yul\":16343:16348   */\n      dup2\n        /* \"#utility.yul\":16339:16352   */\n      add\n        /* \"#utility.yul\":16330:16352   */\n      swap1\n      pop\n        /* \"#utility.yul\":16306:16426   */\n      jump(tag_298)\n    tag_300:\n        /* \"#utility.yul\":16246:16432   */\n      pop\n      pop\n      jump\t// out\n        /* \"#utility.yul\":16438:16981   */\n    tag_134:\n        /* \"#utility.yul\":16539:16541   */\n      0x1f\n        /* \"#utility.yul\":16534:16537   */\n      dup3\n        /* \"#utility.yul\":16531:16542   */\n      gt\n        /* \"#utility.yul\":16528:16974   */\n      iszero\n      tag_303\n      jumpi\n        /* \"#utility.yul\":16573:16611   */\n      tag_304\n        /* \"#utility.yul\":16605:16610   */\n      dup2\n        /* \"#utility.yul\":16573:16611   */\n      tag_123\n      jump\t// in\n    tag_304:\n        /* \"#utility.yul\":16657:16686   */\n      tag_305\n        /* \"#utility.yul\":16675:16685   */\n      dup5\n        /* \"#utility.yul\":16657:16686   */\n      tag_124\n      jump\t// in\n    tag_305:\n        /* \"#utility.yul\":16647:16655   */\n      dup2\n        /* \"#utility.yul\":16643:16687   */\n      add\n        /* \"#utility.yul\":16840:16842   */\n      0x20\n        /* \"#utility.yul\":16828:16838   */\n      dup6\n        /* \"#utility.yul\":16825:16843   */\n      lt\n        /* \"#utility.yul\":16822:16871   */\n      iszero\n      tag_306\n      jumpi\n        /* \"#utility.yul\":16861:16869   */\n      dup2\n        /* \"#utility.yul\":16846:16869   */\n      swap1\n      pop\n        /* \"#utility.yul\":16822:16871   */\n    tag_306:\n        /* \"#utility.yul\":16884:16964   */\n      tag_307\n        /* \"#utility.yul\":16940:16962   */\n      tag_308\n        /* \"#utility.yul\":16958:16961   */\n      dup6\n        /* \"#utility.yul\":16940:16962   */\n      tag_124\n      jump\t// in\n    tag_308:\n        /* \"#utility.yul\":16930:16938   */\n      dup4\n        /* \"#utility.yul\":16926:16963   */\n      add\n        /* \"#utility.yul\":16913:16924   */\n      dup3\n        /* \"#utility.yul\":16884:16964   */\n      tag_133\n      jump\t// in\n    tag_307:\n        /* \"#utility.yul\":16543:16974   */\n      pop\n      pop\n        /* \"#utility.yul\":16528:16974   */\n    tag_303:\n        /* \"#utility.yul\":16438:16981   */\n      pop\n      pop\n      pop\n      jump\t// out\n        /* \"#utility.yul\":16987:17104   */\n    tag_135:\n        /* \"#utility.yul\":17041:17049   */\n      0x00\n        /* \"#utility.yul\":17091:17096   */\n      dup3\n        /* \"#utility.yul\":17085:17089   */\n      dup3\n        /* \"#utility.yul\":17081:17097   */\n      shr\n        /* \"#utility.yul\":17060:17097   */\n      swap1\n      pop\n        /* \"#utility.yul\":16987:17104   */\n      swap3\n      swap2\n      pop\n      pop\n      jump\t// out\n        /* \"#utility.yul\":17110:17279   */\n    tag_136:\n        /* \"#utility.yul\":17154:17160   */\n      0x00\n        /* \"#utility.yul\":17187:17238   */\n      tag_311\n        /* \"#utility.yul\":17235:17236   */\n      0x00\n        /* \"#utility.yul\":17231:17237   */\n      not\n        /* \"#utility.yul\":17223:17228   */\n      dup5\n        /* \"#utility.yul\":17220:17221   */\n      0x08\n        /* \"#utility.yul\":17216:17229   */\n      mul\n        /* \"#utility.yul\":17187:17238   */\n      tag_135\n      jump\t// in\n    tag_311:\n        /* \"#utility.yul\":17183:17239   */\n      not\n        /* \"#utility.yul\":17268:17272   */\n      dup1\n        /* \"#utility.yul\":17262:17266   */\n      dup4\n        /* \"#utility.yul\":17258:17273   */\n      and\n        /* \"#utility.yul\":17248:17273   */\n      swap2\n      pop\n        /* \"#utility.yul\":17161:17279   */\n      pop\n        /* \"#utility.yul\":17110:17279   */\n      swap3\n      swap2\n      pop\n      pop\n      jump\t// out\n        /* \"#utility.yul\":17284:17579   */\n    tag_137:\n        /* \"#utility.yul\":17360:17364   */\n      0x00\n        /* \"#utility.yul\":17506:17535   */\n      tag_313\n        /* \"#utility.yul\":17531:17534   */\n      dup4\n        /* \"#utility.yul\":17525:17529   */\n      dup4\n        /* \"#utility.yul\":17506:17535   */\n      tag_136\n      jump\t// in\n    tag_313:\n        /* \"#utility.yul\":17498:17535   */\n      swap2\n      pop\n        /* \"#utility.yul\":17568:17571   */\n      dup3\n        /* \"#utility.yul\":17565:17566   */\n      0x02\n        /* \"#utility.yul\":17561:17572   */\n      mul\n        /* \"#utility.yul\":17555:17559   */\n      dup3\n        /* \"#utility.yul\":17552:17573   */\n      or\n        /* \"#utility.yul\":17544:17573   */\n      swap1\n      pop\n        /* \"#utility.yul\":17284:17579   */\n      swap3\n      swap2\n      pop\n      pop\n      jump\t// out\n        /* \"#utility.yul\":17584:18979   */\n    tag_44:\n        /* \"#utility.yul\":17701:17738   */\n      tag_315\n        /* \"#utility.yul\":17734:17737   */\n      dup3\n        /* \"#utility.yul\":17701:17738   */\n      tag_97\n      jump\t// in\n    tag_315:\n        /* \"#utility.yul\":17803:17821   */\n      0xffffffffffffffff\n        /* \"#utility.yul\":17795:17801   */\n      dup2\n        /* \"#utility.yul\":17792:17822   */\n      gt\n        /* \"#utility.yul\":17789:17845   */\n      iszero\n      tag_316\n      jumpi\n        /* \"#utility.yul\":17825:17843   */\n      tag_317\n      tag_85\n      jump\t// in\n    tag_317:\n        /* \"#utility.yul\":17789:17845   */\n    tag_316:\n        /* \"#utility.yul\":17869:17907   */\n      tag_318\n        /* \"#utility.yul\":17901:17905   */\n      dup3\n        /* \"#utility.yul\":17895:17906   */\n      sload\n        /* \"#utility.yul\":17869:17907   */\n      tag_60\n      jump\t// in\n    tag_318:\n        /* \"#utility.yul\":17954:18021   */\n      tag_319\n        /* \"#utility.yul\":18014:18020   */\n      dup3\n        /* \"#utility.yul\":18006:18012   */\n      dup3\n        /* \"#utility.yul\":18000:18004   */\n      dup6\n        /* \"#utility.yul\":17954:18021   */\n      tag_134\n      jump\t// in\n    tag_319:\n        /* \"#utility.yul\":18048:18049   */\n      0x00\n        /* \"#utility.yul\":18072:18076   */\n      0x20\n        /* \"#utility.yul\":18059:18076   */\n      swap1\n      pop\n        /* \"#utility.yul\":18104:18106   */\n      0x1f\n        /* \"#utility.yul\":18096:18102   */\n      dup4\n        /* \"#utility.yul\":18093:18107   */\n      gt\n        /* \"#utility.yul\":18121:18122   */\n      0x01\n        /* \"#utility.yul\":18116:18734   */\n      dup2\n      eq\n      tag_321\n      jumpi\n        /* \"#utility.yul\":18778:18779   */\n      0x00\n        /* \"#utility.yul\":18795:18801   */\n      dup5\n        /* \"#utility.yul\":18792:18869   */\n      iszero\n      tag_322\n      jumpi\n        /* \"#utility.yul\":18844:18853   */\n      dup3\n        /* \"#utility.yul\":18839:18842   */\n      dup8\n        /* \"#utility.yul\":18835:18854   */\n      add\n        /* \"#utility.yul\":18829:18855   */\n      mload\n        /* \"#utility.yul\":18820:18855   */\n      swap1\n      pop\n        /* \"#utility.yul\":18792:18869   */\n    tag_322:\n        /* \"#utility.yul\":18895:18962   */\n      tag_323\n        /* \"#utility.yul\":18955:18961   */\n      dup6\n        /* \"#utility.yul\":18948:18953   */\n      dup3\n        /* \"#utility.yul\":18895:18962   */\n      tag_137\n      jump\t// in\n    tag_323:\n        /* \"#utility.yul\":18889:18893   */\n      dup7\n        /* \"#utility.yul\":18882:18963   */\n      sstore\n        /* \"#utility.yul\":18751:18973   */\n      pop\n        /* \"#utility.yul\":18086:18973   */\n      jump(tag_320)\n        /* \"#utility.yul\":18116:18734   */\n    tag_321:\n        /* \"#utility.yul\":18168:18172   */\n      0x1f\n        /* \"#utility.yul\":18164:18173   */\n      not\n        /* \"#utility.yul\":18156:18162   */\n      dup5\n        /* \"#utility.yul\":18152:18174   */\n      and\n        /* \"#utility.yul\":18202:18239   */\n      tag_324\n        /* \"#utility.yul\":18234:18238   */\n      dup7\n        /* \"#utility.yul\":18202:18239   */\n      tag_123\n      jump\t// in\n    tag_324:\n        /* \"#utility.yul\":18261:18262   */\n      0x00\n        /* \"#utility.yul\":18275:18483   */\n    tag_325:\n        /* \"#utility.yul\":18289:18296   */\n      dup3\n        /* \"#utility.yul\":18286:18287   */\n      dup2\n        /* \"#utility.yul\":18283:18297   */\n      lt\n        /* \"#utility.yul\":18275:18483   */\n      iszero\n      tag_327\n      jumpi\n        /* \"#utility.yul\":18368:18377   */\n      dup5\n        /* \"#utility.yul\":18363:18366   */\n      dup10\n        /* \"#utility.yul\":18359:18378   */\n      add\n        /* \"#utility.yul\":18353:18379   */\n      mload\n        /* \"#utility.yul\":18345:18351   */\n      dup3\n        /* \"#utility.yul\":18338:18380   */\n      sstore\n        /* \"#utility.yul\":18419:18420   */\n      0x01\n        /* \"#utility.yul\":18411:18417   */\n      dup3\n        /* \"#utility.yul\":18407:18421   */\n      add\n        /* \"#utility.yul\":18397:18421   */\n      swap2\n      pop\n        /* \"#utility.yul\":18466:18468   */\n      0x20\n        /* \"#utility.yul\":18455:18464   */\n      dup6\n        /* \"#utility.yul\":18451:18469   */\n      add\n        /* \"#utility.yul\":18438:18469   */\n      swap5\n      pop\n        /* \"#utility.yul\":18312:18316   */\n      0x20\n        /* \"#utility.yul\":18309:18310   */\n      dup2\n        /* \"#utility.yul\":18305:18317   */\n      add\n        /* \"#utility.yul\":18300:18317   */\n      swap1\n      pop\n        /* \"#utility.yul\":18275:18483   */\n      jump(tag_325)\n    tag_327:\n        /* \"#utility.yul\":18511:18517   */\n      dup7\n        /* \"#utility.yul\":18502:18509   */\n      dup4\n        /* \"#utility.yul\":18499:18518   */\n      lt\n        /* \"#utility.yul\":18496:18675   */\n      iszero\n      tag_328\n      jumpi\n        /* \"#utility.yul\":18569:18578   */\n      dup5\n        /* \"#utility.yul\":18564:18567   */\n      dup10\n        /* \"#utility.yul\":18560:18579   */\n      add\n        /* \"#utility.yul\":18554:18580   */\n      mload\n        /* \"#utility.yul\":18612:18660   */\n      tag_329\n        /* \"#utility.yul\":18654:18658   */\n      0x1f\n        /* \"#utility.yul\":18646:18652   */\n      dup10\n        /* \"#utility.yul\":18642:18659   */\n      and\n        /* \"#utility.yul\":18631:18640   */\n      dup3\n        /* \"#utility.yul\":18612:18660   */\n      tag_136\n      jump\t// in\n    tag_329:\n        /* \"#utility.yul\":18604:18610   */\n      dup4\n        /* \"#utility.yul\":18597:18661   */\n      sstore\n        /* \"#utility.yul\":18519:18675   */\n      pop\n        /* \"#utility.yul\":18496:18675   */\n    tag_328:\n        /* \"#utility.yul\":18721:18722   */\n      0x01\n        /* \"#utility.yul\":18717:18718   */\n      0x02\n        /* \"#utility.yul\":18709:18715   */\n      dup9\n        /* \"#utility.yul\":18705:18719   */\n      mul\n        /* \"#utility.yul\":18701:18723   */\n      add\n        /* \"#utility.yul\":18695:18699   */\n      dup9\n        /* \"#utility.yul\":18688:18724   */\n      sstore\n        /* \"#utility.yul\":18123:18734   */\n      pop\n      pop\n      pop\n        /* \"#utility.yul\":18086:18973   */\n    tag_320:\n      pop\n        /* \"#utility.yul\":17676:18979   */\n      pop\n      pop\n      pop\n        /* \"#utility.yul\":17584:18979   */\n      pop\n      pop\n      jump\t// out\n        /* \"#utility.yul\":18985:19142   */\n    tag_138:\n        /* \"#utility.yul\":19085:19135   */\n      tag_331\n        /* \"#utility.yul\":19129:19134   */\n      dup2\n        /* \"#utility.yul\":19085:19135   */\n      tag_107\n      jump\t// in\n    tag_331:\n        /* \"#utility.yul\":19080:19083   */\n      dup3\n        /* \"#utility.yul\":19073:19136   */\n      mstore\n        /* \"#utility.yul\":18985:19142   */\n      pop\n      pop\n      jump\t// out\n        /* \"#utility.yul\":19148:19707   */\n    tag_51:\n        /* \"#utility.yul\":19330:19334   */\n      0x00\n        /* \"#utility.yul\":19368:19370   */\n      0x60\n        /* \"#utility.yul\":19357:19366   */\n      dup3\n        /* \"#utility.yul\":19353:19371   */\n      add\n        /* \"#utility.yul\":19345:19371   */\n      swap1\n      pop\n        /* \"#utility.yul\":19417:19426   */\n      dup2\n        /* \"#utility.yul\":19411:19415   */\n      dup2\n        /* \"#utility.yul\":19407:19427   */\n      sub\n        /* \"#utility.yul\":19403:19404   */\n      0x00\n        /* \"#utility.yul\":19392:19401   */\n      dup4\n        /* \"#utility.yul\":19388:19405   */\n      add\n        /* \"#utility.yul\":19381:19428   */\n      mstore\n        /* \"#utility.yul\":19445:19523   */\n      tag_333\n        /* \"#utility.yul\":19518:19522   */\n      dup2\n        /* \"#utility.yul\":19509:19515   */\n      dup7\n        /* \"#utility.yul\":19445:19523   */\n      tag_114\n      jump\t// in\n    tag_333:\n        /* \"#utility.yul\":19437:19523   */\n      swap1\n      pop\n        /* \"#utility.yul\":19533:19618   */\n      tag_334\n        /* \"#utility.yul\":19614:19616   */\n      0x20\n        /* \"#utility.yul\":19603:19612   */\n      dup4\n        /* \"#utility.yul\":19599:19617   */\n      add\n        /* \"#utility.yul\":19590:19596   */\n      dup6\n        /* \"#utility.yul\":19533:19618   */\n      tag_138\n      jump\t// in\n    tag_334:\n        /* \"#utility.yul\":19628:19700   */\n      tag_335\n        /* \"#utility.yul\":19696:19698   */\n      0x40\n        /* \"#utility.yul\":19685:19694   */\n      dup4\n        /* \"#utility.yul\":19681:19699   */\n      add\n        /* \"#utility.yul\":19672:19678   */\n      dup5\n        /* \"#utility.yul\":19628:19700   */\n      tag_93\n      jump\t// in\n    tag_335:\n        /* \"#utility.yul\":19148:19707   */\n      swap5\n      swap4\n      pop\n      pop\n      pop\n      pop\n      jump\t// out\n\n    auxdata: 0xa264697066735822122047a2ffddefcfeea0087979df8f863fd3b23e5758fa2348a8491aa9481c0a4f8164736f6c634300081e0033\n}\n",
				"bytecode": {
					"linkReferences": {},
					"object": "608060405234801561000f575f5ffd5b5060405161130738038061130783398181016040528101906100319190610142565b5f73ffffffffffffffffffffffffffffffffffffffff168173ffffffffffffffffffffffffffffffffffffffff160361009f576040517f08c379a0000000000000000000000000000000000000000000000000000000008152600401610096906101c7565b60405180910390fd5b805f5f6101000a81548173ffffffffffffffffffffffffffffffffffffffff021916908373ffffffffffffffffffffffffffffffffffffffff160217905550506101e5565b5f5ffd5b5f73ffffffffffffffffffffffffffffffffffffffff82169050919050565b5f610111826100e8565b9050919050565b61012181610107565b811461012b575f5ffd5b50565b5f8151905061013c81610118565b92915050565b5f60208284031215610157576101566100e4565b5b5f6101648482850161012e565b91505092915050565b5f82825260208201905092915050565b7f496e76616c6964207265676973747279206164647265737300000000000000005f82015250565b5f6101b160188361016d565b91506101bc8261017d565b602082019050919050565b5f6020820190508181035f8301526101de816101a5565b9050919050565b611115806101f25f395ff3fe608060405234801561000f575f5ffd5b506004361061003f575f3560e01c80631c789aa914610043578063727b703f1461005f578063bd6c1c851461008f575b5f5ffd5b61005d6004803603810190610058919061089c565b6100bf565b005b61007960048036038101906100749190610940565b610427565b604051610086919061099f565b60405180910390f35b6100a960048036038101906100a49190610940565b61046f565b6040516100b69190610c28565b60405180910390f35b5f5f9054906101000a900473ffffffffffffffffffffffffffffffffffffffff1673ffffffffffffffffffffffffffffffffffffffff1663aaed589d846040518263ffffffff1660e01b81526004016101189190610c90565b602060405180830381865afa158015610133573d5f5f3e3d5ffd5b505050506040513d601f19601f820116820180604052508101906101579190610ce5565b610196576040517f08c379a000000000000000000000000000000000000000000000000000000000815260040161018d90610d5a565b60405180910390fd5b5f5f5f9054906101000a900473ffffffffffffffffffffffffffffffffffffffff1673ffffffffffffffffffffffffffffffffffffffff1663ea460cb6836040518263ffffffff1660e01b81526004016101f09190610c90565b602060405180830381865afa15801561020b573d5f5f3e3d5ffd5b505050506040513d601f19601f8201168201806040525081019061022f9190610ce5565b1561023c575f9050610241565b600190505b5f846040516020016102539190610db2565b60405160208183030381529060405280519060200120905060015f8281526020019081526020015f206040518060c001604052808781526020018681526020018581526020013373ffffffffffffffffffffffffffffffffffffffff1681526020014281526020018460018111156102ce576102cd610a8f565b5b815250908060018154018082558091505060019003905f5260205f2090600602015f909190919091505f820151815f01908161030a9190610fc5565b5060208201518160010190816103209190610fc5565b5060408201518160020190816103369190610fc5565b506060820151816003015f6101000a81548173ffffffffffffffffffffffffffffffffffffffff021916908373ffffffffffffffffffffffffffffffffffffffff1602179055506080820151816004015560a0820151816005015f6101000a81548160ff021916908360018111156103b1576103b0610a8f565b5b021790555050503373ffffffffffffffffffffffffffffffffffffffff16856040516103dd9190610db2565b60405180910390207fd6b746fd971fc540c1d652542bd3efac69f898d225db1f55b53321d58c36dcb4858542604051610418939291906110a3565b60405180910390a35050505050565b5f5f8260405160200161043a9190610db2565b60405160208183030381529060405280519060200120905060015f8281526020019081526020015f2080549050915050919050565b60605f826040516020016104839190610db2565b60405160208183030381529060405280519060200120905060015f8281526020019081526020015f20805480602002602001604051908101604052809291908181526020015f905b82821015610743578382905f5260205f2090600602016040518060c00160405290815f820180546104fb90610df5565b80601f016020809104026020016040519081016040528092919081815260200182805461052790610df5565b80156105725780601f1061054957610100808354040283529160200191610572565b820191905f5260205f20905b81548152906001019060200180831161055557829003601f168201915b5050505050815260200160018201805461058b90610df5565b80601f01602080910402602001604051908101604052809291908181526020018280546105b790610df5565b80156106025780601f106105d957610100808354040283529160200191610602565b820191905f5260205f20905b8154815290600101906020018083116105e557829003601f168201915b5050505050815260200160028201805461061b90610df5565b80601f016020809104026020016040519081016040528092919081815260200182805461064790610df5565b80156106925780601f1061066957610100808354040283529160200191610692565b820191905f5260205f20905b81548152906001019060200180831161067557829003601f168201915b50505050508152602001600382015f9054906101000a900473ffffffffffffffffffffffffffffffffffffffff1673ffffffffffffffffffffffffffffffffffffffff1673ffffffffffffffffffffffffffffffffffffffff16815260200160048201548152602001600582015f9054906101000a900460ff16600181111561071e5761071d610a8f565b5b60018111156107305761072f610a8f565b5b81525050815260200190600101906104cb565b50505050915050919050565b5f604051905090565b5f5ffd5b5f5ffd5b5f5ffd5b5f5ffd5b5f601f19601f8301169050919050565b7f4e487b71000000000000000000000000000000000000000000000000000000005f52604160045260245ffd5b6107ae82610768565b810181811067ffffffffffffffff821117156107cd576107cc610778565b5b80604052505050565b5f6107df61074f565b90506107eb82826107a5565b919050565b5f67ffffffffffffffff82111561080a57610809610778565b5b61081382610768565b9050602081019050919050565b828183375f83830152505050565b5f61084061083b846107f0565b6107d6565b90508281526020810184848401111561085c5761085b610764565b5b610867848285610820565b509392505050565b5f82601f83011261088357610882610760565b5b813561089384826020860161082e565b91505092915050565b5f5f5f606084860312156108b3576108b2610758565b5b5f84013567ffffffffffffffff8111156108d0576108cf61075c565b5b6108dc8682870161086f565b935050602084013567ffffffffffffffff8111156108fd576108fc61075c565b5b6109098682870161086f565b925050604084013567ffffffffffffffff81111561092a5761092961075c565b5b6109368682870161086f565b9150509250925092565b5f6020828403121561095557610954610758565b5b5f82013567ffffffffffffffff8111156109725761097161075c565b5b61097e8482850161086f565b91505092915050565b5f819050919050565b61099981610987565b82525050565b5f6020820190506109b25f830184610990565b92915050565b5f81519050919050565b5f82825260208201905092915050565b5f819050602082019050919050565b5f81519050919050565b5f82825260208201905092915050565b8281835e5f83830152505050565b5f610a13826109e1565b610a1d81856109eb565b9350610a2d8185602086016109fb565b610a3681610768565b840191505092915050565b5f73ffffffffffffffffffffffffffffffffffffffff82169050919050565b5f610a6a82610a41565b9050919050565b610a7a81610a60565b82525050565b610a8981610987565b82525050565b7f4e487b71000000000000000000000000000000000000000000000000000000005f52602160045260245ffd5b60028110610acd57610acc610a8f565b5b50565b5f819050610add82610abc565b919050565b5f610aec82610ad0565b9050919050565b610afc81610ae2565b82525050565b5f60c083015f8301518482035f860152610b1c8282610a09565b91505060208301518482036020860152610b368282610a09565b91505060408301518482036040860152610b508282610a09565b9150506060830151610b656060860182610a71565b506080830151610b786080860182610a80565b5060a0830151610b8b60a0860182610af3565b508091505092915050565b5f610ba18383610b02565b905092915050565b5f602082019050919050565b5f610bbf826109b8565b610bc981856109c2565b935083602082028501610bdb856109d2565b805f5b85811015610c165784840389528151610bf78582610b96565b9450610c0283610ba9565b925060208a01995050600181019050610bde565b50829750879550505050505092915050565b5f6020820190508181035f830152610c408184610bb5565b905092915050565b5f82825260208201905092915050565b5f610c62826109e1565b610c6c8185610c48565b9350610c7c8185602086016109fb565b610c8581610768565b840191505092915050565b5f6020820190508181035f830152610ca88184610c58565b905092915050565b5f8115159050919050565b610cc481610cb0565b8114610cce575f5ffd5b50565b5f81519050610cdf81610cbb565b92915050565b5f60208284031215610cfa57610cf9610758565b5b5f610d0784828501610cd1565b91505092915050565b7f446576696365206e6f74207265676973746572656400000000000000000000005f82015250565b5f610d44601583610c48565b9150610d4f82610d10565b602082019050919050565b5f6020820190508181035f830152610d7181610d38565b9050919050565b5f81905092915050565b5f610d8c826109e1565b610d968185610d78565b9350610da68185602086016109fb565b80840191505092915050565b5f610dbd8284610d82565b915081905092915050565b7f4e487b71000000000000000000000000000000000000000000000000000000005f52602260045260245ffd5b5f6002820490506001821680610e0c57607f821691505b602082108103610e1f57610e1e610dc8565b5b50919050565b5f819050815f5260205f209050919050565b5f6020601f8301049050919050565b5f82821b905092915050565b5f60088302610e817fffffffffffffffffffffffffffffffffffffffffffffffffffffffffffffffff82610e46565b610e8b8683610e46565b95508019841693508086168417925050509392505050565b5f819050919050565b5f610ec6610ec1610ebc84610987565b610ea3565b610987565b9050919050565b5f819050919050565b610edf83610eac565b610ef3610eeb82610ecd565b848454610e52565b825550505050565b5f5f905090565b610f0a610efb565b610f15818484610ed6565b505050565b5b81811015610f3857610f2d5f82610f02565b600181019050610f1b565b5050565b601f821115610f7d57610f4e81610e25565b610f5784610e37565b81016020851015610f66578190505b610f7a610f7285610e37565b830182610f1a565b50505b505050565b5f82821c905092915050565b5f610f9d5f1984600802610f82565b1980831691505092915050565b5f610fb58383610f8e565b9150826002028217905092915050565b610fce826109e1565b67ffffffffffffffff811115610fe757610fe6610778565b5b610ff18254610df5565b610ffc828285610f3c565b5f60209050601f83116001811461102d575f841561101b578287015190505b6110258582610faa565b86555061108c565b601f19841661103b86610e25565b5f5b828110156110625784890151825560018201915060208501945060208101905061103d565b8683101561107f578489015161107b601f891682610f8e565b8355505b6001600288020188555050505b505050505050565b61109d81610ae2565b82525050565b5f6060820190508181035f8301526110bb8186610c58565b90506110ca6020830185611094565b6110d76040830184610990565b94935050505056fea264697066735822122047a2ffddefcfeea0087979df8f863fd3b23e5758fa2348a8491aa9481c0a4f8164736f6c634300081e0033",
					"opcodes": "PUSH1 0x80 PUSH1 0x40 MSTORE CALLVALUE DUP1 ISZERO PUSH2 0xF JUMPI PUSH0 PUSH0 REVERT JUMPDEST POP PUSH1 0x40 MLOAD PUSH2 0x1307 CODESIZE SUB DUP1 PUSH2 0x1307 DUP4 CODECOPY DUP2 DUP2 ADD PUSH1 0x40 MSTORE DUP2 ADD SWAP1 PUSH2 0x31 SWAP2 SWAP1 PUSH2 0x142 JUMP JUMPDEST PUSH0 PUSH20 0xFFFFFFFFFFFFFFFFFFFFFFFFFFFFFFFFFFFFFFFF AND DUP2 PUSH20 0xFFFFFFFFFFFFFFFFFFFFFFFFFFFFFFFFFFFFFFFF AND SUB PUSH2 0x9F JUMPI PUSH1 0x40 MLOAD PUSH32 0x8C379A000000000000000000000000000000000000000000000000000000000 DUP2 MSTORE PUSH1 0x4 ADD PUSH2 0x96 SWAP1 PUSH2 0x1C7 JUMP JUMPDEST PUSH1 0x40 MLOAD DUP1 SWAP2 SUB SWAP1 REVERT JUMPDEST DUP1 PUSH0 PUSH0 PUSH2 0x100 EXP DUP2 SLOAD DUP2 PUSH20 0xFFFFFFFFFFFFFFFFFFFFFFFFFFFFFFFFFFFFFFFF MUL NOT AND SWAP1 DUP4 PUSH20 0xFFFFFFFFFFFFFFFFFFFFFFFFFFFFFFFFFFFFFFFF AND MUL OR SWAP1 SSTORE POP POP PUSH2 0x1E5 JUMP JUMPDEST PUSH0 PUSH0 REVERT JUMPDEST PUSH0 PUSH20 0xFFFFFFFFFFFFFFFFFFFFFFFFFFFFFFFFFFFFFFFF DUP3 AND SWAP1 POP SWAP2 SWAP1 POP JUMP JUMPDEST PUSH0 PUSH2 0x111 DUP3 PUSH2 0xE8 JUMP JUMPDEST SWAP1 POP SWAP2 SWAP1 POP JUMP JUMPDEST PUSH2 0x121 DUP2 PUSH2 0x107 JUMP JUMPDEST DUP2 EQ PUSH2 0x12B JUMPI PUSH0 PUSH0 REVERT JUMPDEST POP JUMP JUMPDEST PUSH0 DUP2 MLOAD SWAP1 POP PUSH2 0x13C DUP2 PUSH2 0x118 JUMP JUMPDEST SWAP3 SWAP2 POP POP JUMP JUMPDEST PUSH0 PUSH1 0x20 DUP3 DUP5 SUB SLT ISZERO PUSH2 0x157 JUMPI PUSH2 0x156 PUSH2 0xE4 JUMP JUMPDEST JUMPDEST PUSH0 PUSH2 0x164 DUP5 DUP3 DUP6 ADD PUSH2 0x12E JUMP JUMPDEST SWAP2 POP POP SWAP3 SWAP2 POP POP JUMP JUMPDEST PUSH0 DUP3 DUP3 MSTORE PUSH1 0x20 DUP3 ADD SWAP1 POP SWAP3 SWAP2 POP POP JUMP JUMPDEST PUSH32 0x496E76616C696420726567697374727920616464726573730000000000000000 PUSH0 DUP3 ADD MSTORE POP JUMP JUMPDEST PUSH0 PUSH2 0x1B1 PUSH1 0x18 DUP4 PUSH2 0x16D JUMP JUMPDEST SWAP2 POP PUSH2 0x1BC DUP3 PUSH2 0x17D JUMP JUMPDEST PUSH1 0x20 DUP3 ADD SWAP1 POP SWAP2 SWAP1 POP JUMP JUMPDEST PUSH0 PUSH1 0x20 DUP3 ADD SWAP1 POP DUP2 DUP2 SUB PUSH0 DUP4 ADD MSTORE PUSH2 0x1DE DUP2 PUSH2 0x1A5 JUMP JUMPDEST SWAP1 POP SWAP2 SWAP1 POP JUMP JUMPDEST PUSH2 0x1115 DUP1 PUSH2 0x1F2 PUSH0 CODECOPY PUSH0 RETURN INVALID PUSH1 0x80 PUSH1 0x40 MSTORE CALLVALUE DUP1 ISZERO PUSH2 0xF JUMPI PUSH0 PUSH0 REVERT JUMPDEST POP PUSH1 0x4 CALLDATASIZE LT PUSH2 0x3F JUMPI PUSH0 CALLDATALOAD PUSH1 0xE0 SHR DUP1 PUSH4 0x1C789AA9 EQ PUSH2 0x43 JUMPI DUP1 PUSH4 0x727B703F EQ PUSH2 0x5F JUMPI DUP1 PUSH4 0xBD6C1C85 EQ PUSH2 0x8F JUMPI JUMPDEST PUSH0 PUSH0 REVERT JUMPDEST PUSH2 0x5D PUSH1 0x4 DUP1 CALLDATASIZE SUB DUP2 ADD SWAP1 PUSH2 0x58 SWAP2 SWAP1 PUSH2 0x89C JUMP JUMPDEST PUSH2 0xBF JUMP JUMPDEST STOP JUMPDEST PUSH2 0x79 PUSH1 0x4 DUP1 CALLDATASIZE SUB DUP2 ADD SWAP1 PUSH2 0x74 SWAP2 SWAP1 PUSH2 0x940 JUMP JUMPDEST PUSH2 0x427 JUMP JUMPDEST PUSH1 0x40 MLOAD PUSH2 0x86 SWAP2 SWAP1 PUSH2 0x99F JUMP JUMPDEST PUSH1 0x40 MLOAD DUP1 SWAP2 SUB SWAP1 RETURN JUMPDEST PUSH2 0xA9 PUSH1 0x4 DUP1 CALLDATASIZE SUB DUP2 ADD SWAP1 PUSH2 0xA4 SWAP2 SWAP1 PUSH2 0x940 JUMP JUMPDEST PUSH2 0x46F JUMP JUMPDEST PUSH1 0x40 MLOAD PUSH2 0xB6 SWAP2 SWAP1 PUSH2 0xC28 JUMP JUMPDEST PUSH1 0x40 MLOAD DUP1 SWAP2 SUB SWAP1 RETURN JUMPDEST PUSH0 PUSH0 SWAP1 SLOAD SWAP1 PUSH2 0x100 EXP SWAP1 DIV PUSH20 0xFFFFFFFFFFFFFFFFFFFFFFFFFFFFFFFFFFFFFFFF AND PUSH20 0xFFFFFFFFFFFFFFFFFFFFFFFFFFFFFFFFFFFFFFFF AND PUSH4 0xAAED589D DUP5 PUSH1 0x40 MLOAD DUP3 PUSH4 0xFFFFFFFF AND PUSH1 0xE0 SHL DUP2 MSTORE PUSH1 0x4 ADD PUSH2 0x118 SWAP2 SWAP1 PUSH2 0xC90 JUMP JUMPDEST PUSH1 0x20 PUSH1 0x40 MLOAD DUP1 DUP4 SUB DUP2 DUP7 GAS STATICCALL ISZERO DUP1 ISZERO PUSH2 0x133 JUMPI RETURNDATASIZE PUSH0 PUSH0 RETURNDATACOPY RETURNDATASIZE PUSH0 REVERT JUMPDEST POP POP POP POP PUSH1 0x40 MLOAD RETURNDATASIZE PUSH1 0x1F NOT PUSH1 0x1F DUP3 ADD AND DUP3 ADD DUP1 PUSH1 0x40 MSTORE POP DUP2 ADD SWAP1 PUSH2 0x157 SWAP2 SWAP1 PUSH2 0xCE5 JUMP JUMPDEST PUSH2 0x196 JUMPI PUSH1 0x40 MLOAD PUSH32 0x8C379A000000000000000000000000000000000000000000000000000000000 DUP2 MSTORE PUSH1 0x4 ADD PUSH2 0x18D SWAP1 PUSH2 0xD5A JUMP JUMPDEST PUSH1 0x40 MLOAD DUP1 SWAP2 SUB SWAP1 REVERT JUMPDEST PUSH0 PUSH0 PUSH0 SWAP1 SLOAD SWAP1 PUSH2 0x100 EXP SWAP1 DIV PUSH20 0xFFFFFFFFFFFFFFFFFFFFFFFFFFFFFFFFFFFFFFFF AND PUSH20 0xFFFFFFFFFFFFFFFFFFFFFFFFFFFFFFFFFFFFFFFF AND PUSH4 0xEA460CB6 DUP4 PUSH1 0x40 MLOAD DUP3 PUSH4 0xFFFFFFFF AND PUSH1 0xE0 SHL DUP2 MSTORE PUSH1 0x4 ADD PUSH2 0x1F0 SWAP2 SWAP1 PUSH2 0xC90 JUMP JUMPDEST PUSH1 0x20 PUSH1 0x40 MLOAD DUP1 DUP4 SUB DUP2 DUP7 GAS STATICCALL ISZERO DUP1 ISZERO PUSH2 0x20B JUMPI RETURNDATASIZE PUSH0 PUSH0 RETURNDATACOPY RETURNDATASIZE PUSH0 REVERT JUMPDEST POP POP POP POP PUSH1 0x40 MLOAD RETURNDATASIZE PUSH1 0x1F NOT PUSH1 0x1F DUP3 ADD AND DUP3 ADD DUP1 PUSH1 0x40 MSTORE POP DUP2 ADD SWAP1 PUSH2 0x22F SWAP2 SWAP1 PUSH2 0xCE5 JUMP JUMPDEST ISZERO PUSH2 0x23C JUMPI PUSH0 SWAP1 POP PUSH2 0x241 JUMP JUMPDEST PUSH1 0x1 SWAP1 POP JUMPDEST PUSH0 DUP5 PUSH1 0x40 MLOAD PUSH1 0x20 ADD PUSH2 0x253 SWAP2 SWAP1 PUSH2 0xDB2 JUMP JUMPDEST PUSH1 0x40 MLOAD PUSH1 0x20 DUP2 DUP4 SUB SUB DUP2 MSTORE SWAP1 PUSH1 0x40 MSTORE DUP1 MLOAD SWAP1 PUSH1 0x20 ADD KECCAK256 SWAP1 POP PUSH1 0x1 PUSH0 DUP3 DUP2 MSTORE PUSH1 0x20 ADD SWAP1 DUP2 MSTORE PUSH1 0x20 ADD PUSH0 KECCAK256 PUSH1 0x40 MLOAD DUP1 PUSH1 0xC0 ADD PUSH1 0x40 MSTORE DUP1 DUP8 DUP2 MSTORE PUSH1 0x20 ADD DUP7 DUP2 MSTORE PUSH1 0x20 ADD DUP6 DUP2 MSTORE PUSH1 0x20 ADD CALLER PUSH20 0xFFFFFFFFFFFFFFFFFFFFFFFFFFFFFFFFFFFFFFFF AND DUP2 MSTORE PUSH1 0x20 ADD TIMESTAMP DUP2 MSTORE PUSH1 0x20 ADD DUP5 PUSH1 0x1 DUP2 GT ISZERO PUSH2 0x2CE JUMPI PUSH2 0x2CD PUSH2 0xA8F JUMP JUMPDEST JUMPDEST DUP2 MSTORE POP SWAP1 DUP1 PUSH1 0x1 DUP2 SLOAD ADD DUP1 DUP3 SSTORE DUP1 SWAP2 POP POP PUSH1 0x1 SWAP1 SUB SWAP1 PUSH0 MSTORE PUSH1 0x20 PUSH0 KECCAK256 SWAP1 PUSH1 0x6 MUL ADD PUSH0 SWAP1 SWAP2 SWAP1 SWAP2 SWAP1 SWAP2 POP PUSH0 DUP3 ADD MLOAD DUP2 PUSH0 ADD SWAP1 DUP2 PUSH2 0x30A SWAP2 SWAP1 PUSH2 0xFC5 JUMP JUMPDEST POP PUSH1 0x20 DUP3 ADD MLOAD DUP2 PUSH1 0x1 ADD SWAP1 DUP2 PUSH2 0x320 SWAP2 SWAP1 PUSH2 0xFC5 JUMP JUMPDEST POP PUSH1 0x40 DUP3 ADD MLOAD DUP2 PUSH1 0x2 ADD SWAP1 DUP2 PUSH2 0x336 SWAP2 SWAP1 PUSH2 0xFC5 JUMP JUMPDEST POP PUSH1 0x60 DUP3 ADD MLOAD DUP2 PUSH1 0x3 ADD PUSH0 PUSH2 0x100 EXP DUP2 SLOAD DUP2 PUSH20 0xFFFFFFFFFFFFFFFFFFFFFFFFFFFFFFFFFFFFFFFF MUL NOT AND SWAP1 DUP4 PUSH20 0xFFFFFFFFFFFFFFFFFFFFFFFFFFFFFFFFFFFFFFFF AND MUL OR SWAP1 SSTORE POP PUSH1 0x80 DUP3 ADD MLOAD DUP2 PUSH1 0x4 ADD SSTORE PUSH1 0xA0 DUP3 ADD MLOAD DUP2 PUSH1 0x5 ADD PUSH0 PUSH2 0x100 EXP DUP2 SLOAD DUP2 PUSH1 0xFF MUL NOT AND SWAP1 DUP4 PUSH1 0x1 DUP2 GT ISZERO PUSH2 0x3B1 JUMPI PUSH2 0x3B0 PUSH2 0xA8F JUMP JUMPDEST JUMPDEST MUL OR SWAP1 SSTORE POP POP POP CALLER PUSH20 0xFFFFFFFFFFFFFFFFFFFFFFFFFFFFFFFFFFFFFFFF AND DUP6 PUSH1 0x40 MLOAD PUSH2 0x3DD SWAP2 SWAP1 PUSH2 0xDB2 JUMP JUMPDEST PUSH1 0x40 MLOAD DUP1 SWAP2 SUB SWAP1 KECCAK256 PUSH32 0xD6B746FD971FC540C1D652542BD3EFAC69F898D225DB1F55B53321D58C36DCB4 DUP6 DUP6 TIMESTAMP PUSH1 0x40 MLOAD PUSH2 0x418 SWAP4 SWAP3 SWAP2 SWAP1 PUSH2 0x10A3 JUMP JUMPDEST PUSH1 0x40 MLOAD DUP1 SWAP2 SUB SWAP1 LOG3 POP POP POP POP POP JUMP JUMPDEST PUSH0 PUSH0 DUP3 PUSH1 0x40 MLOAD PUSH1 0x20 ADD PUSH2 0x43A SWAP2 SWAP1 PUSH2 0xDB2 JUMP JUMPDEST PUSH1 0x40 MLOAD PUSH1 0x20 DUP2 DUP4 SUB SUB DUP2 MSTORE SWAP1 PUSH1 0x40 MSTORE DUP1 MLOAD SWAP1 PUSH1 0x20 ADD KECCAK256 SWAP1 POP PUSH1 0x1 PUSH0 DUP3 DUP2 MSTORE PUSH1 0x20 ADD SWAP1 DUP2 MSTORE PUSH1 0x20 ADD PUSH0 KECCAK256 DUP1 SLOAD SWAP1 POP SWAP2 POP POP SWAP2 SWAP1 POP JUMP JUMPDEST PUSH1 0x60 PUSH0 DUP3 PUSH1 0x40 MLOAD PUSH1 0x20 ADD PUSH2 0x483 SWAP2 SWAP1 PUSH2 0xDB2 JUMP JUMPDEST PUSH1 0x40 MLOAD PUSH1 0x20 DUP2 DUP4 SUB SUB DUP2 MSTORE SWAP1 PUSH1 0x40 MSTORE DUP1 MLOAD SWAP1 PUSH1 0x20 ADD KECCAK256 SWAP1 POP PUSH1 0x1 PUSH0 DUP3 DUP2 MSTORE PUSH1 0x20 ADD SWAP1 DUP2 MSTORE PUSH1 0x20 ADD PUSH0 KECCAK256 DUP1 SLOAD DUP1 PUSH1 0x20 MUL PUSH1 0x20 ADD PUSH1 0x40 MLOAD SWAP1 DUP2 ADD PUSH1 0x40 MSTORE DUP1 SWAP3 SWAP2 SWAP1 DUP2 DUP2 MSTORE PUSH1 0x20 ADD PUSH0 SWAP1 JUMPDEST DUP3 DUP3 LT ISZERO PUSH2 0x743 JUMPI DUP4 DUP3 SWAP1 PUSH0 MSTORE PUSH1 0x20 PUSH0 KECCAK256 SWAP1 PUSH1 0x6 MUL ADD PUSH1 0x40 MLOAD DUP1 PUSH1 0xC0 ADD PUSH1 0x40 MSTORE SWAP1 DUP2 PUSH0 DUP3 ADD DUP1 SLOAD PUSH2 0x4FB SWAP1 PUSH2 0xDF5 JUMP JUMPDEST DUP1 PUSH1 0x1F ADD PUSH1 0x20 DUP1 SWAP2 DIV MUL PUSH1 0x20 ADD PUSH1 0x40 MLOAD SWAP1 DUP2 ADD PUSH1 0x40 MSTORE DUP1 SWAP3 SWAP2 SWAP1 DUP2 DUP2 MSTORE PUSH1 0x20 ADD DUP3 DUP1 SLOAD PUSH2 0x527 SWAP1 PUSH2 0xDF5 JUMP JUMPDEST DUP1 ISZERO PUSH2 0x572 JUMPI DUP1 PUSH1 0x1F LT PUSH2 0x549 JUMPI PUSH2 0x100 DUP1 DUP4 SLOAD DIV MUL DUP4 MSTORE SWAP2 PUSH1 0x20 ADD SWAP2 PUSH2 0x572 JUMP JUMPDEST DUP3 ADD SWAP2 SWAP1 PUSH0 MSTORE PUSH1 0x20 PUSH0 KECCAK256 SWAP1 JUMPDEST DUP2 SLOAD DUP2 MSTORE SWAP1 PUSH1 0x1 ADD SWAP1 PUSH1 0x20 ADD DUP1 DUP4 GT PUSH2 0x555 JUMPI DUP3 SWAP1 SUB PUSH1 0x1F AND DUP3 ADD SWAP2 JUMPDEST POP POP POP POP POP DUP2 MSTORE PUSH1 0x20 ADD PUSH1 0x1 DUP3 ADD DUP1 SLOAD PUSH2 0x58B SWAP1 PUSH2 0xDF5 JUMP JUMPDEST DUP1 PUSH1 0x1F ADD PUSH1 0x20 DUP1 SWAP2 DIV MUL PUSH1 0x20 ADD PUSH1 0x40 MLOAD SWAP1 DUP2 ADD PUSH1 0x40 MSTORE DUP1 SWAP3 SWAP2 SWAP1 DUP2 DUP2 MSTORE PUSH1 0x20 ADD DUP3 DUP1 SLOAD PUSH2 0x5B7 SWAP1 PUSH2 0xDF5 JUMP JUMPDEST DUP1 ISZERO PUSH2 0x602 JUMPI DUP1 PUSH1 0x1F LT PUSH2 0x5D9 JUMPI PUSH2 0x100 DUP1 DUP4 SLOAD DIV MUL DUP4 MSTORE SWAP2 PUSH1 0x20 ADD SWAP2 PUSH2 0x602 JUMP JUMPDEST DUP3 ADD SWAP2 SWAP1 PUSH0 MSTORE PUSH1 0x20 PUSH0 KECCAK256 SWAP1 JUMPDEST DUP2 SLOAD DUP2 MSTORE SWAP1 PUSH1 0x1 ADD SWAP1 PUSH1 0x20 ADD DUP1 DUP4 GT PUSH2 0x5E5 JUMPI DUP3 SWAP1 SUB PUSH1 0x1F AND DUP3 ADD SWAP2 JUMPDEST POP POP POP POP POP DUP2 MSTORE PUSH1 0x20 ADD PUSH1 0x2 DUP3 ADD DUP1 SLOAD PUSH2 0x61B SWAP1 PUSH2 0xDF5 JUMP JUMPDEST DUP1 PUSH1 0x1F ADD PUSH1 0x20 DUP1 SWAP2 DIV MUL PUSH1 0x20 ADD PUSH1 0x40 MLOAD SWAP1 DUP2 ADD PUSH1 0x40 MSTORE DUP1 SWAP3 SWAP2 SWAP1 DUP2 DUP2 MSTORE PUSH1 0x20 ADD DUP3 DUP1 SLOAD PUSH2 0x647 SWAP1 PUSH2 0xDF5 JUMP JUMPDEST DUP1 ISZERO PUSH2 0x692 JUMPI DUP1 PUSH1 0x1F LT PUSH2 0x669 JUMPI PUSH2 0x100 DUP1 DUP4 SLOAD DIV MUL DUP4 MSTORE SWAP2 PUSH1 0x20 ADD SWAP2 PUSH2 0x692 JUMP JUMPDEST DUP3 ADD SWAP2 SWAP1 PUSH0 MSTORE PUSH1 0x20 PUSH0 KECCAK256 SWAP1 JUMPDEST DUP2 SLOAD DUP2 MSTORE SWAP1 PUSH1 0x1 ADD SWAP1 PUSH1 0x20 ADD DUP1 DUP4 GT PUSH2 0x675 JUMPI DUP3 SWAP1 SUB PUSH1 0x1F AND DUP3 ADD SWAP2 JUMPDEST POP POP POP POP POP DUP2 MSTORE PUSH1 0x20 ADD PUSH1 0x3 DUP3 ADD PUSH0 SWAP1 SLOAD SWAP1 PUSH2 0x100 EXP SWAP1 DIV PUSH20 0xFFFFFFFFFFFFFFFFFFFFFFFFFFFFFFFFFFFFFFFF AND PUSH20 0xFFFFFFFFFFFFFFFFFFFFFFFFFFFFFFFFFFFFFFFF AND PUSH20 0xFFFFFFFFFFFFFFFFFFFFFFFFFFFFFFFFFFFFFFFF AND DUP2 MSTORE PUSH1 0x20 ADD PUSH1 0x4 DUP3 ADD SLOAD DUP2 MSTORE PUSH1 0x20 ADD PUSH1 0x5 DUP3 ADD PUSH0 SWAP1 SLOAD SWAP1 PUSH2 0x100 EXP SWAP1 DIV PUSH1 0xFF AND PUSH1 0x1 DUP2 GT ISZERO PUSH2 0x71E JUMPI PUSH2 0x71D PUSH2 0xA8F JUMP JUMPDEST JUMPDEST PUSH1 0x1 DUP2 GT ISZERO PUSH2 0x730 JUMPI PUSH2 0x72F PUSH2 0xA8F JUMP JUMPDEST JUMPDEST DUP2 MSTORE POP POP DUP2 MSTORE PUSH1 0x20 ADD SWAP1 PUSH1 0x1 ADD SWAP1 PUSH2 0x4CB JUMP JUMPDEST POP POP POP POP SWAP2 POP POP SWAP2 SWAP1 POP JUMP JUMPDEST PUSH0 PUSH1 0x40 MLOAD SWAP1 POP SWAP1 JUMP JUMPDEST PUSH0 PUSH0 REVERT JUMPDEST PUSH0 PUSH0 REVERT JUMPDEST PUSH0 PUSH0 REVERT JUMPDEST PUSH0 PUSH0 REVERT JUMPDEST PUSH0 PUSH1 0x1F NOT PUSH1 0x1F DUP4 ADD AND SWAP1 POP SWAP2 SWAP1 POP JUMP JUMPDEST PUSH32 0x4E487B7100000000000000000000000000000000000000000000000000000000 PUSH0 MSTORE PUSH1 0x41 PUSH1 0x4 MSTORE PUSH1 0x24 PUSH0 REVERT JUMPDEST PUSH2 0x7AE DUP3 PUSH2 0x768 JUMP JUMPDEST DUP2 ADD DUP2 DUP2 LT PUSH8 0xFFFFFFFFFFFFFFFF DUP3 GT OR ISZERO PUSH2 0x7CD JUMPI PUSH2 0x7CC PUSH2 0x778 JUMP JUMPDEST JUMPDEST DUP1 PUSH1 0x40 MSTORE POP POP POP JUMP JUMPDEST PUSH0 PUSH2 0x7DF PUSH2 0x74F JUMP JUMPDEST SWAP1 POP PUSH2 0x7EB DUP3 DUP3 PUSH2 0x7A5 JUMP JUMPDEST SWAP2 SWAP1 POP JUMP JUMPDEST PUSH0 PUSH8 0xFFFFFFFFFFFFFFFF DUP3 GT ISZERO PUSH2 0x80A JUMPI PUSH2 0x809 PUSH2 0x778 JUMP JUMPDEST JUMPDEST PUSH2 0x813 DUP3 PUSH2 0x768 JUMP JUMPDEST SWAP1 POP PUSH1 0x20 DUP2 ADD SWAP1 POP SWAP2 SWAP1 POP JUMP JUMPDEST DUP3 DUP2 DUP4 CALLDATACOPY PUSH0 DUP4 DUP4 ADD MSTORE POP POP POP JUMP JUMPDEST PUSH0 PUSH2 0x840 PUSH2 0x83B DUP5 PUSH2 0x7F0 JUMP JUMPDEST PUSH2 0x7D6 JUMP JUMPDEST SWAP1 POP DUP3 DUP2 MSTORE PUSH1 0x20 DUP2 ADD DUP5 DUP5 DUP5 ADD GT ISZERO PUSH2 0x85C JUMPI PUSH2 0x85B PUSH2 0x764 JUMP JUMPDEST JUMPDEST PUSH2 0x867 DUP5 DUP3 DUP6 PUSH2 0x820 JUMP JUMPDEST POP SWAP4 SWAP3 POP POP POP JUMP JUMPDEST PUSH0 DUP3 PUSH1 0x1F DUP4 ADD SLT PUSH2 0x883 JUMPI PUSH2 0x882 PUSH2 0x760 JUMP JUMPDEST JUMPDEST DUP2 CALLDATALOAD PUSH2 0x893 DUP5 DUP3 PUSH1 0x20 DUP7 ADD PUSH2 0x82E JUMP JUMPDEST SWAP2 POP POP SWAP3 SWAP2 POP POP JUMP JUMPDEST PUSH0 PUSH0 PUSH0 PUSH1 0x60 DUP5 DUP7 SUB SLT ISZERO PUSH2 0x8B3 JUMPI PUSH2 0x8B2 PUSH2 0x758 JUMP JUMPDEST JUMPDEST PUSH0 DUP5 ADD CALLDATALOAD PUSH8 0xFFFFFFFFFFFFFFFF DUP2 GT ISZERO PUSH2 0x8D0 JUMPI PUSH2 0x8CF PUSH2 0x75C JUMP JUMPDEST JUMPDEST PUSH2 0x8DC DUP7 DUP3 DUP8 ADD PUSH2 0x86F JUMP JUMPDEST SWAP4 POP POP PUSH1 0x20 DUP5 ADD CALLDATALOAD PUSH8 0xFFFFFFFFFFFFFFFF DUP2 GT ISZERO PUSH2 0x8FD JUMPI PUSH2 0x8FC PUSH2 0x75C JUMP JUMPDEST JUMPDEST PUSH2 0x909 DUP7 DUP3 DUP8 ADD PUSH2 0x86F JUMP JUMPDEST SWAP3 POP POP PUSH1 0x40 DUP5 ADD CALLDATALOAD PUSH8 0xFFFFFFFFFFFFFFFF DUP2 GT ISZERO PUSH2 0x92A JUMPI PUSH2 0x929 PUSH2 0x75C JUMP JUMPDEST JUMPDEST PUSH2 0x936 DUP7 DUP3 DUP8 ADD PUSH2 0x86F JUMP JUMPDEST SWAP2 POP POP SWAP3 POP SWAP3 POP SWAP3 JUMP JUMPDEST PUSH0 PUSH1 0x20 DUP3 DUP5 SUB SLT ISZERO PUSH2 0x955 JUMPI PUSH2 0x954 PUSH2 0x758 JUMP JUMPDEST JUMPDEST PUSH0 DUP3 ADD CALLDATALOAD PUSH8 0xFFFFFFFFFFFFFFFF DUP2 GT ISZERO PUSH2 0x972 JUMPI PUSH2 0x971 PUSH2 0x75C JUMP JUMPDEST JUMPDEST PUSH2 0x97E DUP5 DUP3 DUP6 ADD PUSH2 0x86F JUMP JUMPDEST SWAP2 POP POP SWAP3 SWAP2 POP POP JUMP JUMPDEST PUSH0 DUP2 SWAP1 POP SWAP2 SWAP1 POP JUMP JUMPDEST PUSH2 0x999 DUP2 PUSH2 0x987 JUMP JUMPDEST DUP3 MSTORE POP POP JUMP JUMPDEST PUSH0 PUSH1 0x20 DUP3 ADD SWAP1 POP PUSH2 0x9B2 PUSH0 DUP4 ADD DUP5 PUSH2 0x990 JUMP JUMPDEST SWAP3 SWAP2 POP POP JUMP JUMPDEST PUSH0 DUP2 MLOAD SWAP1 POP SWAP2 SWAP1 POP JUMP JUMPDEST PUSH0 DUP3 DUP3 MSTORE PUSH1 0x20 DUP3 ADD SWAP1 POP SWAP3 SWAP2 POP POP JUMP JUMPDEST PUSH0 DUP2 SWAP1 POP PUSH1 0x20 DUP3 ADD SWAP1 POP SWAP2 SWAP1 POP JUMP JUMPDEST PUSH0 DUP2 MLOAD SWAP1 POP SWAP2 SWAP1 POP JUMP JUMPDEST PUSH0 DUP3 DUP3 MSTORE PUSH1 0x20 DUP3 ADD SWAP1 POP SWAP3 SWAP2 POP POP JUMP JUMPDEST DUP3 DUP2 DUP4 MCOPY PUSH0 DUP4 DUP4 ADD MSTORE POP POP POP JUMP JUMPDEST PUSH0 PUSH2 0xA13 DUP3 PUSH2 0x9E1 JUMP JUMPDEST PUSH2 0xA1D DUP2 DUP6 PUSH2 0x9EB JUMP JUMPDEST SWAP4 POP PUSH2 0xA2D DUP2 DUP6 PUSH1 0x20 DUP7 ADD PUSH2 0x9FB JUMP JUMPDEST PUSH2 0xA36 DUP2 PUSH2 0x768 JUMP JUMPDEST DUP5 ADD SWAP2 POP POP SWAP3 SWAP2 POP POP JUMP JUMPDEST PUSH0 PUSH20 0xFFFFFFFFFFFFFFFFFFFFFFFFFFFFFFFFFFFFFFFF DUP3 AND SWAP1 POP SWAP2 SWAP1 POP JUMP JUMPDEST PUSH0 PUSH2 0xA6A DUP3 PUSH2 0xA41 JUMP JUMPDEST SWAP1 POP SWAP2 SWAP1 POP JUMP JUMPDEST PUSH2 0xA7A DUP2 PUSH2 0xA60 JUMP JUMPDEST DUP3 MSTORE POP POP JUMP JUMPDEST PUSH2 0xA89 DUP2 PUSH2 0x987 JUMP JUMPDEST DUP3 MSTORE POP POP JUMP JUMPDEST PUSH32 0x4E487B7100000000000000000000000000000000000000000000000000000000 PUSH0 MSTORE PUSH1 0x21 PUSH1 0x4 MSTORE PUSH1 0x24 PUSH0 REVERT JUMPDEST PUSH1 0x2 DUP2 LT PUSH2 0xACD JUMPI PUSH2 0xACC PUSH2 0xA8F JUMP JUMPDEST JUMPDEST POP JUMP JUMPDEST PUSH0 DUP2 SWAP1 POP PUSH2 0xADD DUP3 PUSH2 0xABC JUMP JUMPDEST SWAP2 SWAP1 POP JUMP JUMPDEST PUSH0 PUSH2 0xAEC DUP3 PUSH2 0xAD0 JUMP JUMPDEST SWAP1 POP SWAP2 SWAP1 POP JUMP JUMPDEST PUSH2 0xAFC DUP2 PUSH2 0xAE2 JUMP JUMPDEST DUP3 MSTORE POP POP JUMP JUMPDEST PUSH0 PUSH1 0xC0 DUP4 ADD PUSH0 DUP4 ADD MLOAD DUP5 DUP3 SUB PUSH0 DUP7 ADD MSTORE PUSH2 0xB1C DUP3 DUP3 PUSH2 0xA09 JUMP JUMPDEST SWAP2 POP POP PUSH1 0x20 DUP4 ADD MLOAD DUP5 DUP3 SUB PUSH1 0x20 DUP7 ADD MSTORE PUSH2 0xB36 DUP3 DUP3 PUSH2 0xA09 JUMP JUMPDEST SWAP2 POP POP PUSH1 0x40 DUP4 ADD MLOAD DUP5 DUP3 SUB PUSH1 0x40 DUP7 ADD MSTORE PUSH2 0xB50 DUP3 DUP3 PUSH2 0xA09 JUMP JUMPDEST SWAP2 POP POP PUSH1 0x60 DUP4 ADD MLOAD PUSH2 0xB65 PUSH1 0x60 DUP7 ADD DUP3 PUSH2 0xA71 JUMP JUMPDEST POP PUSH1 0x80 DUP4 ADD MLOAD PUSH2 0xB78 PUSH1 0x80 DUP7 ADD DUP3 PUSH2 0xA80 JUMP JUMPDEST POP PUSH1 0xA0 DUP4 ADD MLOAD PUSH2 0xB8B PUSH1 0xA0 DUP7 ADD DUP3 PUSH2 0xAF3 JUMP JUMPDEST POP DUP1 SWAP2 POP POP SWAP3 SWAP2 POP POP JUMP JUMPDEST PUSH0 PUSH2 0xBA1 DUP4 DUP4 PUSH2 0xB02 JUMP JUMPDEST SWAP1 POP SWAP3 SWAP2 POP POP JUMP JUMPDEST PUSH0 PUSH1 0x20 DUP3 ADD SWAP1 POP SWAP2 SWAP1 POP JUMP JUMPDEST PUSH0 PUSH2 0xBBF DUP3 PUSH2 0x9B8 JUMP JUMPDEST PUSH2 0xBC9 DUP2 DUP6 PUSH2 0x9C2 JUMP JUMPDEST SWAP4 POP DUP4 PUSH1 0x20 DUP3 MUL DUP6 ADD PUSH2 0xBDB DUP6 PUSH2 0x9D2 JUMP JUMPDEST DUP1 PUSH0 JUMPDEST DUP6 DUP2 LT ISZERO PUSH2 0xC16 JUMPI DUP5 DUP5 SUB DUP10 MSTORE DUP2 MLOAD PUSH2 0xBF7 DUP6 DUP3 PUSH2 0xB96 JUMP JUMPDEST SWAP5 POP PUSH2 0xC02 DUP4 PUSH2 0xBA9 JUMP JUMPDEST SWAP3 POP PUSH1 0x20 DUP11 ADD SWAP10 POP POP PUSH1 0x1 DUP2 ADD SWAP1 POP PUSH2 0xBDE JUMP JUMPDEST POP DUP3 SWAP8 POP DUP8 SWAP6 POP POP POP POP POP POP SWAP3 SWAP2 POP POP JUMP JUMPDEST PUSH0 PUSH1 0x20 DUP3 ADD SWAP1 POP DUP2 DUP2 SUB PUSH0 DUP4 ADD MSTORE PUSH2 0xC40 DUP2 DUP5 PUSH2 0xBB5 JUMP JUMPDEST SWAP1 POP SWAP3 SWAP2 POP POP JUMP JUMPDEST PUSH0 DUP3 DUP3 MSTORE PUSH1 0x20 DUP3 ADD SWAP1 POP SWAP3 SWAP2 POP POP JUMP JUMPDEST PUSH0 PUSH2 0xC62 DUP3 PUSH2 0x9E1 JUMP JUMPDEST PUSH2 0xC6C DUP2 DUP6 PUSH2 0xC48 JUMP JUMPDEST SWAP4 POP PUSH2 0xC7C DUP2 DUP6 PUSH1 0x20 DUP7 ADD PUSH2 0x9FB JUMP JUMPDEST PUSH2 0xC85 DUP2 PUSH2 0x768 JUMP JUMPDEST DUP5 ADD SWAP2 POP POP SWAP3 SWAP2 POP POP JUMP JUMPDEST PUSH0 PUSH1 0x20 DUP3 ADD SWAP1 POP DUP2 DUP2 SUB PUSH0 DUP4 ADD MSTORE PUSH2 0xCA8 DUP2 DUP5 PUSH2 0xC58 JUMP JUMPDEST SWAP1 POP SWAP3 SWAP2 POP POP JUMP JUMPDEST PUSH0 DUP2 ISZERO ISZERO SWAP1 POP SWAP2 SWAP1 POP JUMP JUMPDEST PUSH2 0xCC4 DUP2 PUSH2 0xCB0 JUMP JUMPDEST DUP2 EQ PUSH2 0xCCE JUMPI PUSH0 PUSH0 REVERT JUMPDEST POP JUMP JUMPDEST PUSH0 DUP2 MLOAD SWAP1 POP PUSH2 0xCDF DUP2 PUSH2 0xCBB JUMP JUMPDEST SWAP3 SWAP2 POP POP JUMP JUMPDEST PUSH0 PUSH1 0x20 DUP3 DUP5 SUB SLT ISZERO PUSH2 0xCFA JUMPI PUSH2 0xCF9 PUSH2 0x758 JUMP JUMPDEST JUMPDEST PUSH0 PUSH2 0xD07 DUP5 DUP3 DUP6 ADD PUSH2 0xCD1 JUMP JUMPDEST SWAP2 POP POP SWAP3 SWAP2 POP POP JUMP JUMPDEST PUSH32 0x446576696365206E6F7420726567697374657265640000000000000000000000 PUSH0 DUP3 ADD MSTORE POP JUMP JUMPDEST PUSH0 PUSH2 0xD44 PUSH1 0x15 DUP4 PUSH2 0xC48 JUMP JUMPDEST SWAP2 POP PUSH2 0xD4F DUP3 PUSH2 0xD10 JUMP JUMPDEST PUSH1 0x20 DUP3 ADD SWAP1 POP SWAP2 SWAP1 POP JUMP JUMPDEST PUSH0 PUSH1 0x20 DUP3 ADD SWAP1 POP DUP2 DUP2 SUB PUSH0 DUP4 ADD MSTORE PUSH2 0xD71 DUP2 PUSH2 0xD38 JUMP JUMPDEST SWAP1 POP SWAP2 SWAP1 POP JUMP JUMPDEST PUSH0 DUP2 SWAP1 POP SWAP3 SWAP2 POP POP JUMP JUMPDEST PUSH0 PUSH2 0xD8C DUP3 PUSH2 0x9E1 JUMP JUMPDEST PUSH2 0xD96 DUP2 DUP6 PUSH2 0xD78 JUMP JUMPDEST SWAP4 POP PUSH2 0xDA6 DUP2 DUP6 PUSH1 0x20 DUP7 ADD PUSH2 0x9FB JUMP JUMPDEST DUP1 DUP5 ADD SWAP2 POP POP SWAP3 SWAP2 POP POP JUMP JUMPDEST PUSH0 PUSH2 0xDBD DUP3 DUP5 PUSH2 0xD82 JUMP JUMPDEST SWAP2 POP DUP2 SWAP1 POP SWAP3 SWAP2 POP POP JUMP JUMPDEST PUSH32 0x4E487B7100000000000000000000000000000000000000000000000000000000 PUSH0 MSTORE PUSH1 0x22 PUSH1 0x4 MSTORE PUSH1 0x24 PUSH0 REVERT JUMPDEST PUSH0 PUSH1 0x2 DUP3 DIV SWAP1 POP PUSH1 0x1 DUP3 AND DUP1 PUSH2 0xE0C JUMPI PUSH1 0x7F DUP3 AND SWAP2 POP JUMPDEST PUSH1 0x20 DUP3 LT DUP2 SUB PUSH2 0xE1F JUMPI PUSH2 0xE1E PUSH2 0xDC8 JUMP JUMPDEST JUMPDEST POP SWAP2 SWAP1 POP JUMP JUMPDEST PUSH0 DUP2 SWAP1 POP DUP2 PUSH0 MSTORE PUSH1 0x20 PUSH0 KECCAK256 SWAP1 POP SWAP2 SWAP1 POP JUMP JUMPDEST PUSH0 PUSH1 0x20 PUSH1 0x1F DUP4 ADD DIV SWAP1 POP SWAP2 SWAP1 POP JUMP JUMPDEST PUSH0 DUP3 DUP3 SHL SWAP1 POP SWAP3 SWAP2 POP POP JUMP JUMPDEST PUSH0 PUSH1 0x8 DUP4 MUL PUSH2 0xE81 PUSH32 0xFFFFFFFFFFFFFFFFFFFFFFFFFFFFFFFFFFFFFFFFFFFFFFFFFFFFFFFFFFFFFFFF DUP3 PUSH2 0xE46 JUMP JUMPDEST PUSH2 0xE8B DUP7 DUP4 PUSH2 0xE46 JUMP JUMPDEST SWAP6 POP DUP1 NOT DUP5 AND SWAP4 POP DUP1 DUP7 AND DUP5 OR SWAP3 POP POP POP SWAP4 SWAP3 POP POP POP JUMP JUMPDEST PUSH0 DUP2 SWAP1 POP SWAP2 SWAP1 POP JUMP JUMPDEST PUSH0 PUSH2 0xEC6 PUSH2 0xEC1 PUSH2 0xEBC DUP5 PUSH2 0x987 JUMP JUMPDEST PUSH2 0xEA3 JUMP JUMPDEST PUSH2 0x987 JUMP JUMPDEST SWAP1 POP SWAP2 SWAP1 POP JUMP JUMPDEST PUSH0 DUP2 SWAP1 POP SWAP2 SWAP1 POP JUMP JUMPDEST PUSH2 0xEDF DUP4 PUSH2 0xEAC JUMP JUMPDEST PUSH2 0xEF3 PUSH2 0xEEB DUP3 PUSH2 0xECD JUMP JUMPDEST DUP5 DUP5 SLOAD PUSH2 0xE52 JUMP JUMPDEST DUP3 SSTORE POP POP POP POP JUMP JUMPDEST PUSH0 PUSH0 SWAP1 POP SWAP1 JUMP JUMPDEST PUSH2 0xF0A PUSH2 0xEFB JUMP JUMPDEST PUSH2 0xF15 DUP2 DUP5 DUP5 PUSH2 0xED6 JUMP JUMPDEST POP POP POP JUMP JUMPDEST JUMPDEST DUP2 DUP2 LT ISZERO PUSH2 0xF38 JUMPI PUSH2 0xF2D PUSH0 DUP3 PUSH2 0xF02 JUMP JUMPDEST PUSH1 0x1 DUP2 ADD SWAP1 POP PUSH2 0xF1B JUMP JUMPDEST POP POP JUMP JUMPDEST PUSH1 0x1F DUP3 GT ISZERO PUSH2 0xF7D JUMPI PUSH2 0xF4E DUP2 PUSH2 0xE25 JUMP JUMPDEST PUSH2 0xF57 DUP5 PUSH2 0xE37 JUMP JUMPDEST DUP2 ADD PUSH1 0x20 DUP6 LT ISZERO PUSH2 0xF66 JUMPI DUP2 SWAP1 POP JUMPDEST PUSH2 0xF7A PUSH2 0xF72 DUP6 PUSH2 0xE37 JUMP JUMPDEST DUP4 ADD DUP3 PUSH2 0xF1A JUMP JUMPDEST POP POP JUMPDEST POP POP POP JUMP JUMPDEST PUSH0 DUP3 DUP3 SHR SWAP1 POP SWAP3 SWAP2 POP POP JUMP JUMPDEST PUSH0 PUSH2 0xF9D PUSH0 NOT DUP5 PUSH1 0x8 MUL PUSH2 0xF82 JUMP JUMPDEST NOT DUP1 DUP4 AND SWAP2 POP POP SWAP3 SWAP2 POP POP JUMP JUMPDEST PUSH0 PUSH2 0xFB5 DUP4 DUP4 PUSH2 0xF8E JUMP JUMPDEST SWAP2 POP DUP3 PUSH1 0x2 MUL DUP3 OR SWAP1 POP SWAP3 SWAP2 POP POP JUMP JUMPDEST PUSH2 0xFCE DUP3 PUSH2 0x9E1 JUMP JUMPDEST PUSH8 0xFFFFFFFFFFFFFFFF DUP2 GT ISZERO PUSH2 0xFE7 JUMPI PUSH2 0xFE6 PUSH2 0x778 JUMP JUMPDEST JUMPDEST PUSH2 0xFF1 DUP3 SLOAD PUSH2 0xDF5 JUMP JUMPDEST PUSH2 0xFFC DUP3 DUP3 DUP6 PUSH2 0xF3C JUMP JUMPDEST PUSH0 PUSH1 0x20 SWAP1 POP PUSH1 0x1F DUP4 GT PUSH1 0x1 DUP2 EQ PUSH2 0x102D JUMPI PUSH0 DUP5 ISZERO PUSH2 0x101B JUMPI DUP3 DUP8 ADD MLOAD SWAP1 POP JUMPDEST PUSH2 0x1025 DUP6 DUP3 PUSH2 0xFAA JUMP JUMPDEST DUP7 SSTORE POP PUSH2 0x108C JUMP JUMPDEST PUSH1 0x1F NOT DUP5 AND PUSH2 0x103B DUP7 PUSH2 0xE25 JUMP JUMPDEST PUSH0 JUMPDEST DUP3 DUP2 LT ISZERO PUSH2 0x1062 JUMPI DUP5 DUP10 ADD MLOAD DUP3 SSTORE PUSH1 0x1 DUP3 ADD SWAP2 POP PUSH1 0x20 DUP6 ADD SWAP5 POP PUSH1 0x20 DUP2 ADD SWAP1 POP PUSH2 0x103D JUMP JUMPDEST DUP7 DUP4 LT ISZERO PUSH2 0x107F JUMPI DUP5 DUP10 ADD MLOAD PUSH2 0x107B PUSH1 0x1F DUP10 AND DUP3 PUSH2 0xF8E JUMP JUMPDEST DUP4 SSTORE POP JUMPDEST PUSH1 0x1 PUSH1 0x2 DUP9 MUL ADD DUP9 SSTORE POP POP POP JUMPDEST POP POP POP POP POP POP JUMP JUMPDEST PUSH2 0x109D DUP2 PUSH2 0xAE2 JUMP JUMPDEST DUP3 MSTORE POP POP JUMP JUMPDEST PUSH0 PUSH1 0x60 DUP3 ADD SWAP1 POP DUP2 DUP2 SUB PUSH0 DUP4 ADD MSTORE PUSH2 0x10BB DUP2 DUP7 PUSH2 0xC58 JUMP JUMPDEST SWAP1 POP PUSH2 0x10CA PUSH1 0x20 DUP4 ADD DUP6 PUSH2 0x1094 JUMP JUMPDEST PUSH2 0x10D7 PUSH1 0x40 DUP4 ADD DUP5 PUSH2 0x990 JUMP JUMPDEST SWAP5 SWAP4 POP POP POP POP JUMP INVALID LOG2 PUSH5 0x6970667358 0x22 SLT KECCAK256 SELFBALANCE LOG2 SELFDESTRUCT 0xDD 0xEF 0xCF RETURNCONTRACT 0xA0 ADDMOD PUSH26 0x79DF8F863FD3B23E5758FA2348A8491AA9481C0A4F8164736F6C PUSH4 0x4300081E STOP CALLER "
				},
				"gasEstimates": {
					"creation": {
						"codeDepositCost": "874600",
						"executionCost": "infinite",
						"totalCost": "infinite"
					},
					"external": {
						"getRepairCount(string)": "infinite",
						"getRepairHistory(string)": "infinite",
						"logRepair(string,string,string)": "infinite"
					}
				},
				"methodIdentifiers": {
					"getRepairCount(string)": "727b703f",
					"getRepairHistory(string)": "bd6c1c85",
					"logRepair(string,string,string)": "1c789aa9"
				}
			},
			"storageLayout": {
				"storage": [
					{
						"astId": 36,
						"contract": "contracts/RepairEvent.sol:RepairEvent",
						"label": "deviceRegistry",
						"offset": 0,
						"slot": "0",
						"type": "t_contract(IDeviceRegistry)16"
					},
					{
						"astId": 42,
						"contract": "contracts/RepairEvent.sol:RepairEvent",
						"label": "repairHistory",
						"offset": 0,
						"slot": "1",
						"type": "t_mapping(t_bytes32,t_array(t_struct(Repair)33_storage)dyn_storage)"
					}
				],
				"types": {
					"t_address": {
						"encoding": "inplace",
						"label": "address",
						"numberOfBytes": "20"
					},
					"t_array(t_struct(Repair)33_storage)dyn_storage": {
						"base": "t_struct(Repair)33_storage",
						"encoding": "dynamic_array",
						"label": "struct RepairEvent.Repair[]",
						"numberOfBytes": "32"
					},
					"t_bytes32": {
						"encoding": "inplace",
						"label": "bytes32",
						"numberOfBytes": "32"
					},
					"t_contract(IDeviceRegistry)16": {
						"encoding": "inplace",
						"label": "contract IDeviceRegistry",
						"numberOfBytes": "20"
					},
					"t_enum(RepairStatus)19": {
						"encoding": "inplace",
						"label": "enum RepairEvent.RepairStatus",
						"numberOfBytes": "1"
					},
					"t_mapping(t_bytes32,t_array(t_struct(Repair)33_storage)dyn_storage)": {
						"encoding": "mapping",
						"key": "t_bytes32",
						"label": "mapping(bytes32 => struct RepairEvent.Repair[])",
						"numberOfBytes": "32",
						"value": "t_array(t_struct(Repair)33_storage)dyn_storage"
					},
					"t_string_storage": {
						"encoding": "bytes",
						"label": "string",
						"numberOfBytes": "32"
					},
					"t_struct(Repair)33_storage": {
						"encoding": "inplace",
						"label": "struct RepairEvent.Repair",
						"members": [
							{
								"astId": 21,
								"contract": "contracts/RepairEvent.sol:RepairEvent",
								"label": "serialNumber",
								"offset": 0,
								"slot": "0",
								"type": "t_string_storage"
							},
							{
								"astId": 23,
								"contract": "contracts/RepairEvent.sol:RepairEvent",
								"label": "removedPart",
								"offset": 0,
								"slot": "1",
								"type": "t_string_storage"
							},
							{
								"astId": 25,
								"contract": "contracts/RepairEvent.sol:RepairEvent",
								"label": "newPart",
								"offset": 0,
								"slot": "2",
								"type": "t_string_storage"
							},
							{
								"astId": 27,
								"contract": "contracts/RepairEvent.sol:RepairEvent",
								"label": "repairer",
								"offset": 0,
								"slot": "3",
								"type": "t_address"
							},
							{
								"astId": 29,
								"contract": "contracts/RepairEvent.sol:RepairEvent",
								"label": "timestamp",
								"offset": 0,
								"slot": "4",
								"type": "t_uint256"
							},
							{
								"astId": 32,
								"contract": "contracts/RepairEvent.sol:RepairEvent",
								"label": "status",
								"offset": 0,
								"slot": "5",
								"type": "t_enum(RepairStatus)19"
							}
						],
						"numberOfBytes": "192"
					},
					"t_uint256": {
						"encoding": "inplace",
						"label": "uint256",
						"numberOfBytes": "32"
					}
				}
			},
			"userdoc": {
				"kind": "user",
				"methods": {},
				"version": 1
			}
		}
	}
}