{
	"contracts/DeviceRegistry.sol": {
		"DeviceRegistry": {
			"abi": [
				{
					"inputs": [],
					"stateMutability": "nonpayable",
					"type": "constructor"
				},
				{
					"inputs": [],
					"name": "componentExists",
					"outputs": [],
					"stateMutability": "nonpayable",
					"type": "function"
				},
				{
					"inputs": [
						{
							"internalType": "bytes32",
							"name": "",
							"type": "bytes32"
						}
					],
					"name": "components",
					"outputs": [
						{
							"internalType": "string",
							"name": "partNumber",
							"type": "string"
						},
						{
							"internalType": "string",
							"name": "componentType",
							"type": "string"
						},
						{
							"internalType": "uint256",
							"name": "manufactureDate",
							"type": "uint256"
						},
						{
							"internalType": "bool",
							"name": "exists",
							"type": "bool"
						}
					],
					"stateMutability": "view",
					"type": "function"
				},
				{
					"inputs": [],
					"name": "decommission",
					"outputs": [],
					"stateMutability": "nonpayable",
					"type": "function"
				},
				{
					"inputs": [],
					"name": "deviceExists",
					"outputs": [],
					"stateMutability": "nonpayable",
					"type": "function"
				},
				{
					"inputs": [
						{
							"internalType": "bytes32",
							"name": "",
							"type": "bytes32"
						}
					],
					"name": "devices",
					"outputs": [
						{
							"internalType": "string",
							"name": "serialNumber",
							"type": "string"
						},
						{
							"internalType": "string",
							"name": "imei",
							"type": "string"
						},
						{
							"internalType": "string",
							"name": "model",
							"type": "string"
						},
						{
							"internalType": "uint256",
							"name": "manufactureDate",
							"type": "uint256"
						},
						{
							"internalType": "address",
							"name": "currentOwner",
							"type": "address"
						},
						{
							"internalType": "bool",
							"name": "exists",
							"type": "bool"
						},
						{
							"internalType": "bool",
							"name": "decommissioned",
							"type": "bool"
						}
					],
					"stateMutability": "view",
					"type": "function"
				},
				{
					"inputs": [],
					"name": "getDevice",
					"outputs": [],
					"stateMutability": "nonpayable",
					"type": "function"
				},
				{
					"inputs": [],
					"name": "oem",
					"outputs": [
						{
							"internalType": "address",
							"name": "",
							"type": "address"
						}
					],
					"stateMutability": "view",
					"type": "function"
				},
				{
					"inputs": [],
					"name": "registerComponent",
					"outputs": [],
					"stateMutability": "nonpayable",
					"type": "function"
				},
				{
					"inputs": [
						{
							"internalType": "string",
							"name": "_serialNumber",
							"type": "string"
						},
						{
							"internalType": "string",
							"name": "_imei",
							"type": "string"
						},
						{
							"internalType": "string",
							"name": "_model",
							"type": "string"
						}
					],
					"name": "registerDevice",
					"outputs": [],
					"stateMutability": "nonpayable",
					"type": "function"
				},
				{
					"inputs": [],
					"name": "transferOwnership",
					"outputs": [],
					"stateMutability": "nonpayable",
					"type": "function"
				}
			],
			"devdoc": {
				"kind": "dev",
				"methods": {},
				"version": 1
			},
			"evm": {
				"assembly": "    /* \"contracts/DeviceRegistry.sol\":60:1472  contract DeviceRegistry{... */\n  mstore(0x40, 0x80)\n    /* \"contracts/DeviceRegistry.sol\":117:167  constructor () {... */\n  callvalue\n  dup1\n  iszero\n  tag_1\n  jumpi\n  revert(0x00, 0x00)\ntag_1:\n  pop\n    /* \"contracts/DeviceRegistry.sol\":149:159  msg.sender */\n  caller\n    /* \"contracts/DeviceRegistry.sol\":143:146  oem */\n  0x00\n  0x00\n    /* \"contracts/DeviceRegistry.sol\":143:159  oem = msg.sender */\n  0x0100\n  exp\n  dup2\n  sload\n  dup2\n  0xffffffffffffffffffffffffffffffffffffffff\n  mul\n  not\n  and\n  swap1\n  dup4\n  0xffffffffffffffffffffffffffffffffffffffff\n  and\n  mul\n  or\n  swap1\n  sstore\n  pop\n    /* \"contracts/DeviceRegistry.sol\":60:1472  contract DeviceRegistry{... */\n  dataSize(sub_0)\n  dup1\n  dataOffset(sub_0)\n  0x00\n  codecopy\n  0x00\n  return\nstop\n\nsub_0: assembly {\n        /* \"contracts/DeviceRegistry.sol\":60:1472  contract DeviceRegistry{... */\n      mstore(0x40, 0x80)\n      callvalue\n      dup1\n      iszero\n      tag_1\n      jumpi\n      revert(0x00, 0x00)\n    tag_1:\n      pop\n      jumpi(tag_2, lt(calldatasize, 0x04))\n      shr(0xe0, calldataload(0x00))\n      dup1\n      0xaccf8a97\n      gt\n      tag_13\n      jumpi\n      dup1\n      0xaccf8a97\n      eq\n      tag_8\n      jumpi\n      dup1\n      0xbceaa96a\n      eq\n      tag_9\n      jumpi\n      dup1\n      0xc5c400de\n      eq\n      tag_10\n      jumpi\n      dup1\n      0xe96f2fd8\n      eq\n      tag_11\n      jumpi\n      dup1\n      0xfb86145b\n      eq\n      tag_12\n      jumpi\n      jump(tag_2)\n    tag_13:\n      dup1\n      0x1a4999c9\n      eq\n      tag_3\n      jumpi\n      dup1\n      0x4c5d8e76\n      eq\n      tag_4\n      jumpi\n      dup1\n      0x7f068c0f\n      eq\n      tag_5\n      jumpi\n      dup1\n      0x880ad0af\n      eq\n      tag_6\n      jumpi\n      dup1\n      0x8ea286c2\n      eq\n      tag_7\n      jumpi\n    tag_2:\n      revert(0x00, 0x00)\n        /* \"contracts/DeviceRegistry.sol\":704:751  mapping(bytes32 => Component) public components */\n    tag_3:\n      tag_14\n      0x04\n      dup1\n      calldatasize\n      sub\n      dup2\n      add\n      swap1\n      tag_15\n      swap2\n      swap1\n      tag_16\n      jump\t// in\n    tag_15:\n      tag_17\n      jump\t// in\n    tag_14:\n      mload(0x40)\n      tag_18\n      swap5\n      swap4\n      swap3\n      swap2\n      swap1\n      tag_19\n      jump\t// in\n    tag_18:\n      mload(0x40)\n      dup1\n      swap2\n      sub\n      swap1\n      return\n        /* \"contracts/DeviceRegistry.sol\":1306:1355  function deviceExists() public onlyOEM {... */\n    tag_4:\n      tag_20\n      tag_21\n      jump\t// in\n    tag_20:\n      stop\n        /* \"contracts/DeviceRegistry.sol\":1249:1298  function decommission() public onlyOEM {... */\n    tag_5:\n      tag_22\n      tag_23\n      jump\t// in\n    tag_22:\n      stop\n        /* \"contracts/DeviceRegistry.sol\":1187:1241  function transferOwnership() public onlyOEM {... */\n    tag_6:\n      tag_24\n      tag_25\n      jump\t// in\n    tag_24:\n      stop\n        /* \"contracts/DeviceRegistry.sol\":1423:1469  function getDevice() public onlyOEM {... */\n    tag_7:\n      tag_26\n      tag_27\n      jump\t// in\n    tag_26:\n      stop\n        /* \"contracts/DeviceRegistry.sol\":1125:1179  function registerComponent() public onlyOEM {... */\n    tag_8:\n      tag_28\n      tag_29\n      jump\t// in\n    tag_28:\n      stop\n        /* \"contracts/DeviceRegistry.sol\":760:1117  function registerDevice(string memory _serialNumber, string memory _imei, string memory _model) public onlyOEM {... */\n    tag_9:\n      tag_30\n      0x04\n      dup1\n      calldatasize\n      sub\n      dup2\n      add\n      swap1\n      tag_31\n      swap2\n      swap1\n      tag_32\n      jump\t// in\n    tag_31:\n      tag_33\n      jump\t// in\n    tag_30:\n      stop\n        /* \"contracts/DeviceRegistry.sol\":655:697  mapping(bytes32 => Device) public  devices */\n    tag_10:\n      tag_34\n      0x04\n      dup1\n      calldatasize\n      sub\n      dup2\n      add\n      swap1\n      tag_35\n      swap2\n      swap1\n      tag_16\n      jump\t// in\n    tag_35:\n      tag_36\n      jump\t// in\n    tag_34:\n      mload(0x40)\n      tag_37\n      swap8\n      swap7\n      swap6\n      swap5\n      swap4\n      swap3\n      swap2\n      swap1\n      tag_38\n      jump\t// in\n    tag_37:\n      mload(0x40)\n      dup1\n      swap2\n      sub\n      swap1\n      return\n        /* \"contracts/DeviceRegistry.sol\":90:108  address public oem */\n    tag_11:\n      tag_39\n      tag_40\n      jump\t// in\n    tag_39:\n      mload(0x40)\n      tag_41\n      swap2\n      swap1\n      tag_42\n      jump\t// in\n    tag_41:\n      mload(0x40)\n      dup1\n      swap2\n      sub\n      swap1\n      return\n        /* \"contracts/DeviceRegistry.sol\":1363:1415  function componentExists() public onlyOEM {... */\n    tag_12:\n      tag_43\n      tag_44\n      jump\t// in\n    tag_43:\n      stop\n        /* \"contracts/DeviceRegistry.sol\":704:751  mapping(bytes32 => Component) public components */\n    tag_17:\n      mstore(0x20, 0x02)\n      dup1\n      0x00\n      mstore\n      keccak256(0x00, 0x40)\n      0x00\n      swap2\n      pop\n      swap1\n      pop\n      dup1\n      0x00\n      add\n      dup1\n      sload\n      tag_45\n      swap1\n      tag_46\n      jump\t// in\n    tag_45:\n      dup1\n      0x1f\n      add\n      0x20\n      dup1\n      swap2\n      div\n      mul\n      0x20\n      add\n      mload(0x40)\n      swap1\n      dup2\n      add\n      0x40\n      mstore\n      dup1\n      swap3\n      swap2\n      swap1\n      dup2\n      dup2\n      mstore\n      0x20\n      add\n      dup3\n      dup1\n      sload\n      tag_47\n      swap1\n      tag_46\n      jump\t// in\n    tag_47:\n      dup1\n      iszero\n      tag_48\n      jumpi\n      dup1\n      0x1f\n      lt\n      tag_49\n      jumpi\n      0x0100\n      dup1\n      dup4\n      sload\n      div\n      mul\n      dup4\n      mstore\n      swap2\n      0x20\n      add\n      swap2\n      jump(tag_48)\n    tag_49:\n      dup3\n      add\n      swap2\n      swap1\n      0x00\n      mstore\n      keccak256(0x00, 0x20)\n      swap1\n    tag_50:\n      dup2\n      sload\n      dup2\n      mstore\n      swap1\n      0x01\n      add\n      swap1\n      0x20\n      add\n      dup1\n      dup4\n      gt\n      tag_50\n      jumpi\n      dup3\n      swap1\n      sub\n      0x1f\n      and\n      dup3\n      add\n      swap2\n    tag_48:\n      pop\n      pop\n      pop\n      pop\n      pop\n      swap1\n      dup1\n      0x01\n      add\n      dup1\n      sload\n      tag_51\n      swap1\n      tag_46\n      jump\t// in\n    tag_51:\n      dup1\n      0x1f\n      add\n      0x20\n      dup1\n      swap2\n      div\n      mul\n      0x20\n      add\n      mload(0x40)\n      swap1\n      dup2\n      add\n      0x40\n      mstore\n      dup1\n      swap3\n      swap2\n      swap1\n      dup2\n      dup2\n      mstore\n      0x20\n      add\n      dup3\n      dup1\n      sload\n      tag_52\n      swap1\n      tag_46\n      jump\t// in\n    tag_52:\n      dup1\n      iszero\n      tag_53\n      jumpi\n      dup1\n      0x1f\n      lt\n      tag_54\n      jumpi\n      0x0100\n      dup1\n      dup4\n      sload\n      div\n      mul\n      dup4\n      mstore\n      swap2\n      0x20\n      add\n      swap2\n      jump(tag_53)\n    tag_54:\n      dup3\n      add\n      swap2\n      swap1\n      0x00\n      mstore\n      keccak256(0x00, 0x20)\n      swap1\n    tag_55:\n      dup2\n      sload\n      dup2\n      mstore\n      swap1\n      0x01\n      add\n      swap1\n      0x20\n      add\n      dup1\n      dup4\n      gt\n      tag_55\n      jumpi\n      dup3\n      swap1\n      sub\n      0x1f\n      and\n      dup3\n      add\n      swap2\n    tag_53:\n      pop\n      pop\n      pop\n      pop\n      pop\n      swap1\n      dup1\n      0x02\n      add\n      sload\n      swap1\n      dup1\n      0x03\n      add\n      0x00\n      swap1\n      sload\n      swap1\n      0x0100\n      exp\n      swap1\n      div\n      0xff\n      and\n      swap1\n      pop\n      dup5\n      jump\t// out\n        /* \"contracts/DeviceRegistry.sol\":1306:1355  function deviceExists() public onlyOEM {... */\n    tag_21:\n        /* \"contracts/DeviceRegistry.sol\":597:600  oem */\n      0x00\n      0x00\n      swap1\n      sload\n      swap1\n      0x0100\n      exp\n      swap1\n      div\n      0xffffffffffffffffffffffffffffffffffffffff\n      and\n        /* \"contracts/DeviceRegistry.sol\":583:600  msg.sender == oem */\n      0xffffffffffffffffffffffffffffffffffffffff\n      and\n        /* \"contracts/DeviceRegistry.sol\":583:593  msg.sender */\n      caller\n        /* \"contracts/DeviceRegistry.sol\":583:600  msg.sender == oem */\n      0xffffffffffffffffffffffffffffffffffffffff\n      and\n      eq\n        /* \"contracts/DeviceRegistry.sol\":575:627  require(msg.sender == oem, \"Only OEM can call this\") */\n      tag_57\n      jumpi\n      mload(0x40)\n      0x08c379a000000000000000000000000000000000000000000000000000000000\n      dup2\n      mstore\n      0x04\n      add\n      tag_58\n      swap1\n      tag_59\n      jump\t// in\n    tag_58:\n      mload(0x40)\n      dup1\n      swap2\n      sub\n      swap1\n      revert\n    tag_57:\n        /* \"contracts/DeviceRegistry.sol\":1306:1355  function deviceExists() public onlyOEM {... */\n      jump\t// out\n        /* \"contracts/DeviceRegistry.sol\":1249:1298  function decommission() public onlyOEM {... */\n    tag_23:\n        /* \"contracts/DeviceRegistry.sol\":597:600  oem */\n      0x00\n      0x00\n      swap1\n      sload\n      swap1\n      0x0100\n      exp\n      swap1\n      div\n      0xffffffffffffffffffffffffffffffffffffffff\n      and\n        /* \"contracts/DeviceRegistry.sol\":583:600  msg.sender == oem */\n      0xffffffffffffffffffffffffffffffffffffffff\n      and\n        /* \"contracts/DeviceRegistry.sol\":583:593  msg.sender */\n      caller\n        /* \"contracts/DeviceRegistry.sol\":583:600  msg.sender == oem */\n      0xffffffffffffffffffffffffffffffffffffffff\n      and\n      eq\n        /* \"contracts/DeviceRegistry.sol\":575:627  require(msg.sender == oem, \"Only OEM can call this\") */\n      tag_62\n      jumpi\n      mload(0x40)\n      0x08c379a000000000000000000000000000000000000000000000000000000000\n      dup2\n      mstore\n      0x04\n      add\n      tag_63\n      swap1\n      tag_59\n      jump\t// in\n    tag_63:\n      mload(0x40)\n      dup1\n      swap2\n      sub\n      swap1\n      revert\n    tag_62:\n        /* \"contracts/DeviceRegistry.sol\":1249:1298  function decommission() public onlyOEM {... */\n      jump\t// out\n        /* \"contracts/DeviceRegistry.sol\":1187:1241  function transferOwnership() public onlyOEM {... */\n    tag_25:\n        /* \"contracts/DeviceRegistry.sol\":597:600  oem */\n      0x00\n      0x00\n      swap1\n      sload\n      swap1\n      0x0100\n      exp\n      swap1\n      div\n      0xffffffffffffffffffffffffffffffffffffffff\n      and\n        /* \"contracts/DeviceRegistry.sol\":583:600  msg.sender == oem */\n      0xffffffffffffffffffffffffffffffffffffffff\n      and\n        /* \"contracts/DeviceRegistry.sol\":583:593  msg.sender */\n      caller\n        /* \"contracts/DeviceRegistry.sol\":583:600  msg.sender == oem */\n      0xffffffffffffffffffffffffffffffffffffffff\n      and\n      eq\n        /* \"contracts/DeviceRegistry.sol\":575:627  require(msg.sender == oem, \"Only OEM can call this\") */\n      tag_66\n      jumpi\n      mload(0x40)\n      0x08c379a000000000000000000000000000000000000000000000000000000000\n      dup2\n      mstore\n      0x04\n      add\n      tag_67\n      swap1\n      tag_59\n      jump\t// in\n    tag_67:\n      mload(0x40)\n      dup1\n      swap2\n      sub\n      swap1\n      revert\n    tag_66:\n        /* \"contracts/DeviceRegistry.sol\":1187:1241  function transferOwnership() public onlyOEM {... */\n      jump\t// out\n        /* \"contracts/DeviceRegistry.sol\":1423:1469  function getDevice() public onlyOEM {... */\n    tag_27:\n        /* \"contracts/DeviceRegistry.sol\":597:600  oem */\n      0x00\n      0x00\n      swap1\n      sload\n      swap1\n      0x0100\n      exp\n      swap1\n      div\n      0xffffffffffffffffffffffffffffffffffffffff\n      and\n        /* \"contracts/DeviceRegistry.sol\":583:600  msg.sender == oem */\n      0xffffffffffffffffffffffffffffffffffffffff\n      and\n        /* \"contracts/DeviceRegistry.sol\":583:593  msg.sender */\n      caller\n        /* \"contracts/DeviceRegistry.sol\":583:600  msg.sender == oem */\n      0xffffffffffffffffffffffffffffffffffffffff\n      and\n      eq\n        /* \"contracts/DeviceRegistry.sol\":575:627  require(msg.sender == oem, \"Only OEM can call this\") */\n      tag_70\n      jumpi\n      mload(0x40)\n      0x08c379a000000000000000000000000000000000000000000000000000000000\n      dup2\n      mstore\n      0x04\n      add\n      tag_71\n      swap1\n      tag_59\n      jump\t// in\n    tag_71:\n      mload(0x40)\n      dup1\n      swap2\n      sub\n      swap1\n      revert\n    tag_70:\n        /* \"contracts/DeviceRegistry.sol\":1423:1469  function getDevice() public onlyOEM {... */\n      jump\t// out\n        /* \"contracts/DeviceRegistry.sol\":1125:1179  function registerComponent() public onlyOEM {... */\n    tag_29:\n        /* \"contracts/DeviceRegistry.sol\":597:600  oem */\n      0x00\n      0x00\n      swap1\n      sload\n      swap1\n      0x0100\n      exp\n      swap1\n      div\n      0xffffffffffffffffffffffffffffffffffffffff\n      and\n        /* \"contracts/DeviceRegistry.sol\":583:600  msg.sender == oem */\n      0xffffffffffffffffffffffffffffffffffffffff\n      and\n        /* \"contracts/DeviceRegistry.sol\":583:593  msg.sender */\n      caller\n        /* \"contracts/DeviceRegistry.sol\":583:600  msg.sender == oem */\n      0xffffffffffffffffffffffffffffffffffffffff\n      and\n      eq\n        /* \"contracts/DeviceRegistry.sol\":575:627  require(msg.sender == oem, \"Only OEM can call this\") */\n      tag_74\n      jumpi\n      mload(0x40)\n      0x08c379a000000000000000000000000000000000000000000000000000000000\n      dup2\n      mstore\n      0x04\n      add\n      tag_75\n      swap1\n      tag_59\n      jump\t// in\n    tag_75:\n      mload(0x40)\n      dup1\n      swap2\n      sub\n      swap1\n      revert\n    tag_74:\n        /* \"contracts/DeviceRegistry.sol\":1125:1179  function registerComponent() public onlyOEM {... */\n      jump\t// out\n        /* \"contracts/DeviceRegistry.sol\":760:1117  function registerDevice(string memory _serialNumber, string memory _imei, string memory _model) public onlyOEM {... */\n    tag_33:\n        /* \"contracts/DeviceRegistry.sol\":597:600  oem */\n      0x00\n      0x00\n      swap1\n      sload\n      swap1\n      0x0100\n      exp\n      swap1\n      div\n      0xffffffffffffffffffffffffffffffffffffffff\n      and\n        /* \"contracts/DeviceRegistry.sol\":583:600  msg.sender == oem */\n      0xffffffffffffffffffffffffffffffffffffffff\n      and\n        /* \"contracts/DeviceRegistry.sol\":583:593  msg.sender */\n      caller\n        /* \"contracts/DeviceRegistry.sol\":583:600  msg.sender == oem */\n      0xffffffffffffffffffffffffffffffffffffffff\n      and\n      eq\n        /* \"contracts/DeviceRegistry.sol\":575:627  require(msg.sender == oem, \"Only OEM can call this\") */\n      tag_78\n      jumpi\n      mload(0x40)\n      0x08c379a000000000000000000000000000000000000000000000000000000000\n      dup2\n      mstore\n      0x04\n      add\n      tag_79\n      swap1\n      tag_59\n      jump\t// in\n    tag_79:\n      mload(0x40)\n      dup1\n      swap2\n      sub\n      swap1\n      revert\n    tag_78:\n        /* \"contracts/DeviceRegistry.sol\":882:892  bytes32 id */\n      0x00\n        /* \"contracts/DeviceRegistry.sol\":922:935  _serialNumber */\n      dup4\n        /* \"contracts/DeviceRegistry.sol\":905:936  abi.encodePacked(_serialNumber) */\n      add(0x20, mload(0x40))\n      tag_81\n      swap2\n      swap1\n      tag_82\n      jump\t// in\n    tag_81:\n      mload(0x40)\n      0x20\n      dup2\n      dup4\n      sub\n      sub\n      dup2\n      mstore\n      swap1\n      0x40\n      mstore\n        /* \"contracts/DeviceRegistry.sol\":895:937  keccak256(abi.encodePacked(_serialNumber)) */\n      dup1\n      mload\n      swap1\n      0x20\n      add\n      keccak256\n        /* \"contracts/DeviceRegistry.sol\":882:937  bytes32 id = keccak256(abi.encodePacked(_serialNumber)) */\n      swap1\n      pop\n        /* \"contracts/DeviceRegistry.sol\":957:964  devices */\n      0x01\n        /* \"contracts/DeviceRegistry.sol\":957:969  devices [id] */\n      0x00\n        /* \"contracts/DeviceRegistry.sol\":966:968  id */\n      dup3\n        /* \"contracts/DeviceRegistry.sol\":957:969  devices [id] */\n      dup2\n      mstore\n      0x20\n      add\n      swap1\n      dup2\n      mstore\n      0x20\n      add\n      0x00\n      keccak256\n        /* \"contracts/DeviceRegistry.sol\":957:976  devices [id].exists */\n      0x04\n      add\n      0x14\n      swap1\n      sload\n      swap1\n      0x0100\n      exp\n      swap1\n      div\n      0xff\n      and\n        /* \"contracts/DeviceRegistry.sol\":956:976  !devices [id].exists */\n      iszero\n        /* \"contracts/DeviceRegistry.sol\":948:1006  require(!devices [id].exists, \"Device already registered\") */\n      tag_83\n      jumpi\n      mload(0x40)\n      0x08c379a000000000000000000000000000000000000000000000000000000000\n      dup2\n      mstore\n      0x04\n      add\n      tag_84\n      swap1\n      tag_85\n      jump\t// in\n    tag_84:\n      mload(0x40)\n      dup1\n      swap2\n      sub\n      swap1\n      revert\n    tag_83:\n        /* \"contracts/DeviceRegistry.sol\":1031:1109  Device (_serialNumber, _imei, _model, block.timestamp,msg.sender, true, false) */\n      mload(0x40)\n      dup1\n      0xe0\n      add\n      0x40\n      mstore\n      dup1\n        /* \"contracts/DeviceRegistry.sol\":1039:1052  _serialNumber */\n      dup6\n        /* \"contracts/DeviceRegistry.sol\":1031:1109  Device (_serialNumber, _imei, _model, block.timestamp,msg.sender, true, false) */\n      dup2\n      mstore\n      0x20\n      add\n        /* \"contracts/DeviceRegistry.sol\":1054:1059  _imei */\n      dup5\n        /* \"contracts/DeviceRegistry.sol\":1031:1109  Device (_serialNumber, _imei, _model, block.timestamp,msg.sender, true, false) */\n      dup2\n      mstore\n      0x20\n      add\n        /* \"contracts/DeviceRegistry.sol\":1061:1067  _model */\n      dup4\n        /* \"contracts/DeviceRegistry.sol\":1031:1109  Device (_serialNumber, _imei, _model, block.timestamp,msg.sender, true, false) */\n      dup2\n      mstore\n      0x20\n      add\n        /* \"contracts/DeviceRegistry.sol\":1069:1084  block.timestamp */\n      timestamp\n        /* \"contracts/DeviceRegistry.sol\":1031:1109  Device (_serialNumber, _imei, _model, block.timestamp,msg.sender, true, false) */\n      dup2\n      mstore\n      0x20\n      add\n        /* \"contracts/DeviceRegistry.sol\":1085:1095  msg.sender */\n      caller\n        /* \"contracts/DeviceRegistry.sol\":1031:1109  Device (_serialNumber, _imei, _model, block.timestamp,msg.sender, true, false) */\n      0xffffffffffffffffffffffffffffffffffffffff\n      and\n      dup2\n      mstore\n      0x20\n      add\n        /* \"contracts/DeviceRegistry.sol\":1097:1101  true */\n      0x01\n        /* \"contracts/DeviceRegistry.sol\":1031:1109  Device (_serialNumber, _imei, _model, block.timestamp,msg.sender, true, false) */\n      iszero\n      iszero\n      dup2\n      mstore\n      0x20\n      add\n        /* \"contracts/DeviceRegistry.sol\":1103:1108  false */\n      0x00\n        /* \"contracts/DeviceRegistry.sol\":1031:1109  Device (_serialNumber, _imei, _model, block.timestamp,msg.sender, true, false) */\n      iszero\n      iszero\n      dup2\n      mstore\n      pop\n        /* \"contracts/DeviceRegistry.sol\":1017:1024  devices */\n      0x01\n        /* \"contracts/DeviceRegistry.sol\":1017:1028  devices[id] */\n      0x00\n        /* \"contracts/DeviceRegistry.sol\":1025:1027  id */\n      dup4\n        /* \"contracts/DeviceRegistry.sol\":1017:1028  devices[id] */\n      dup2\n      mstore\n      0x20\n      add\n      swap1\n      dup2\n      mstore\n      0x20\n      add\n      0x00\n      keccak256\n        /* \"contracts/DeviceRegistry.sol\":1017:1109  devices[id] = Device (_serialNumber, _imei, _model, block.timestamp,msg.sender, true, false) */\n      0x00\n      dup3\n      add\n      mload\n      dup2\n      0x00\n      add\n      swap1\n      dup2\n      tag_86\n      swap2\n      swap1\n      tag_87\n      jump\t// in\n    tag_86:\n      pop\n      0x20\n      dup3\n      add\n      mload\n      dup2\n      0x01\n      add\n      swap1\n      dup2\n      tag_88\n      swap2\n      swap1\n      tag_87\n      jump\t// in\n    tag_88:\n      pop\n      0x40\n      dup3\n      add\n      mload\n      dup2\n      0x02\n      add\n      swap1\n      dup2\n      tag_89\n      swap2\n      swap1\n      tag_87\n      jump\t// in\n    tag_89:\n      pop\n      0x60\n      dup3\n      add\n      mload\n      dup2\n      0x03\n      add\n      sstore\n      0x80\n      dup3\n      add\n      mload\n      dup2\n      0x04\n      add\n      exp(0x0100, 0x00)\n      dup2\n      sload\n      dup2\n      0xffffffffffffffffffffffffffffffffffffffff\n      mul\n      not\n      and\n      swap1\n      dup4\n      0xffffffffffffffffffffffffffffffffffffffff\n      and\n      mul\n      or\n      swap1\n      sstore\n      pop\n      0xa0\n      dup3\n      add\n      mload\n      dup2\n      0x04\n      add\n      exp(0x0100, 0x14)\n      dup2\n      sload\n      dup2\n      0xff\n      mul\n      not\n      and\n      swap1\n      dup4\n      iszero\n      iszero\n      mul\n      or\n      swap1\n      sstore\n      pop\n      0xc0\n      dup3\n      add\n      mload\n      dup2\n      0x04\n      add\n      exp(0x0100, 0x15)\n      dup2\n      sload\n      dup2\n      0xff\n      mul\n      not\n      and\n      swap1\n      dup4\n      iszero\n      iszero\n      mul\n      or\n      swap1\n      sstore\n      pop\n      swap1\n      pop\n      pop\n        /* \"contracts/DeviceRegistry.sol\":871:1117  {... */\n      pop\n        /* \"contracts/DeviceRegistry.sol\":760:1117  function registerDevice(string memory _serialNumber, string memory _imei, string memory _model) public onlyOEM {... */\n      pop\n      pop\n      pop\n      jump\t// out\n        /* \"contracts/DeviceRegistry.sol\":655:697  mapping(bytes32 => Device) public  devices */\n    tag_36:\n      mstore(0x20, 0x01)\n      dup1\n      0x00\n      mstore\n      keccak256(0x00, 0x40)\n      0x00\n      swap2\n      pop\n      swap1\n      pop\n      dup1\n      0x00\n      add\n      dup1\n      sload\n      tag_90\n      swap1\n      tag_46\n      jump\t// in\n    tag_90:\n      dup1\n      0x1f\n      add\n      0x20\n      dup1\n      swap2\n      div\n      mul\n      0x20\n      add\n      mload(0x40)\n      swap1\n      dup2\n      add\n      0x40\n      mstore\n      dup1\n      swap3\n      swap2\n      swap1\n      dup2\n      dup2\n      mstore\n      0x20\n      add\n      dup3\n      dup1\n      sload\n      tag_91\n      swap1\n      tag_46\n      jump\t// in\n    tag_91:\n      dup1\n      iszero\n      tag_92\n      jumpi\n      dup1\n      0x1f\n      lt\n      tag_93\n      jumpi\n      0x0100\n      dup1\n      dup4\n      sload\n      div\n      mul\n      dup4\n      mstore\n      swap2\n      0x20\n      add\n      swap2\n      jump(tag_92)\n    tag_93:\n      dup3\n      add\n      swap2\n      swap1\n      0x00\n      mstore\n      keccak256(0x00, 0x20)\n      swap1\n    tag_94:\n      dup2\n      sload\n      dup2\n      mstore\n      swap1\n      0x01\n      add\n      swap1\n      0x20\n      add\n      dup1\n      dup4\n      gt\n      tag_94\n      jumpi\n      dup3\n      swap1\n      sub\n      0x1f\n      and\n      dup3\n      add\n      swap2\n    tag_92:\n      pop\n      pop\n      pop\n      pop\n      pop\n      swap1\n      dup1\n      0x01\n      add\n      dup1\n      sload\n      tag_95\n      swap1\n      tag_46\n      jump\t// in\n    tag_95:\n      dup1\n      0x1f\n      add\n      0x20\n      dup1\n      swap2\n      div\n      mul\n      0x20\n      add\n      mload(0x40)\n      swap1\n      dup2\n      add\n      0x40\n      mstore\n      dup1\n      swap3\n      swap2\n      swap1\n      dup2\n      dup2\n      mstore\n      0x20\n      add\n      dup3\n      dup1\n      sload\n      tag_96\n      swap1\n      tag_46\n      jump\t// in\n    tag_96:\n      dup1\n      iszero\n      tag_97\n      jumpi\n      dup1\n      0x1f\n      lt\n      tag_98\n      jumpi\n      0x0100\n      dup1\n      dup4\n      sload\n      div\n      mul\n      dup4\n      mstore\n      swap2\n      0x20\n      add\n      swap2\n      jump(tag_97)\n    tag_98:\n      dup3\n      add\n      swap2\n      swap1\n      0x00\n      mstore\n      keccak256(0x00, 0x20)\n      swap1\n    tag_99:\n      dup2\n      sload\n      dup2\n      mstore\n      swap1\n      0x01\n      add\n      swap1\n      0x20\n      add\n      dup1\n      dup4\n      gt\n      tag_99\n      jumpi\n      dup3\n      swap1\n      sub\n      0x1f\n      and\n      dup3\n      add\n      swap2\n    tag_97:\n      pop\n      pop\n      pop\n      pop\n      pop\n      swap1\n      dup1\n      0x02\n      add\n      dup1\n      sload\n      tag_100\n      swap1\n      tag_46\n      jump\t// in\n    tag_100:\n      dup1\n      0x1f\n      add\n      0x20\n      dup1\n      swap2\n      div\n      mul\n      0x20\n      add\n      mload(0x40)\n      swap1\n      dup2\n      add\n      0x40\n      mstore\n      dup1\n      swap3\n      swap2\n      swap1\n      dup2\n      dup2\n      mstore\n      0x20\n      add\n      dup3\n      dup1\n      sload\n      tag_101\n      swap1\n      tag_46\n      jump\t// in\n    tag_101:\n      dup1\n      iszero\n      tag_102\n      jumpi\n      dup1\n      0x1f\n      lt\n      tag_103\n      jumpi\n      0x0100\n      dup1\n      dup4\n      sload\n      div\n      mul\n      dup4\n      mstore\n      swap2\n      0x20\n      add\n      swap2\n      jump(tag_102)\n    tag_103:\n      dup3\n      add\n      swap2\n      swap1\n      0x00\n      mstore\n      keccak256(0x00, 0x20)\n      swap1\n    tag_104:\n      dup2\n      sload\n      dup2\n      mstore\n      swap1\n      0x01\n      add\n      swap1\n      0x20\n      add\n      dup1\n      dup4\n      gt\n      tag_104\n      jumpi\n      dup3\n      swap1\n      sub\n      0x1f\n      and\n      dup3\n      add\n      swap2\n    tag_102:\n      pop\n      pop\n      pop\n      pop\n      pop\n      swap1\n      dup1\n      0x03\n      add\n      sload\n      swap1\n      dup1\n      0x04\n      add\n      0x00\n      swap1\n      sload\n      swap1\n      0x0100\n      exp\n      swap1\n      div\n      0xffffffffffffffffffffffffffffffffffffffff\n      and\n      swap1\n      dup1\n      0x04\n      add\n      0x14\n      swap1\n      sload\n      swap1\n      0x0100\n      exp\n      swap1\n      div\n      0xff\n      and\n      swap1\n      dup1\n      0x04\n      add\n      0x15\n      swap1\n      sload\n      swap1\n      0x0100\n      exp\n      swap1\n      div\n      0xff\n      and\n      swap1\n      pop\n      dup8\n      jump\t// out\n        /* \"contracts/DeviceRegistry.sol\":90:108  address public oem */\n    tag_40:\n      0x00\n      0x00\n      swap1\n      sload\n      swap1\n      0x0100\n      exp\n      swap1\n      div\n      0xffffffffffffffffffffffffffffffffffffffff\n      and\n      dup2\n      jump\t// out\n        /* \"contracts/DeviceRegistry.sol\":1363:1415  function componentExists() public onlyOEM {... */\n    tag_44:\n        /* \"contracts/DeviceRegistry.sol\":597:600  oem */\n      0x00\n      0x00\n      swap1\n      sload\n      swap1\n      0x0100\n      exp\n      swap1\n      div\n      0xffffffffffffffffffffffffffffffffffffffff\n      and\n        /* \"contracts/DeviceRegistry.sol\":583:600  msg.sender == oem */\n      0xffffffffffffffffffffffffffffffffffffffff\n      and\n        /* \"contracts/DeviceRegistry.sol\":583:593  msg.sender */\n      caller\n        /* \"contracts/DeviceRegistry.sol\":583:600  msg.sender == oem */\n      0xffffffffffffffffffffffffffffffffffffffff\n      and\n      eq\n        /* \"contracts/DeviceRegistry.sol\":575:627  require(msg.sender == oem, \"Only OEM can call this\") */\n      tag_106\n      jumpi\n      mload(0x40)\n      0x08c379a000000000000000000000000000000000000000000000000000000000\n      dup2\n      mstore\n      0x04\n      add\n      tag_107\n      swap1\n      tag_59\n      jump\t// in\n    tag_107:\n      mload(0x40)\n      dup1\n      swap2\n      sub\n      swap1\n      revert\n    tag_106:\n        /* \"contracts/DeviceRegistry.sol\":1363:1415  function componentExists() public onlyOEM {... */\n      jump\t// out\n        /* \"#utility.yul\":7:82   */\n    tag_109:\n        /* \"#utility.yul\":40:46   */\n      0x00\n        /* \"#utility.yul\":73:75   */\n      0x40\n        /* \"#utility.yul\":67:76   */\n      mload\n        /* \"#utility.yul\":57:76   */\n      swap1\n      pop\n        /* \"#utility.yul\":7:82   */\n      swap1\n      jump\t// out\n        /* \"#utility.yul\":88:205   */\n    tag_110:\n        /* \"#utility.yul\":197:198   */\n      0x00\n        /* \"#utility.yul\":194:195   */\n      0x00\n        /* \"#utility.yul\":187:199   */\n      revert\n        /* \"#utility.yul\":211:328   */\n    tag_111:\n        /* \"#utility.yul\":320:321   */\n      0x00\n        /* \"#utility.yul\":317:318   */\n      0x00\n        /* \"#utility.yul\":310:322   */\n      revert\n        /* \"#utility.yul\":334:411   */\n    tag_112:\n        /* \"#utility.yul\":371:378   */\n      0x00\n        /* \"#utility.yul\":400:405   */\n      dup2\n        /* \"#utility.yul\":389:405   */\n      swap1\n      pop\n        /* \"#utility.yul\":334:411   */\n      swap2\n      swap1\n      pop\n      jump\t// out\n        /* \"#utility.yul\":417:539   */\n    tag_113:\n        /* \"#utility.yul\":490:514   */\n      tag_164\n        /* \"#utility.yul\":508:513   */\n      dup2\n        /* \"#utility.yul\":490:514   */\n      tag_112\n      jump\t// in\n    tag_164:\n        /* \"#utility.yul\":483:488   */\n      dup2\n        /* \"#utility.yul\":480:515   */\n      eq\n        /* \"#utility.yul\":470:533   */\n      tag_165\n      jumpi\n        /* \"#utility.yul\":529:530   */\n      0x00\n        /* \"#utility.yul\":526:527   */\n      0x00\n        /* \"#utility.yul\":519:531   */\n      revert\n        /* \"#utility.yul\":470:533   */\n    tag_165:\n        /* \"#utility.yul\":417:539   */\n      pop\n      jump\t// out\n        /* \"#utility.yul\":545:684   */\n    tag_114:\n        /* \"#utility.yul\":591:596   */\n      0x00\n        /* \"#utility.yul\":629:635   */\n      dup2\n        /* \"#utility.yul\":616:636   */\n      calldataload\n        /* \"#utility.yul\":607:636   */\n      swap1\n      pop\n        /* \"#utility.yul\":645:678   */\n      tag_167\n        /* \"#utility.yul\":672:677   */\n      dup2\n        /* \"#utility.yul\":645:678   */\n      tag_113\n      jump\t// in\n    tag_167:\n        /* \"#utility.yul\":545:684   */\n      swap3\n      swap2\n      pop\n      pop\n      jump\t// out\n        /* \"#utility.yul\":690:1019   */\n    tag_16:\n        /* \"#utility.yul\":749:755   */\n      0x00\n        /* \"#utility.yul\":798:800   */\n      0x20\n        /* \"#utility.yul\":786:795   */\n      dup3\n        /* \"#utility.yul\":777:784   */\n      dup5\n        /* \"#utility.yul\":773:796   */\n      sub\n        /* \"#utility.yul\":769:801   */\n      slt\n        /* \"#utility.yul\":766:885   */\n      iszero\n      tag_169\n      jumpi\n        /* \"#utility.yul\":804:883   */\n      tag_170\n      tag_110\n      jump\t// in\n    tag_170:\n        /* \"#utility.yul\":766:885   */\n    tag_169:\n        /* \"#utility.yul\":924:925   */\n      0x00\n        /* \"#utility.yul\":949:1002   */\n      tag_171\n        /* \"#utility.yul\":994:1001   */\n      dup5\n        /* \"#utility.yul\":985:991   */\n      dup3\n        /* \"#utility.yul\":974:983   */\n      dup6\n        /* \"#utility.yul\":970:992   */\n      add\n        /* \"#utility.yul\":949:1002   */\n      tag_114\n      jump\t// in\n    tag_171:\n        /* \"#utility.yul\":939:1002   */\n      swap2\n      pop\n        /* \"#utility.yul\":895:1012   */\n      pop\n        /* \"#utility.yul\":690:1019   */\n      swap3\n      swap2\n      pop\n      pop\n      jump\t// out\n        /* \"#utility.yul\":1025:1124   */\n    tag_115:\n        /* \"#utility.yul\":1077:1083   */\n      0x00\n        /* \"#utility.yul\":1111:1116   */\n      dup2\n        /* \"#utility.yul\":1105:1117   */\n      mload\n        /* \"#utility.yul\":1095:1117   */\n      swap1\n      pop\n        /* \"#utility.yul\":1025:1124   */\n      swap2\n      swap1\n      pop\n      jump\t// out\n        /* \"#utility.yul\":1130:1299   */\n    tag_116:\n        /* \"#utility.yul\":1214:1225   */\n      0x00\n        /* \"#utility.yul\":1248:1254   */\n      dup3\n        /* \"#utility.yul\":1243:1246   */\n      dup3\n        /* \"#utility.yul\":1236:1255   */\n      mstore\n        /* \"#utility.yul\":1288:1292   */\n      0x20\n        /* \"#utility.yul\":1283:1286   */\n      dup3\n        /* \"#utility.yul\":1279:1293   */\n      add\n        /* \"#utility.yul\":1264:1293   */\n      swap1\n      pop\n        /* \"#utility.yul\":1130:1299   */\n      swap3\n      swap2\n      pop\n      pop\n      jump\t// out\n        /* \"#utility.yul\":1305:1444   */\n    tag_117:\n        /* \"#utility.yul\":1394:1400   */\n      dup3\n        /* \"#utility.yul\":1389:1392   */\n      dup2\n        /* \"#utility.yul\":1384:1387   */\n      dup4\n        /* \"#utility.yul\":1378:1401   */\n      mcopy\n        /* \"#utility.yul\":1435:1436   */\n      0x00\n        /* \"#utility.yul\":1426:1432   */\n      dup4\n        /* \"#utility.yul\":1421:1424   */\n      dup4\n        /* \"#utility.yul\":1417:1433   */\n      add\n        /* \"#utility.yul\":1410:1437   */\n      mstore\n        /* \"#utility.yul\":1305:1444   */\n      pop\n      pop\n      pop\n      jump\t// out\n        /* \"#utility.yul\":1450:1552   */\n    tag_118:\n        /* \"#utility.yul\":1491:1497   */\n      0x00\n        /* \"#utility.yul\":1542:1544   */\n      0x1f\n        /* \"#utility.yul\":1538:1545   */\n      not\n        /* \"#utility.yul\":1533:1535   */\n      0x1f\n        /* \"#utility.yul\":1526:1531   */\n      dup4\n        /* \"#utility.yul\":1522:1536   */\n      add\n        /* \"#utility.yul\":1518:1546   */\n      and\n        /* \"#utility.yul\":1508:1546   */\n      swap1\n      pop\n        /* \"#utility.yul\":1450:1552   */\n      swap2\n      swap1\n      pop\n      jump\t// out\n        /* \"#utility.yul\":1558:1935   */\n    tag_119:\n        /* \"#utility.yul\":1646:1649   */\n      0x00\n        /* \"#utility.yul\":1674:1713   */\n      tag_177\n        /* \"#utility.yul\":1707:1712   */\n      dup3\n        /* \"#utility.yul\":1674:1713   */\n      tag_115\n      jump\t// in\n    tag_177:\n        /* \"#utility.yul\":1729:1800   */\n      tag_178\n        /* \"#utility.yul\":1793:1799   */\n      dup2\n        /* \"#utility.yul\":1788:1791   */\n      dup6\n        /* \"#utility.yul\":1729:1800   */\n      tag_116\n      jump\t// in\n    tag_178:\n        /* \"#utility.yul\":1722:1800   */\n      swap4\n      pop\n        /* \"#utility.yul\":1809:1874   */\n      tag_179\n        /* \"#utility.yul\":1867:1873   */\n      dup2\n        /* \"#utility.yul\":1862:1865   */\n      dup6\n        /* \"#utility.yul\":1855:1859   */\n      0x20\n        /* \"#utility.yul\":1848:1853   */\n      dup7\n        /* \"#utility.yul\":1844:1860   */\n      add\n        /* \"#utility.yul\":1809:1874   */\n      tag_117\n      jump\t// in\n    tag_179:\n        /* \"#utility.yul\":1899:1928   */\n      tag_180\n        /* \"#utility.yul\":1921:1927   */\n      dup2\n        /* \"#utility.yul\":1899:1928   */\n      tag_118\n      jump\t// in\n    tag_180:\n        /* \"#utility.yul\":1894:1897   */\n      dup5\n        /* \"#utility.yul\":1890:1929   */\n      add\n        /* \"#utility.yul\":1883:1929   */\n      swap2\n      pop\n        /* \"#utility.yul\":1650:1935   */\n      pop\n        /* \"#utility.yul\":1558:1935   */\n      swap3\n      swap2\n      pop\n      pop\n      jump\t// out\n        /* \"#utility.yul\":1941:2018   */\n    tag_120:\n        /* \"#utility.yul\":1978:1985   */\n      0x00\n        /* \"#utility.yul\":2007:2012   */\n      dup2\n        /* \"#utility.yul\":1996:2012   */\n      swap1\n      pop\n        /* \"#utility.yul\":1941:2018   */\n      swap2\n      swap1\n      pop\n      jump\t// out\n        /* \"#utility.yul\":2024:2142   */\n    tag_121:\n        /* \"#utility.yul\":2111:2135   */\n      tag_183\n        /* \"#utility.yul\":2129:2134   */\n      dup2\n        /* \"#utility.yul\":2111:2135   */\n      tag_120\n      jump\t// in\n    tag_183:\n        /* \"#utility.yul\":2106:2109   */\n      dup3\n        /* \"#utility.yul\":2099:2136   */\n      mstore\n        /* \"#utility.yul\":2024:2142   */\n      pop\n      pop\n      jump\t// out\n        /* \"#utility.yul\":2148:2238   */\n    tag_122:\n        /* \"#utility.yul\":2182:2189   */\n      0x00\n        /* \"#utility.yul\":2225:2230   */\n      dup2\n        /* \"#utility.yul\":2218:2231   */\n      iszero\n        /* \"#utility.yul\":2211:2232   */\n      iszero\n        /* \"#utility.yul\":2200:2232   */\n      swap1\n      pop\n        /* \"#utility.yul\":2148:2238   */\n      swap2\n      swap1\n      pop\n      jump\t// out\n        /* \"#utility.yul\":2244:2353   */\n    tag_123:\n        /* \"#utility.yul\":2325:2346   */\n      tag_186\n        /* \"#utility.yul\":2340:2345   */\n      dup2\n        /* \"#utility.yul\":2325:2346   */\n      tag_122\n      jump\t// in\n    tag_186:\n        /* \"#utility.yul\":2320:2323   */\n      dup3\n        /* \"#utility.yul\":2313:2347   */\n      mstore\n        /* \"#utility.yul\":2244:2353   */\n      pop\n      pop\n      jump\t// out\n        /* \"#utility.yul\":2359:3082   */\n    tag_19:\n        /* \"#utility.yul\":2570:2574   */\n      0x00\n        /* \"#utility.yul\":2608:2611   */\n      0x80\n        /* \"#utility.yul\":2597:2606   */\n      dup3\n        /* \"#utility.yul\":2593:2612   */\n      add\n        /* \"#utility.yul\":2585:2612   */\n      swap1\n      pop\n        /* \"#utility.yul\":2658:2667   */\n      dup2\n        /* \"#utility.yul\":2652:2656   */\n      dup2\n        /* \"#utility.yul\":2648:2668   */\n      sub\n        /* \"#utility.yul\":2644:2645   */\n      0x00\n        /* \"#utility.yul\":2633:2642   */\n      dup4\n        /* \"#utility.yul\":2629:2646   */\n      add\n        /* \"#utility.yul\":2622:2669   */\n      mstore\n        /* \"#utility.yul\":2686:2764   */\n      tag_188\n        /* \"#utility.yul\":2759:2763   */\n      dup2\n        /* \"#utility.yul\":2750:2756   */\n      dup8\n        /* \"#utility.yul\":2686:2764   */\n      tag_119\n      jump\t// in\n    tag_188:\n        /* \"#utility.yul\":2678:2764   */\n      swap1\n      pop\n        /* \"#utility.yul\":2811:2820   */\n      dup2\n        /* \"#utility.yul\":2805:2809   */\n      dup2\n        /* \"#utility.yul\":2801:2821   */\n      sub\n        /* \"#utility.yul\":2796:2798   */\n      0x20\n        /* \"#utility.yul\":2785:2794   */\n      dup4\n        /* \"#utility.yul\":2781:2799   */\n      add\n        /* \"#utility.yul\":2774:2822   */\n      mstore\n        /* \"#utility.yul\":2839:2917   */\n      tag_189\n        /* \"#utility.yul\":2912:2916   */\n      dup2\n        /* \"#utility.yul\":2903:2909   */\n      dup7\n        /* \"#utility.yul\":2839:2917   */\n      tag_119\n      jump\t// in\n    tag_189:\n        /* \"#utility.yul\":2831:2917   */\n      swap1\n      pop\n        /* \"#utility.yul\":2927:2999   */\n      tag_190\n        /* \"#utility.yul\":2995:2997   */\n      0x40\n        /* \"#utility.yul\":2984:2993   */\n      dup4\n        /* \"#utility.yul\":2980:2998   */\n      add\n        /* \"#utility.yul\":2971:2977   */\n      dup6\n        /* \"#utility.yul\":2927:2999   */\n      tag_121\n      jump\t// in\n    tag_190:\n        /* \"#utility.yul\":3009:3075   */\n      tag_191\n        /* \"#utility.yul\":3071:3073   */\n      0x60\n        /* \"#utility.yul\":3060:3069   */\n      dup4\n        /* \"#utility.yul\":3056:3074   */\n      add\n        /* \"#utility.yul\":3047:3053   */\n      dup5\n        /* \"#utility.yul\":3009:3075   */\n      tag_123\n      jump\t// in\n    tag_191:\n        /* \"#utility.yul\":2359:3082   */\n      swap6\n      swap5\n      pop\n      pop\n      pop\n      pop\n      pop\n      jump\t// out\n        /* \"#utility.yul\":3088:3205   */\n    tag_124:\n        /* \"#utility.yul\":3197:3198   */\n      0x00\n        /* \"#utility.yul\":3194:3195   */\n      0x00\n        /* \"#utility.yul\":3187:3199   */\n      revert\n        /* \"#utility.yul\":3211:3328   */\n    tag_125:\n        /* \"#utility.yul\":3320:3321   */\n      0x00\n        /* \"#utility.yul\":3317:3318   */\n      0x00\n        /* \"#utility.yul\":3310:3322   */\n      revert\n        /* \"#utility.yul\":3334:3514   */\n    tag_126:\n        /* \"#utility.yul\":3382:3459   */\n      0x4e487b7100000000000000000000000000000000000000000000000000000000\n        /* \"#utility.yul\":3379:3380   */\n      0x00\n        /* \"#utility.yul\":3372:3460   */\n      mstore\n        /* \"#utility.yul\":3479:3483   */\n      0x41\n        /* \"#utility.yul\":3476:3477   */\n      0x04\n        /* \"#utility.yul\":3469:3484   */\n      mstore\n        /* \"#utility.yul\":3503:3507   */\n      0x24\n        /* \"#utility.yul\":3500:3501   */\n      0x00\n        /* \"#utility.yul\":3493:3508   */\n      revert\n        /* \"#utility.yul\":3520:3801   */\n    tag_127:\n        /* \"#utility.yul\":3603:3630   */\n      tag_196\n        /* \"#utility.yul\":3625:3629   */\n      dup3\n        /* \"#utility.yul\":3603:3630   */\n      tag_118\n      jump\t// in\n    tag_196:\n        /* \"#utility.yul\":3595:3601   */\n      dup2\n        /* \"#utility.yul\":3591:3631   */\n      add\n        /* \"#utility.yul\":3733:3739   */\n      dup2\n        /* \"#utility.yul\":3721:3731   */\n      dup2\n        /* \"#utility.yul\":3718:3740   */\n      lt\n        /* \"#utility.yul\":3697:3715   */\n      0xffffffffffffffff\n        /* \"#utility.yul\":3685:3695   */\n      dup3\n        /* \"#utility.yul\":3682:3716   */\n      gt\n        /* \"#utility.yul\":3679:3741   */\n      or\n        /* \"#utility.yul\":3676:3764   */\n      iszero\n      tag_197\n      jumpi\n        /* \"#utility.yul\":3744:3762   */\n      tag_198\n      tag_126\n      jump\t// in\n    tag_198:\n        /* \"#utility.yul\":3676:3764   */\n    tag_197:\n        /* \"#utility.yul\":3784:3794   */\n      dup1\n        /* \"#utility.yul\":3780:3782   */\n      0x40\n        /* \"#utility.yul\":3773:3795   */\n      mstore\n        /* \"#utility.yul\":3563:3801   */\n      pop\n        /* \"#utility.yul\":3520:3801   */\n      pop\n      pop\n      jump\t// out\n        /* \"#utility.yul\":3807:3936   */\n    tag_128:\n        /* \"#utility.yul\":3841:3847   */\n      0x00\n        /* \"#utility.yul\":3868:3888   */\n      tag_200\n      tag_109\n      jump\t// in\n    tag_200:\n        /* \"#utility.yul\":3858:3888   */\n      swap1\n      pop\n        /* \"#utility.yul\":3897:3930   */\n      tag_201\n        /* \"#utility.yul\":3925:3929   */\n      dup3\n        /* \"#utility.yul\":3917:3923   */\n      dup3\n        /* \"#utility.yul\":3897:3930   */\n      tag_127\n      jump\t// in\n    tag_201:\n        /* \"#utility.yul\":3807:3936   */\n      swap2\n      swap1\n      pop\n      jump\t// out\n        /* \"#utility.yul\":3942:4250   */\n    tag_129:\n        /* \"#utility.yul\":4004:4008   */\n      0x00\n        /* \"#utility.yul\":4094:4112   */\n      0xffffffffffffffff\n        /* \"#utility.yul\":4086:4092   */\n      dup3\n        /* \"#utility.yul\":4083:4113   */\n      gt\n        /* \"#utility.yul\":4080:4136   */\n      iszero\n      tag_203\n      jumpi\n        /* \"#utility.yul\":4116:4134   */\n      tag_204\n      tag_126\n      jump\t// in\n    tag_204:\n        /* \"#utility.yul\":4080:4136   */\n    tag_203:\n        /* \"#utility.yul\":4154:4183   */\n      tag_205\n        /* \"#utility.yul\":4176:4182   */\n      dup3\n        /* \"#utility.yul\":4154:4183   */\n      tag_118\n      jump\t// in\n    tag_205:\n        /* \"#utility.yul\":4146:4183   */\n      swap1\n      pop\n        /* \"#utility.yul\":4238:4242   */\n      0x20\n        /* \"#utility.yul\":4232:4236   */\n      dup2\n        /* \"#utility.yul\":4228:4243   */\n      add\n        /* \"#utility.yul\":4220:4243   */\n      swap1\n      pop\n        /* \"#utility.yul\":3942:4250   */\n      swap2\n      swap1\n      pop\n      jump\t// out\n        /* \"#utility.yul\":4256:4404   */\n    tag_130:\n        /* \"#utility.yul\":4354:4360   */\n      dup3\n        /* \"#utility.yul\":4349:4352   */\n      dup2\n        /* \"#utility.yul\":4344:4347   */\n      dup4\n        /* \"#utility.yul\":4331:4361   */\n      calldatacopy\n        /* \"#utility.yul\":4395:4396   */\n      0x00\n        /* \"#utility.yul\":4386:4392   */\n      dup4\n        /* \"#utility.yul\":4381:4384   */\n      dup4\n        /* \"#utility.yul\":4377:4393   */\n      add\n        /* \"#utility.yul\":4370:4397   */\n      mstore\n        /* \"#utility.yul\":4256:4404   */\n      pop\n      pop\n      pop\n      jump\t// out\n        /* \"#utility.yul\":4410:4835   */\n    tag_131:\n        /* \"#utility.yul\":4488:4493   */\n      0x00\n        /* \"#utility.yul\":4513:4579   */\n      tag_208\n        /* \"#utility.yul\":4529:4578   */\n      tag_209\n        /* \"#utility.yul\":4571:4577   */\n      dup5\n        /* \"#utility.yul\":4529:4578   */\n      tag_129\n      jump\t// in\n    tag_209:\n        /* \"#utility.yul\":4513:4579   */\n      tag_128\n      jump\t// in\n    tag_208:\n        /* \"#utility.yul\":4504:4579   */\n      swap1\n      pop\n        /* \"#utility.yul\":4602:4608   */\n      dup3\n        /* \"#utility.yul\":4595:4600   */\n      dup2\n        /* \"#utility.yul\":4588:4609   */\n      mstore\n        /* \"#utility.yul\":4640:4644   */\n      0x20\n        /* \"#utility.yul\":4633:4638   */\n      dup2\n        /* \"#utility.yul\":4629:4645   */\n      add\n        /* \"#utility.yul\":4678:4681   */\n      dup5\n        /* \"#utility.yul\":4669:4675   */\n      dup5\n        /* \"#utility.yul\":4664:4667   */\n      dup5\n        /* \"#utility.yul\":4660:4676   */\n      add\n        /* \"#utility.yul\":4657:4682   */\n      gt\n        /* \"#utility.yul\":4654:4766   */\n      iszero\n      tag_210\n      jumpi\n        /* \"#utility.yul\":4685:4764   */\n      tag_211\n      tag_125\n      jump\t// in\n    tag_211:\n        /* \"#utility.yul\":4654:4766   */\n    tag_210:\n        /* \"#utility.yul\":4775:4829   */\n      tag_212\n        /* \"#utility.yul\":4822:4828   */\n      dup5\n        /* \"#utility.yul\":4817:4820   */\n      dup3\n        /* \"#utility.yul\":4812:4815   */\n      dup6\n        /* \"#utility.yul\":4775:4829   */\n      tag_130\n      jump\t// in\n    tag_212:\n        /* \"#utility.yul\":4494:4835   */\n      pop\n        /* \"#utility.yul\":4410:4835   */\n      swap4\n      swap3\n      pop\n      pop\n      pop\n      jump\t// out\n        /* \"#utility.yul\":4855:5195   */\n    tag_132:\n        /* \"#utility.yul\":4911:4916   */\n      0x00\n        /* \"#utility.yul\":4960:4963   */\n      dup3\n        /* \"#utility.yul\":4953:4957   */\n      0x1f\n        /* \"#utility.yul\":4945:4951   */\n      dup4\n        /* \"#utility.yul\":4941:4958   */\n      add\n        /* \"#utility.yul\":4937:4964   */\n      slt\n        /* \"#utility.yul\":4927:5049   */\n      tag_214\n      jumpi\n        /* \"#utility.yul\":4968:5047   */\n      tag_215\n      tag_124\n      jump\t// in\n    tag_215:\n        /* \"#utility.yul\":4927:5049   */\n    tag_214:\n        /* \"#utility.yul\":5085:5091   */\n      dup2\n        /* \"#utility.yul\":5072:5092   */\n      calldataload\n        /* \"#utility.yul\":5110:5189   */\n      tag_216\n        /* \"#utility.yul\":5185:5188   */\n      dup5\n        /* \"#utility.yul\":5177:5183   */\n      dup3\n        /* \"#utility.yul\":5170:5174   */\n      0x20\n        /* \"#utility.yul\":5162:5168   */\n      dup7\n        /* \"#utility.yul\":5158:5175   */\n      add\n        /* \"#utility.yul\":5110:5189   */\n      tag_131\n      jump\t// in\n    tag_216:\n        /* \"#utility.yul\":5101:5189   */\n      swap2\n      pop\n        /* \"#utility.yul\":4917:5195   */\n      pop\n        /* \"#utility.yul\":4855:5195   */\n      swap3\n      swap2\n      pop\n      pop\n      jump\t// out\n        /* \"#utility.yul\":5201:6360   */\n    tag_32:\n        /* \"#utility.yul\":5308:5314   */\n      0x00\n        /* \"#utility.yul\":5316:5322   */\n      0x00\n        /* \"#utility.yul\":5324:5330   */\n      0x00\n        /* \"#utility.yul\":5373:5375   */\n      0x60\n        /* \"#utility.yul\":5361:5370   */\n      dup5\n        /* \"#utility.yul\":5352:5359   */\n      dup7\n        /* \"#utility.yul\":5348:5371   */\n      sub\n        /* \"#utility.yul\":5344:5376   */\n      slt\n        /* \"#utility.yul\":5341:5460   */\n      iszero\n      tag_218\n      jumpi\n        /* \"#utility.yul\":5379:5458   */\n      tag_219\n      tag_110\n      jump\t// in\n    tag_219:\n        /* \"#utility.yul\":5341:5460   */\n    tag_218:\n        /* \"#utility.yul\":5527:5528   */\n      0x00\n        /* \"#utility.yul\":5516:5525   */\n      dup5\n        /* \"#utility.yul\":5512:5529   */\n      add\n        /* \"#utility.yul\":5499:5530   */\n      calldataload\n        /* \"#utility.yul\":5557:5575   */\n      0xffffffffffffffff\n        /* \"#utility.yul\":5549:5555   */\n      dup2\n        /* \"#utility.yul\":5546:5576   */\n      gt\n        /* \"#utility.yul\":5543:5660   */\n      iszero\n      tag_220\n      jumpi\n        /* \"#utility.yul\":5579:5658   */\n      tag_221\n      tag_111\n      jump\t// in\n    tag_221:\n        /* \"#utility.yul\":5543:5660   */\n    tag_220:\n        /* \"#utility.yul\":5684:5747   */\n      tag_222\n        /* \"#utility.yul\":5739:5746   */\n      dup7\n        /* \"#utility.yul\":5730:5736   */\n      dup3\n        /* \"#utility.yul\":5719:5728   */\n      dup8\n        /* \"#utility.yul\":5715:5737   */\n      add\n        /* \"#utility.yul\":5684:5747   */\n      tag_132\n      jump\t// in\n    tag_222:\n        /* \"#utility.yul\":5674:5747   */\n      swap4\n      pop\n        /* \"#utility.yul\":5470:5757   */\n      pop\n        /* \"#utility.yul\":5824:5826   */\n      0x20\n        /* \"#utility.yul\":5813:5822   */\n      dup5\n        /* \"#utility.yul\":5809:5827   */\n      add\n        /* \"#utility.yul\":5796:5828   */\n      calldataload\n        /* \"#utility.yul\":5855:5873   */\n      0xffffffffffffffff\n        /* \"#utility.yul\":5847:5853   */\n      dup2\n        /* \"#utility.yul\":5844:5874   */\n      gt\n        /* \"#utility.yul\":5841:5958   */\n      iszero\n      tag_223\n      jumpi\n        /* \"#utility.yul\":5877:5956   */\n      tag_224\n      tag_111\n      jump\t// in\n    tag_224:\n        /* \"#utility.yul\":5841:5958   */\n    tag_223:\n        /* \"#utility.yul\":5982:6045   */\n      tag_225\n        /* \"#utility.yul\":6037:6044   */\n      dup7\n        /* \"#utility.yul\":6028:6034   */\n      dup3\n        /* \"#utility.yul\":6017:6026   */\n      dup8\n        /* \"#utility.yul\":6013:6035   */\n      add\n        /* \"#utility.yul\":5982:6045   */\n      tag_132\n      jump\t// in\n    tag_225:\n        /* \"#utility.yul\":5972:6045   */\n      swap3\n      pop\n        /* \"#utility.yul\":5767:6055   */\n      pop\n        /* \"#utility.yul\":6122:6124   */\n      0x40\n        /* \"#utility.yul\":6111:6120   */\n      dup5\n        /* \"#utility.yul\":6107:6125   */\n      add\n        /* \"#utility.yul\":6094:6126   */\n      calldataload\n        /* \"#utility.yul\":6153:6171   */\n      0xffffffffffffffff\n        /* \"#utility.yul\":6145:6151   */\n      dup2\n        /* \"#utility.yul\":6142:6172   */\n      gt\n        /* \"#utility.yul\":6139:6256   */\n      iszero\n      tag_226\n      jumpi\n        /* \"#utility.yul\":6175:6254   */\n      tag_227\n      tag_111\n      jump\t// in\n    tag_227:\n        /* \"#utility.yul\":6139:6256   */\n    tag_226:\n        /* \"#utility.yul\":6280:6343   */\n      tag_228\n        /* \"#utility.yul\":6335:6342   */\n      dup7\n        /* \"#utility.yul\":6326:6332   */\n      dup3\n        /* \"#utility.yul\":6315:6324   */\n      dup8\n        /* \"#utility.yul\":6311:6333   */\n      add\n        /* \"#utility.yul\":6280:6343   */\n      tag_132\n      jump\t// in\n    tag_228:\n        /* \"#utility.yul\":6270:6343   */\n      swap2\n      pop\n        /* \"#utility.yul\":6065:6353   */\n      pop\n        /* \"#utility.yul\":5201:6360   */\n      swap3\n      pop\n      swap3\n      pop\n      swap3\n      jump\t// out\n        /* \"#utility.yul\":6366:6492   */\n    tag_133:\n        /* \"#utility.yul\":6403:6410   */\n      0x00\n        /* \"#utility.yul\":6443:6485   */\n      0xffffffffffffffffffffffffffffffffffffffff\n        /* \"#utility.yul\":6436:6441   */\n      dup3\n        /* \"#utility.yul\":6432:6486   */\n      and\n        /* \"#utility.yul\":6421:6486   */\n      swap1\n      pop\n        /* \"#utility.yul\":6366:6492   */\n      swap2\n      swap1\n      pop\n      jump\t// out\n        /* \"#utility.yul\":6498:6594   */\n    tag_134:\n        /* \"#utility.yul\":6535:6542   */\n      0x00\n        /* \"#utility.yul\":6564:6588   */\n      tag_231\n        /* \"#utility.yul\":6582:6587   */\n      dup3\n        /* \"#utility.yul\":6564:6588   */\n      tag_133\n      jump\t// in\n    tag_231:\n        /* \"#utility.yul\":6553:6588   */\n      swap1\n      pop\n        /* \"#utility.yul\":6498:6594   */\n      swap2\n      swap1\n      pop\n      jump\t// out\n        /* \"#utility.yul\":6600:6718   */\n    tag_135:\n        /* \"#utility.yul\":6687:6711   */\n      tag_233\n        /* \"#utility.yul\":6705:6710   */\n      dup2\n        /* \"#utility.yul\":6687:6711   */\n      tag_134\n      jump\t// in\n    tag_233:\n        /* \"#utility.yul\":6682:6685   */\n      dup3\n        /* \"#utility.yul\":6675:6712   */\n      mstore\n        /* \"#utility.yul\":6600:6718   */\n      pop\n      pop\n      jump\t// out\n        /* \"#utility.yul\":6724:7859   */\n    tag_38:\n        /* \"#utility.yul\":7033:7037   */\n      0x00\n        /* \"#utility.yul\":7071:7074   */\n      0xe0\n        /* \"#utility.yul\":7060:7069   */\n      dup3\n        /* \"#utility.yul\":7056:7075   */\n      add\n        /* \"#utility.yul\":7048:7075   */\n      swap1\n      pop\n        /* \"#utility.yul\":7121:7130   */\n      dup2\n        /* \"#utility.yul\":7115:7119   */\n      dup2\n        /* \"#utility.yul\":7111:7131   */\n      sub\n        /* \"#utility.yul\":7107:7108   */\n      0x00\n        /* \"#utility.yul\":7096:7105   */\n      dup4\n        /* \"#utility.yul\":7092:7109   */\n      add\n        /* \"#utility.yul\":7085:7132   */\n      mstore\n        /* \"#utility.yul\":7149:7227   */\n      tag_235\n        /* \"#utility.yul\":7222:7226   */\n      dup2\n        /* \"#utility.yul\":7213:7219   */\n      dup11\n        /* \"#utility.yul\":7149:7227   */\n      tag_119\n      jump\t// in\n    tag_235:\n        /* \"#utility.yul\":7141:7227   */\n      swap1\n      pop\n        /* \"#utility.yul\":7274:7283   */\n      dup2\n        /* \"#utility.yul\":7268:7272   */\n      dup2\n        /* \"#utility.yul\":7264:7284   */\n      sub\n        /* \"#utility.yul\":7259:7261   */\n      0x20\n        /* \"#utility.yul\":7248:7257   */\n      dup4\n        /* \"#utility.yul\":7244:7262   */\n      add\n        /* \"#utility.yul\":7237:7285   */\n      mstore\n        /* \"#utility.yul\":7302:7380   */\n      tag_236\n        /* \"#utility.yul\":7375:7379   */\n      dup2\n        /* \"#utility.yul\":7366:7372   */\n      dup10\n        /* \"#utility.yul\":7302:7380   */\n      tag_119\n      jump\t// in\n    tag_236:\n        /* \"#utility.yul\":7294:7380   */\n      swap1\n      pop\n        /* \"#utility.yul\":7427:7436   */\n      dup2\n        /* \"#utility.yul\":7421:7425   */\n      dup2\n        /* \"#utility.yul\":7417:7437   */\n      sub\n        /* \"#utility.yul\":7412:7414   */\n      0x40\n        /* \"#utility.yul\":7401:7410   */\n      dup4\n        /* \"#utility.yul\":7397:7415   */\n      add\n        /* \"#utility.yul\":7390:7438   */\n      mstore\n        /* \"#utility.yul\":7455:7533   */\n      tag_237\n        /* \"#utility.yul\":7528:7532   */\n      dup2\n        /* \"#utility.yul\":7519:7525   */\n      dup9\n        /* \"#utility.yul\":7455:7533   */\n      tag_119\n      jump\t// in\n    tag_237:\n        /* \"#utility.yul\":7447:7533   */\n      swap1\n      pop\n        /* \"#utility.yul\":7543:7615   */\n      tag_238\n        /* \"#utility.yul\":7611:7613   */\n      0x60\n        /* \"#utility.yul\":7600:7609   */\n      dup4\n        /* \"#utility.yul\":7596:7614   */\n      add\n        /* \"#utility.yul\":7587:7593   */\n      dup8\n        /* \"#utility.yul\":7543:7615   */\n      tag_121\n      jump\t// in\n    tag_238:\n        /* \"#utility.yul\":7625:7698   */\n      tag_239\n        /* \"#utility.yul\":7693:7696   */\n      0x80\n        /* \"#utility.yul\":7682:7691   */\n      dup4\n        /* \"#utility.yul\":7678:7697   */\n      add\n        /* \"#utility.yul\":7669:7675   */\n      dup7\n        /* \"#utility.yul\":7625:7698   */\n      tag_135\n      jump\t// in\n    tag_239:\n        /* \"#utility.yul\":7708:7775   */\n      tag_240\n        /* \"#utility.yul\":7770:7773   */\n      0xa0\n        /* \"#utility.yul\":7759:7768   */\n      dup4\n        /* \"#utility.yul\":7755:7774   */\n      add\n        /* \"#utility.yul\":7746:7752   */\n      dup6\n        /* \"#utility.yul\":7708:7775   */\n      tag_123\n      jump\t// in\n    tag_240:\n        /* \"#utility.yul\":7785:7852   */\n      tag_241\n        /* \"#utility.yul\":7847:7850   */\n      0xc0\n        /* \"#utility.yul\":7836:7845   */\n      dup4\n        /* \"#utility.yul\":7832:7851   */\n      add\n        /* \"#utility.yul\":7823:7829   */\n      dup5\n        /* \"#utility.yul\":7785:7852   */\n      tag_123\n      jump\t// in\n    tag_241:\n        /* \"#utility.yul\":6724:7859   */\n      swap9\n      swap8\n      pop\n      pop\n      pop\n      pop\n      pop\n      pop\n      pop\n      pop\n      jump\t// out\n        /* \"#utility.yul\":7865:8087   */\n    tag_42:\n        /* \"#utility.yul\":7958:7962   */\n      0x00\n        /* \"#utility.yul\":7996:7998   */\n      0x20\n        /* \"#utility.yul\":7985:7994   */\n      dup3\n        /* \"#utility.yul\":7981:7999   */\n      add\n        /* \"#utility.yul\":7973:7999   */\n      swap1\n      pop\n        /* \"#utility.yul\":8009:8080   */\n      tag_243\n        /* \"#utility.yul\":8077:8078   */\n      0x00\n        /* \"#utility.yul\":8066:8075   */\n      dup4\n        /* \"#utility.yul\":8062:8079   */\n      add\n        /* \"#utility.yul\":8053:8059   */\n      dup5\n        /* \"#utility.yul\":8009:8080   */\n      tag_135\n      jump\t// in\n    tag_243:\n        /* \"#utility.yul\":7865:8087   */\n      swap3\n      swap2\n      pop\n      pop\n      jump\t// out\n        /* \"#utility.yul\":8093:8273   */\n    tag_136:\n        /* \"#utility.yul\":8141:8218   */\n      0x4e487b7100000000000000000000000000000000000000000000000000000000\n        /* \"#utility.yul\":8138:8139   */\n      0x00\n        /* \"#utility.yul\":8131:8219   */\n      mstore\n        /* \"#utility.yul\":8238:8242   */\n      0x22\n        /* \"#utility.yul\":8235:8236   */\n      0x04\n        /* \"#utility.yul\":8228:8243   */\n      mstore\n        /* \"#utility.yul\":8262:8266   */\n      0x24\n        /* \"#utility.yul\":8259:8260   */\n      0x00\n        /* \"#utility.yul\":8252:8267   */\n      revert\n        /* \"#utility.yul\":8279:8599   */\n    tag_46:\n        /* \"#utility.yul\":8323:8329   */\n      0x00\n        /* \"#utility.yul\":8360:8361   */\n      0x02\n        /* \"#utility.yul\":8354:8358   */\n      dup3\n        /* \"#utility.yul\":8350:8362   */\n      div\n        /* \"#utility.yul\":8340:8362   */\n      swap1\n      pop\n        /* \"#utility.yul\":8407:8408   */\n      0x01\n        /* \"#utility.yul\":8401:8405   */\n      dup3\n        /* \"#utility.yul\":8397:8409   */\n      and\n        /* \"#utility.yul\":8428:8446   */\n      dup1\n        /* \"#utility.yul\":8418:8499   */\n      tag_246\n      jumpi\n        /* \"#utility.yul\":8484:8488   */\n      0x7f\n        /* \"#utility.yul\":8476:8482   */\n      dup3\n        /* \"#utility.yul\":8472:8489   */\n      and\n        /* \"#utility.yul\":8462:8489   */\n      swap2\n      pop\n        /* \"#utility.yul\":8418:8499   */\n    tag_246:\n        /* \"#utility.yul\":8546:8548   */\n      0x20\n        /* \"#utility.yul\":8538:8544   */\n      dup3\n        /* \"#utility.yul\":8535:8549   */\n      lt\n        /* \"#utility.yul\":8515:8533   */\n      dup2\n        /* \"#utility.yul\":8512:8550   */\n      sub\n        /* \"#utility.yul\":8509:8593   */\n      tag_247\n      jumpi\n        /* \"#utility.yul\":8565:8583   */\n      tag_248\n      tag_136\n      jump\t// in\n    tag_248:\n        /* \"#utility.yul\":8509:8593   */\n    tag_247:\n        /* \"#utility.yul\":8330:8599   */\n      pop\n        /* \"#utility.yul\":8279:8599   */\n      swap2\n      swap1\n      pop\n      jump\t// out\n        /* \"#utility.yul\":8605:8777   */\n    tag_137:\n        /* \"#utility.yul\":8745:8769   */\n      0x4f6e6c79204f454d2063616e2063616c6c207468697300000000000000000000\n        /* \"#utility.yul\":8741:8742   */\n      0x00\n        /* \"#utility.yul\":8733:8739   */\n      dup3\n        /* \"#utility.yul\":8729:8743   */\n      add\n        /* \"#utility.yul\":8722:8770   */\n      mstore\n        /* \"#utility.yul\":8605:8777   */\n      pop\n      jump\t// out\n        /* \"#utility.yul\":8783:9149   */\n    tag_138:\n        /* \"#utility.yul\":8925:8928   */\n      0x00\n        /* \"#utility.yul\":8946:9013   */\n      tag_251\n        /* \"#utility.yul\":9010:9012   */\n      0x16\n        /* \"#utility.yul\":9005:9008   */\n      dup4\n        /* \"#utility.yul\":8946:9013   */\n      tag_116\n      jump\t// in\n    tag_251:\n        /* \"#utility.yul\":8939:9013   */\n      swap2\n      pop\n        /* \"#utility.yul\":9022:9115   */\n      tag_252\n        /* \"#utility.yul\":9111:9114   */\n      dup3\n        /* \"#utility.yul\":9022:9115   */\n      tag_137\n      jump\t// in\n    tag_252:\n        /* \"#utility.yul\":9140:9142   */\n      0x20\n        /* \"#utility.yul\":9135:9138   */\n      dup3\n        /* \"#utility.yul\":9131:9143   */\n      add\n        /* \"#utility.yul\":9124:9143   */\n      swap1\n      pop\n        /* \"#utility.yul\":8783:9149   */\n      swap2\n      swap1\n      pop\n      jump\t// out\n        /* \"#utility.yul\":9155:9574   */\n    tag_59:\n        /* \"#utility.yul\":9321:9325   */\n      0x00\n        /* \"#utility.yul\":9359:9361   */\n      0x20\n        /* \"#utility.yul\":9348:9357   */\n      dup3\n        /* \"#utility.yul\":9344:9362   */\n      add\n        /* \"#utility.yul\":9336:9362   */\n      swap1\n      pop\n        /* \"#utility.yul\":9408:9417   */\n      dup2\n        /* \"#utility.yul\":9402:9406   */\n      dup2\n        /* \"#utility.yul\":9398:9418   */\n      sub\n        /* \"#utility.yul\":9394:9395   */\n      0x00\n        /* \"#utility.yul\":9383:9392   */\n      dup4\n        /* \"#utility.yul\":9379:9396   */\n      add\n        /* \"#utility.yul\":9372:9419   */\n      mstore\n        /* \"#utility.yul\":9436:9567   */\n      tag_254\n        /* \"#utility.yul\":9562:9566   */\n      dup2\n        /* \"#utility.yul\":9436:9567   */\n      tag_138\n      jump\t// in\n    tag_254:\n        /* \"#utility.yul\":9428:9567   */\n      swap1\n      pop\n        /* \"#utility.yul\":9155:9574   */\n      swap2\n      swap1\n      pop\n      jump\t// out\n        /* \"#utility.yul\":9580:9728   */\n    tag_139:\n        /* \"#utility.yul\":9682:9693   */\n      0x00\n        /* \"#utility.yul\":9719:9722   */\n      dup2\n        /* \"#utility.yul\":9704:9722   */\n      swap1\n      pop\n        /* \"#utility.yul\":9580:9728   */\n      swap3\n      swap2\n      pop\n      pop\n      jump\t// out\n        /* \"#utility.yul\":9734:10124   */\n    tag_140:\n        /* \"#utility.yul\":9840:9843   */\n      0x00\n        /* \"#utility.yul\":9868:9907   */\n      tag_257\n        /* \"#utility.yul\":9901:9906   */\n      dup3\n        /* \"#utility.yul\":9868:9907   */\n      tag_115\n      jump\t// in\n    tag_257:\n        /* \"#utility.yul\":9923:10012   */\n      tag_258\n        /* \"#utility.yul\":10005:10011   */\n      dup2\n        /* \"#utility.yul\":10000:10003   */\n      dup6\n        /* \"#utility.yul\":9923:10012   */\n      tag_139\n      jump\t// in\n    tag_258:\n        /* \"#utility.yul\":9916:10012   */\n      swap4\n      pop\n        /* \"#utility.yul\":10021:10086   */\n      tag_259\n        /* \"#utility.yul\":10079:10085   */\n      dup2\n        /* \"#utility.yul\":10074:10077   */\n      dup6\n        /* \"#utility.yul\":10067:10071   */\n      0x20\n        /* \"#utility.yul\":10060:10065   */\n      dup7\n        /* \"#utility.yul\":10056:10072   */\n      add\n        /* \"#utility.yul\":10021:10086   */\n      tag_117\n      jump\t// in\n    tag_259:\n        /* \"#utility.yul\":10111:10117   */\n      dup1\n        /* \"#utility.yul\":10106:10109   */\n      dup5\n        /* \"#utility.yul\":10102:10118   */\n      add\n        /* \"#utility.yul\":10095:10118   */\n      swap2\n      pop\n        /* \"#utility.yul\":9844:10124   */\n      pop\n        /* \"#utility.yul\":9734:10124   */\n      swap3\n      swap2\n      pop\n      pop\n      jump\t// out\n        /* \"#utility.yul\":10130:10405   */\n    tag_82:\n        /* \"#utility.yul\":10262:10265   */\n      0x00\n        /* \"#utility.yul\":10284:10379   */\n      tag_261\n        /* \"#utility.yul\":10375:10378   */\n      dup3\n        /* \"#utility.yul\":10366:10372   */\n      dup5\n        /* \"#utility.yul\":10284:10379   */\n      tag_140\n      jump\t// in\n    tag_261:\n        /* \"#utility.yul\":10277:10379   */\n      swap2\n      pop\n        /* \"#utility.yul\":10396:10399   */\n      dup2\n        /* \"#utility.yul\":10389:10399   */\n      swap1\n      pop\n        /* \"#utility.yul\":10130:10405   */\n      swap3\n      swap2\n      pop\n      pop\n      jump\t// out\n        /* \"#utility.yul\":10411:10586   */\n    tag_141:\n        /* \"#utility.yul\":10551:10578   */\n      0x44657669636520616c7265616479207265676973746572656400000000000000\n        /* \"#utility.yul\":10547:10548   */\n      0x00\n        /* \"#utility.yul\":10539:10545   */\n      dup3\n        /* \"#utility.yul\":10535:10549   */\n      add\n        /* \"#utility.yul\":10528:10579   */\n      mstore\n        /* \"#utility.yul\":10411:10586   */\n      pop\n      jump\t// out\n        /* \"#utility.yul\":10592:10958   */\n    tag_142:\n        /* \"#utility.yul\":10734:10737   */\n      0x00\n        /* \"#utility.yul\":10755:10822   */\n      tag_264\n        /* \"#utility.yul\":10819:10821   */\n      0x19\n        /* \"#utility.yul\":10814:10817   */\n      dup4\n        /* \"#utility.yul\":10755:10822   */\n      tag_116\n      jump\t// in\n    tag_264:\n        /* \"#utility.yul\":10748:10822   */\n      swap2\n      pop\n        /* \"#utility.yul\":10831:10924   */\n      tag_265\n        /* \"#utility.yul\":10920:10923   */\n      dup3\n        /* \"#utility.yul\":10831:10924   */\n      tag_141\n      jump\t// in\n    tag_265:\n        /* \"#utility.yul\":10949:10951   */\n      0x20\n        /* \"#utility.yul\":10944:10947   */\n      dup3\n        /* \"#utility.yul\":10940:10952   */\n      add\n        /* \"#utility.yul\":10933:10952   */\n      swap1\n      pop\n        /* \"#utility.yul\":10592:10958   */\n      swap2\n      swap1\n      pop\n      jump\t// out\n        /* \"#utility.yul\":10964:11383   */\n    tag_85:\n        /* \"#utility.yul\":11130:11134   */\n      0x00\n        /* \"#utility.yul\":11168:11170   */\n      0x20\n        /* \"#utility.yul\":11157:11166   */\n      dup3\n        /* \"#utility.yul\":11153:11171   */\n      add\n        /* \"#utility.yul\":11145:11171   */\n      swap1\n      pop\n        /* \"#utility.yul\":11217:11226   */\n      dup2\n        /* \"#utility.yul\":11211:11215   */\n      dup2\n        /* \"#utility.yul\":11207:11227   */\n      sub\n        /* \"#utility.yul\":11203:11204   */\n      0x00\n        /* \"#utility.yul\":11192:11201   */\n      dup4\n        /* \"#utility.yul\":11188:11205   */\n      add\n        /* \"#utility.yul\":11181:11228   */\n      mstore\n        /* \"#utility.yul\":11245:11376   */\n      tag_267\n        /* \"#utility.yul\":11371:11375   */\n      dup2\n        /* \"#utility.yul\":11245:11376   */\n      tag_142\n      jump\t// in\n    tag_267:\n        /* \"#utility.yul\":11237:11376   */\n      swap1\n      pop\n        /* \"#utility.yul\":10964:11383   */\n      swap2\n      swap1\n      pop\n      jump\t// out\n        /* \"#utility.yul\":11389:11530   */\n    tag_143:\n        /* \"#utility.yul\":11438:11442   */\n      0x00\n        /* \"#utility.yul\":11461:11464   */\n      dup2\n        /* \"#utility.yul\":11453:11464   */\n      swap1\n      pop\n        /* \"#utility.yul\":11484:11487   */\n      dup2\n        /* \"#utility.yul\":11481:11482   */\n      0x00\n        /* \"#utility.yul\":11474:11488   */\n      mstore\n        /* \"#utility.yul\":11518:11522   */\n      0x20\n        /* \"#utility.yul\":11515:11516   */\n      0x00\n        /* \"#utility.yul\":11505:11523   */\n      keccak256\n        /* \"#utility.yul\":11497:11523   */\n      swap1\n      pop\n        /* \"#utility.yul\":11389:11530   */\n      swap2\n      swap1\n      pop\n      jump\t// out\n        /* \"#utility.yul\":11536:11629   */\n    tag_144:\n        /* \"#utility.yul\":11573:11579   */\n      0x00\n        /* \"#utility.yul\":11620:11622   */\n      0x20\n        /* \"#utility.yul\":11615:11617   */\n      0x1f\n        /* \"#utility.yul\":11608:11613   */\n      dup4\n        /* \"#utility.yul\":11604:11618   */\n      add\n        /* \"#utility.yul\":11600:11623   */\n      div\n        /* \"#utility.yul\":11590:11623   */\n      swap1\n      pop\n        /* \"#utility.yul\":11536:11629   */\n      swap2\n      swap1\n      pop\n      jump\t// out\n        /* \"#utility.yul\":11635:11742   */\n    tag_145:\n        /* \"#utility.yul\":11679:11687   */\n      0x00\n        /* \"#utility.yul\":11729:11734   */\n      dup3\n        /* \"#utility.yul\":11723:11727   */\n      dup3\n        /* \"#utility.yul\":11719:11735   */\n      shl\n        /* \"#utility.yul\":11698:11735   */\n      swap1\n      pop\n        /* \"#utility.yul\":11635:11742   */\n      swap3\n      swap2\n      pop\n      pop\n      jump\t// out\n        /* \"#utility.yul\":11748:12141   */\n    tag_146:\n        /* \"#utility.yul\":11817:11823   */\n      0x00\n        /* \"#utility.yul\":11867:11868   */\n      0x08\n        /* \"#utility.yul\":11855:11865   */\n      dup4\n        /* \"#utility.yul\":11851:11869   */\n      mul\n        /* \"#utility.yul\":11890:11987   */\n      tag_272\n        /* \"#utility.yul\":11920:11986   */\n      0xffffffffffffffffffffffffffffffffffffffffffffffffffffffffffffffff\n        /* \"#utility.yul\":11909:11918   */\n      dup3\n        /* \"#utility.yul\":11890:11987   */\n      tag_145\n      jump\t// in\n    tag_272:\n        /* \"#utility.yul\":12008:12047   */\n      tag_273\n        /* \"#utility.yul\":12038:12046   */\n      dup7\n        /* \"#utility.yul\":12027:12036   */\n      dup4\n        /* \"#utility.yul\":12008:12047   */\n      tag_145\n      jump\t// in\n    tag_273:\n        /* \"#utility.yul\":11996:12047   */\n      swap6\n      pop\n        /* \"#utility.yul\":12080:12084   */\n      dup1\n        /* \"#utility.yul\":12076:12085   */\n      not\n        /* \"#utility.yul\":12069:12074   */\n      dup5\n        /* \"#utility.yul\":12065:12086   */\n      and\n        /* \"#utility.yul\":12056:12086   */\n      swap4\n      pop\n        /* \"#utility.yul\":12129:12133   */\n      dup1\n        /* \"#utility.yul\":12119:12127   */\n      dup7\n        /* \"#utility.yul\":12115:12134   */\n      and\n        /* \"#utility.yul\":12108:12113   */\n      dup5\n        /* \"#utility.yul\":12105:12135   */\n      or\n        /* \"#utility.yul\":12095:12135   */\n      swap3\n      pop\n        /* \"#utility.yul\":11824:12141   */\n      pop\n      pop\n        /* \"#utility.yul\":11748:12141   */\n      swap4\n      swap3\n      pop\n      pop\n      pop\n      jump\t// out\n        /* \"#utility.yul\":12147:12207   */\n    tag_147:\n        /* \"#utility.yul\":12175:12178   */\n      0x00\n        /* \"#utility.yul\":12196:12201   */\n      dup2\n        /* \"#utility.yul\":12189:12201   */\n      swap1\n      pop\n        /* \"#utility.yul\":12147:12207   */\n      swap2\n      swap1\n      pop\n      jump\t// out\n        /* \"#utility.yul\":12213:12355   */\n    tag_148:\n        /* \"#utility.yul\":12263:12272   */\n      0x00\n        /* \"#utility.yul\":12296:12349   */\n      tag_276\n        /* \"#utility.yul\":12314:12348   */\n      tag_277\n        /* \"#utility.yul\":12323:12347   */\n      tag_278\n        /* \"#utility.yul\":12341:12346   */\n      dup5\n        /* \"#utility.yul\":12323:12347   */\n      tag_120\n      jump\t// in\n    tag_278:\n        /* \"#utility.yul\":12314:12348   */\n      tag_147\n      jump\t// in\n    tag_277:\n        /* \"#utility.yul\":12296:12349   */\n      tag_120\n      jump\t// in\n    tag_276:\n        /* \"#utility.yul\":12283:12349   */\n      swap1\n      pop\n        /* \"#utility.yul\":12213:12355   */\n      swap2\n      swap1\n      pop\n      jump\t// out\n        /* \"#utility.yul\":12361:12436   */\n    tag_149:\n        /* \"#utility.yul\":12404:12407   */\n      0x00\n        /* \"#utility.yul\":12425:12430   */\n      dup2\n        /* \"#utility.yul\":12418:12430   */\n      swap1\n      pop\n        /* \"#utility.yul\":12361:12436   */\n      swap2\n      swap1\n      pop\n      jump\t// out\n        /* \"#utility.yul\":12442:12711   */\n    tag_150:\n        /* \"#utility.yul\":12552:12591   */\n      tag_281\n        /* \"#utility.yul\":12583:12590   */\n      dup4\n        /* \"#utility.yul\":12552:12591   */\n      tag_148\n      jump\t// in\n    tag_281:\n        /* \"#utility.yul\":12613:12704   */\n      tag_282\n        /* \"#utility.yul\":12662:12703   */\n      tag_283\n        /* \"#utility.yul\":12686:12702   */\n      dup3\n        /* \"#utility.yul\":12662:12703   */\n      tag_149\n      jump\t// in\n    tag_283:\n        /* \"#utility.yul\":12654:12660   */\n      dup5\n        /* \"#utility.yul\":12647:12651   */\n      dup5\n        /* \"#utility.yul\":12641:12652   */\n      sload\n        /* \"#utility.yul\":12613:12704   */\n      tag_146\n      jump\t// in\n    tag_282:\n        /* \"#utility.yul\":12607:12611   */\n      dup3\n        /* \"#utility.yul\":12600:12705   */\n      sstore\n        /* \"#utility.yul\":12518:12711   */\n      pop\n        /* \"#utility.yul\":12442:12711   */\n      pop\n      pop\n      pop\n      jump\t// out\n        /* \"#utility.yul\":12717:12790   */\n    tag_151:\n        /* \"#utility.yul\":12762:12765   */\n      0x00\n        /* \"#utility.yul\":12783:12784   */\n      0x00\n        /* \"#utility.yul\":12776:12784   */\n      swap1\n      pop\n        /* \"#utility.yul\":12717:12790   */\n      swap1\n      jump\t// out\n        /* \"#utility.yul\":12796:12985   */\n    tag_152:\n        /* \"#utility.yul\":12873:12905   */\n      tag_286\n      tag_151\n      jump\t// in\n    tag_286:\n        /* \"#utility.yul\":12914:12979   */\n      tag_287\n        /* \"#utility.yul\":12972:12978   */\n      dup2\n        /* \"#utility.yul\":12964:12970   */\n      dup5\n        /* \"#utility.yul\":12958:12962   */\n      dup5\n        /* \"#utility.yul\":12914:12979   */\n      tag_150\n      jump\t// in\n    tag_287:\n        /* \"#utility.yul\":12849:12985   */\n      pop\n        /* \"#utility.yul\":12796:12985   */\n      pop\n      pop\n      jump\t// out\n        /* \"#utility.yul\":12991:13177   */\n    tag_153:\n        /* \"#utility.yul\":13051:13171   */\n    tag_289:\n        /* \"#utility.yul\":13068:13071   */\n      dup2\n        /* \"#utility.yul\":13061:13066   */\n      dup2\n        /* \"#utility.yul\":13058:13072   */\n      lt\n        /* \"#utility.yul\":13051:13171   */\n      iszero\n      tag_291\n      jumpi\n        /* \"#utility.yul\":13122:13161   */\n      tag_292\n        /* \"#utility.yul\":13159:13160   */\n      0x00\n        /* \"#utility.yul\":13152:13157   */\n      dup3\n        /* \"#utility.yul\":13122:13161   */\n      tag_152\n      jump\t// in\n    tag_292:\n        /* \"#utility.yul\":13095:13096   */\n      0x01\n        /* \"#utility.yul\":13088:13093   */\n      dup2\n        /* \"#utility.yul\":13084:13097   */\n      add\n        /* \"#utility.yul\":13075:13097   */\n      swap1\n      pop\n        /* \"#utility.yul\":13051:13171   */\n      jump(tag_289)\n    tag_291:\n        /* \"#utility.yul\":12991:13177   */\n      pop\n      pop\n      jump\t// out\n        /* \"#utility.yul\":13183:13726   */\n    tag_154:\n        /* \"#utility.yul\":13284:13286   */\n      0x1f\n        /* \"#utility.yul\":13279:13282   */\n      dup3\n        /* \"#utility.yul\":13276:13287   */\n      gt\n        /* \"#utility.yul\":13273:13719   */\n      iszero\n      tag_294\n      jumpi\n        /* \"#utility.yul\":13318:13356   */\n      tag_295\n        /* \"#utility.yul\":13350:13355   */\n      dup2\n        /* \"#utility.yul\":13318:13356   */\n      tag_143\n      jump\t// in\n    tag_295:\n        /* \"#utility.yul\":13402:13431   */\n      tag_296\n        /* \"#utility.yul\":13420:13430   */\n      dup5\n        /* \"#utility.yul\":13402:13431   */\n      tag_144\n      jump\t// in\n    tag_296:\n        /* \"#utility.yul\":13392:13400   */\n      dup2\n        /* \"#utility.yul\":13388:13432   */\n      add\n        /* \"#utility.yul\":13585:13587   */\n      0x20\n        /* \"#utility.yul\":13573:13583   */\n      dup6\n        /* \"#utility.yul\":13570:13588   */\n      lt\n        /* \"#utility.yul\":13567:13616   */\n      iszero\n      tag_297\n      jumpi\n        /* \"#utility.yul\":13606:13614   */\n      dup2\n        /* \"#utility.yul\":13591:13614   */\n      swap1\n      pop\n        /* \"#utility.yul\":13567:13616   */\n    tag_297:\n        /* \"#utility.yul\":13629:13709   */\n      tag_298\n        /* \"#utility.yul\":13685:13707   */\n      tag_299\n        /* \"#utility.yul\":13703:13706   */\n      dup6\n        /* \"#utility.yul\":13685:13707   */\n      tag_144\n      jump\t// in\n    tag_299:\n        /* \"#utility.yul\":13675:13683   */\n      dup4\n        /* \"#utility.yul\":13671:13708   */\n      add\n        /* \"#utility.yul\":13658:13669   */\n      dup3\n        /* \"#utility.yul\":13629:13709   */\n      tag_153\n      jump\t// in\n    tag_298:\n        /* \"#utility.yul\":13288:13719   */\n      pop\n      pop\n        /* \"#utility.yul\":13273:13719   */\n    tag_294:\n        /* \"#utility.yul\":13183:13726   */\n      pop\n      pop\n      pop\n      jump\t// out\n        /* \"#utility.yul\":13732:13849   */\n    tag_155:\n        /* \"#utility.yul\":13786:13794   */\n      0x00\n        /* \"#utility.yul\":13836:13841   */\n      dup3\n        /* \"#utility.yul\":13830:13834   */\n      dup3\n        /* \"#utility.yul\":13826:13842   */\n      shr\n        /* \"#utility.yul\":13805:13842   */\n      swap1\n      pop\n        /* \"#utility.yul\":13732:13849   */\n      swap3\n      swap2\n      pop\n      pop\n      jump\t// out\n        /* \"#utility.yul\":13855:14024   */\n    tag_156:\n        /* \"#utility.yul\":13899:13905   */\n      0x00\n        /* \"#utility.yul\":13932:13983   */\n      tag_302\n        /* \"#utility.yul\":13980:13981   */\n      0x00\n        /* \"#utility.yul\":13976:13982   */\n      not\n        /* \"#utility.yul\":13968:13973   */\n      dup5\n        /* \"#utility.yul\":13965:13966   */\n      0x08\n        /* \"#utility.yul\":13961:13974   */\n      mul\n        /* \"#utility.yul\":13932:13983   */\n      tag_155\n      jump\t// in\n    tag_302:\n        /* \"#utility.yul\":13928:13984   */\n      not\n        /* \"#utility.yul\":14013:14017   */\n      dup1\n        /* \"#utility.yul\":14007:14011   */\n      dup4\n        /* \"#utility.yul\":14003:14018   */\n      and\n        /* \"#utility.yul\":13993:14018   */\n      swap2\n      pop\n        /* \"#utility.yul\":13906:14024   */\n      pop\n        /* \"#utility.yul\":13855:14024   */\n      swap3\n      swap2\n      pop\n      pop\n      jump\t// out\n        /* \"#utility.yul\":14029:14324   */\n    tag_157:\n        /* \"#utility.yul\":14105:14109   */\n      0x00\n        /* \"#utility.yul\":14251:14280   */\n      tag_304\n        /* \"#utility.yul\":14276:14279   */\n      dup4\n        /* \"#utility.yul\":14270:14274   */\n      dup4\n        /* \"#utility.yul\":14251:14280   */\n      tag_156\n      jump\t// in\n    tag_304:\n        /* \"#utility.yul\":14243:14280   */\n      swap2\n      pop\n        /* \"#utility.yul\":14313:14316   */\n      dup3\n        /* \"#utility.yul\":14310:14311   */\n      0x02\n        /* \"#utility.yul\":14306:14317   */\n      mul\n        /* \"#utility.yul\":14300:14304   */\n      dup3\n        /* \"#utility.yul\":14297:14318   */\n      or\n        /* \"#utility.yul\":14289:14318   */\n      swap1\n      pop\n        /* \"#utility.yul\":14029:14324   */\n      swap3\n      swap2\n      pop\n      pop\n      jump\t// out\n        /* \"#utility.yul\":14329:15724   */\n    tag_87:\n        /* \"#utility.yul\":14446:14483   */\n      tag_306\n        /* \"#utility.yul\":14479:14482   */\n      dup3\n        /* \"#utility.yul\":14446:14483   */\n      tag_115\n      jump\t// in\n    tag_306:\n        /* \"#utility.yul\":14548:14566   */\n      0xffffffffffffffff\n        /* \"#utility.yul\":14540:14546   */\n      dup2\n        /* \"#utility.yul\":14537:14567   */\n      gt\n        /* \"#utility.yul\":14534:14590   */\n      iszero\n      tag_307\n      jumpi\n        /* \"#utility.yul\":14570:14588   */\n      tag_308\n      tag_126\n      jump\t// in\n    tag_308:\n        /* \"#utility.yul\":14534:14590   */\n    tag_307:\n        /* \"#utility.yul\":14614:14652   */\n      tag_309\n        /* \"#utility.yul\":14646:14650   */\n      dup3\n        /* \"#utility.yul\":14640:14651   */\n      sload\n        /* \"#utility.yul\":14614:14652   */\n      tag_46\n      jump\t// in\n    tag_309:\n        /* \"#utility.yul\":14699:14766   */\n      tag_310\n        /* \"#utility.yul\":14759:14765   */\n      dup3\n        /* \"#utility.yul\":14751:14757   */\n      dup3\n        /* \"#utility.yul\":14745:14749   */\n      dup6\n        /* \"#utility.yul\":14699:14766   */\n      tag_154\n      jump\t// in\n    tag_310:\n        /* \"#utility.yul\":14793:14794   */\n      0x00\n        /* \"#utility.yul\":14817:14821   */\n      0x20\n        /* \"#utility.yul\":14804:14821   */\n      swap1\n      pop\n        /* \"#utility.yul\":14849:14851   */\n      0x1f\n        /* \"#utility.yul\":14841:14847   */\n      dup4\n        /* \"#utility.yul\":14838:14852   */\n      gt\n        /* \"#utility.yul\":14866:14867   */\n      0x01\n        /* \"#utility.yul\":14861:15479   */\n      dup2\n      eq\n      tag_312\n      jumpi\n        /* \"#utility.yul\":15523:15524   */\n      0x00\n        /* \"#utility.yul\":15540:15546   */\n      dup5\n        /* \"#utility.yul\":15537:15614   */\n      iszero\n      tag_313\n      jumpi\n        /* \"#utility.yul\":15589:15598   */\n      dup3\n        /* \"#utility.yul\":15584:15587   */\n      dup8\n        /* \"#utility.yul\":15580:15599   */\n      add\n        /* \"#utility.yul\":15574:15600   */\n      mload\n        /* \"#utility.yul\":15565:15600   */\n      swap1\n      pop\n        /* \"#utility.yul\":15537:15614   */\n    tag_313:\n        /* \"#utility.yul\":15640:15707   */\n      tag_314\n        /* \"#utility.yul\":15700:15706   */\n      dup6\n        /* \"#utility.yul\":15693:15698   */\n      dup3\n        /* \"#utility.yul\":15640:15707   */\n      tag_157\n      jump\t// in\n    tag_314:\n        /* \"#utility.yul\":15634:15638   */\n      dup7\n        /* \"#utility.yul\":15627:15708   */\n      sstore\n        /* \"#utility.yul\":15496:15718   */\n      pop\n        /* \"#utility.yul\":14831:15718   */\n      jump(tag_311)\n        /* \"#utility.yul\":14861:15479   */\n    tag_312:\n        /* \"#utility.yul\":14913:14917   */\n      0x1f\n        /* \"#utility.yul\":14909:14918   */\n      not\n        /* \"#utility.yul\":14901:14907   */\n      dup5\n        /* \"#utility.yul\":14897:14919   */\n      and\n        /* \"#utility.yul\":14947:14984   */\n      tag_315\n        /* \"#utility.yul\":14979:14983   */\n      dup7\n        /* \"#utility.yul\":14947:14984   */\n      tag_143\n      jump\t// in\n    tag_315:\n        /* \"#utility.yul\":15006:15007   */\n      0x00\n        /* \"#utility.yul\":15020:15228   */\n    tag_316:\n        /* \"#utility.yul\":15034:15041   */\n      dup3\n        /* \"#utility.yul\":15031:15032   */\n      dup2\n        /* \"#utility.yul\":15028:15042   */\n      lt\n        /* \"#utility.yul\":15020:15228   */\n      iszero\n      tag_318\n      jumpi\n        /* \"#utility.yul\":15113:15122   */\n      dup5\n        /* \"#utility.yul\":15108:15111   */\n      dup10\n        /* \"#utility.yul\":15104:15123   */\n      add\n        /* \"#utility.yul\":15098:15124   */\n      mload\n        /* \"#utility.yul\":15090:15096   */\n      dup3\n        /* \"#utility.yul\":15083:15125   */\n      sstore\n        /* \"#utility.yul\":15164:15165   */\n      0x01\n        /* \"#utility.yul\":15156:15162   */\n      dup3\n        /* \"#utility.yul\":15152:15166   */\n      add\n        /* \"#utility.yul\":15142:15166   */\n      swap2\n      pop\n        /* \"#utility.yul\":15211:15213   */\n      0x20\n        /* \"#utility.yul\":15200:15209   */\n      dup6\n        /* \"#utility.yul\":15196:15214   */\n      add\n        /* \"#utility.yul\":15183:15214   */\n      swap5\n      pop\n        /* \"#utility.yul\":15057:15061   */\n      0x20\n        /* \"#utility.yul\":15054:15055   */\n      dup2\n        /* \"#utility.yul\":15050:15062   */\n      add\n        /* \"#utility.yul\":15045:15062   */\n      swap1\n      pop\n        /* \"#utility.yul\":15020:15228   */\n      jump(tag_316)\n    tag_318:\n        /* \"#utility.yul\":15256:15262   */\n      dup7\n        /* \"#utility.yul\":15247:15254   */\n      dup4\n        /* \"#utility.yul\":15244:15263   */\n      lt\n        /* \"#utility.yul\":15241:15420   */\n      iszero\n      tag_319\n      jumpi\n        /* \"#utility.yul\":15314:15323   */\n      dup5\n        /* \"#utility.yul\":15309:15312   */\n      dup10\n        /* \"#utility.yul\":15305:15324   */\n      add\n        /* \"#utility.yul\":15299:15325   */\n      mload\n        /* \"#utility.yul\":15357:15405   */\n      tag_320\n        /* \"#utility.yul\":15399:15403   */\n      0x1f\n        /* \"#utility.yul\":15391:15397   */\n      dup10\n        /* \"#utility.yul\":15387:15404   */\n      and\n        /* \"#utility.yul\":15376:15385   */\n      dup3\n        /* \"#utility.yul\":15357:15405   */\n      tag_156\n      jump\t// in\n    tag_320:\n        /* \"#utility.yul\":15349:15355   */\n      dup4\n        /* \"#utility.yul\":15342:15406   */\n      sstore\n        /* \"#utility.yul\":15264:15420   */\n      pop\n        /* \"#utility.yul\":15241:15420   */\n    tag_319:\n        /* \"#utility.yul\":15466:15467   */\n      0x01\n        /* \"#utility.yul\":15462:15463   */\n      0x02\n        /* \"#utility.yul\":15454:15460   */\n      dup9\n        /* \"#utility.yul\":15450:15464   */\n      mul\n        /* \"#utility.yul\":15446:15468   */\n      add\n        /* \"#utility.yul\":15440:15444   */\n      dup9\n        /* \"#utility.yul\":15433:15469   */\n      sstore\n        /* \"#utility.yul\":14868:15479   */\n      pop\n      pop\n      pop\n        /* \"#utility.yul\":14831:15718   */\n    tag_311:\n      pop\n        /* \"#utility.yul\":14421:15724   */\n      pop\n      pop\n      pop\n        /* \"#utility.yul\":14329:15724   */\n      pop\n      pop\n      jump\t// out\n\n    auxdata: 0xa2646970667358221220fc555c331ea66736c0b8c3566978720ea2d1c0a1087caf7c0853d7f7a1c99f0b64736f6c634300081e0033\n}\n",
				"bytecode": {
					"linkReferences": {},
					"object": "6080604052348015600e575f5ffd5b50335f5f6101000a81548173ffffffffffffffffffffffffffffffffffffffff021916908373ffffffffffffffffffffffffffffffffffffffff1602179055506112d08061005b5f395ff3fe608060405234801561000f575f5ffd5b506004361061009c575f3560e01c8063accf8a9711610064578063accf8a97146100fb578063bceaa96a14610105578063c5c400de14610121578063e96f2fd814610157578063fb86145b146101755761009c565b80631a4999c9146100a05780634c5d8e76146100d35780637f068c0f146100dd578063880ad0af146100e75780638ea286c2146100f1575b5f5ffd5b6100ba60048036038101906100b59190610ae6565b61017f565b6040516100ca9493929190610bb3565b60405180910390f35b6100db6102c3565b005b6100e5610353565b005b6100ef6103e3565b005b6100f9610473565b005b610103610503565b005b61011f600480360381019061011a9190610d30565b610593565b005b61013b60048036038101906101369190610ae6565b6107e5565b60405161014e9796959493929190610e13565b60405180910390f35b61015f6109ee565b60405161016c9190610e95565b60405180910390f35b61017d610a12565b005b6002602052805f5260405f205f91509050805f01805461019e90610edb565b80601f01602080910402602001604051908101604052809291908181526020018280546101ca90610edb565b80156102155780601f106101ec57610100808354040283529160200191610215565b820191905f5260205f20905b8154815290600101906020018083116101f857829003601f168201915b50505050509080600101805461022a90610edb565b80601f016020809104026020016040519081016040528092919081815260200182805461025690610edb565b80156102a15780601f10610278576101008083540402835291602001916102a1565b820191905f5260205f20905b81548152906001019060200180831161028457829003601f168201915b505050505090806002015490806003015f9054906101000a900460ff16905084565b5f5f9054906101000a900473ffffffffffffffffffffffffffffffffffffffff1673ffffffffffffffffffffffffffffffffffffffff163373ffffffffffffffffffffffffffffffffffffffff1614610351576040517f08c379a000000000000000000000000000000000000000000000000000000000815260040161034890610f55565b60405180910390fd5b565b5f5f9054906101000a900473ffffffffffffffffffffffffffffffffffffffff1673ffffffffffffffffffffffffffffffffffffffff163373ffffffffffffffffffffffffffffffffffffffff16146103e1576040517f08c379a00000000000000000000000000000000000000000000000000000000081526004016103d890610f55565b60405180910390fd5b565b5f5f9054906101000a900473ffffffffffffffffffffffffffffffffffffffff1673ffffffffffffffffffffffffffffffffffffffff163373ffffffffffffffffffffffffffffffffffffffff1614610471576040517f08c379a000000000000000000000000000000000000000000000000000000000815260040161046890610f55565b60405180910390fd5b565b5f5f9054906101000a900473ffffffffffffffffffffffffffffffffffffffff1673ffffffffffffffffffffffffffffffffffffffff163373ffffffffffffffffffffffffffffffffffffffff1614610501576040517f08c379a00000000000000000000000000000000000000000000000000000000081526004016104f890610f55565b60405180910390fd5b565b5f5f9054906101000a900473ffffffffffffffffffffffffffffffffffffffff1673ffffffffffffffffffffffffffffffffffffffff163373ffffffffffffffffffffffffffffffffffffffff1614610591576040517f08c379a000000000000000000000000000000000000000000000000000000000815260040161058890610f55565b60405180910390fd5b565b5f5f9054906101000a900473ffffffffffffffffffffffffffffffffffffffff1673ffffffffffffffffffffffffffffffffffffffff163373ffffffffffffffffffffffffffffffffffffffff1614610621576040517f08c379a000000000000000000000000000000000000000000000000000000000815260040161061890610f55565b60405180910390fd5b5f836040516020016106339190610fad565b60405160208183030381529060405280519060200120905060015f8281526020019081526020015f2060040160149054906101000a900460ff16156106ad576040517f08c379a00000000000000000000000000000000000000000000000000000000081526004016106a49061100d565b60405180910390fd5b6040518060e001604052808581526020018481526020018381526020014281526020013373ffffffffffffffffffffffffffffffffffffffff1681526020016001151581526020015f151581525060015f8381526020019081526020015f205f820151815f01908161071f91906111cb565b50602082015181600101908161073591906111cb565b50604082015181600201908161074b91906111cb565b50606082015181600301556080820151816004015f6101000a81548173ffffffffffffffffffffffffffffffffffffffff021916908373ffffffffffffffffffffffffffffffffffffffff16021790555060a08201518160040160146101000a81548160ff02191690831515021790555060c08201518160040160156101000a81548160ff02191690831515021790555090505050505050565b6001602052805f5260405f205f91509050805f01805461080490610edb565b80601f016020809104026020016040519081016040528092919081815260200182805461083090610edb565b801561087b5780601f106108525761010080835404028352916020019161087b565b820191905f5260205f20905b81548152906001019060200180831161085e57829003601f168201915b50505050509080600101805461089090610edb565b80601f01602080910402602001604051908101604052809291908181526020018280546108bc90610edb565b80156109075780601f106108de57610100808354040283529160200191610907565b820191905f5260205f20905b8154815290600101906020018083116108ea57829003601f168201915b50505050509080600201805461091c90610edb565b80601f016020809104026020016040519081016040528092919081815260200182805461094890610edb565b80156109935780601f1061096a57610100808354040283529160200191610993565b820191905f5260205f20905b81548152906001019060200180831161097657829003601f168201915b505050505090806003015490806004015f9054906101000a900473ffffffffffffffffffffffffffffffffffffffff16908060040160149054906101000a900460ff16908060040160159054906101000a900460ff16905087565b5f5f9054906101000a900473ffffffffffffffffffffffffffffffffffffffff1681565b5f5f9054906101000a900473ffffffffffffffffffffffffffffffffffffffff1673ffffffffffffffffffffffffffffffffffffffff163373ffffffffffffffffffffffffffffffffffffffff1614610aa0576040517f08c379a0000000000000000000000000000000000000000000000000000000008152600401610a9790610f55565b60405180910390fd5b565b5f604051905090565b5f5ffd5b5f5ffd5b5f819050919050565b610ac581610ab3565b8114610acf575f5ffd5b50565b5f81359050610ae081610abc565b92915050565b5f60208284031215610afb57610afa610aab565b5b5f610b0884828501610ad2565b91505092915050565b5f81519050919050565b5f82825260208201905092915050565b8281835e5f83830152505050565b5f601f19601f8301169050919050565b5f610b5382610b11565b610b5d8185610b1b565b9350610b6d818560208601610b2b565b610b7681610b39565b840191505092915050565b5f819050919050565b610b9381610b81565b82525050565b5f8115159050919050565b610bad81610b99565b82525050565b5f6080820190508181035f830152610bcb8187610b49565b90508181036020830152610bdf8186610b49565b9050610bee6040830185610b8a565b610bfb6060830184610ba4565b95945050505050565b5f5ffd5b5f5ffd5b7f4e487b71000000000000000000000000000000000000000000000000000000005f52604160045260245ffd5b610c4282610b39565b810181811067ffffffffffffffff82111715610c6157610c60610c0c565b5b80604052505050565b5f610c73610aa2565b9050610c7f8282610c39565b919050565b5f67ffffffffffffffff821115610c9e57610c9d610c0c565b5b610ca782610b39565b9050602081019050919050565b828183375f83830152505050565b5f610cd4610ccf84610c84565b610c6a565b905082815260208101848484011115610cf057610cef610c08565b5b610cfb848285610cb4565b509392505050565b5f82601f830112610d1757610d16610c04565b5b8135610d27848260208601610cc2565b91505092915050565b5f5f5f60608486031215610d4757610d46610aab565b5b5f84013567ffffffffffffffff811115610d6457610d63610aaf565b5b610d7086828701610d03565b935050602084013567ffffffffffffffff811115610d9157610d90610aaf565b5b610d9d86828701610d03565b925050604084013567ffffffffffffffff811115610dbe57610dbd610aaf565b5b610dca86828701610d03565b9150509250925092565b5f73ffffffffffffffffffffffffffffffffffffffff82169050919050565b5f610dfd82610dd4565b9050919050565b610e0d81610df3565b82525050565b5f60e0820190508181035f830152610e2b818a610b49565b90508181036020830152610e3f8189610b49565b90508181036040830152610e538188610b49565b9050610e626060830187610b8a565b610e6f6080830186610e04565b610e7c60a0830185610ba4565b610e8960c0830184610ba4565b98975050505050505050565b5f602082019050610ea85f830184610e04565b92915050565b7f4e487b71000000000000000000000000000000000000000000000000000000005f52602260045260245ffd5b5f6002820490506001821680610ef257607f821691505b602082108103610f0557610f04610eae565b5b50919050565b7f4f6e6c79204f454d2063616e2063616c6c2074686973000000000000000000005f82015250565b5f610f3f601683610b1b565b9150610f4a82610f0b565b602082019050919050565b5f6020820190508181035f830152610f6c81610f33565b9050919050565b5f81905092915050565b5f610f8782610b11565b610f918185610f73565b9350610fa1818560208601610b2b565b80840191505092915050565b5f610fb88284610f7d565b915081905092915050565b7f44657669636520616c72656164792072656769737465726564000000000000005f82015250565b5f610ff7601983610b1b565b915061100282610fc3565b602082019050919050565b5f6020820190508181035f83015261102481610feb565b9050919050565b5f819050815f5260205f209050919050565b5f6020601f8301049050919050565b5f82821b905092915050565b5f600883026110877fffffffffffffffffffffffffffffffffffffffffffffffffffffffffffffffff8261104c565b611091868361104c565b95508019841693508086168417925050509392505050565b5f819050919050565b5f6110cc6110c76110c284610b81565b6110a9565b610b81565b9050919050565b5f819050919050565b6110e5836110b2565b6110f96110f1826110d3565b848454611058565b825550505050565b5f5f905090565b611110611101565b61111b8184846110dc565b505050565b5b8181101561113e576111335f82611108565b600181019050611121565b5050565b601f821115611183576111548161102b565b61115d8461103d565b8101602085101561116c578190505b6111806111788561103d565b830182611120565b50505b505050565b5f82821c905092915050565b5f6111a35f1984600802611188565b1980831691505092915050565b5f6111bb8383611194565b9150826002028217905092915050565b6111d482610b11565b67ffffffffffffffff8111156111ed576111ec610c0c565b5b6111f78254610edb565b611202828285611142565b5f60209050601f831160018114611233575f8415611221578287015190505b61122b85826111b0565b865550611292565b601f1984166112418661102b565b5f5b8281101561126857848901518255600182019150602085019450602081019050611243565b868310156112855784890151611281601f891682611194565b8355505b6001600288020188555050505b50505050505056fea2646970667358221220fc555c331ea66736c0b8c3566978720ea2d1c0a1087caf7c0853d7f7a1c99f0b64736f6c634300081e0033",
					"opcodes": "PUSH1 0x80 PUSH1 0x40 MSTORE CALLVALUE DUP1 ISZERO PUSH1 0xE JUMPI PUSH0 PUSH0 REVERT JUMPDEST POP CALLER PUSH0 PUSH0 PUSH2 0x100 EXP DUP2 SLOAD DUP2 PUSH20 0xFFFFFFFFFFFFFFFFFFFFFFFFFFFFFFFFFFFFFFFF MUL NOT AND SWAP1 DUP4 PUSH20 0xFFFFFFFFFFFFFFFFFFFFFFFFFFFFFFFFFFFFFFFF AND MUL OR SWAP1 SSTORE POP PUSH2 0x12D0 DUP1 PUSH2 0x5B PUSH0 CODECOPY PUSH0 RETURN INVALID PUSH1 0x80 PUSH1 0x40 MSTORE CALLVALUE DUP1 ISZERO PUSH2 0xF JUMPI PUSH0 PUSH0 REVERT JUMPDEST POP PUSH1 0x4 CALLDATASIZE LT PUSH2 0x9C JUMPI PUSH0 CALLDATALOAD PUSH1 0xE0 SHR DUP1 PUSH4 0xACCF8A97 GT PUSH2 0x64 JUMPI DUP1 PUSH4 0xACCF8A97 EQ PUSH2 0xFB JUMPI DUP1 PUSH4 0xBCEAA96A EQ PUSH2 0x105 JUMPI DUP1 PUSH4 0xC5C400DE EQ PUSH2 0x121 JUMPI DUP1 PUSH4 0xE96F2FD8 EQ PUSH2 0x157 JUMPI DUP1 PUSH4 0xFB86145B EQ PUSH2 0x175 JUMPI PUSH2 0x9C JUMP JUMPDEST DUP1 PUSH4 0x1A4999C9 EQ PUSH2 0xA0 JUMPI DUP1 PUSH4 0x4C5D8E76 EQ PUSH2 0xD3 JUMPI DUP1 PUSH4 0x7F068C0F EQ PUSH2 0xDD JUMPI DUP1 PUSH4 0x880AD0AF EQ PUSH2 0xE7 JUMPI DUP1 PUSH4 0x8EA286C2 EQ PUSH2 0xF1 JUMPI JUMPDEST PUSH0 PUSH0 REVERT JUMPDEST PUSH2 0xBA PUSH1 0x4 DUP1 CALLDATASIZE SUB DUP2 ADD SWAP1 PUSH2 0xB5 SWAP2 SWAP1 PUSH2 0xAE6 JUMP JUMPDEST PUSH2 0x17F JUMP JUMPDEST PUSH1 0x40 MLOAD PUSH2 0xCA SWAP5 SWAP4 SWAP3 SWAP2 SWAP1 PUSH2 0xBB3 JUMP JUMPDEST PUSH1 0x40 MLOAD DUP1 SWAP2 SUB SWAP1 RETURN JUMPDEST PUSH2 0xDB PUSH2 0x2C3 JUMP JUMPDEST STOP JUMPDEST PUSH2 0xE5 PUSH2 0x353 JUMP JUMPDEST STOP JUMPDEST PUSH2 0xEF PUSH2 0x3E3 JUMP JUMPDEST STOP JUMPDEST PUSH2 0xF9 PUSH2 0x473 JUMP JUMPDEST STOP JUMPDEST PUSH2 0x103 PUSH2 0x503 JUMP JUMPDEST STOP JUMPDEST PUSH2 0x11F PUSH1 0x4 DUP1 CALLDATASIZE SUB DUP2 ADD SWAP1 PUSH2 0x11A SWAP2 SWAP1 PUSH2 0xD30 JUMP JUMPDEST PUSH2 0x593 JUMP JUMPDEST STOP JUMPDEST PUSH2 0x13B PUSH1 0x4 DUP1 CALLDATASIZE SUB DUP2 ADD SWAP1 PUSH2 0x136 SWAP2 SWAP1 PUSH2 0xAE6 JUMP JUMPDEST PUSH2 0x7E5 JUMP JUMPDEST PUSH1 0x40 MLOAD PUSH2 0x14E SWAP8 SWAP7 SWAP6 SWAP5 SWAP4 SWAP3 SWAP2 SWAP1 PUSH2 0xE13 JUMP JUMPDEST PUSH1 0x40 MLOAD DUP1 SWAP2 SUB SWAP1 RETURN JUMPDEST PUSH2 0x15F PUSH2 0x9EE JUMP JUMPDEST PUSH1 0x40 MLOAD PUSH2 0x16C SWAP2 SWAP1 PUSH2 0xE95 JUMP JUMPDEST PUSH1 0x40 MLOAD DUP1 SWAP2 SUB SWAP1 RETURN JUMPDEST PUSH2 0x17D PUSH2 0xA12 JUMP JUMPDEST STOP JUMPDEST PUSH1 0x2 PUSH1 0x20 MSTORE DUP1 PUSH0 MSTORE PUSH1 0x40 PUSH0 KECCAK256 PUSH0 SWAP2 POP SWAP1 POP DUP1 PUSH0 ADD DUP1 SLOAD PUSH2 0x19E SWAP1 PUSH2 0xEDB JUMP JUMPDEST DUP1 PUSH1 0x1F ADD PUSH1 0x20 DUP1 SWAP2 DIV MUL PUSH1 0x20 ADD PUSH1 0x40 MLOAD SWAP1 DUP2 ADD PUSH1 0x40 MSTORE DUP1 SWAP3 SWAP2 SWAP1 DUP2 DUP2 MSTORE PUSH1 0x20 ADD DUP3 DUP1 SLOAD PUSH2 0x1CA SWAP1 PUSH2 0xEDB JUMP JUMPDEST DUP1 ISZERO PUSH2 0x215 JUMPI DUP1 PUSH1 0x1F LT PUSH2 0x1EC JUMPI PUSH2 0x100 DUP1 DUP4 SLOAD DIV MUL DUP4 MSTORE SWAP2 PUSH1 0x20 ADD SWAP2 PUSH2 0x215 JUMP JUMPDEST DUP3 ADD SWAP2 SWAP1 PUSH0 MSTORE PUSH1 0x20 PUSH0 KECCAK256 SWAP1 JUMPDEST DUP2 SLOAD DUP2 MSTORE SWAP1 PUSH1 0x1 ADD SWAP1 PUSH1 0x20 ADD DUP1 DUP4 GT PUSH2 0x1F8 JUMPI DUP3 SWAP1 SUB PUSH1 0x1F AND DUP3 ADD SWAP2 JUMPDEST POP POP POP POP POP SWAP1 DUP1 PUSH1 0x1 ADD DUP1 SLOAD PUSH2 0x22A SWAP1 PUSH2 0xEDB JUMP JUMPDEST DUP1 PUSH1 0x1F ADD PUSH1 0x20 DUP1 SWAP2 DIV MUL PUSH1 0x20 ADD PUSH1 0x40 MLOAD SWAP1 DUP2 ADD PUSH1 0x40 MSTORE DUP1 SWAP3 SWAP2 SWAP1 DUP2 DUP2 MSTORE PUSH1 0x20 ADD DUP3 DUP1 SLOAD PUSH2 0x256 SWAP1 PUSH2 0xEDB JUMP JUMPDEST DUP1 ISZERO PUSH2 0x2A1 JUMPI DUP1 PUSH1 0x1F LT PUSH2 0x278 JUMPI PUSH2 0x100 DUP1 DUP4 SLOAD DIV MUL DUP4 MSTORE SWAP2 PUSH1 0x20 ADD SWAP2 PUSH2 0x2A1 JUMP JUMPDEST DUP3 ADD SWAP2 SWAP1 PUSH0 MSTORE PUSH1 0x20 PUSH0 KECCAK256 SWAP1 JUMPDEST DUP2 SLOAD DUP2 MSTORE SWAP1 PUSH1 0x1 ADD SWAP1 PUSH1 0x20 ADD DUP1 DUP4 GT PUSH2 0x284 JUMPI DUP3 SWAP1 SUB PUSH1 0x1F AND DUP3 ADD SWAP2 JUMPDEST POP POP POP POP POP SWAP1 DUP1 PUSH1 0x2 ADD SLOAD SWAP1 DUP1 PUSH1 0x3 ADD PUSH0 SWAP1 SLOAD SWAP1 PUSH2 0x100 EXP SWAP1 DIV PUSH1 0xFF AND SWAP1 POP DUP5 JUMP JUMPDEST PUSH0 PUSH0 SWAP1 SLOAD SWAP1 PUSH2 0x100 EXP SWAP1 DIV PUSH20 0xFFFFFFFFFFFFFFFFFFFFFFFFFFFFFFFFFFFFFFFF AND PUSH20 0xFFFFFFFFFFFFFFFFFFFFFFFFFFFFFFFFFFFFFFFF AND CALLER PUSH20 0xFFFFFFFFFFFFFFFFFFFFFFFFFFFFFFFFFFFFFFFF AND EQ PUSH2 0x351 JUMPI PUSH1 0x40 MLOAD PUSH32 0x8C379A000000000000000000000000000000000000000000000000000000000 DUP2 MSTORE PUSH1 0x4 ADD PUSH2 0x348 SWAP1 PUSH2 0xF55 JUMP JUMPDEST PUSH1 0x40 MLOAD DUP1 SWAP2 SUB SWAP1 REVERT JUMPDEST JUMP JUMPDEST PUSH0 PUSH0 SWAP1 SLOAD SWAP1 PUSH2 0x100 EXP SWAP1 DIV PUSH20 0xFFFFFFFFFFFFFFFFFFFFFFFFFFFFFFFFFFFFFFFF AND PUSH20 0xFFFFFFFFFFFFFFFFFFFFFFFFFFFFFFFFFFFFFFFF AND CALLER PUSH20 0xFFFFFFFFFFFFFFFFFFFFFFFFFFFFFFFFFFFFFFFF AND EQ PUSH2 0x3E1 JUMPI PUSH1 0x40 MLOAD PUSH32 0x8C379A000000000000000000000000000000000000000000000000000000000 DUP2 MSTORE PUSH1 0x4 ADD PUSH2 0x3D8 SWAP1 PUSH2 0xF55 JUMP JUMPDEST PUSH1 0x40 MLOAD DUP1 SWAP2 SUB SWAP1 REVERT JUMPDEST JUMP JUMPDEST PUSH0 PUSH0 SWAP1 SLOAD SWAP1 PUSH2 0x100 EXP SWAP1 DIV PUSH20 0xFFFFFFFFFFFFFFFFFFFFFFFFFFFFFFFFFFFFFFFF AND PUSH20 0xFFFFFFFFFFFFFFFFFFFFFFFFFFFFFFFFFFFFFFFF AND CALLER PUSH20 0xFFFFFFFFFFFFFFFFFFFFFFFFFFFFFFFFFFFFFFFF AND EQ PUSH2 0x471 JUMPI PUSH1 0x40 MLOAD PUSH32 0x8C379A000000000000000000000000000000000000000000000000000000000 DUP2 MSTORE PUSH1 0x4 ADD PUSH2 0x468 SWAP1 PUSH2 0xF55 JUMP JUMPDEST PUSH1 0x40 MLOAD DUP1 SWAP2 SUB SWAP1 REVERT JUMPDEST JUMP JUMPDEST PUSH0 PUSH0 SWAP1 SLOAD SWAP1 PUSH2 0x100 EXP SWAP1 DIV PUSH20 0xFFFFFFFFFFFFFFFFFFFFFFFFFFFFFFFFFFFFFFFF AND PUSH20 0xFFFFFFFFFFFFFFFFFFFFFFFFFFFFFFFFFFFFFFFF AND CALLER PUSH20 0xFFFFFFFFFFFFFFFFFFFFFFFFFFFFFFFFFFFFFFFF AND EQ PUSH2 0x501 JUMPI PUSH1 0x40 MLOAD PUSH32 0x8C379A000000000000000000000000000000000000000000000000000000000 DUP2 MSTORE PUSH1 0x4 ADD PUSH2 0x4F8 SWAP1 PUSH2 0xF55 JUMP JUMPDEST PUSH1 0x40 MLOAD DUP1 SWAP2 SUB SWAP1 REVERT JUMPDEST JUMP JUMPDEST PUSH0 PUSH0 SWAP1 SLOAD SWAP1 PUSH2 0x100 EXP SWAP1 DIV PUSH20 0xFFFFFFFFFFFFFFFFFFFFFFFFFFFFFFFFFFFFFFFF AND PUSH20 0xFFFFFFFFFFFFFFFFFFFFFFFFFFFFFFFFFFFFFFFF AND CALLER PUSH20 0xFFFFFFFFFFFFFFFFFFFFFFFFFFFFFFFFFFFFFFFF AND EQ PUSH2 0x591 JUMPI PUSH1 0x40 MLOAD PUSH32 0x8C379A000000000000000000000000000000000000000000000000000000000 DUP2 MSTORE PUSH1 0x4 ADD PUSH2 0x588 SWAP1 PUSH2 0xF55 JUMP JUMPDEST PUSH1 0x40 MLOAD DUP1 SWAP2 SUB SWAP1 REVERT JUMPDEST JUMP JUMPDEST PUSH0 PUSH0 SWAP1 SLOAD SWAP1 PUSH2 0x100 EXP SWAP1 DIV PUSH20 0xFFFFFFFFFFFFFFFFFFFFFFFFFFFFFFFFFFFFFFFF AND PUSH20 0xFFFFFFFFFFFFFFFFFFFFFFFFFFFFFFFFFFFFFFFF AND CALLER PUSH20 0xFFFFFFFFFFFFFFFFFFFFFFFFFFFFFFFFFFFFFFFF AND EQ PUSH2 0x621 JUMPI PUSH1 0x40 MLOAD PUSH32 0x8C379A000000000000000000000000000000000000000000000000000000000 DUP2 MSTORE PUSH1 0x4 ADD PUSH2 0x618 SWAP1 PUSH2 0xF55 JUMP JUMPDEST PUSH1 0x40 MLOAD DUP1 SWAP2 SUB SWAP1 REVERT JUMPDEST PUSH0 DUP4 PUSH1 0x40 MLOAD PUSH1 0x20 ADD PUSH2 0x633 SWAP2 SWAP1 PUSH2 0xFAD JUMP JUMPDEST PUSH1 0x40 MLOAD PUSH1 0x20 DUP2 DUP4 SUB SUB DUP2 MSTORE SWAP1 PUSH1 0x40 MSTORE DUP1 MLOAD SWAP1 PUSH1 0x20 ADD KECCAK256 SWAP1 POP PUSH1 0x1 PUSH0 DUP3 DUP2 MSTORE PUSH1 0x20 ADD SWAP1 DUP2 MSTORE PUSH1 0x20 ADD PUSH0 KECCAK256 PUSH1 0x4 ADD PUSH1 0x14 SWAP1 SLOAD SWAP1 PUSH2 0x100 EXP SWAP1 DIV PUSH1 0xFF AND ISZERO PUSH2 0x6AD JUMPI PUSH1 0x40 MLOAD PUSH32 0x8C379A000000000000000000000000000000000000000000000000000000000 DUP2 MSTORE PUSH1 0x4 ADD PUSH2 0x6A4 SWAP1 PUSH2 0x100D JUMP JUMPDEST PUSH1 0x40 MLOAD DUP1 SWAP2 SUB SWAP1 REVERT JUMPDEST PUSH1 0x40 MLOAD DUP1 PUSH1 0xE0 ADD PUSH1 0x40 MSTORE DUP1 DUP6 DUP2 MSTORE PUSH1 0x20 ADD DUP5 DUP2 MSTORE PUSH1 0x20 ADD DUP4 DUP2 MSTORE PUSH1 0x20 ADD TIMESTAMP DUP2 MSTORE PUSH1 0x20 ADD CALLER PUSH20 0xFFFFFFFFFFFFFFFFFFFFFFFFFFFFFFFFFFFFFFFF AND DUP2 MSTORE PUSH1 0x20 ADD PUSH1 0x1 ISZERO ISZERO DUP2 MSTORE PUSH1 0x20 ADD PUSH0 ISZERO ISZERO DUP2 MSTORE POP PUSH1 0x1 PUSH0 DUP4 DUP2 MSTORE PUSH1 0x20 ADD SWAP1 DUP2 MSTORE PUSH1 0x20 ADD PUSH0 KECCAK256 PUSH0 DUP3 ADD MLOAD DUP2 PUSH0 ADD SWAP1 DUP2 PUSH2 0x71F SWAP2 SWAP1 PUSH2 0x11CB JUMP JUMPDEST POP PUSH1 0x20 DUP3 ADD MLOAD DUP2 PUSH1 0x1 ADD SWAP1 DUP2 PUSH2 0x735 SWAP2 SWAP1 PUSH2 0x11CB JUMP JUMPDEST POP PUSH1 0x40 DUP3 ADD MLOAD DUP2 PUSH1 0x2 ADD SWAP1 DUP2 PUSH2 0x74B SWAP2 SWAP1 PUSH2 0x11CB JUMP JUMPDEST POP PUSH1 0x60 DUP3 ADD MLOAD DUP2 PUSH1 0x3 ADD SSTORE PUSH1 0x80 DUP3 ADD MLOAD DUP2 PUSH1 0x4 ADD PUSH0 PUSH2 0x100 EXP DUP2 SLOAD DUP2 PUSH20 0xFFFFFFFFFFFFFFFFFFFFFFFFFFFFFFFFFFFFFFFF MUL NOT AND SWAP1 DUP4 PUSH20 0xFFFFFFFFFFFFFFFFFFFFFFFFFFFFFFFFFFFFFFFF AND MUL OR SWAP1 SSTORE POP PUSH1 0xA0 DUP3 ADD MLOAD DUP2 PUSH1 0x4 ADD PUSH1 0x14 PUSH2 0x100 EXP DUP2 SLOAD DUP2 PUSH1 0xFF MUL NOT AND SWAP1 DUP4 ISZERO ISZERO MUL OR SWAP1 SSTORE POP PUSH1 0xC0 DUP3 ADD MLOAD DUP2 PUSH1 0x4 ADD PUSH1 0x15 PUSH2 0x100 EXP DUP2 SLOAD DUP2 PUSH1 0xFF MUL NOT AND SWAP1 DUP4 ISZERO ISZERO MUL OR SWAP1 SSTORE POP SWAP1 POP POP POP POP POP POP JUMP JUMPDEST PUSH1 0x1 PUSH1 0x20 MSTORE DUP1 PUSH0 MSTORE PUSH1 0x40 PUSH0 KECCAK256 PUSH0 SWAP2 POP SWAP1 POP DUP1 PUSH0 ADD DUP1 SLOAD PUSH2 0x804 SWAP1 PUSH2 0xEDB JUMP JUMPDEST DUP1 PUSH1 0x1F ADD PUSH1 0x20 DUP1 SWAP2 DIV MUL PUSH1 0x20 ADD PUSH1 0x40 MLOAD SWAP1 DUP2 ADD PUSH1 0x40 MSTORE DUP1 SWAP3 SWAP2 SWAP1 DUP2 DUP2 MSTORE PUSH1 0x20 ADD DUP3 DUP1 SLOAD PUSH2 0x830 SWAP1 PUSH2 0xEDB JUMP JUMPDEST DUP1 ISZERO PUSH2 0x87B JUMPI DUP1 PUSH1 0x1F LT PUSH2 0x852 JUMPI PUSH2 0x100 DUP1 DUP4 SLOAD DIV MUL DUP4 MSTORE SWAP2 PUSH1 0x20 ADD SWAP2 PUSH2 0x87B JUMP JUMPDEST DUP3 ADD SWAP2 SWAP1 PUSH0 MSTORE PUSH1 0x20 PUSH0 KECCAK256 SWAP1 JUMPDEST DUP2 SLOAD DUP2 MSTORE SWAP1 PUSH1 0x1 ADD SWAP1 PUSH1 0x20 ADD DUP1 DUP4 GT PUSH2 0x85E JUMPI DUP3 SWAP1 SUB PUSH1 0x1F AND DUP3 ADD SWAP2 JUMPDEST POP POP POP POP POP SWAP1 DUP1 PUSH1 0x1 ADD DUP1 SLOAD PUSH2 0x890 SWAP1 PUSH2 0xEDB JUMP JUMPDEST DUP1 PUSH1 0x1F ADD PUSH1 0x20 DUP1 SWAP2 DIV MUL PUSH1 0x20 ADD PUSH1 0x40 MLOAD SWAP1 DUP2 ADD PUSH1 0x40 MSTORE DUP1 SWAP3 SWAP2 SWAP1 DUP2 DUP2 MSTORE PUSH1 0x20 ADD DUP3 DUP1 SLOAD PUSH2 0x8BC SWAP1 PUSH2 0xEDB JUMP JUMPDEST DUP1 ISZERO PUSH2 0x907 JUMPI DUP1 PUSH1 0x1F LT PUSH2 0x8DE JUMPI PUSH2 0x100 DUP1 DUP4 SLOAD DIV MUL DUP4 MSTORE SWAP2 PUSH1 0x20 ADD SWAP2 PUSH2 0x907 JUMP JUMPDEST DUP3 ADD SWAP2 SWAP1 PUSH0 MSTORE PUSH1 0x20 PUSH0 KECCAK256 SWAP1 JUMPDEST DUP2 SLOAD DUP2 MSTORE SWAP1 PUSH1 0x1 ADD SWAP1 PUSH1 0x20 ADD DUP1 DUP4 GT PUSH2 0x8EA JUMPI DUP3 SWAP1 SUB PUSH1 0x1F AND DUP3 ADD SWAP2 JUMPDEST POP POP POP POP POP SWAP1 DUP1 PUSH1 0x2 ADD DUP1 SLOAD PUSH2 0x91C SWAP1 PUSH2 0xEDB JUMP JUMPDEST DUP1 PUSH1 0x1F ADD PUSH1 0x20 DUP1 SWAP2 DIV MUL PUSH1 0x20 ADD PUSH1 0x40 MLOAD SWAP1 DUP2 ADD PUSH1 0x40 MSTORE DUP1 SWAP3 SWAP2 SWAP1 DUP2 DUP2 MSTORE PUSH1 0x20 ADD DUP3 DUP1 SLOAD PUSH2 0x948 SWAP1 PUSH2 0xEDB JUMP JUMPDEST DUP1 ISZERO PUSH2 0x993 JUMPI DUP1 PUSH1 0x1F LT PUSH2 0x96A JUMPI PUSH2 0x100 DUP1 DUP4 SLOAD DIV MUL DUP4 MSTORE SWAP2 PUSH1 0x20 ADD SWAP2 PUSH2 0x993 JUMP JUMPDEST DUP3 ADD SWAP2 SWAP1 PUSH0 MSTORE PUSH1 0x20 PUSH0 KECCAK256 SWAP1 JUMPDEST DUP2 SLOAD DUP2 MSTORE SWAP1 PUSH1 0x1 ADD SWAP1 PUSH1 0x20 ADD DUP1 DUP4 GT PUSH2 0x976 JUMPI DUP3 SWAP1 SUB PUSH1 0x1F AND DUP3 ADD SWAP2 JUMPDEST POP POP POP POP POP SWAP1 DUP1 PUSH1 0x3 ADD SLOAD SWAP1 DUP1 PUSH1 0x4 ADD PUSH0 SWAP1 SLOAD SWAP1 PUSH2 0x100 EXP SWAP1 DIV PUSH20 0xFFFFFFFFFFFFFFFFFFFFFFFFFFFFFFFFFFFFFFFF AND SWAP1 DUP1 PUSH1 0x4 ADD PUSH1 0x14 SWAP1 SLOAD SWAP1 PUSH2 0x100 EXP SWAP1 DIV PUSH1 0xFF AND SWAP1 DUP1 PUSH1 0x4 ADD PUSH1 0x15 SWAP1 SLOAD SWAP1 PUSH2 0x100 EXP SWAP1 DIV PUSH1 0xFF AND SWAP1 POP DUP8 JUMP JUMPDEST PUSH0 PUSH0 SWAP1 SLOAD SWAP1 PUSH2 0x100 EXP SWAP1 DIV PUSH20 0xFFFFFFFFFFFFFFFFFFFFFFFFFFFFFFFFFFFFFFFF AND DUP2 JUMP JUMPDEST PUSH0 PUSH0 SWAP1 SLOAD SWAP1 PUSH2 0x100 EXP SWAP1 DIV PUSH20 0xFFFFFFFFFFFFFFFFFFFFFFFFFFFFFFFFFFFFFFFF AND PUSH20 0xFFFFFFFFFFFFFFFFFFFFFFFFFFFFFFFFFFFFFFFF AND CALLER PUSH20 0xFFFFFFFFFFFFFFFFFFFFFFFFFFFFFFFFFFFFFFFF AND EQ PUSH2 0xAA0 JUMPI PUSH1 0x40 MLOAD PUSH32 0x8C379A000000000000000000000000000000000000000000000000000000000 DUP2 MSTORE PUSH1 0x4 ADD PUSH2 0xA97 SWAP1 PUSH2 0xF55 JUMP JUMPDEST PUSH1 0x40 MLOAD DUP1 SWAP2 SUB SWAP1 REVERT JUMPDEST JUMP JUMPDEST PUSH0 PUSH1 0x40 MLOAD SWAP1 POP SWAP1 JUMP JUMPDEST PUSH0 PUSH0 REVERT JUMPDEST PUSH0 PUSH0 REVERT JUMPDEST PUSH0 DUP2 SWAP1 POP SWAP2 SWAP1 POP JUMP JUMPDEST PUSH2 0xAC5 DUP2 PUSH2 0xAB3 JUMP JUMPDEST DUP2 EQ PUSH2 0xACF JUMPI PUSH0 PUSH0 REVERT JUMPDEST POP JUMP JUMPDEST PUSH0 DUP2 CALLDATALOAD SWAP1 POP PUSH2 0xAE0 DUP2 PUSH2 0xABC JUMP JUMPDEST SWAP3 SWAP2 POP POP JUMP JUMPDEST PUSH0 PUSH1 0x20 DUP3 DUP5 SUB SLT ISZERO PUSH2 0xAFB JUMPI PUSH2 0xAFA PUSH2 0xAAB JUMP JUMPDEST JUMPDEST PUSH0 PUSH2 0xB08 DUP5 DUP3 DUP6 ADD PUSH2 0xAD2 JUMP JUMPDEST SWAP2 POP POP SWAP3 SWAP2 POP POP JUMP JUMPDEST PUSH0 DUP2 MLOAD SWAP1 POP SWAP2 SWAP1 POP JUMP JUMPDEST PUSH0 DUP3 DUP3 MSTORE PUSH1 0x20 DUP3 ADD SWAP1 POP SWAP3 SWAP2 POP POP JUMP JUMPDEST DUP3 DUP2 DUP4 MCOPY PUSH0 DUP4 DUP4 ADD MSTORE POP POP POP JUMP JUMPDEST PUSH0 PUSH1 0x1F NOT PUSH1 0x1F DUP4 ADD AND SWAP1 POP SWAP2 SWAP1 POP JUMP JUMPDEST PUSH0 PUSH2 0xB53 DUP3 PUSH2 0xB11 JUMP JUMPDEST PUSH2 0xB5D DUP2 DUP6 PUSH2 0xB1B JUMP JUMPDEST SWAP4 POP PUSH2 0xB6D DUP2 DUP6 PUSH1 0x20 DUP7 ADD PUSH2 0xB2B JUMP JUMPDEST PUSH2 0xB76 DUP2 PUSH2 0xB39 JUMP JUMPDEST DUP5 ADD SWAP2 POP POP SWAP3 SWAP2 POP POP JUMP JUMPDEST PUSH0 DUP2 SWAP1 POP SWAP2 SWAP1 POP JUMP JUMPDEST PUSH2 0xB93 DUP2 PUSH2 0xB81 JUMP JUMPDEST DUP3 MSTORE POP POP JUMP JUMPDEST PUSH0 DUP2 ISZERO ISZERO SWAP1 POP SWAP2 SWAP1 POP JUMP JUMPDEST PUSH2 0xBAD DUP2 PUSH2 0xB99 JUMP JUMPDEST DUP3 MSTORE POP POP JUMP JUMPDEST PUSH0 PUSH1 0x80 DUP3 ADD SWAP1 POP DUP2 DUP2 SUB PUSH0 DUP4 ADD MSTORE PUSH2 0xBCB DUP2 DUP8 PUSH2 0xB49 JUMP JUMPDEST SWAP1 POP DUP2 DUP2 SUB PUSH1 0x20 DUP4 ADD MSTORE PUSH2 0xBDF DUP2 DUP7 PUSH2 0xB49 JUMP JUMPDEST SWAP1 POP PUSH2 0xBEE PUSH1 0x40 DUP4 ADD DUP6 PUSH2 0xB8A JUMP JUMPDEST PUSH2 0xBFB PUSH1 0x60 DUP4 ADD DUP5 PUSH2 0xBA4 JUMP JUMPDEST SWAP6 SWAP5 POP POP POP POP POP JUMP JUMPDEST PUSH0 PUSH0 REVERT JUMPDEST PUSH0 PUSH0 REVERT JUMPDEST PUSH32 0x4E487B7100000000000000000000000000000000000000000000000000000000 PUSH0 MSTORE PUSH1 0x41 PUSH1 0x4 MSTORE PUSH1 0x24 PUSH0 REVERT JUMPDEST PUSH2 0xC42 DUP3 PUSH2 0xB39 JUMP JUMPDEST DUP2 ADD DUP2 DUP2 LT PUSH8 0xFFFFFFFFFFFFFFFF DUP3 GT OR ISZERO PUSH2 0xC61 JUMPI PUSH2 0xC60 PUSH2 0xC0C JUMP JUMPDEST JUMPDEST DUP1 PUSH1 0x40 MSTORE POP POP POP JUMP JUMPDEST PUSH0 PUSH2 0xC73 PUSH2 0xAA2 JUMP JUMPDEST SWAP1 POP PUSH2 0xC7F DUP3 DUP3 PUSH2 0xC39 JUMP JUMPDEST SWAP2 SWAP1 POP JUMP JUMPDEST PUSH0 PUSH8 0xFFFFFFFFFFFFFFFF DUP3 GT ISZERO PUSH2 0xC9E JUMPI PUSH2 0xC9D PUSH2 0xC0C JUMP JUMPDEST JUMPDEST PUSH2 0xCA7 DUP3 PUSH2 0xB39 JUMP JUMPDEST SWAP1 POP PUSH1 0x20 DUP2 ADD SWAP1 POP SWAP2 SWAP1 POP JUMP JUMPDEST DUP3 DUP2 DUP4 CALLDATACOPY PUSH0 DUP4 DUP4 ADD MSTORE POP POP POP JUMP JUMPDEST PUSH0 PUSH2 0xCD4 PUSH2 0xCCF DUP5 PUSH2 0xC84 JUMP JUMPDEST PUSH2 0xC6A JUMP JUMPDEST SWAP1 POP DUP3 DUP2 MSTORE PUSH1 0x20 DUP2 ADD DUP5 DUP5 DUP5 ADD GT ISZERO PUSH2 0xCF0 JUMPI PUSH2 0xCEF PUSH2 0xC08 JUMP JUMPDEST JUMPDEST PUSH2 0xCFB DUP5 DUP3 DUP6 PUSH2 0xCB4 JUMP JUMPDEST POP SWAP4 SWAP3 POP POP POP JUMP JUMPDEST PUSH0 DUP3 PUSH1 0x1F DUP4 ADD SLT PUSH2 0xD17 JUMPI PUSH2 0xD16 PUSH2 0xC04 JUMP JUMPDEST JUMPDEST DUP2 CALLDATALOAD PUSH2 0xD27 DUP5 DUP3 PUSH1 0x20 DUP7 ADD PUSH2 0xCC2 JUMP JUMPDEST SWAP2 POP POP SWAP3 SWAP2 POP POP JUMP JUMPDEST PUSH0 PUSH0 PUSH0 PUSH1 0x60 DUP5 DUP7 SUB SLT ISZERO PUSH2 0xD47 JUMPI PUSH2 0xD46 PUSH2 0xAAB JUMP JUMPDEST JUMPDEST PUSH0 DUP5 ADD CALLDATALOAD PUSH8 0xFFFFFFFFFFFFFFFF DUP2 GT ISZERO PUSH2 0xD64 JUMPI PUSH2 0xD63 PUSH2 0xAAF JUMP JUMPDEST JUMPDEST PUSH2 0xD70 DUP7 DUP3 DUP8 ADD PUSH2 0xD03 JUMP JUMPDEST SWAP4 POP POP PUSH1 0x20 DUP5 ADD CALLDATALOAD PUSH8 0xFFFFFFFFFFFFFFFF DUP2 GT ISZERO PUSH2 0xD91 JUMPI PUSH2 0xD90 PUSH2 0xAAF JUMP JUMPDEST JUMPDEST PUSH2 0xD9D DUP7 DUP3 DUP8 ADD PUSH2 0xD03 JUMP JUMPDEST SWAP3 POP POP PUSH1 0x40 DUP5 ADD CALLDATALOAD PUSH8 0xFFFFFFFFFFFFFFFF DUP2 GT ISZERO PUSH2 0xDBE JUMPI PUSH2 0xDBD PUSH2 0xAAF JUMP JUMPDEST JUMPDEST PUSH2 0xDCA DUP7 DUP3 DUP8 ADD PUSH2 0xD03 JUMP JUMPDEST SWAP2 POP POP SWAP3 POP SWAP3 POP SWAP3 JUMP JUMPDEST PUSH0 PUSH20 0xFFFFFFFFFFFFFFFFFFFFFFFFFFFFFFFFFFFFFFFF DUP3 AND SWAP1 POP SWAP2 SWAP1 POP JUMP JUMPDEST PUSH0 PUSH2 0xDFD DUP3 PUSH2 0xDD4 JUMP JUMPDEST SWAP1 POP SWAP2 SWAP1 POP JUMP JUMPDEST PUSH2 0xE0D DUP2 PUSH2 0xDF3 JUMP JUMPDEST DUP3 MSTORE POP POP JUMP JUMPDEST PUSH0 PUSH1 0xE0 DUP3 ADD SWAP1 POP DUP2 DUP2 SUB PUSH0 DUP4 ADD MSTORE PUSH2 0xE2B DUP2 DUP11 PUSH2 0xB49 JUMP JUMPDEST SWAP1 POP DUP2 DUP2 SUB PUSH1 0x20 DUP4 ADD MSTORE PUSH2 0xE3F DUP2 DUP10 PUSH2 0xB49 JUMP JUMPDEST SWAP1 POP DUP2 DUP2 SUB PUSH1 0x40 DUP4 ADD MSTORE PUSH2 0xE53 DUP2 DUP9 PUSH2 0xB49 JUMP JUMPDEST SWAP1 POP PUSH2 0xE62 PUSH1 0x60 DUP4 ADD DUP8 PUSH2 0xB8A JUMP JUMPDEST PUSH2 0xE6F PUSH1 0x80 DUP4 ADD DUP7 PUSH2 0xE04 JUMP JUMPDEST PUSH2 0xE7C PUSH1 0xA0 DUP4 ADD DUP6 PUSH2 0xBA4 JUMP JUMPDEST PUSH2 0xE89 PUSH1 0xC0 DUP4 ADD DUP5 PUSH2 0xBA4 JUMP JUMPDEST SWAP9 SWAP8 POP POP POP POP POP POP POP POP JUMP JUMPDEST PUSH0 PUSH1 0x20 DUP3 ADD SWAP1 POP PUSH2 0xEA8 PUSH0 DUP4 ADD DUP5 PUSH2 0xE04 JUMP JUMPDEST SWAP3 SWAP2 POP POP JUMP JUMPDEST PUSH32 0x4E487B7100000000000000000000000000000000000000000000000000000000 PUSH0 MSTORE PUSH1 0x22 PUSH1 0x4 MSTORE PUSH1 0x24 PUSH0 REVERT JUMPDEST PUSH0 PUSH1 0x2 DUP3 DIV SWAP1 POP PUSH1 0x1 DUP3 AND DUP1 PUSH2 0xEF2 JUMPI PUSH1 0x7F DUP3 AND SWAP2 POP JUMPDEST PUSH1 0x20 DUP3 LT DUP2 SUB PUSH2 0xF05 JUMPI PUSH2 0xF04 PUSH2 0xEAE JUMP JUMPDEST JUMPDEST POP SWAP2 SWAP1 POP JUMP JUMPDEST PUSH32 0x4F6E6C79204F454D2063616E2063616C6C207468697300000000000000000000 PUSH0 DUP3 ADD MSTORE POP JUMP JUMPDEST PUSH0 PUSH2 0xF3F PUSH1 0x16 DUP4 PUSH2 0xB1B JUMP JUMPDEST SWAP2 POP PUSH2 0xF4A DUP3 PUSH2 0xF0B JUMP JUMPDEST PUSH1 0x20 DUP3 ADD SWAP1 POP SWAP2 SWAP1 POP JUMP JUMPDEST PUSH0 PUSH1 0x20 DUP3 ADD SWAP1 POP DUP2 DUP2 SUB PUSH0 DUP4 ADD MSTORE PUSH2 0xF6C DUP2 PUSH2 0xF33 JUMP JUMPDEST SWAP1 POP SWAP2 SWAP1 POP JUMP JUMPDEST PUSH0 DUP2 SWAP1 POP SWAP3 SWAP2 POP POP JUMP JUMPDEST PUSH0 PUSH2 0xF87 DUP3 PUSH2 0xB11 JUMP JUMPDEST PUSH2 0xF91 DUP2 DUP6 PUSH2 0xF73 JUMP JUMPDEST SWAP4 POP PUSH2 0xFA1 DUP2 DUP6 PUSH1 0x20 DUP7 ADD PUSH2 0xB2B JUMP JUMPDEST DUP1 DUP5 ADD SWAP2 POP POP SWAP3 SWAP2 POP POP JUMP JUMPDEST PUSH0 PUSH2 0xFB8 DUP3 DUP5 PUSH2 0xF7D JUMP JUMPDEST SWAP2 POP DUP2 SWAP1 POP SWAP3 SWAP2 POP POP JUMP JUMPDEST PUSH32 0x44657669636520616C7265616479207265676973746572656400000000000000 PUSH0 DUP3 ADD MSTORE POP JUMP JUMPDEST PUSH0 PUSH2 0xFF7 PUSH1 0x19 DUP4 PUSH2 0xB1B JUMP JUMPDEST SWAP2 POP PUSH2 0x1002 DUP3 PUSH2 0xFC3 JUMP JUMPDEST PUSH1 0x20 DUP3 ADD SWAP1 POP SWAP2 SWAP1 POP JUMP JUMPDEST PUSH0 PUSH1 0x20 DUP3 ADD SWAP1 POP DUP2 DUP2 SUB PUSH0 DUP4 ADD MSTORE PUSH2 0x1024 DUP2 PUSH2 0xFEB JUMP JUMPDEST SWAP1 POP SWAP2 SWAP1 POP JUMP JUMPDEST PUSH0 DUP2 SWAP1 POP DUP2 PUSH0 MSTORE PUSH1 0x20 PUSH0 KECCAK256 SWAP1 POP SWAP2 SWAP1 POP JUMP JUMPDEST PUSH0 PUSH1 0x20 PUSH1 0x1F DUP4 ADD DIV SWAP1 POP SWAP2 SWAP1 POP JUMP JUMPDEST PUSH0 DUP3 DUP3 SHL SWAP1 POP SWAP3 SWAP2 POP POP JUMP JUMPDEST PUSH0 PUSH1 0x8 DUP4 MUL PUSH2 0x1087 PUSH32 0xFFFFFFFFFFFFFFFFFFFFFFFFFFFFFFFFFFFFFFFFFFFFFFFFFFFFFFFFFFFFFFFF DUP3 PUSH2 0x104C JUMP JUMPDEST PUSH2 0x1091 DUP7 DUP4 PUSH2 0x104C JUMP JUMPDEST SWAP6 POP DUP1 NOT DUP5 AND SWAP4 POP DUP1 DUP7 AND DUP5 OR SWAP3 POP POP POP SWAP4 SWAP3 POP POP POP JUMP JUMPDEST PUSH0 DUP2 SWAP1 POP SWAP2 SWAP1 POP JUMP JUMPDEST PUSH0 PUSH2 0x10CC PUSH2 0x10C7 PUSH2 0x10C2 DUP5 PUSH2 0xB81 JUMP JUMPDEST PUSH2 0x10A9 JUMP JUMPDEST PUSH2 0xB81 JUMP JUMPDEST SWAP1 POP SWAP2 SWAP1 POP JUMP JUMPDEST PUSH0 DUP2 SWAP1 POP SWAP2 SWAP1 POP JUMP JUMPDEST PUSH2 0x10E5 DUP4 PUSH2 0x10B2 JUMP JUMPDEST PUSH2 0x10F9 PUSH2 0x10F1 DUP3 PUSH2 0x10D3 JUMP JUMPDEST DUP5 DUP5 SLOAD PUSH2 0x1058 JUMP JUMPDEST DUP3 SSTORE POP POP POP POP JUMP JUMPDEST PUSH0 PUSH0 SWAP1 POP SWAP1 JUMP JUMPDEST PUSH2 0x1110 PUSH2 0x1101 JUMP JUMPDEST PUSH2 0x111B DUP2 DUP5 DUP5 PUSH2 0x10DC JUMP JUMPDEST POP POP POP JUMP JUMPDEST JUMPDEST DUP2 DUP2 LT ISZERO PUSH2 0x113E JUMPI PUSH2 0x1133 PUSH0 DUP3 PUSH2 0x1108 JUMP JUMPDEST PUSH1 0x1 DUP2 ADD SWAP1 POP PUSH2 0x1121 JUMP JUMPDEST POP POP JUMP JUMPDEST PUSH1 0x1F DUP3 GT ISZERO PUSH2 0x1183 JUMPI PUSH2 0x1154 DUP2 PUSH2 0x102B JUMP JUMPDEST PUSH2 0x115D DUP5 PUSH2 0x103D JUMP JUMPDEST DUP2 ADD PUSH1 0x20 DUP6 LT ISZERO PUSH2 0x116C JUMPI DUP2 SWAP1 POP JUMPDEST PUSH2 0x1180 PUSH2 0x1178 DUP6 PUSH2 0x103D JUMP JUMPDEST DUP4 ADD DUP3 PUSH2 0x1120 JUMP JUMPDEST POP POP JUMPDEST POP POP POP JUMP JUMPDEST PUSH0 DUP3 DUP3 SHR SWAP1 POP SWAP3 SWAP2 POP POP JUMP JUMPDEST PUSH0 PUSH2 0x11A3 PUSH0 NOT DUP5 PUSH1 0x8 MUL PUSH2 0x1188 JUMP JUMPDEST NOT DUP1 DUP4 AND SWAP2 POP POP SWAP3 SWAP2 POP POP JUMP JUMPDEST PUSH0 PUSH2 0x11BB DUP4 DUP4 PUSH2 0x1194 JUMP JUMPDEST SWAP2 POP DUP3 PUSH1 0x2 MUL DUP3 OR SWAP1 POP SWAP3 SWAP2 POP POP JUMP JUMPDEST PUSH2 0x11D4 DUP3 PUSH2 0xB11 JUMP JUMPDEST PUSH8 0xFFFFFFFFFFFFFFFF DUP2 GT ISZERO PUSH2 0x11ED JUMPI PUSH2 0x11EC PUSH2 0xC0C JUMP JUMPDEST JUMPDEST PUSH2 0x11F7 DUP3 SLOAD PUSH2 0xEDB JUMP JUMPDEST PUSH2 0x1202 DUP3 DUP3 DUP6 PUSH2 0x1142 JUMP JUMPDEST PUSH0 PUSH1 0x20 SWAP1 POP PUSH1 0x1F DUP4 GT PUSH1 0x1 DUP2 EQ PUSH2 0x1233 JUMPI PUSH0 DUP5 ISZERO PUSH2 0x1221 JUMPI DUP3 DUP8 ADD MLOAD SWAP1 POP JUMPDEST PUSH2 0x122B DUP6 DUP3 PUSH2 0x11B0 JUMP JUMPDEST DUP7 SSTORE POP PUSH2 0x1292 JUMP JUMPDEST PUSH1 0x1F NOT DUP5 AND PUSH2 0x1241 DUP7 PUSH2 0x102B JUMP JUMPDEST PUSH0 JUMPDEST DUP3 DUP2 LT ISZERO PUSH2 0x1268 JUMPI DUP5 DUP10 ADD MLOAD DUP3 SSTORE PUSH1 0x1 DUP3 ADD SWAP2 POP PUSH1 0x20 DUP6 ADD SWAP5 POP PUSH1 0x20 DUP2 ADD SWAP1 POP PUSH2 0x1243 JUMP JUMPDEST DUP7 DUP4 LT ISZERO PUSH2 0x1285 JUMPI DUP5 DUP10 ADD MLOAD PUSH2 0x1281 PUSH1 0x1F DUP10 AND DUP3 PUSH2 0x1194 JUMP JUMPDEST DUP4 SSTORE POP JUMPDEST PUSH1 0x1 PUSH1 0x2 DUP9 MUL ADD DUP9 SSTORE POP POP POP JUMPDEST POP POP POP POP POP POP JUMP INVALID LOG2 PUSH5 0x6970667358 0x22 SLT KECCAK256 0xFC SSTORE TLOAD CALLER 0x1E 0xA6 PUSH8 0x36C0B8C356697872 0xE LOG2 DATALOADN 0xC0A1 ADDMOD PUSH29 0xAF7C0853D7F7A1C99F0B64736F6C634300081E00330000000000000000 "
				},
				"gasEstimates": {
					"creation": {
						"codeDepositCost": "963200",
						"executionCost": "25263",
						"totalCost": "988463"
					},
					"external": {
						"componentExists()": "2683",
						"components(bytes32)": "infinite",
						"decommission()": "2640",
						"deviceExists()": "2618",
						"devices(bytes32)": "infinite",
						"getDevice()": "2684",
						"oem()": "2573",
						"registerComponent()": "2595",
						"registerDevice(string,string,string)": "infinite",
						"transferOwnership()": "2662"
					}
				},
				"methodIdentifiers": {
					"componentExists()": "fb86145b",
					"components(bytes32)": "1a4999c9",
					"decommission()": "7f068c0f",
					"deviceExists()": "4c5d8e76",
					"devices(bytes32)": "c5c400de",
					"getDevice()": "8ea286c2",
					"oem()": "e96f2fd8",
					"registerComponent()": "accf8a97",
					"registerDevice(string,string,string)": "bceaa96a",
					"transferOwnership()": "880ad0af"
				}
			},
			"storageLayout": {
				"storage": [
					{
						"astId": 3,
						"contract": "contracts/DeviceRegistry.sol:DeviceRegistry",
						"label": "oem",
						"offset": 0,
						"slot": "0",
						"type": "t_address"
					},
					{
						"astId": 53,
						"contract": "contracts/DeviceRegistry.sol:DeviceRegistry",
						"label": "devices",
						"offset": 0,
						"slot": "1",
						"type": "t_mapping(t_bytes32,t_struct(Device)27_storage)"
					},
					{
						"astId": 58,
						"contract": "contracts/DeviceRegistry.sol:DeviceRegistry",
						"label": "components",
						"offset": 0,
						"slot": "2",
						"type": "t_mapping(t_bytes32,t_struct(Component)36_storage)"
					}
				],
				"types": {
					"t_address": {
						"encoding": "inplace",
						"label": "address",
						"numberOfBytes": "20"
					},
					"t_bool": {
						"encoding": "inplace",
						"label": "bool",
						"numberOfBytes": "1"
					},
					"t_bytes32": {
						"encoding": "inplace",
						"label": "bytes32",
						"numberOfBytes": "32"
					},
					"t_mapping(t_bytes32,t_struct(Component)36_storage)": {
						"encoding": "mapping",
						"key": "t_bytes32",
						"label": "mapping(bytes32 => struct DeviceRegistry.Component)",
						"numberOfBytes": "32",
						"value": "t_struct(Component)36_storage"
					},
					"t_mapping(t_bytes32,t_struct(Device)27_storage)": {
						"encoding": "mapping",
						"key": "t_bytes32",
						"label": "mapping(bytes32 => struct DeviceRegistry.Device)",
						"numberOfBytes": "32",
						"value": "t_struct(Device)27_storage"
					},
					"t_string_storage": {
						"encoding": "bytes",
						"label": "string",
						"numberOfBytes": "32"
					},
					"t_struct(Component)36_storage": {
						"encoding": "inplace",
						"label": "struct DeviceRegistry.Component",
						"members": [
							{
								"astId": 29,
								"contract": "contracts/DeviceRegistry.sol:DeviceRegistry",
								"label": "partNumber",
								"offset": 0,
								"slot": "0",
								"type": "t_string_storage"
							},
							{
								"astId": 31,
								"contract": "contracts/DeviceRegistry.sol:DeviceRegistry",
								"label": "componentType",
								"offset": 0,
								"slot": "1",
								"type": "t_string_storage"
							},
							{
								"astId": 33,
								"contract": "contracts/DeviceRegistry.sol:DeviceRegistry",
								"label": "manufactureDate",
								"offset": 0,
								"slot": "2",
								"type": "t_uint256"
							},
							{
								"astId": 35,
								"contract": "contracts/DeviceRegistry.sol:DeviceRegistry",
								"label": "exists",
								"offset": 0,
								"slot": "3",
								"type": "t_bool"
							}
						],
						"numberOfBytes": "128"
					},
					"t_struct(Device)27_storage": {
						"encoding": "inplace",
						"label": "struct DeviceRegistry.Device",
						"members": [
							{
								"astId": 14,
								"contract": "contracts/DeviceRegistry.sol:DeviceRegistry",
								"label": "serialNumber",
								"offset": 0,
								"slot": "0",
								"type": "t_string_storage"
							},
							{
								"astId": 16,
								"contract": "contracts/DeviceRegistry.sol:DeviceRegistry",
								"label": "imei",
								"offset": 0,
								"slot": "1",
								"type": "t_string_storage"
							},
							{
								"astId": 18,
								"contract": "contracts/DeviceRegistry.sol:DeviceRegistry",
								"label": "model",
								"offset": 0,
								"slot": "2",
								"type": "t_string_storage"
							},
							{
								"astId": 20,
								"contract": "contracts/DeviceRegistry.sol:DeviceRegistry",
								"label": "manufactureDate",
								"offset": 0,
								"slot": "3",
								"type": "t_uint256"
							},
							{
								"astId": 22,
								"contract": "contracts/DeviceRegistry.sol:DeviceRegistry",
								"label": "currentOwner",
								"offset": 0,
								"slot": "4",
								"type": "t_address"
							},
							{
								"astId": 24,
								"contract": "contracts/DeviceRegistry.sol:DeviceRegistry",
								"label": "exists",
								"offset": 20,
								"slot": "4",
								"type": "t_bool"
							},
							{
								"astId": 26,
								"contract": "contracts/DeviceRegistry.sol:DeviceRegistry",
								"label": "decommissioned",
								"offset": 21,
								"slot": "4",
								"type": "t_bool"
							}
						],
						"numberOfBytes": "160"
					},
					"t_uint256": {
						"encoding": "inplace",
						"label": "uint256",
						"numberOfBytes": "32"
					}
				}
			},
			"userdoc": {
				"kind": "user",
				"methods": {},
				"version": 1
			}
		}
	}
}