{
	"contracts/Verification.sol": {
		"Verification": {
			"abi": [
				{
					"inputs": [
						{
							"internalType": "address",
							"name": "_deviceRegistryAddress",
							"type": "address"
						},
						{
							"internalType": "address",
							"name": "_repairEventAddress",
							"type": "address"
						}
					],
					"stateMutability": "nonpayable",
					"type": "constructor"
				},
				{
					"inputs": [
						{
							"internalType": "string",
							"name": "_serialNumber",
							"type": "string"
						}
					],
					"name": "getFullHistory",
					"outputs": [
						{
							"internalType": "bool",
							"name": "isActive",
							"type": "bool"
						},
						{
							"internalType": "uint256",
							"name": "trustScore",
							"type": "uint256"
						},
						{
							"components": [
								{
									"internalType": "string",
									"name": "serialNumber",
									"type": "string"
								},
								{
									"internalType": "string",
									"name": "removedPart",
									"type": "string"
								},
								{
									"internalType": "string",
									"name": "newPart",
									"type": "string"
								},
								{
									"internalType": "address",
									"name": "repairer",
									"type": "address"
								},
								{
									"internalType": "uint256",
									"name": "timestamp",
									"type": "uint256"
								},
								{
									"internalType": "enum IRepairEvent.RepairStatus",
									"name": "status",
									"type": "uint8"
								}
							],
							"internalType": "struct IRepairEvent.Repair[]",
							"name": "repairs",
							"type": "tuple[]"
						}
					],
					"stateMutability": "view",
					"type": "function"
				},
				{
					"inputs": [
						{
							"internalType": "string",
							"name": "_serialNumber",
							"type": "string"
						}
					],
					"name": "getTrustScore",
					"outputs": [
						{
							"internalType": "uint256",
							"name": "",
							"type": "uint256"
						}
					],
					"stateMutability": "view",
					"type": "function"
				},
				{
					"inputs": [
						{
							"internalType": "string",
							"name": "_serialNumber",
							"type": "string"
						}
					],
					"name": "verifyDevice",
					"outputs": [
						{
							"internalType": "bool",
							"name": "",
							"type": "bool"
						}
					],
					"stateMutability": "view",
					"type": "function"
				}
			],
			"devdoc": {
				"kind": "dev",
				"methods": {},
				"version": 1
			},
			"evm": {
				"assembly": "    /* \"contracts/Verification.sol\":667:2406  contract Verification {... */\n  mstore(0x40, 0x80)\n    /* \"contracts/Verification.sol\":788:1170  constructor(address _deviceRegistryAddress, address _repairEventAddress) {... */\n  callvalue\n  dup1\n  iszero\n  tag_1\n  jumpi\n  0x00\n  dup1\n  revert\ntag_1:\n  pop\n  mload(0x40)\n  sub(codesize, bytecodeSize)\n  dup1\n  bytecodeSize\n  dup4\n  codecopy\n  dup2\n  dup2\n  add\n  0x40\n  mstore\n  dup2\n  add\n  swap1\n  tag_2\n  swap2\n  swap1\n  tag_3\n  jump\t// in\ntag_2:\n    /* \"contracts/Verification.sol\":914:915  0 */\n  0x00\n    /* \"contracts/Verification.sol\":880:916  _deviceRegistryAddress != address(0) */\n  0xffffffffffffffffffffffffffffffffffffffff\n  and\n    /* \"contracts/Verification.sol\":880:902  _deviceRegistryAddress */\n  dup3\n    /* \"contracts/Verification.sol\":880:916  _deviceRegistryAddress != address(0) */\n  0xffffffffffffffffffffffffffffffffffffffff\n  and\n  sub\n    /* \"contracts/Verification.sol\":872:945  require(_deviceRegistryAddress != address(0), \"Invalid registry address\") */\n  tag_6\n  jumpi\n  mload(0x40)\n  0x08c379a000000000000000000000000000000000000000000000000000000000\n  dup2\n  mstore\n  0x04\n  add\n  tag_7\n  swap1\n  tag_8\n  jump\t// in\ntag_7:\n  mload(0x40)\n  dup1\n  swap2\n  sub\n  swap1\n  revert\ntag_6:\n    /* \"contracts/Verification.sol\":998:999  0 */\n  0x00\n    /* \"contracts/Verification.sol\":964:1000  _repairEventAddress    != address(0) */\n  0xffffffffffffffffffffffffffffffffffffffff\n  and\n    /* \"contracts/Verification.sol\":964:983  _repairEventAddress */\n  dup2\n    /* \"contracts/Verification.sol\":964:1000  _repairEventAddress    != address(0) */\n  0xffffffffffffffffffffffffffffffffffffffff\n  and\n  sub\n    /* \"contracts/Verification.sol\":956:1033  require(_repairEventAddress    != address(0), \"Invalid repair event address\") */\n  tag_9\n  jumpi\n  mload(0x40)\n  0x08c379a000000000000000000000000000000000000000000000000000000000\n  dup2\n  mstore\n  0x04\n  add\n  tag_10\n  swap1\n  tag_11\n  jump\t// in\ntag_10:\n  mload(0x40)\n  dup1\n  swap2\n  sub\n  swap1\n  revert\ntag_9:\n    /* \"contracts/Verification.sol\":1078:1100  _deviceRegistryAddress */\n  dup2\n    /* \"contracts/Verification.sol\":1044:1058  deviceRegistry */\n  0x00\n  dup1\n    /* \"contracts/Verification.sol\":1044:1101  deviceRegistry = IDeviceRegistryV(_deviceRegistryAddress) */\n  0x0100\n  exp\n  dup2\n  sload\n  dup2\n  0xffffffffffffffffffffffffffffffffffffffff\n  mul\n  not\n  and\n  swap1\n  dup4\n  0xffffffffffffffffffffffffffffffffffffffff\n  and\n  mul\n  or\n  swap1\n  sstore\n  pop\n    /* \"contracts/Verification.sol\":1142:1161  _repairEventAddress */\n  dup1\n    /* \"contracts/Verification.sol\":1112:1123  repairEvent */\n  0x01\n  0x00\n    /* \"contracts/Verification.sol\":1112:1162  repairEvent    = IRepairEvent(_repairEventAddress) */\n  0x0100\n  exp\n  dup2\n  sload\n  dup2\n  0xffffffffffffffffffffffffffffffffffffffff\n  mul\n  not\n  and\n  swap1\n  dup4\n  0xffffffffffffffffffffffffffffffffffffffff\n  and\n  mul\n  or\n  swap1\n  sstore\n  pop\n    /* \"contracts/Verification.sol\":788:1170  constructor(address _deviceRegistryAddress, address _repairEventAddress) {... */\n  pop\n  pop\n    /* \"contracts/Verification.sol\":667:2406  contract Verification {... */\n  jump(tag_12)\n    /* \"#utility.yul\":88:205   */\ntag_14:\n    /* \"#utility.yul\":197:198   */\n  0x00\n    /* \"#utility.yul\":194:195   */\n  dup1\n    /* \"#utility.yul\":187:199   */\n  revert\n    /* \"#utility.yul\":334:460   */\ntag_16:\n    /* \"#utility.yul\":371:378   */\n  0x00\n    /* \"#utility.yul\":411:453   */\n  0xffffffffffffffffffffffffffffffffffffffff\n    /* \"#utility.yul\":404:409   */\n  dup3\n    /* \"#utility.yul\":400:454   */\n  and\n    /* \"#utility.yul\":389:454   */\n  swap1\n  pop\n    /* \"#utility.yul\":334:460   */\n  swap2\n  swap1\n  pop\n  jump\t// out\n    /* \"#utility.yul\":466:562   */\ntag_17:\n    /* \"#utility.yul\":503:510   */\n  0x00\n    /* \"#utility.yul\":532:556   */\n  tag_31\n    /* \"#utility.yul\":550:555   */\n  dup3\n    /* \"#utility.yul\":532:556   */\n  tag_16\n  jump\t// in\ntag_31:\n    /* \"#utility.yul\":521:556   */\n  swap1\n  pop\n    /* \"#utility.yul\":466:562   */\n  swap2\n  swap1\n  pop\n  jump\t// out\n    /* \"#utility.yul\":568:690   */\ntag_18:\n    /* \"#utility.yul\":641:665   */\n  tag_33\n    /* \"#utility.yul\":659:664   */\n  dup2\n    /* \"#utility.yul\":641:665   */\n  tag_17\n  jump\t// in\ntag_33:\n    /* \"#utility.yul\":634:639   */\n  dup2\n    /* \"#utility.yul\":631:666   */\n  eq\n    /* \"#utility.yul\":621:684   */\n  tag_34\n  jumpi\n    /* \"#utility.yul\":680:681   */\n  0x00\n    /* \"#utility.yul\":677:678   */\n  dup1\n    /* \"#utility.yul\":670:682   */\n  revert\n    /* \"#utility.yul\":621:684   */\ntag_34:\n    /* \"#utility.yul\":568:690   */\n  pop\n  jump\t// out\n    /* \"#utility.yul\":696:839   */\ntag_19:\n    /* \"#utility.yul\":753:758   */\n  0x00\n    /* \"#utility.yul\":784:790   */\n  dup2\n    /* \"#utility.yul\":778:791   */\n  mload\n    /* \"#utility.yul\":769:791   */\n  swap1\n  pop\n    /* \"#utility.yul\":800:833   */\n  tag_36\n    /* \"#utility.yul\":827:832   */\n  dup2\n    /* \"#utility.yul\":800:833   */\n  tag_18\n  jump\t// in\ntag_36:\n    /* \"#utility.yul\":696:839   */\n  swap3\n  swap2\n  pop\n  pop\n  jump\t// out\n    /* \"#utility.yul\":845:1352   */\ntag_3:\n    /* \"#utility.yul\":924:930   */\n  0x00\n    /* \"#utility.yul\":932:938   */\n  dup1\n    /* \"#utility.yul\":981:983   */\n  0x40\n    /* \"#utility.yul\":969:978   */\n  dup4\n    /* \"#utility.yul\":960:967   */\n  dup6\n    /* \"#utility.yul\":956:979   */\n  sub\n    /* \"#utility.yul\":952:984   */\n  slt\n    /* \"#utility.yul\":949:1068   */\n  iszero\n  tag_38\n  jumpi\n    /* \"#utility.yul\":987:1066   */\n  tag_39\n  tag_14\n  jump\t// in\ntag_39:\n    /* \"#utility.yul\":949:1068   */\ntag_38:\n    /* \"#utility.yul\":1107:1108   */\n  0x00\n    /* \"#utility.yul\":1132:1196   */\n  tag_40\n    /* \"#utility.yul\":1188:1195   */\n  dup6\n    /* \"#utility.yul\":1179:1185   */\n  dup3\n    /* \"#utility.yul\":1168:1177   */\n  dup7\n    /* \"#utility.yul\":1164:1186   */\n  add\n    /* \"#utility.yul\":1132:1196   */\n  tag_19\n  jump\t// in\ntag_40:\n    /* \"#utility.yul\":1122:1196   */\n  swap3\n  pop\n    /* \"#utility.yul\":1078:1206   */\n  pop\n    /* \"#utility.yul\":1245:1247   */\n  0x20\n    /* \"#utility.yul\":1271:1335   */\n  tag_41\n    /* \"#utility.yul\":1327:1334   */\n  dup6\n    /* \"#utility.yul\":1318:1324   */\n  dup3\n    /* \"#utility.yul\":1307:1316   */\n  dup7\n    /* \"#utility.yul\":1303:1325   */\n  add\n    /* \"#utility.yul\":1271:1335   */\n  tag_19\n  jump\t// in\ntag_41:\n    /* \"#utility.yul\":1261:1335   */\n  swap2\n  pop\n    /* \"#utility.yul\":1216:1345   */\n  pop\n    /* \"#utility.yul\":845:1352   */\n  swap3\n  pop\n  swap3\n  swap1\n  pop\n  jump\t// out\n    /* \"#utility.yul\":1358:1527   */\ntag_20:\n    /* \"#utility.yul\":1442:1453   */\n  0x00\n    /* \"#utility.yul\":1476:1482   */\n  dup3\n    /* \"#utility.yul\":1471:1474   */\n  dup3\n    /* \"#utility.yul\":1464:1483   */\n  mstore\n    /* \"#utility.yul\":1516:1520   */\n  0x20\n    /* \"#utility.yul\":1511:1514   */\n  dup3\n    /* \"#utility.yul\":1507:1521   */\n  add\n    /* \"#utility.yul\":1492:1521   */\n  swap1\n  pop\n    /* \"#utility.yul\":1358:1527   */\n  swap3\n  swap2\n  pop\n  pop\n  jump\t// out\n    /* \"#utility.yul\":1533:1707   */\ntag_21:\n    /* \"#utility.yul\":1673:1699   */\n  0x496e76616c696420726567697374727920616464726573730000000000000000\n    /* \"#utility.yul\":1669:1670   */\n  0x00\n    /* \"#utility.yul\":1661:1667   */\n  dup3\n    /* \"#utility.yul\":1657:1671   */\n  add\n    /* \"#utility.yul\":1650:1700   */\n  mstore\n    /* \"#utility.yul\":1533:1707   */\n  pop\n  jump\t// out\n    /* \"#utility.yul\":1713:2079   */\ntag_22:\n    /* \"#utility.yul\":1855:1858   */\n  0x00\n    /* \"#utility.yul\":1876:1943   */\n  tag_45\n    /* \"#utility.yul\":1940:1942   */\n  0x18\n    /* \"#utility.yul\":1935:1938   */\n  dup4\n    /* \"#utility.yul\":1876:1943   */\n  tag_20\n  jump\t// in\ntag_45:\n    /* \"#utility.yul\":1869:1943   */\n  swap2\n  pop\n    /* \"#utility.yul\":1952:2045   */\n  tag_46\n    /* \"#utility.yul\":2041:2044   */\n  dup3\n    /* \"#utility.yul\":1952:2045   */\n  tag_21\n  jump\t// in\ntag_46:\n    /* \"#utility.yul\":2070:2072   */\n  0x20\n    /* \"#utility.yul\":2065:2068   */\n  dup3\n    /* \"#utility.yul\":2061:2073   */\n  add\n    /* \"#utility.yul\":2054:2073   */\n  swap1\n  pop\n    /* \"#utility.yul\":1713:2079   */\n  swap2\n  swap1\n  pop\n  jump\t// out\n    /* \"#utility.yul\":2085:2504   */\ntag_8:\n    /* \"#utility.yul\":2251:2255   */\n  0x00\n    /* \"#utility.yul\":2289:2291   */\n  0x20\n    /* \"#utility.yul\":2278:2287   */\n  dup3\n    /* \"#utility.yul\":2274:2292   */\n  add\n    /* \"#utility.yul\":2266:2292   */\n  swap1\n  pop\n    /* \"#utility.yul\":2338:2347   */\n  dup2\n    /* \"#utility.yul\":2332:2336   */\n  dup2\n    /* \"#utility.yul\":2328:2348   */\n  sub\n    /* \"#utility.yul\":2324:2325   */\n  0x00\n    /* \"#utility.yul\":2313:2322   */\n  dup4\n    /* \"#utility.yul\":2309:2326   */\n  add\n    /* \"#utility.yul\":2302:2349   */\n  mstore\n    /* \"#utility.yul\":2366:2497   */\n  tag_48\n    /* \"#utility.yul\":2492:2496   */\n  dup2\n    /* \"#utility.yul\":2366:2497   */\n  tag_22\n  jump\t// in\ntag_48:\n    /* \"#utility.yul\":2358:2497   */\n  swap1\n  pop\n    /* \"#utility.yul\":2085:2504   */\n  swap2\n  swap1\n  pop\n  jump\t// out\n    /* \"#utility.yul\":2510:2688   */\ntag_23:\n    /* \"#utility.yul\":2650:2680   */\n  0x496e76616c696420726570616972206576656e74206164647265737300000000\n    /* \"#utility.yul\":2646:2647   */\n  0x00\n    /* \"#utility.yul\":2638:2644   */\n  dup3\n    /* \"#utility.yul\":2634:2648   */\n  add\n    /* \"#utility.yul\":2627:2681   */\n  mstore\n    /* \"#utility.yul\":2510:2688   */\n  pop\n  jump\t// out\n    /* \"#utility.yul\":2694:3060   */\ntag_24:\n    /* \"#utility.yul\":2836:2839   */\n  0x00\n    /* \"#utility.yul\":2857:2924   */\n  tag_51\n    /* \"#utility.yul\":2921:2923   */\n  0x1c\n    /* \"#utility.yul\":2916:2919   */\n  dup4\n    /* \"#utility.yul\":2857:2924   */\n  tag_20\n  jump\t// in\ntag_51:\n    /* \"#utility.yul\":2850:2924   */\n  swap2\n  pop\n    /* \"#utility.yul\":2933:3026   */\n  tag_52\n    /* \"#utility.yul\":3022:3025   */\n  dup3\n    /* \"#utility.yul\":2933:3026   */\n  tag_23\n  jump\t// in\ntag_52:\n    /* \"#utility.yul\":3051:3053   */\n  0x20\n    /* \"#utility.yul\":3046:3049   */\n  dup3\n    /* \"#utility.yul\":3042:3054   */\n  add\n    /* \"#utility.yul\":3035:3054   */\n  swap1\n  pop\n    /* \"#utility.yul\":2694:3060   */\n  swap2\n  swap1\n  pop\n  jump\t// out\n    /* \"#utility.yul\":3066:3485   */\ntag_11:\n    /* \"#utility.yul\":3232:3236   */\n  0x00\n    /* \"#utility.yul\":3270:3272   */\n  0x20\n    /* \"#utility.yul\":3259:3268   */\n  dup3\n    /* \"#utility.yul\":3255:3273   */\n  add\n    /* \"#utility.yul\":3247:3273   */\n  swap1\n  pop\n    /* \"#utility.yul\":3319:3328   */\n  dup2\n    /* \"#utility.yul\":3313:3317   */\n  dup2\n    /* \"#utility.yul\":3309:3329   */\n  sub\n    /* \"#utility.yul\":3305:3306   */\n  0x00\n    /* \"#utility.yul\":3294:3303   */\n  dup4\n    /* \"#utility.yul\":3290:3307   */\n  add\n    /* \"#utility.yul\":3283:3330   */\n  mstore\n    /* \"#utility.yul\":3347:3478   */\n  tag_54\n    /* \"#utility.yul\":3473:3477   */\n  dup2\n    /* \"#utility.yul\":3347:3478   */\n  tag_24\n  jump\t// in\ntag_54:\n    /* \"#utility.yul\":3339:3478   */\n  swap1\n  pop\n    /* \"#utility.yul\":3066:3485   */\n  swap2\n  swap1\n  pop\n  jump\t// out\n    /* \"contracts/Verification.sol\":667:2406  contract Verification {... */\ntag_12:\n  dataSize(sub_0)\n  dup1\n  dataOffset(sub_0)\n  0x00\n  codecopy\n  0x00\n  return\nstop\n\nsub_0: assembly {\n        /* \"contracts/Verification.sol\":667:2406  contract Verification {... */\n      mstore(0x40, 0x80)\n      callvalue\n      dup1\n      iszero\n      tag_1\n      jumpi\n      0x00\n      dup1\n      revert\n    tag_1:\n      pop\n      jumpi(tag_2, lt(calldatasize, 0x04))\n      shr(0xe0, calldataload(0x00))\n      dup1\n      0x1c5fb192\n      eq\n      tag_3\n      jumpi\n      dup1\n      0x2a9c17d7\n      eq\n      tag_4\n      jumpi\n      dup1\n      0xc58d8497\n      eq\n      tag_5\n      jumpi\n    tag_2:\n      0x00\n      dup1\n      revert\n        /* \"contracts/Verification.sol\":1346:1991  function getTrustScore(string memory _serialNumber)... */\n    tag_3:\n      tag_6\n      0x04\n      dup1\n      calldatasize\n      sub\n      dup2\n      add\n      swap1\n      tag_7\n      swap2\n      swap1\n      tag_8\n      jump\t// in\n    tag_7:\n      tag_9\n      jump\t// in\n    tag_6:\n      mload(0x40)\n      tag_10\n      swap2\n      swap1\n      tag_11\n      jump\t// in\n    tag_10:\n      mload(0x40)\n      dup1\n      swap2\n      sub\n      swap1\n      return\n        /* \"contracts/Verification.sol\":1178:1338  function verifyDevice(string memory _serialNumber)... */\n    tag_4:\n      tag_12\n      0x04\n      dup1\n      calldatasize\n      sub\n      dup2\n      add\n      swap1\n      tag_13\n      swap2\n      swap1\n      tag_8\n      jump\t// in\n    tag_13:\n      tag_14\n      jump\t// in\n    tag_12:\n      mload(0x40)\n      tag_15\n      swap2\n      swap1\n      tag_16\n      jump\t// in\n    tag_15:\n      mload(0x40)\n      dup1\n      swap2\n      sub\n      swap1\n      return\n        /* \"contracts/Verification.sol\":1999:2403  function getFullHistory(string memory _serialNumber)... */\n    tag_5:\n      tag_17\n      0x04\n      dup1\n      calldatasize\n      sub\n      dup2\n      add\n      swap1\n      tag_18\n      swap2\n      swap1\n      tag_8\n      jump\t// in\n    tag_18:\n      tag_19\n      jump\t// in\n    tag_17:\n      mload(0x40)\n      tag_20\n      swap4\n      swap3\n      swap2\n      swap1\n      tag_21\n      jump\t// in\n    tag_20:\n      mload(0x40)\n      dup1\n      swap2\n      sub\n      swap1\n      return\n        /* \"contracts/Verification.sol\":1346:1991  function getTrustScore(string memory _serialNumber)... */\n    tag_9:\n        /* \"contracts/Verification.sol\":1428:1435  uint256 */\n      0x00\n        /* \"contracts/Verification.sol\":1453:1466  uint256 total */\n      dup1\n        /* \"contracts/Verification.sol\":1469:1480  repairEvent */\n      0x01\n      0x00\n      swap1\n      sload\n      swap1\n      0x0100\n      exp\n      swap1\n      div\n      0xffffffffffffffffffffffffffffffffffffffff\n      and\n        /* \"contracts/Verification.sol\":1469:1495  repairEvent.getRepairCount */\n      0xffffffffffffffffffffffffffffffffffffffff\n      and\n      0x727b703f\n        /* \"contracts/Verification.sol\":1496:1509  _serialNumber */\n      dup5\n        /* \"contracts/Verification.sol\":1469:1510  repairEvent.getRepairCount(_serialNumber) */\n      mload(0x40)\n      dup3\n      0xffffffff\n      and\n      0xe0\n      shl\n      dup2\n      mstore\n      0x04\n      add\n      tag_23\n      swap2\n      swap1\n      tag_24\n      jump\t// in\n    tag_23:\n      0x20\n      mload(0x40)\n      dup1\n      dup4\n      sub\n      dup2\n      dup7\n      gas\n      staticcall\n      iszero\n      dup1\n      iszero\n      tag_26\n      jumpi\n      returndatasize\n      0x00\n      dup1\n      returndatacopy\n      revert(0x00, returndatasize)\n    tag_26:\n      pop\n      pop\n      pop\n      pop\n      mload(0x40)\n      returndatasize\n      not(0x1f)\n      0x1f\n      dup3\n      add\n      and\n      dup3\n      add\n      dup1\n      0x40\n      mstore\n      pop\n      dup2\n      add\n      swap1\n      tag_27\n      swap2\n      swap1\n      tag_28\n      jump\t// in\n    tag_27:\n        /* \"contracts/Verification.sol\":1453:1510  uint256 total = repairEvent.getRepairCount(_serialNumber) */\n      swap1\n      pop\n        /* \"contracts/Verification.sol\":1536:1537  0 */\n      0x00\n        /* \"contracts/Verification.sol\":1527:1532  total */\n      dup2\n        /* \"contracts/Verification.sol\":1527:1537  total == 0 */\n      sub\n        /* \"contracts/Verification.sol\":1523:1610  if (total == 0) {... */\n      tag_29\n      jumpi\n        /* \"contracts/Verification.sol\":1561:1564  100 */\n      0x64\n        /* \"contracts/Verification.sol\":1554:1564  return 100 */\n      swap2\n      pop\n      pop\n      jump(tag_22)\n        /* \"contracts/Verification.sol\":1523:1610  if (total == 0) {... */\n    tag_29:\n        /* \"contracts/Verification.sol\":1622:1658  IRepairEvent.Repair[] memory history */\n      0x00\n        /* \"contracts/Verification.sol\":1661:1672  repairEvent */\n      0x01\n      0x00\n      swap1\n      sload\n      swap1\n      0x0100\n      exp\n      swap1\n      div\n      0xffffffffffffffffffffffffffffffffffffffff\n      and\n        /* \"contracts/Verification.sol\":1661:1689  repairEvent.getRepairHistory */\n      0xffffffffffffffffffffffffffffffffffffffff\n      and\n      0xbd6c1c85\n        /* \"contracts/Verification.sol\":1690:1703  _serialNumber */\n      dup6\n        /* \"contracts/Verification.sol\":1661:1704  repairEvent.getRepairHistory(_serialNumber) */\n      mload(0x40)\n      dup3\n      0xffffffff\n      and\n      0xe0\n      shl\n      dup2\n      mstore\n      0x04\n      add\n      tag_30\n      swap2\n      swap1\n      tag_24\n      jump\t// in\n    tag_30:\n      0x00\n      mload(0x40)\n      dup1\n      dup4\n      sub\n      dup2\n      dup7\n      gas\n      staticcall\n      iszero\n      dup1\n      iszero\n      tag_32\n      jumpi\n      returndatasize\n      0x00\n      dup1\n      returndatacopy\n      revert(0x00, returndatasize)\n    tag_32:\n      pop\n      pop\n      pop\n      pop\n      mload(0x40)\n      returndatasize\n      0x00\n      dup3\n      returndatacopy\n      returndatasize\n      not(0x1f)\n      0x1f\n      dup3\n      add\n      and\n      dup3\n      add\n      dup1\n      0x40\n      mstore\n      pop\n      dup2\n      add\n      swap1\n      tag_33\n      swap2\n      swap1\n      tag_34\n      jump\t// in\n    tag_33:\n        /* \"contracts/Verification.sol\":1622:1704  IRepairEvent.Repair[] memory history = repairEvent.getRepairHistory(_serialNumber) */\n      swap1\n      pop\n        /* \"contracts/Verification.sol\":1715:1736  uint256 verifiedCount */\n      0x00\n        /* \"contracts/Verification.sol\":1758:1767  uint256 i */\n      dup1\n        /* \"contracts/Verification.sol\":1753:1935  for (uint256 i = 0; i < history.length; i++) {... */\n    tag_35:\n        /* \"contracts/Verification.sol\":1777:1784  history */\n      dup3\n        /* \"contracts/Verification.sol\":1777:1791  history.length */\n      mload\n        /* \"contracts/Verification.sol\":1773:1774  i */\n      dup2\n        /* \"contracts/Verification.sol\":1773:1791  i < history.length */\n      lt\n        /* \"contracts/Verification.sol\":1753:1935  for (uint256 i = 0; i < history.length; i++) {... */\n      iszero\n      tag_36\n      jumpi\n        /* \"contracts/Verification.sol\":1838:1872  IRepairEvent.RepairStatus.VERIFIED */\n      0x00\n        /* \"contracts/Verification.sol\":1817:1872  history[i].status == IRepairEvent.RepairStatus.VERIFIED */\n      0x01\n      dup2\n      gt\n      iszero\n      tag_38\n      jumpi\n      tag_39\n      tag_40\n      jump\t// in\n    tag_39:\n    tag_38:\n        /* \"contracts/Verification.sol\":1817:1824  history */\n      dup4\n        /* \"contracts/Verification.sol\":1825:1826  i */\n      dup3\n        /* \"contracts/Verification.sol\":1817:1827  history[i] */\n      dup2\n      mload\n      dup2\n      lt\n      tag_41\n      jumpi\n      tag_42\n      tag_43\n      jump\t// in\n    tag_42:\n    tag_41:\n      0x20\n      mul\n      0x20\n      add\n      add\n      mload\n        /* \"contracts/Verification.sol\":1817:1834  history[i].status */\n      0xa0\n      add\n      mload\n        /* \"contracts/Verification.sol\":1817:1872  history[i].status == IRepairEvent.RepairStatus.VERIFIED */\n      0x01\n      dup2\n      gt\n      iszero\n      tag_44\n      jumpi\n      tag_45\n      tag_40\n      jump\t// in\n    tag_45:\n    tag_44:\n      sub\n        /* \"contracts/Verification.sol\":1813:1924  if (history[i].status == IRepairEvent.RepairStatus.VERIFIED) {... */\n      tag_46\n      jumpi\n        /* \"contracts/Verification.sol\":1893:1908  verifiedCount++ */\n      dup2\n      dup1\n      tag_47\n      swap1\n      tag_48\n      jump\t// in\n    tag_47:\n      swap3\n      pop\n      pop\n        /* \"contracts/Verification.sol\":1813:1924  if (history[i].status == IRepairEvent.RepairStatus.VERIFIED) {... */\n    tag_46:\n        /* \"contracts/Verification.sol\":1793:1796  i++ */\n      dup1\n      dup1\n      0x01\n      add\n      swap2\n      pop\n      pop\n        /* \"contracts/Verification.sol\":1753:1935  for (uint256 i = 0; i < history.length; i++) {... */\n      jump(tag_35)\n    tag_36:\n      pop\n        /* \"contracts/Verification.sol\":1978:1983  total */\n      dup3\n        /* \"contracts/Verification.sol\":1971:1974  100 */\n      0x64\n        /* \"contracts/Verification.sol\":1955:1968  verifiedCount */\n      dup3\n        /* \"contracts/Verification.sol\":1955:1974  verifiedCount * 100 */\n      tag_49\n      swap2\n      swap1\n      tag_50\n      jump\t// in\n    tag_49:\n        /* \"contracts/Verification.sol\":1954:1983  (verifiedCount * 100) / total */\n      tag_51\n      swap2\n      swap1\n      tag_52\n      jump\t// in\n    tag_51:\n        /* \"contracts/Verification.sol\":1947:1983  return (verifiedCount * 100) / total */\n      swap4\n      pop\n      pop\n      pop\n      pop\n        /* \"contracts/Verification.sol\":1346:1991  function getTrustScore(string memory _serialNumber)... */\n    tag_22:\n      swap2\n      swap1\n      pop\n      jump\t// out\n        /* \"contracts/Verification.sol\":1178:1338  function verifyDevice(string memory _serialNumber)... */\n    tag_14:\n        /* \"contracts/Verification.sol\":1259:1263  bool */\n      0x00\n        /* \"contracts/Verification.sol\":1288:1302  deviceRegistry */\n      dup1\n      0x00\n      swap1\n      sload\n      swap1\n      0x0100\n      exp\n      swap1\n      div\n      0xffffffffffffffffffffffffffffffffffffffff\n      and\n        /* \"contracts/Verification.sol\":1288:1315  deviceRegistry.deviceExists */\n      0xffffffffffffffffffffffffffffffffffffffff\n      and\n      0xaaed589d\n        /* \"contracts/Verification.sol\":1316:1329  _serialNumber */\n      dup4\n        /* \"contracts/Verification.sol\":1288:1330  deviceRegistry.deviceExists(_serialNumber) */\n      mload(0x40)\n      dup3\n      0xffffffff\n      and\n      0xe0\n      shl\n      dup2\n      mstore\n      0x04\n      add\n      tag_54\n      swap2\n      swap1\n      tag_24\n      jump\t// in\n    tag_54:\n      0x20\n      mload(0x40)\n      dup1\n      dup4\n      sub\n      dup2\n      dup7\n      gas\n      staticcall\n      iszero\n      dup1\n      iszero\n      tag_56\n      jumpi\n      returndatasize\n      0x00\n      dup1\n      returndatacopy\n      revert(0x00, returndatasize)\n    tag_56:\n      pop\n      pop\n      pop\n      pop\n      mload(0x40)\n      returndatasize\n      not(0x1f)\n      0x1f\n      dup3\n      add\n      and\n      dup3\n      add\n      dup1\n      0x40\n      mstore\n      pop\n      dup2\n      add\n      swap1\n      tag_57\n      swap2\n      swap1\n      tag_58\n      jump\t// in\n    tag_57:\n        /* \"contracts/Verification.sol\":1281:1330  return deviceRegistry.deviceExists(_serialNumber) */\n      swap1\n      pop\n        /* \"contracts/Verification.sol\":1178:1338  function verifyDevice(string memory _serialNumber)... */\n      swap2\n      swap1\n      pop\n      jump\t// out\n        /* \"contracts/Verification.sol\":1999:2403  function getFullHistory(string memory _serialNumber)... */\n    tag_19:\n        /* \"contracts/Verification.sol\":2096:2109  bool isActive */\n      0x00\n        /* \"contracts/Verification.sol\":2124:2142  uint256 trustScore */\n      dup1\n        /* \"contracts/Verification.sol\":2157:2193  IRepairEvent.Repair[] memory repairs */\n      0x60\n        /* \"contracts/Verification.sol\":2234:2248  deviceRegistry */\n      0x00\n      dup1\n      sload\n      swap1\n      0x0100\n      exp\n      swap1\n      div\n      0xffffffffffffffffffffffffffffffffffffffff\n      and\n        /* \"contracts/Verification.sol\":2234:2261  deviceRegistry.deviceExists */\n      0xffffffffffffffffffffffffffffffffffffffff\n      and\n      0xaaed589d\n        /* \"contracts/Verification.sol\":2262:2275  _serialNumber */\n      dup6\n        /* \"contracts/Verification.sol\":2234:2276  deviceRegistry.deviceExists(_serialNumber) */\n      mload(0x40)\n      dup3\n      0xffffffff\n      and\n      0xe0\n      shl\n      dup2\n      mstore\n      0x04\n      add\n      tag_60\n      swap2\n      swap1\n      tag_24\n      jump\t// in\n    tag_60:\n      0x20\n      mload(0x40)\n      dup1\n      dup4\n      sub\n      dup2\n      dup7\n      gas\n      staticcall\n      iszero\n      dup1\n      iszero\n      tag_62\n      jumpi\n      returndatasize\n      0x00\n      dup1\n      returndatacopy\n      revert(0x00, returndatasize)\n    tag_62:\n      pop\n      pop\n      pop\n      pop\n      mload(0x40)\n      returndatasize\n      not(0x1f)\n      0x1f\n      dup3\n      add\n      and\n      dup3\n      add\n      dup1\n      0x40\n      mstore\n      pop\n      dup2\n      add\n      swap1\n      tag_63\n      swap2\n      swap1\n      tag_58\n      jump\t// in\n    tag_63:\n        /* \"contracts/Verification.sol\":2221:2276  isActive   = deviceRegistry.deviceExists(_serialNumber) */\n      swap3\n      pop\n        /* \"contracts/Verification.sol\":2300:2328  getTrustScore(_serialNumber) */\n      tag_64\n        /* \"contracts/Verification.sol\":2314:2327  _serialNumber */\n      dup5\n        /* \"contracts/Verification.sol\":2300:2313  getTrustScore */\n      tag_9\n        /* \"contracts/Verification.sol\":2300:2328  getTrustScore(_serialNumber) */\n      jump\t// in\n    tag_64:\n        /* \"contracts/Verification.sol\":2287:2328  trustScore = getTrustScore(_serialNumber) */\n      swap2\n      pop\n        /* \"contracts/Verification.sol\":2352:2363  repairEvent */\n      0x01\n      0x00\n      swap1\n      sload\n      swap1\n      0x0100\n      exp\n      swap1\n      div\n      0xffffffffffffffffffffffffffffffffffffffff\n      and\n        /* \"contracts/Verification.sol\":2352:2380  repairEvent.getRepairHistory */\n      0xffffffffffffffffffffffffffffffffffffffff\n      and\n      0xbd6c1c85\n        /* \"contracts/Verification.sol\":2381:2394  _serialNumber */\n      dup6\n        /* \"contracts/Verification.sol\":2352:2395  repairEvent.getRepairHistory(_serialNumber) */\n      mload(0x40)\n      dup3\n      0xffffffff\n      and\n      0xe0\n      shl\n      dup2\n      mstore\n      0x04\n      add\n      tag_65\n      swap2\n      swap1\n      tag_24\n      jump\t// in\n    tag_65:\n      0x00\n      mload(0x40)\n      dup1\n      dup4\n      sub\n      dup2\n      dup7\n      gas\n      staticcall\n      iszero\n      dup1\n      iszero\n      tag_67\n      jumpi\n      returndatasize\n      0x00\n      dup1\n      returndatacopy\n      revert(0x00, returndatasize)\n    tag_67:\n      pop\n      pop\n      pop\n      pop\n      mload(0x40)\n      returndatasize\n      0x00\n      dup3\n      returndatacopy\n      returndatasize\n      not(0x1f)\n      0x1f\n      dup3\n      add\n      and\n      dup3\n      add\n      dup1\n      0x40\n      mstore\n      pop\n      dup2\n      add\n      swap1\n      tag_68\n      swap2\n      swap1\n      tag_34\n      jump\t// in\n    tag_68:\n        /* \"contracts/Verification.sol\":2339:2395  repairs    = repairEvent.getRepairHistory(_serialNumber) */\n      swap1\n      pop\n        /* \"contracts/Verification.sol\":1999:2403  function getFullHistory(string memory _serialNumber)... */\n      swap2\n      swap4\n      swap1\n      swap3\n      pop\n      jump\t// out\n        /* \"#utility.yul\":7:82   */\n    tag_69:\n        /* \"#utility.yul\":40:46   */\n      0x00\n        /* \"#utility.yul\":73:75   */\n      0x40\n        /* \"#utility.yul\":67:76   */\n      mload\n        /* \"#utility.yul\":57:76   */\n      swap1\n      pop\n        /* \"#utility.yul\":7:82   */\n      swap1\n      jump\t// out\n        /* \"#utility.yul\":88:205   */\n    tag_70:\n        /* \"#utility.yul\":197:198   */\n      0x00\n        /* \"#utility.yul\":194:195   */\n      dup1\n        /* \"#utility.yul\":187:199   */\n      revert\n        /* \"#utility.yul\":211:328   */\n    tag_71:\n        /* \"#utility.yul\":320:321   */\n      0x00\n        /* \"#utility.yul\":317:318   */\n      dup1\n        /* \"#utility.yul\":310:322   */\n      revert\n        /* \"#utility.yul\":334:451   */\n    tag_72:\n        /* \"#utility.yul\":443:444   */\n      0x00\n        /* \"#utility.yul\":440:441   */\n      dup1\n        /* \"#utility.yul\":433:445   */\n      revert\n        /* \"#utility.yul\":457:574   */\n    tag_73:\n        /* \"#utility.yul\":566:567   */\n      0x00\n        /* \"#utility.yul\":563:564   */\n      dup1\n        /* \"#utility.yul\":556:568   */\n      revert\n        /* \"#utility.yul\":580:682   */\n    tag_74:\n        /* \"#utility.yul\":621:627   */\n      0x00\n        /* \"#utility.yul\":672:674   */\n      0x1f\n        /* \"#utility.yul\":668:675   */\n      not\n        /* \"#utility.yul\":663:665   */\n      0x1f\n        /* \"#utility.yul\":656:661   */\n      dup4\n        /* \"#utility.yul\":652:666   */\n      add\n        /* \"#utility.yul\":648:676   */\n      and\n        /* \"#utility.yul\":638:676   */\n      swap1\n      pop\n        /* \"#utility.yul\":580:682   */\n      swap2\n      swap1\n      pop\n      jump\t// out\n        /* \"#utility.yul\":688:868   */\n    tag_75:\n        /* \"#utility.yul\":736:813   */\n      0x4e487b7100000000000000000000000000000000000000000000000000000000\n        /* \"#utility.yul\":733:734   */\n      0x00\n        /* \"#utility.yul\":726:814   */\n      mstore\n        /* \"#utility.yul\":833:837   */\n      0x41\n        /* \"#utility.yul\":830:831   */\n      0x04\n        /* \"#utility.yul\":823:838   */\n      mstore\n        /* \"#utility.yul\":857:861   */\n      0x24\n        /* \"#utility.yul\":854:855   */\n      0x00\n        /* \"#utility.yul\":847:862   */\n      revert\n        /* \"#utility.yul\":874:1155   */\n    tag_76:\n        /* \"#utility.yul\":957:984   */\n      tag_135\n        /* \"#utility.yul\":979:983   */\n      dup3\n        /* \"#utility.yul\":957:984   */\n      tag_74\n      jump\t// in\n    tag_135:\n        /* \"#utility.yul\":949:955   */\n      dup2\n        /* \"#utility.yul\":945:985   */\n      add\n        /* \"#utility.yul\":1087:1093   */\n      dup2\n        /* \"#utility.yul\":1075:1085   */\n      dup2\n        /* \"#utility.yul\":1072:1094   */\n      lt\n        /* \"#utility.yul\":1051:1069   */\n      0xffffffffffffffff\n        /* \"#utility.yul\":1039:1049   */\n      dup3\n        /* \"#utility.yul\":1036:1070   */\n      gt\n        /* \"#utility.yul\":1033:1095   */\n      or\n        /* \"#utility.yul\":1030:1118   */\n      iszero\n      tag_136\n      jumpi\n        /* \"#utility.yul\":1098:1116   */\n      tag_137\n      tag_75\n      jump\t// in\n    tag_137:\n        /* \"#utility.yul\":1030:1118   */\n    tag_136:\n        /* \"#utility.yul\":1138:1148   */\n      dup1\n        /* \"#utility.yul\":1134:1136   */\n      0x40\n        /* \"#utility.yul\":1127:1149   */\n      mstore\n        /* \"#utility.yul\":917:1155   */\n      pop\n        /* \"#utility.yul\":874:1155   */\n      pop\n      pop\n      jump\t// out\n        /* \"#utility.yul\":1161:1290   */\n    tag_77:\n        /* \"#utility.yul\":1195:1201   */\n      0x00\n        /* \"#utility.yul\":1222:1242   */\n      tag_139\n      tag_69\n      jump\t// in\n    tag_139:\n        /* \"#utility.yul\":1212:1242   */\n      swap1\n      pop\n        /* \"#utility.yul\":1251:1284   */\n      tag_140\n        /* \"#utility.yul\":1279:1283   */\n      dup3\n        /* \"#utility.yul\":1271:1277   */\n      dup3\n        /* \"#utility.yul\":1251:1284   */\n      tag_76\n      jump\t// in\n    tag_140:\n        /* \"#utility.yul\":1161:1290   */\n      swap2\n      swap1\n      pop\n      jump\t// out\n        /* \"#utility.yul\":1296:1604   */\n    tag_78:\n        /* \"#utility.yul\":1358:1362   */\n      0x00\n        /* \"#utility.yul\":1448:1466   */\n      0xffffffffffffffff\n        /* \"#utility.yul\":1440:1446   */\n      dup3\n        /* \"#utility.yul\":1437:1467   */\n      gt\n        /* \"#utility.yul\":1434:1490   */\n      iszero\n      tag_142\n      jumpi\n        /* \"#utility.yul\":1470:1488   */\n      tag_143\n      tag_75\n      jump\t// in\n    tag_143:\n        /* \"#utility.yul\":1434:1490   */\n    tag_142:\n        /* \"#utility.yul\":1508:1537   */\n      tag_144\n        /* \"#utility.yul\":1530:1536   */\n      dup3\n        /* \"#utility.yul\":1508:1537   */\n      tag_74\n      jump\t// in\n    tag_144:\n        /* \"#utility.yul\":1500:1537   */\n      swap1\n      pop\n        /* \"#utility.yul\":1592:1596   */\n      0x20\n        /* \"#utility.yul\":1586:1590   */\n      dup2\n        /* \"#utility.yul\":1582:1597   */\n      add\n        /* \"#utility.yul\":1574:1597   */\n      swap1\n      pop\n        /* \"#utility.yul\":1296:1604   */\n      swap2\n      swap1\n      pop\n      jump\t// out\n        /* \"#utility.yul\":1610:1758   */\n    tag_79:\n        /* \"#utility.yul\":1708:1714   */\n      dup3\n        /* \"#utility.yul\":1703:1706   */\n      dup2\n        /* \"#utility.yul\":1698:1701   */\n      dup4\n        /* \"#utility.yul\":1685:1715   */\n      calldatacopy\n        /* \"#utility.yul\":1749:1750   */\n      0x00\n        /* \"#utility.yul\":1740:1746   */\n      dup4\n        /* \"#utility.yul\":1735:1738   */\n      dup4\n        /* \"#utility.yul\":1731:1747   */\n      add\n        /* \"#utility.yul\":1724:1751   */\n      mstore\n        /* \"#utility.yul\":1610:1758   */\n      pop\n      pop\n      pop\n      jump\t// out\n        /* \"#utility.yul\":1764:2189   */\n    tag_80:\n        /* \"#utility.yul\":1842:1847   */\n      0x00\n        /* \"#utility.yul\":1867:1933   */\n      tag_147\n        /* \"#utility.yul\":1883:1932   */\n      tag_148\n        /* \"#utility.yul\":1925:1931   */\n      dup5\n        /* \"#utility.yul\":1883:1932   */\n      tag_78\n      jump\t// in\n    tag_148:\n        /* \"#utility.yul\":1867:1933   */\n      tag_77\n      jump\t// in\n    tag_147:\n        /* \"#utility.yul\":1858:1933   */\n      swap1\n      pop\n        /* \"#utility.yul\":1956:1962   */\n      dup3\n        /* \"#utility.yul\":1949:1954   */\n      dup2\n        /* \"#utility.yul\":1942:1963   */\n      mstore\n        /* \"#utility.yul\":1994:1998   */\n      0x20\n        /* \"#utility.yul\":1987:1992   */\n      dup2\n        /* \"#utility.yul\":1983:1999   */\n      add\n        /* \"#utility.yul\":2032:2035   */\n      dup5\n        /* \"#utility.yul\":2023:2029   */\n      dup5\n        /* \"#utility.yul\":2018:2021   */\n      dup5\n        /* \"#utility.yul\":2014:2030   */\n      add\n        /* \"#utility.yul\":2011:2036   */\n      gt\n        /* \"#utility.yul\":2008:2120   */\n      iszero\n      tag_149\n      jumpi\n        /* \"#utility.yul\":2039:2118   */\n      tag_150\n      tag_73\n      jump\t// in\n    tag_150:\n        /* \"#utility.yul\":2008:2120   */\n    tag_149:\n        /* \"#utility.yul\":2129:2183   */\n      tag_151\n        /* \"#utility.yul\":2176:2182   */\n      dup5\n        /* \"#utility.yul\":2171:2174   */\n      dup3\n        /* \"#utility.yul\":2166:2169   */\n      dup6\n        /* \"#utility.yul\":2129:2183   */\n      tag_79\n      jump\t// in\n    tag_151:\n        /* \"#utility.yul\":1848:2189   */\n      pop\n        /* \"#utility.yul\":1764:2189   */\n      swap4\n      swap3\n      pop\n      pop\n      pop\n      jump\t// out\n        /* \"#utility.yul\":2209:2549   */\n    tag_81:\n        /* \"#utility.yul\":2265:2270   */\n      0x00\n        /* \"#utility.yul\":2314:2317   */\n      dup3\n        /* \"#utility.yul\":2307:2311   */\n      0x1f\n        /* \"#utility.yul\":2299:2305   */\n      dup4\n        /* \"#utility.yul\":2295:2312   */\n      add\n        /* \"#utility.yul\":2291:2318   */\n      slt\n        /* \"#utility.yul\":2281:2403   */\n      tag_153\n      jumpi\n        /* \"#utility.yul\":2322:2401   */\n      tag_154\n      tag_72\n      jump\t// in\n    tag_154:\n        /* \"#utility.yul\":2281:2403   */\n    tag_153:\n        /* \"#utility.yul\":2439:2445   */\n      dup2\n        /* \"#utility.yul\":2426:2446   */\n      calldataload\n        /* \"#utility.yul\":2464:2543   */\n      tag_155\n        /* \"#utility.yul\":2539:2542   */\n      dup5\n        /* \"#utility.yul\":2531:2537   */\n      dup3\n        /* \"#utility.yul\":2524:2528   */\n      0x20\n        /* \"#utility.yul\":2516:2522   */\n      dup7\n        /* \"#utility.yul\":2512:2529   */\n      add\n        /* \"#utility.yul\":2464:2543   */\n      tag_80\n      jump\t// in\n    tag_155:\n        /* \"#utility.yul\":2455:2543   */\n      swap2\n      pop\n        /* \"#utility.yul\":2271:2549   */\n      pop\n        /* \"#utility.yul\":2209:2549   */\n      swap3\n      swap2\n      pop\n      pop\n      jump\t// out\n        /* \"#utility.yul\":2555:3064   */\n    tag_8:\n        /* \"#utility.yul\":2624:2630   */\n      0x00\n        /* \"#utility.yul\":2673:2675   */\n      0x20\n        /* \"#utility.yul\":2661:2670   */\n      dup3\n        /* \"#utility.yul\":2652:2659   */\n      dup5\n        /* \"#utility.yul\":2648:2671   */\n      sub\n        /* \"#utility.yul\":2644:2676   */\n      slt\n        /* \"#utility.yul\":2641:2760   */\n      iszero\n      tag_157\n      jumpi\n        /* \"#utility.yul\":2679:2758   */\n      tag_158\n      tag_70\n      jump\t// in\n    tag_158:\n        /* \"#utility.yul\":2641:2760   */\n    tag_157:\n        /* \"#utility.yul\":2827:2828   */\n      0x00\n        /* \"#utility.yul\":2816:2825   */\n      dup3\n        /* \"#utility.yul\":2812:2829   */\n      add\n        /* \"#utility.yul\":2799:2830   */\n      calldataload\n        /* \"#utility.yul\":2857:2875   */\n      0xffffffffffffffff\n        /* \"#utility.yul\":2849:2855   */\n      dup2\n        /* \"#utility.yul\":2846:2876   */\n      gt\n        /* \"#utility.yul\":2843:2960   */\n      iszero\n      tag_159\n      jumpi\n        /* \"#utility.yul\":2879:2958   */\n      tag_160\n      tag_71\n      jump\t// in\n    tag_160:\n        /* \"#utility.yul\":2843:2960   */\n    tag_159:\n        /* \"#utility.yul\":2984:3047   */\n      tag_161\n        /* \"#utility.yul\":3039:3046   */\n      dup5\n        /* \"#utility.yul\":3030:3036   */\n      dup3\n        /* \"#utility.yul\":3019:3028   */\n      dup6\n        /* \"#utility.yul\":3015:3037   */\n      add\n        /* \"#utility.yul\":2984:3047   */\n      tag_81\n      jump\t// in\n    tag_161:\n        /* \"#utility.yul\":2974:3047   */\n      swap2\n      pop\n        /* \"#utility.yul\":2770:3057   */\n      pop\n        /* \"#utility.yul\":2555:3064   */\n      swap3\n      swap2\n      pop\n      pop\n      jump\t// out\n        /* \"#utility.yul\":3070:3147   */\n    tag_82:\n        /* \"#utility.yul\":3107:3114   */\n      0x00\n        /* \"#utility.yul\":3136:3141   */\n      dup2\n        /* \"#utility.yul\":3125:3141   */\n      swap1\n      pop\n        /* \"#utility.yul\":3070:3147   */\n      swap2\n      swap1\n      pop\n      jump\t// out\n        /* \"#utility.yul\":3153:3271   */\n    tag_83:\n        /* \"#utility.yul\":3240:3264   */\n      tag_164\n        /* \"#utility.yul\":3258:3263   */\n      dup2\n        /* \"#utility.yul\":3240:3264   */\n      tag_82\n      jump\t// in\n    tag_164:\n        /* \"#utility.yul\":3235:3238   */\n      dup3\n        /* \"#utility.yul\":3228:3265   */\n      mstore\n        /* \"#utility.yul\":3153:3271   */\n      pop\n      pop\n      jump\t// out\n        /* \"#utility.yul\":3277:3499   */\n    tag_11:\n        /* \"#utility.yul\":3370:3374   */\n      0x00\n        /* \"#utility.yul\":3408:3410   */\n      0x20\n        /* \"#utility.yul\":3397:3406   */\n      dup3\n        /* \"#utility.yul\":3393:3411   */\n      add\n        /* \"#utility.yul\":3385:3411   */\n      swap1\n      pop\n        /* \"#utility.yul\":3421:3492   */\n      tag_166\n        /* \"#utility.yul\":3489:3490   */\n      0x00\n        /* \"#utility.yul\":3478:3487   */\n      dup4\n        /* \"#utility.yul\":3474:3491   */\n      add\n        /* \"#utility.yul\":3465:3471   */\n      dup5\n        /* \"#utility.yul\":3421:3492   */\n      tag_83\n      jump\t// in\n    tag_166:\n        /* \"#utility.yul\":3277:3499   */\n      swap3\n      swap2\n      pop\n      pop\n      jump\t// out\n        /* \"#utility.yul\":3505:3595   */\n    tag_84:\n        /* \"#utility.yul\":3539:3546   */\n      0x00\n        /* \"#utility.yul\":3582:3587   */\n      dup2\n        /* \"#utility.yul\":3575:3588   */\n      iszero\n        /* \"#utility.yul\":3568:3589   */\n      iszero\n        /* \"#utility.yul\":3557:3589   */\n      swap1\n      pop\n        /* \"#utility.yul\":3505:3595   */\n      swap2\n      swap1\n      pop\n      jump\t// out\n        /* \"#utility.yul\":3601:3710   */\n    tag_85:\n        /* \"#utility.yul\":3682:3703   */\n      tag_169\n        /* \"#utility.yul\":3697:3702   */\n      dup2\n        /* \"#utility.yul\":3682:3703   */\n      tag_84\n      jump\t// in\n    tag_169:\n        /* \"#utility.yul\":3677:3680   */\n      dup3\n        /* \"#utility.yul\":3670:3704   */\n      mstore\n        /* \"#utility.yul\":3601:3710   */\n      pop\n      pop\n      jump\t// out\n        /* \"#utility.yul\":3716:3926   */\n    tag_16:\n        /* \"#utility.yul\":3803:3807   */\n      0x00\n        /* \"#utility.yul\":3841:3843   */\n      0x20\n        /* \"#utility.yul\":3830:3839   */\n      dup3\n        /* \"#utility.yul\":3826:3844   */\n      add\n        /* \"#utility.yul\":3818:3844   */\n      swap1\n      pop\n        /* \"#utility.yul\":3854:3919   */\n      tag_171\n        /* \"#utility.yul\":3916:3917   */\n      0x00\n        /* \"#utility.yul\":3905:3914   */\n      dup4\n        /* \"#utility.yul\":3901:3918   */\n      add\n        /* \"#utility.yul\":3892:3898   */\n      dup5\n        /* \"#utility.yul\":3854:3919   */\n      tag_85\n      jump\t// in\n    tag_171:\n        /* \"#utility.yul\":3716:3926   */\n      swap3\n      swap2\n      pop\n      pop\n      jump\t// out\n        /* \"#utility.yul\":3932:4068   */\n    tag_86:\n        /* \"#utility.yul\":4021:4027   */\n      0x00\n        /* \"#utility.yul\":4055:4060   */\n      dup2\n        /* \"#utility.yul\":4049:4061   */\n      mload\n        /* \"#utility.yul\":4039:4061   */\n      swap1\n      pop\n        /* \"#utility.yul\":3932:4068   */\n      swap2\n      swap1\n      pop\n      jump\t// out\n        /* \"#utility.yul\":4074:4280   */\n    tag_87:\n        /* \"#utility.yul\":4195:4206   */\n      0x00\n        /* \"#utility.yul\":4229:4235   */\n      dup3\n        /* \"#utility.yul\":4224:4227   */\n      dup3\n        /* \"#utility.yul\":4217:4236   */\n      mstore\n        /* \"#utility.yul\":4269:4273   */\n      0x20\n        /* \"#utility.yul\":4264:4267   */\n      dup3\n        /* \"#utility.yul\":4260:4274   */\n      add\n        /* \"#utility.yul\":4245:4274   */\n      swap1\n      pop\n        /* \"#utility.yul\":4074:4280   */\n      swap3\n      swap2\n      pop\n      pop\n      jump\t// out\n        /* \"#utility.yul\":4286:4440   */\n    tag_88:\n        /* \"#utility.yul\":4375:4379   */\n      0x00\n        /* \"#utility.yul\":4398:4401   */\n      dup2\n        /* \"#utility.yul\":4390:4401   */\n      swap1\n      pop\n        /* \"#utility.yul\":4428:4432   */\n      0x20\n        /* \"#utility.yul\":4423:4426   */\n      dup3\n        /* \"#utility.yul\":4419:4433   */\n      add\n        /* \"#utility.yul\":4411:4433   */\n      swap1\n      pop\n        /* \"#utility.yul\":4286:4440   */\n      swap2\n      swap1\n      pop\n      jump\t// out\n        /* \"#utility.yul\":4446:4545   */\n    tag_89:\n        /* \"#utility.yul\":4498:4504   */\n      0x00\n        /* \"#utility.yul\":4532:4537   */\n      dup2\n        /* \"#utility.yul\":4526:4538   */\n      mload\n        /* \"#utility.yul\":4516:4538   */\n      swap1\n      pop\n        /* \"#utility.yul\":4446:4545   */\n      swap2\n      swap1\n      pop\n      jump\t// out\n        /* \"#utility.yul\":4551:4710   */\n    tag_90:\n        /* \"#utility.yul\":4625:4636   */\n      0x00\n        /* \"#utility.yul\":4659:4665   */\n      dup3\n        /* \"#utility.yul\":4654:4657   */\n      dup3\n        /* \"#utility.yul\":4647:4666   */\n      mstore\n        /* \"#utility.yul\":4699:4703   */\n      0x20\n        /* \"#utility.yul\":4694:4697   */\n      dup3\n        /* \"#utility.yul\":4690:4704   */\n      add\n        /* \"#utility.yul\":4675:4704   */\n      swap1\n      pop\n        /* \"#utility.yul\":4551:4710   */\n      swap3\n      swap2\n      pop\n      pop\n      jump\t// out\n        /* \"#utility.yul\":4716:4964   */\n    tag_91:\n        /* \"#utility.yul\":4798:4799   */\n      0x00\n        /* \"#utility.yul\":4808:4921   */\n    tag_178:\n        /* \"#utility.yul\":4822:4828   */\n      dup4\n        /* \"#utility.yul\":4819:4820   */\n      dup2\n        /* \"#utility.yul\":4816:4829   */\n      lt\n        /* \"#utility.yul\":4808:4921   */\n      iszero\n      tag_180\n      jumpi\n        /* \"#utility.yul\":4907:4908   */\n      dup1\n        /* \"#utility.yul\":4902:4905   */\n      dup3\n        /* \"#utility.yul\":4898:4909   */\n      add\n        /* \"#utility.yul\":4892:4910   */\n      mload\n        /* \"#utility.yul\":4888:4889   */\n      dup2\n        /* \"#utility.yul\":4883:4886   */\n      dup5\n        /* \"#utility.yul\":4879:4890   */\n      add\n        /* \"#utility.yul\":4872:4911   */\n      mstore\n        /* \"#utility.yul\":4844:4846   */\n      0x20\n        /* \"#utility.yul\":4841:4842   */\n      dup2\n        /* \"#utility.yul\":4837:4847   */\n      add\n        /* \"#utility.yul\":4832:4847   */\n      swap1\n      pop\n        /* \"#utility.yul\":4808:4921   */\n      jump(tag_178)\n    tag_180:\n        /* \"#utility.yul\":4955:4956   */\n      0x00\n        /* \"#utility.yul\":4946:4952   */\n      dup5\n        /* \"#utility.yul\":4941:4944   */\n      dup5\n        /* \"#utility.yul\":4937:4953   */\n      add\n        /* \"#utility.yul\":4930:4957   */\n      mstore\n        /* \"#utility.yul\":4778:4964   */\n      pop\n        /* \"#utility.yul\":4716:4964   */\n      pop\n      pop\n      pop\n      jump\t// out\n        /* \"#utility.yul\":4970:5327   */\n    tag_92:\n        /* \"#utility.yul\":5048:5051   */\n      0x00\n        /* \"#utility.yul\":5076:5115   */\n      tag_182\n        /* \"#utility.yul\":5109:5114   */\n      dup3\n        /* \"#utility.yul\":5076:5115   */\n      tag_89\n      jump\t// in\n    tag_182:\n        /* \"#utility.yul\":5131:5192   */\n      tag_183\n        /* \"#utility.yul\":5185:5191   */\n      dup2\n        /* \"#utility.yul\":5180:5183   */\n      dup6\n        /* \"#utility.yul\":5131:5192   */\n      tag_90\n      jump\t// in\n    tag_183:\n        /* \"#utility.yul\":5124:5192   */\n      swap4\n      pop\n        /* \"#utility.yul\":5201:5266   */\n      tag_184\n        /* \"#utility.yul\":5259:5265   */\n      dup2\n        /* \"#utility.yul\":5254:5257   */\n      dup6\n        /* \"#utility.yul\":5247:5251   */\n      0x20\n        /* \"#utility.yul\":5240:5245   */\n      dup7\n        /* \"#utility.yul\":5236:5252   */\n      add\n        /* \"#utility.yul\":5201:5266   */\n      tag_91\n      jump\t// in\n    tag_184:\n        /* \"#utility.yul\":5291:5320   */\n      tag_185\n        /* \"#utility.yul\":5313:5319   */\n      dup2\n        /* \"#utility.yul\":5291:5320   */\n      tag_74\n      jump\t// in\n    tag_185:\n        /* \"#utility.yul\":5286:5289   */\n      dup5\n        /* \"#utility.yul\":5282:5321   */\n      add\n        /* \"#utility.yul\":5275:5321   */\n      swap2\n      pop\n        /* \"#utility.yul\":5052:5327   */\n      pop\n        /* \"#utility.yul\":4970:5327   */\n      swap3\n      swap2\n      pop\n      pop\n      jump\t// out\n        /* \"#utility.yul\":5333:5459   */\n    tag_93:\n        /* \"#utility.yul\":5370:5377   */\n      0x00\n        /* \"#utility.yul\":5410:5452   */\n      0xffffffffffffffffffffffffffffffffffffffff\n        /* \"#utility.yul\":5403:5408   */\n      dup3\n        /* \"#utility.yul\":5399:5453   */\n      and\n        /* \"#utility.yul\":5388:5453   */\n      swap1\n      pop\n        /* \"#utility.yul\":5333:5459   */\n      swap2\n      swap1\n      pop\n      jump\t// out\n        /* \"#utility.yul\":5465:5561   */\n    tag_94:\n        /* \"#utility.yul\":5502:5509   */\n      0x00\n        /* \"#utility.yul\":5531:5555   */\n      tag_188\n        /* \"#utility.yul\":5549:5554   */\n      dup3\n        /* \"#utility.yul\":5531:5555   */\n      tag_93\n      jump\t// in\n    tag_188:\n        /* \"#utility.yul\":5520:5555   */\n      swap1\n      pop\n        /* \"#utility.yul\":5465:5561   */\n      swap2\n      swap1\n      pop\n      jump\t// out\n        /* \"#utility.yul\":5567:5675   */\n    tag_95:\n        /* \"#utility.yul\":5644:5668   */\n      tag_190\n        /* \"#utility.yul\":5662:5667   */\n      dup2\n        /* \"#utility.yul\":5644:5668   */\n      tag_94\n      jump\t// in\n    tag_190:\n        /* \"#utility.yul\":5639:5642   */\n      dup3\n        /* \"#utility.yul\":5632:5669   */\n      mstore\n        /* \"#utility.yul\":5567:5675   */\n      pop\n      pop\n      jump\t// out\n        /* \"#utility.yul\":5681:5789   */\n    tag_96:\n        /* \"#utility.yul\":5758:5782   */\n      tag_192\n        /* \"#utility.yul\":5776:5781   */\n      dup2\n        /* \"#utility.yul\":5758:5782   */\n      tag_82\n      jump\t// in\n    tag_192:\n        /* \"#utility.yul\":5753:5756   */\n      dup3\n        /* \"#utility.yul\":5746:5783   */\n      mstore\n        /* \"#utility.yul\":5681:5789   */\n      pop\n      pop\n      jump\t// out\n        /* \"#utility.yul\":5795:5975   */\n    tag_40:\n        /* \"#utility.yul\":5843:5920   */\n      0x4e487b7100000000000000000000000000000000000000000000000000000000\n        /* \"#utility.yul\":5840:5841   */\n      0x00\n        /* \"#utility.yul\":5833:5921   */\n      mstore\n        /* \"#utility.yul\":5940:5944   */\n      0x21\n        /* \"#utility.yul\":5937:5938   */\n      0x04\n        /* \"#utility.yul\":5930:5945   */\n      mstore\n        /* \"#utility.yul\":5964:5968   */\n      0x24\n        /* \"#utility.yul\":5961:5962   */\n      0x00\n        /* \"#utility.yul\":5954:5969   */\n      revert\n        /* \"#utility.yul\":5981:6101   */\n    tag_97:\n        /* \"#utility.yul\":6069:6070   */\n      0x02\n        /* \"#utility.yul\":6062:6067   */\n      dup2\n        /* \"#utility.yul\":6059:6071   */\n      lt\n        /* \"#utility.yul\":6049:6095   */\n      tag_195\n      jumpi\n        /* \"#utility.yul\":6075:6093   */\n      tag_196\n      tag_40\n      jump\t// in\n    tag_196:\n        /* \"#utility.yul\":6049:6095   */\n    tag_195:\n        /* \"#utility.yul\":5981:6101   */\n      pop\n      jump\t// out\n        /* \"#utility.yul\":6107:6248   */\n    tag_98:\n        /* \"#utility.yul\":6159:6166   */\n      0x00\n        /* \"#utility.yul\":6188:6193   */\n      dup2\n        /* \"#utility.yul\":6177:6193   */\n      swap1\n      pop\n        /* \"#utility.yul\":6194:6242   */\n      tag_198\n        /* \"#utility.yul\":6236:6241   */\n      dup3\n        /* \"#utility.yul\":6194:6242   */\n      tag_97\n      jump\t// in\n    tag_198:\n        /* \"#utility.yul\":6107:6248   */\n      swap2\n      swap1\n      pop\n      jump\t// out\n        /* \"#utility.yul\":6254:6395   */\n    tag_99:\n        /* \"#utility.yul\":6317:6326   */\n      0x00\n        /* \"#utility.yul\":6350:6389   */\n      tag_200\n        /* \"#utility.yul\":6383:6388   */\n      dup3\n        /* \"#utility.yul\":6350:6389   */\n      tag_98\n      jump\t// in\n    tag_200:\n        /* \"#utility.yul\":6337:6389   */\n      swap1\n      pop\n        /* \"#utility.yul\":6254:6395   */\n      swap2\n      swap1\n      pop\n      jump\t// out\n        /* \"#utility.yul\":6401:6548   */\n    tag_100:\n        /* \"#utility.yul\":6491:6541   */\n      tag_202\n        /* \"#utility.yul\":6535:6540   */\n      dup2\n        /* \"#utility.yul\":6491:6541   */\n      tag_99\n      jump\t// in\n    tag_202:\n        /* \"#utility.yul\":6486:6489   */\n      dup3\n        /* \"#utility.yul\":6479:6542   */\n      mstore\n        /* \"#utility.yul\":6401:6548   */\n      pop\n      pop\n      jump\t// out\n        /* \"#utility.yul\":6618:8088   */\n    tag_101:\n        /* \"#utility.yul\":6721:6724   */\n      0x00\n        /* \"#utility.yul\":6757:6761   */\n      0xc0\n        /* \"#utility.yul\":6752:6755   */\n      dup4\n        /* \"#utility.yul\":6748:6762   */\n      add\n        /* \"#utility.yul\":6852:6856   */\n      0x00\n        /* \"#utility.yul\":6845:6850   */\n      dup4\n        /* \"#utility.yul\":6841:6857   */\n      add\n        /* \"#utility.yul\":6835:6858   */\n      mload\n        /* \"#utility.yul\":6905:6908   */\n      dup5\n        /* \"#utility.yul\":6899:6903   */\n      dup3\n        /* \"#utility.yul\":6895:6909   */\n      sub\n        /* \"#utility.yul\":6888:6892   */\n      0x00\n        /* \"#utility.yul\":6883:6886   */\n      dup7\n        /* \"#utility.yul\":6879:6893   */\n      add\n        /* \"#utility.yul\":6872:6910   */\n      mstore\n        /* \"#utility.yul\":6931:7004   */\n      tag_204\n        /* \"#utility.yul\":6999:7003   */\n      dup3\n        /* \"#utility.yul\":6985:6997   */\n      dup3\n        /* \"#utility.yul\":6931:7004   */\n      tag_92\n      jump\t// in\n    tag_204:\n        /* \"#utility.yul\":6923:7004   */\n      swap2\n      pop\n        /* \"#utility.yul\":6772:7015   */\n      pop\n        /* \"#utility.yul\":7104:7108   */\n      0x20\n        /* \"#utility.yul\":7097:7102   */\n      dup4\n        /* \"#utility.yul\":7093:7109   */\n      add\n        /* \"#utility.yul\":7087:7110   */\n      mload\n        /* \"#utility.yul\":7157:7160   */\n      dup5\n        /* \"#utility.yul\":7151:7155   */\n      dup3\n        /* \"#utility.yul\":7147:7161   */\n      sub\n        /* \"#utility.yul\":7140:7144   */\n      0x20\n        /* \"#utility.yul\":7135:7138   */\n      dup7\n        /* \"#utility.yul\":7131:7145   */\n      add\n        /* \"#utility.yul\":7124:7162   */\n      mstore\n        /* \"#utility.yul\":7183:7256   */\n      tag_205\n        /* \"#utility.yul\":7251:7255   */\n      dup3\n        /* \"#utility.yul\":7237:7249   */\n      dup3\n        /* \"#utility.yul\":7183:7256   */\n      tag_92\n      jump\t// in\n    tag_205:\n        /* \"#utility.yul\":7175:7256   */\n      swap2\n      pop\n        /* \"#utility.yul\":7025:7267   */\n      pop\n        /* \"#utility.yul\":7352:7356   */\n      0x40\n        /* \"#utility.yul\":7345:7350   */\n      dup4\n        /* \"#utility.yul\":7341:7357   */\n      add\n        /* \"#utility.yul\":7335:7358   */\n      mload\n        /* \"#utility.yul\":7405:7408   */\n      dup5\n        /* \"#utility.yul\":7399:7403   */\n      dup3\n        /* \"#utility.yul\":7395:7409   */\n      sub\n        /* \"#utility.yul\":7388:7392   */\n      0x40\n        /* \"#utility.yul\":7383:7386   */\n      dup7\n        /* \"#utility.yul\":7379:7393   */\n      add\n        /* \"#utility.yul\":7372:7410   */\n      mstore\n        /* \"#utility.yul\":7431:7504   */\n      tag_206\n        /* \"#utility.yul\":7499:7503   */\n      dup3\n        /* \"#utility.yul\":7485:7497   */\n      dup3\n        /* \"#utility.yul\":7431:7504   */\n      tag_92\n      jump\t// in\n    tag_206:\n        /* \"#utility.yul\":7423:7504   */\n      swap2\n      pop\n        /* \"#utility.yul\":7277:7515   */\n      pop\n        /* \"#utility.yul\":7601:7605   */\n      0x60\n        /* \"#utility.yul\":7594:7599   */\n      dup4\n        /* \"#utility.yul\":7590:7606   */\n      add\n        /* \"#utility.yul\":7584:7607   */\n      mload\n        /* \"#utility.yul\":7620:7683   */\n      tag_207\n        /* \"#utility.yul\":7677:7681   */\n      0x60\n        /* \"#utility.yul\":7672:7675   */\n      dup7\n        /* \"#utility.yul\":7668:7682   */\n      add\n        /* \"#utility.yul\":7654:7666   */\n      dup3\n        /* \"#utility.yul\":7620:7683   */\n      tag_95\n      jump\t// in\n    tag_207:\n        /* \"#utility.yul\":7525:7693   */\n      pop\n        /* \"#utility.yul\":7780:7784   */\n      0x80\n        /* \"#utility.yul\":7773:7778   */\n      dup4\n        /* \"#utility.yul\":7769:7785   */\n      add\n        /* \"#utility.yul\":7763:7786   */\n      mload\n        /* \"#utility.yul\":7799:7862   */\n      tag_208\n        /* \"#utility.yul\":7856:7860   */\n      0x80\n        /* \"#utility.yul\":7851:7854   */\n      dup7\n        /* \"#utility.yul\":7847:7861   */\n      add\n        /* \"#utility.yul\":7833:7845   */\n      dup3\n        /* \"#utility.yul\":7799:7862   */\n      tag_96\n      jump\t// in\n    tag_208:\n        /* \"#utility.yul\":7703:7872   */\n      pop\n        /* \"#utility.yul\":7956:7960   */\n      0xa0\n        /* \"#utility.yul\":7949:7954   */\n      dup4\n        /* \"#utility.yul\":7945:7961   */\n      add\n        /* \"#utility.yul\":7939:7962   */\n      mload\n        /* \"#utility.yul\":7975:8051   */\n      tag_209\n        /* \"#utility.yul\":8045:8049   */\n      0xa0\n        /* \"#utility.yul\":8040:8043   */\n      dup7\n        /* \"#utility.yul\":8036:8050   */\n      add\n        /* \"#utility.yul\":8022:8034   */\n      dup3\n        /* \"#utility.yul\":7975:8051   */\n      tag_100\n      jump\t// in\n    tag_209:\n        /* \"#utility.yul\":7882:8061   */\n      pop\n        /* \"#utility.yul\":8078:8082   */\n      dup1\n        /* \"#utility.yul\":8071:8082   */\n      swap2\n      pop\n        /* \"#utility.yul\":6726:8088   */\n      pop\n        /* \"#utility.yul\":6618:8088   */\n      swap3\n      swap2\n      pop\n      pop\n      jump\t// out\n        /* \"#utility.yul\":8094:8338   */\n    tag_102:\n        /* \"#utility.yul\":8207:8217   */\n      0x00\n        /* \"#utility.yul\":8242:8332   */\n      tag_211\n        /* \"#utility.yul\":8328:8331   */\n      dup4\n        /* \"#utility.yul\":8320:8326   */\n      dup4\n        /* \"#utility.yul\":8242:8332   */\n      tag_101\n      jump\t// in\n    tag_211:\n        /* \"#utility.yul\":8228:8332   */\n      swap1\n      pop\n        /* \"#utility.yul\":8094:8338   */\n      swap3\n      swap2\n      pop\n      pop\n      jump\t// out\n        /* \"#utility.yul\":8344:8479   */\n    tag_103:\n        /* \"#utility.yul\":8436:8440   */\n      0x00\n        /* \"#utility.yul\":8468:8472   */\n      0x20\n        /* \"#utility.yul\":8463:8466   */\n      dup3\n        /* \"#utility.yul\":8459:8473   */\n      add\n        /* \"#utility.yul\":8451:8473   */\n      swap1\n      pop\n        /* \"#utility.yul\":8344:8479   */\n      swap2\n      swap1\n      pop\n      jump\t// out\n        /* \"#utility.yul\":8553:9640   */\n    tag_104:\n        /* \"#utility.yul\":8716:8719   */\n      0x00\n        /* \"#utility.yul\":8745:8821   */\n      tag_214\n        /* \"#utility.yul\":8815:8820   */\n      dup3\n        /* \"#utility.yul\":8745:8821   */\n      tag_86\n      jump\t// in\n    tag_214:\n        /* \"#utility.yul\":8837:8945   */\n      tag_215\n        /* \"#utility.yul\":8938:8944   */\n      dup2\n        /* \"#utility.yul\":8933:8936   */\n      dup6\n        /* \"#utility.yul\":8837:8945   */\n      tag_87\n      jump\t// in\n    tag_215:\n        /* \"#utility.yul\":8830:8945   */\n      swap4\n      pop\n        /* \"#utility.yul\":8971:8974   */\n      dup4\n        /* \"#utility.yul\":9016:9020   */\n      0x20\n        /* \"#utility.yul\":9008:9014   */\n      dup3\n        /* \"#utility.yul\":9004:9021   */\n      mul\n        /* \"#utility.yul\":8999:9002   */\n      dup6\n        /* \"#utility.yul\":8995:9022   */\n      add\n        /* \"#utility.yul\":9046:9124   */\n      tag_216\n        /* \"#utility.yul\":9118:9123   */\n      dup6\n        /* \"#utility.yul\":9046:9124   */\n      tag_88\n      jump\t// in\n    tag_216:\n        /* \"#utility.yul\":9147:9154   */\n      dup1\n        /* \"#utility.yul\":9178:9179   */\n      0x00\n        /* \"#utility.yul\":9163:9595   */\n    tag_217:\n        /* \"#utility.yul\":9188:9194   */\n      dup6\n        /* \"#utility.yul\":9185:9186   */\n      dup2\n        /* \"#utility.yul\":9182:9195   */\n      lt\n        /* \"#utility.yul\":9163:9595   */\n      iszero\n      tag_219\n      jumpi\n        /* \"#utility.yul\":9259:9268   */\n      dup5\n        /* \"#utility.yul\":9253:9257   */\n      dup5\n        /* \"#utility.yul\":9249:9269   */\n      sub\n        /* \"#utility.yul\":9244:9247   */\n      dup10\n        /* \"#utility.yul\":9237:9270   */\n      mstore\n        /* \"#utility.yul\":9310:9316   */\n      dup2\n        /* \"#utility.yul\":9304:9317   */\n      mload\n        /* \"#utility.yul\":9338:9446   */\n      tag_220\n        /* \"#utility.yul\":9441:9445   */\n      dup6\n        /* \"#utility.yul\":9426:9439   */\n      dup3\n        /* \"#utility.yul\":9338:9446   */\n      tag_102\n      jump\t// in\n    tag_220:\n        /* \"#utility.yul\":9330:9446   */\n      swap5\n      pop\n        /* \"#utility.yul\":9469:9551   */\n      tag_221\n        /* \"#utility.yul\":9544:9550   */\n      dup4\n        /* \"#utility.yul\":9469:9551   */\n      tag_103\n      jump\t// in\n    tag_221:\n        /* \"#utility.yul\":9459:9551   */\n      swap3\n      pop\n        /* \"#utility.yul\":9580:9584   */\n      0x20\n        /* \"#utility.yul\":9575:9578   */\n      dup11\n        /* \"#utility.yul\":9571:9585   */\n      add\n        /* \"#utility.yul\":9564:9585   */\n      swap10\n      pop\n        /* \"#utility.yul\":9223:9595   */\n      pop\n        /* \"#utility.yul\":9210:9211   */\n      0x01\n        /* \"#utility.yul\":9207:9208   */\n      dup2\n        /* \"#utility.yul\":9203:9212   */\n      add\n        /* \"#utility.yul\":9198:9212   */\n      swap1\n      pop\n        /* \"#utility.yul\":9163:9595   */\n      jump(tag_217)\n    tag_219:\n        /* \"#utility.yul\":9167:9181   */\n      pop\n        /* \"#utility.yul\":9611:9615   */\n      dup3\n        /* \"#utility.yul\":9604:9615   */\n      swap8\n      pop\n        /* \"#utility.yul\":9631:9634   */\n      dup8\n        /* \"#utility.yul\":9624:9634   */\n      swap6\n      pop\n        /* \"#utility.yul\":8721:9640   */\n      pop\n      pop\n      pop\n      pop\n      pop\n        /* \"#utility.yul\":8553:9640   */\n      swap3\n      swap2\n      pop\n      pop\n      jump\t// out\n        /* \"#utility.yul\":9646:10315   */\n    tag_21:\n        /* \"#utility.yul\":9883:9887   */\n      0x00\n        /* \"#utility.yul\":9921:9923   */\n      0x60\n        /* \"#utility.yul\":9910:9919   */\n      dup3\n        /* \"#utility.yul\":9906:9924   */\n      add\n        /* \"#utility.yul\":9898:9924   */\n      swap1\n      pop\n        /* \"#utility.yul\":9934:9999   */\n      tag_223\n        /* \"#utility.yul\":9996:9997   */\n      0x00\n        /* \"#utility.yul\":9985:9994   */\n      dup4\n        /* \"#utility.yul\":9981:9998   */\n      add\n        /* \"#utility.yul\":9972:9978   */\n      dup7\n        /* \"#utility.yul\":9934:9999   */\n      tag_85\n      jump\t// in\n    tag_223:\n        /* \"#utility.yul\":10009:10081   */\n      tag_224\n        /* \"#utility.yul\":10077:10079   */\n      0x20\n        /* \"#utility.yul\":10066:10075   */\n      dup4\n        /* \"#utility.yul\":10062:10080   */\n      add\n        /* \"#utility.yul\":10053:10059   */\n      dup6\n        /* \"#utility.yul\":10009:10081   */\n      tag_83\n      jump\t// in\n    tag_224:\n        /* \"#utility.yul\":10128:10137   */\n      dup2\n        /* \"#utility.yul\":10122:10126   */\n      dup2\n        /* \"#utility.yul\":10118:10138   */\n      sub\n        /* \"#utility.yul\":10113:10115   */\n      0x40\n        /* \"#utility.yul\":10102:10111   */\n      dup4\n        /* \"#utility.yul\":10098:10116   */\n      add\n        /* \"#utility.yul\":10091:10139   */\n      mstore\n        /* \"#utility.yul\":10156:10308   */\n      tag_225\n        /* \"#utility.yul\":10303:10307   */\n      dup2\n        /* \"#utility.yul\":10294:10300   */\n      dup5\n        /* \"#utility.yul\":10156:10308   */\n      tag_104\n      jump\t// in\n    tag_225:\n        /* \"#utility.yul\":10148:10308   */\n      swap1\n      pop\n        /* \"#utility.yul\":9646:10315   */\n      swap5\n      swap4\n      pop\n      pop\n      pop\n      pop\n      jump\t// out\n        /* \"#utility.yul\":10321:10490   */\n    tag_105:\n        /* \"#utility.yul\":10405:10416   */\n      0x00\n        /* \"#utility.yul\":10439:10445   */\n      dup3\n        /* \"#utility.yul\":10434:10437   */\n      dup3\n        /* \"#utility.yul\":10427:10446   */\n      mstore\n        /* \"#utility.yul\":10479:10483   */\n      0x20\n        /* \"#utility.yul\":10474:10477   */\n      dup3\n        /* \"#utility.yul\":10470:10484   */\n      add\n        /* \"#utility.yul\":10455:10484   */\n      swap1\n      pop\n        /* \"#utility.yul\":10321:10490   */\n      swap3\n      swap2\n      pop\n      pop\n      jump\t// out\n        /* \"#utility.yul\":10496:10873   */\n    tag_106:\n        /* \"#utility.yul\":10584:10587   */\n      0x00\n        /* \"#utility.yul\":10612:10651   */\n      tag_228\n        /* \"#utility.yul\":10645:10650   */\n      dup3\n        /* \"#utility.yul\":10612:10651   */\n      tag_89\n      jump\t// in\n    tag_228:\n        /* \"#utility.yul\":10667:10738   */\n      tag_229\n        /* \"#utility.yul\":10731:10737   */\n      dup2\n        /* \"#utility.yul\":10726:10729   */\n      dup6\n        /* \"#utility.yul\":10667:10738   */\n      tag_105\n      jump\t// in\n    tag_229:\n        /* \"#utility.yul\":10660:10738   */\n      swap4\n      pop\n        /* \"#utility.yul\":10747:10812   */\n      tag_230\n        /* \"#utility.yul\":10805:10811   */\n      dup2\n        /* \"#utility.yul\":10800:10803   */\n      dup6\n        /* \"#utility.yul\":10793:10797   */\n      0x20\n        /* \"#utility.yul\":10786:10791   */\n      dup7\n        /* \"#utility.yul\":10782:10798   */\n      add\n        /* \"#utility.yul\":10747:10812   */\n      tag_91\n      jump\t// in\n    tag_230:\n        /* \"#utility.yul\":10837:10866   */\n      tag_231\n        /* \"#utility.yul\":10859:10865   */\n      dup2\n        /* \"#utility.yul\":10837:10866   */\n      tag_74\n      jump\t// in\n    tag_231:\n        /* \"#utility.yul\":10832:10835   */\n      dup5\n        /* \"#utility.yul\":10828:10867   */\n      add\n        /* \"#utility.yul\":10821:10867   */\n      swap2\n      pop\n        /* \"#utility.yul\":10588:10873   */\n      pop\n        /* \"#utility.yul\":10496:10873   */\n      swap3\n      swap2\n      pop\n      pop\n      jump\t// out\n        /* \"#utility.yul\":10879:11192   */\n    tag_24:\n        /* \"#utility.yul\":10992:10996   */\n      0x00\n        /* \"#utility.yul\":11030:11032   */\n      0x20\n        /* \"#utility.yul\":11019:11028   */\n      dup3\n        /* \"#utility.yul\":11015:11033   */\n      add\n        /* \"#utility.yul\":11007:11033   */\n      swap1\n      pop\n        /* \"#utility.yul\":11079:11088   */\n      dup2\n        /* \"#utility.yul\":11073:11077   */\n      dup2\n        /* \"#utility.yul\":11069:11089   */\n      sub\n        /* \"#utility.yul\":11065:11066   */\n      0x00\n        /* \"#utility.yul\":11054:11063   */\n      dup4\n        /* \"#utility.yul\":11050:11067   */\n      add\n        /* \"#utility.yul\":11043:11090   */\n      mstore\n        /* \"#utility.yul\":11107:11185   */\n      tag_233\n        /* \"#utility.yul\":11180:11184   */\n      dup2\n        /* \"#utility.yul\":11171:11177   */\n      dup5\n        /* \"#utility.yul\":11107:11185   */\n      tag_106\n      jump\t// in\n    tag_233:\n        /* \"#utility.yul\":11099:11185   */\n      swap1\n      pop\n        /* \"#utility.yul\":10879:11192   */\n      swap3\n      swap2\n      pop\n      pop\n      jump\t// out\n        /* \"#utility.yul\":11198:11320   */\n    tag_107:\n        /* \"#utility.yul\":11271:11295   */\n      tag_235\n        /* \"#utility.yul\":11289:11294   */\n      dup2\n        /* \"#utility.yul\":11271:11295   */\n      tag_82\n      jump\t// in\n    tag_235:\n        /* \"#utility.yul\":11264:11269   */\n      dup2\n        /* \"#utility.yul\":11261:11296   */\n      eq\n        /* \"#utility.yul\":11251:11314   */\n      tag_236\n      jumpi\n        /* \"#utility.yul\":11310:11311   */\n      0x00\n        /* \"#utility.yul\":11307:11308   */\n      dup1\n        /* \"#utility.yul\":11300:11312   */\n      revert\n        /* \"#utility.yul\":11251:11314   */\n    tag_236:\n        /* \"#utility.yul\":11198:11320   */\n      pop\n      jump\t// out\n        /* \"#utility.yul\":11326:11469   */\n    tag_108:\n        /* \"#utility.yul\":11383:11388   */\n      0x00\n        /* \"#utility.yul\":11414:11420   */\n      dup2\n        /* \"#utility.yul\":11408:11421   */\n      mload\n        /* \"#utility.yul\":11399:11421   */\n      swap1\n      pop\n        /* \"#utility.yul\":11430:11463   */\n      tag_238\n        /* \"#utility.yul\":11457:11462   */\n      dup2\n        /* \"#utility.yul\":11430:11463   */\n      tag_107\n      jump\t// in\n    tag_238:\n        /* \"#utility.yul\":11326:11469   */\n      swap3\n      swap2\n      pop\n      pop\n      jump\t// out\n        /* \"#utility.yul\":11475:11826   */\n    tag_28:\n        /* \"#utility.yul\":11545:11551   */\n      0x00\n        /* \"#utility.yul\":11594:11596   */\n      0x20\n        /* \"#utility.yul\":11582:11591   */\n      dup3\n        /* \"#utility.yul\":11573:11580   */\n      dup5\n        /* \"#utility.yul\":11569:11592   */\n      sub\n        /* \"#utility.yul\":11565:11597   */\n      slt\n        /* \"#utility.yul\":11562:11681   */\n      iszero\n      tag_240\n      jumpi\n        /* \"#utility.yul\":11600:11679   */\n      tag_241\n      tag_70\n      jump\t// in\n    tag_241:\n        /* \"#utility.yul\":11562:11681   */\n    tag_240:\n        /* \"#utility.yul\":11720:11721   */\n      0x00\n        /* \"#utility.yul\":11745:11809   */\n      tag_242\n        /* \"#utility.yul\":11801:11808   */\n      dup5\n        /* \"#utility.yul\":11792:11798   */\n      dup3\n        /* \"#utility.yul\":11781:11790   */\n      dup6\n        /* \"#utility.yul\":11777:11799   */\n      add\n        /* \"#utility.yul\":11745:11809   */\n      tag_108\n      jump\t// in\n    tag_242:\n        /* \"#utility.yul\":11735:11809   */\n      swap2\n      pop\n        /* \"#utility.yul\":11691:11819   */\n      pop\n        /* \"#utility.yul\":11475:11826   */\n      swap3\n      swap2\n      pop\n      pop\n      jump\t// out\n        /* \"#utility.yul\":11832:12165   */\n    tag_109:\n        /* \"#utility.yul\":11931:11935   */\n      0x00\n        /* \"#utility.yul\":12021:12039   */\n      0xffffffffffffffff\n        /* \"#utility.yul\":12013:12019   */\n      dup3\n        /* \"#utility.yul\":12010:12040   */\n      gt\n        /* \"#utility.yul\":12007:12063   */\n      iszero\n      tag_244\n      jumpi\n        /* \"#utility.yul\":12043:12061   */\n      tag_245\n      tag_75\n      jump\t// in\n    tag_245:\n        /* \"#utility.yul\":12007:12063   */\n    tag_244:\n        /* \"#utility.yul\":12093:12097   */\n      0x20\n        /* \"#utility.yul\":12085:12091   */\n      dup3\n        /* \"#utility.yul\":12081:12098   */\n      mul\n        /* \"#utility.yul\":12073:12098   */\n      swap1\n      pop\n        /* \"#utility.yul\":12153:12157   */\n      0x20\n        /* \"#utility.yul\":12147:12151   */\n      dup2\n        /* \"#utility.yul\":12143:12158   */\n      add\n        /* \"#utility.yul\":12135:12158   */\n      swap1\n      pop\n        /* \"#utility.yul\":11832:12165   */\n      swap2\n      swap1\n      pop\n      jump\t// out\n        /* \"#utility.yul\":12171:12288   */\n    tag_110:\n        /* \"#utility.yul\":12280:12281   */\n      0x00\n        /* \"#utility.yul\":12277:12278   */\n      dup1\n        /* \"#utility.yul\":12270:12282   */\n      revert\n        /* \"#utility.yul\":12294:12411   */\n    tag_111:\n        /* \"#utility.yul\":12403:12404   */\n      0x00\n        /* \"#utility.yul\":12400:12401   */\n      dup1\n        /* \"#utility.yul\":12393:12405   */\n      revert\n        /* \"#utility.yul\":12417:12534   */\n    tag_112:\n        /* \"#utility.yul\":12526:12527   */\n      0x00\n        /* \"#utility.yul\":12523:12524   */\n      dup1\n        /* \"#utility.yul\":12516:12528   */\n      revert\n        /* \"#utility.yul\":12540:12974   */\n    tag_113:\n        /* \"#utility.yul\":12629:12634   */\n      0x00\n        /* \"#utility.yul\":12654:12720   */\n      tag_250\n        /* \"#utility.yul\":12670:12719   */\n      tag_251\n        /* \"#utility.yul\":12712:12718   */\n      dup5\n        /* \"#utility.yul\":12670:12719   */\n      tag_78\n      jump\t// in\n    tag_251:\n        /* \"#utility.yul\":12654:12720   */\n      tag_77\n      jump\t// in\n    tag_250:\n        /* \"#utility.yul\":12645:12720   */\n      swap1\n      pop\n        /* \"#utility.yul\":12743:12749   */\n      dup3\n        /* \"#utility.yul\":12736:12741   */\n      dup2\n        /* \"#utility.yul\":12729:12750   */\n      mstore\n        /* \"#utility.yul\":12781:12785   */\n      0x20\n        /* \"#utility.yul\":12774:12779   */\n      dup2\n        /* \"#utility.yul\":12770:12786   */\n      add\n        /* \"#utility.yul\":12819:12822   */\n      dup5\n        /* \"#utility.yul\":12810:12816   */\n      dup5\n        /* \"#utility.yul\":12805:12808   */\n      dup5\n        /* \"#utility.yul\":12801:12817   */\n      add\n        /* \"#utility.yul\":12798:12823   */\n      gt\n        /* \"#utility.yul\":12795:12907   */\n      iszero\n      tag_252\n      jumpi\n        /* \"#utility.yul\":12826:12905   */\n      tag_253\n      tag_73\n      jump\t// in\n    tag_253:\n        /* \"#utility.yul\":12795:12907   */\n    tag_252:\n        /* \"#utility.yul\":12916:12968   */\n      tag_254\n        /* \"#utility.yul\":12961:12967   */\n      dup5\n        /* \"#utility.yul\":12956:12959   */\n      dup3\n        /* \"#utility.yul\":12951:12954   */\n      dup6\n        /* \"#utility.yul\":12916:12968   */\n      tag_91\n      jump\t// in\n    tag_254:\n        /* \"#utility.yul\":12635:12974   */\n      pop\n        /* \"#utility.yul\":12540:12974   */\n      swap4\n      swap3\n      pop\n      pop\n      pop\n      jump\t// out\n        /* \"#utility.yul\":12994:13349   */\n    tag_114:\n        /* \"#utility.yul\":13061:13066   */\n      0x00\n        /* \"#utility.yul\":13110:13113   */\n      dup3\n        /* \"#utility.yul\":13103:13107   */\n      0x1f\n        /* \"#utility.yul\":13095:13101   */\n      dup4\n        /* \"#utility.yul\":13091:13108   */\n      add\n        /* \"#utility.yul\":13087:13114   */\n      slt\n        /* \"#utility.yul\":13077:13199   */\n      tag_256\n      jumpi\n        /* \"#utility.yul\":13118:13197   */\n      tag_257\n      tag_72\n      jump\t// in\n    tag_257:\n        /* \"#utility.yul\":13077:13199   */\n    tag_256:\n        /* \"#utility.yul\":13228:13234   */\n      dup2\n        /* \"#utility.yul\":13222:13235   */\n      mload\n        /* \"#utility.yul\":13253:13343   */\n      tag_258\n        /* \"#utility.yul\":13339:13342   */\n      dup5\n        /* \"#utility.yul\":13331:13337   */\n      dup3\n        /* \"#utility.yul\":13324:13328   */\n      0x20\n        /* \"#utility.yul\":13316:13322   */\n      dup7\n        /* \"#utility.yul\":13312:13329   */\n      add\n        /* \"#utility.yul\":13253:13343   */\n      tag_113\n      jump\t// in\n    tag_258:\n        /* \"#utility.yul\":13244:13343   */\n      swap2\n      pop\n        /* \"#utility.yul\":13067:13349   */\n      pop\n        /* \"#utility.yul\":12994:13349   */\n      swap3\n      swap2\n      pop\n      pop\n      jump\t// out\n        /* \"#utility.yul\":13355:13477   */\n    tag_115:\n        /* \"#utility.yul\":13428:13452   */\n      tag_260\n        /* \"#utility.yul\":13446:13451   */\n      dup2\n        /* \"#utility.yul\":13428:13452   */\n      tag_94\n      jump\t// in\n    tag_260:\n        /* \"#utility.yul\":13421:13426   */\n      dup2\n        /* \"#utility.yul\":13418:13453   */\n      eq\n        /* \"#utility.yul\":13408:13471   */\n      tag_261\n      jumpi\n        /* \"#utility.yul\":13467:13468   */\n      0x00\n        /* \"#utility.yul\":13464:13465   */\n      dup1\n        /* \"#utility.yul\":13457:13469   */\n      revert\n        /* \"#utility.yul\":13408:13471   */\n    tag_261:\n        /* \"#utility.yul\":13355:13477   */\n      pop\n      jump\t// out\n        /* \"#utility.yul\":13483:13626   */\n    tag_116:\n        /* \"#utility.yul\":13540:13545   */\n      0x00\n        /* \"#utility.yul\":13571:13577   */\n      dup2\n        /* \"#utility.yul\":13565:13578   */\n      mload\n        /* \"#utility.yul\":13556:13578   */\n      swap1\n      pop\n        /* \"#utility.yul\":13587:13620   */\n      tag_263\n        /* \"#utility.yul\":13614:13619   */\n      dup2\n        /* \"#utility.yul\":13587:13620   */\n      tag_115\n      jump\t// in\n    tag_263:\n        /* \"#utility.yul\":13483:13626   */\n      swap3\n      swap2\n      pop\n      pop\n      jump\t// out\n        /* \"#utility.yul\":13632:13746   */\n    tag_117:\n        /* \"#utility.yul\":13720:13721   */\n      0x02\n        /* \"#utility.yul\":13713:13718   */\n      dup2\n        /* \"#utility.yul\":13710:13722   */\n      lt\n        /* \"#utility.yul\":13700:13740   */\n      tag_265\n      jumpi\n        /* \"#utility.yul\":13736:13737   */\n      0x00\n        /* \"#utility.yul\":13733:13734   */\n      dup1\n        /* \"#utility.yul\":13726:13738   */\n      revert\n        /* \"#utility.yul\":13700:13740   */\n    tag_265:\n        /* \"#utility.yul\":13632:13746   */\n      pop\n      jump\t// out\n        /* \"#utility.yul\":13752:13925   */\n    tag_118:\n        /* \"#utility.yul\":13824:13829   */\n      0x00\n        /* \"#utility.yul\":13855:13861   */\n      dup2\n        /* \"#utility.yul\":13849:13862   */\n      mload\n        /* \"#utility.yul\":13840:13862   */\n      swap1\n      pop\n        /* \"#utility.yul\":13871:13919   */\n      tag_267\n        /* \"#utility.yul\":13913:13918   */\n      dup2\n        /* \"#utility.yul\":13871:13919   */\n      tag_117\n      jump\t// in\n    tag_267:\n        /* \"#utility.yul\":13752:13925   */\n      swap3\n      swap2\n      pop\n      pop\n      jump\t// out\n        /* \"#utility.yul\":13965:15792   */\n    tag_119:\n        /* \"#utility.yul\":14047:14052   */\n      0x00\n        /* \"#utility.yul\":14091:14095   */\n      0xc0\n        /* \"#utility.yul\":14079:14088   */\n      dup3\n        /* \"#utility.yul\":14074:14077   */\n      dup5\n        /* \"#utility.yul\":14070:14089   */\n      sub\n        /* \"#utility.yul\":14066:14096   */\n      slt\n        /* \"#utility.yul\":14063:14180   */\n      iszero\n      tag_269\n      jumpi\n        /* \"#utility.yul\":14099:14178   */\n      tag_270\n      tag_111\n      jump\t// in\n    tag_270:\n        /* \"#utility.yul\":14063:14180   */\n    tag_269:\n        /* \"#utility.yul\":14198:14219   */\n      tag_271\n        /* \"#utility.yul\":14214:14218   */\n      0xc0\n        /* \"#utility.yul\":14198:14219   */\n      tag_77\n      jump\t// in\n    tag_271:\n        /* \"#utility.yul\":14189:14219   */\n      swap1\n      pop\n        /* \"#utility.yul\":14307:14308   */\n      0x00\n        /* \"#utility.yul\":14296:14305   */\n      dup3\n        /* \"#utility.yul\":14292:14309   */\n      add\n        /* \"#utility.yul\":14286:14310   */\n      mload\n        /* \"#utility.yul\":14337:14355   */\n      0xffffffffffffffff\n        /* \"#utility.yul\":14329:14335   */\n      dup2\n        /* \"#utility.yul\":14326:14356   */\n      gt\n        /* \"#utility.yul\":14323:14440   */\n      iszero\n      tag_272\n      jumpi\n        /* \"#utility.yul\":14359:14438   */\n      tag_273\n      tag_112\n      jump\t// in\n    tag_273:\n        /* \"#utility.yul\":14323:14440   */\n    tag_272:\n        /* \"#utility.yul\":14479:14549   */\n      tag_274\n        /* \"#utility.yul\":14545:14548   */\n      dup5\n        /* \"#utility.yul\":14536:14542   */\n      dup3\n        /* \"#utility.yul\":14525:14534   */\n      dup6\n        /* \"#utility.yul\":14521:14543   */\n      add\n        /* \"#utility.yul\":14479:14549   */\n      tag_114\n      jump\t// in\n    tag_274:\n        /* \"#utility.yul\":14472:14476   */\n      0x00\n        /* \"#utility.yul\":14465:14470   */\n      dup4\n        /* \"#utility.yul\":14461:14477   */\n      add\n        /* \"#utility.yul\":14454:14550   */\n      mstore\n        /* \"#utility.yul\":14229:14561   */\n      pop\n        /* \"#utility.yul\":14648:14650   */\n      0x20\n        /* \"#utility.yul\":14637:14646   */\n      dup3\n        /* \"#utility.yul\":14633:14651   */\n      add\n        /* \"#utility.yul\":14627:14652   */\n      mload\n        /* \"#utility.yul\":14679:14697   */\n      0xffffffffffffffff\n        /* \"#utility.yul\":14671:14677   */\n      dup2\n        /* \"#utility.yul\":14668:14698   */\n      gt\n        /* \"#utility.yul\":14665:14782   */\n      iszero\n      tag_275\n      jumpi\n        /* \"#utility.yul\":14701:14780   */\n      tag_276\n      tag_112\n      jump\t// in\n    tag_276:\n        /* \"#utility.yul\":14665:14782   */\n    tag_275:\n        /* \"#utility.yul\":14821:14891   */\n      tag_277\n        /* \"#utility.yul\":14887:14890   */\n      dup5\n        /* \"#utility.yul\":14878:14884   */\n      dup3\n        /* \"#utility.yul\":14867:14876   */\n      dup6\n        /* \"#utility.yul\":14863:14885   */\n      add\n        /* \"#utility.yul\":14821:14891   */\n      tag_114\n      jump\t// in\n    tag_277:\n        /* \"#utility.yul\":14814:14818   */\n      0x20\n        /* \"#utility.yul\":14807:14812   */\n      dup4\n        /* \"#utility.yul\":14803:14819   */\n      add\n        /* \"#utility.yul\":14796:14892   */\n      mstore\n        /* \"#utility.yul\":14571:14903   */\n      pop\n        /* \"#utility.yul\":14986:14988   */\n      0x40\n        /* \"#utility.yul\":14975:14984   */\n      dup3\n        /* \"#utility.yul\":14971:14989   */\n      add\n        /* \"#utility.yul\":14965:14990   */\n      mload\n        /* \"#utility.yul\":15017:15035   */\n      0xffffffffffffffff\n        /* \"#utility.yul\":15009:15015   */\n      dup2\n        /* \"#utility.yul\":15006:15036   */\n      gt\n        /* \"#utility.yul\":15003:15120   */\n      iszero\n      tag_278\n      jumpi\n        /* \"#utility.yul\":15039:15118   */\n      tag_279\n      tag_112\n      jump\t// in\n    tag_279:\n        /* \"#utility.yul\":15003:15120   */\n    tag_278:\n        /* \"#utility.yul\":15159:15229   */\n      tag_280\n        /* \"#utility.yul\":15225:15228   */\n      dup5\n        /* \"#utility.yul\":15216:15222   */\n      dup3\n        /* \"#utility.yul\":15205:15214   */\n      dup6\n        /* \"#utility.yul\":15201:15223   */\n      add\n        /* \"#utility.yul\":15159:15229   */\n      tag_114\n      jump\t// in\n    tag_280:\n        /* \"#utility.yul\":15152:15156   */\n      0x40\n        /* \"#utility.yul\":15145:15150   */\n      dup4\n        /* \"#utility.yul\":15141:15157   */\n      add\n        /* \"#utility.yul\":15134:15230   */\n      mstore\n        /* \"#utility.yul\":14913:15241   */\n      pop\n        /* \"#utility.yul\":15304:15306   */\n      0x60\n        /* \"#utility.yul\":15345:15405   */\n      tag_281\n        /* \"#utility.yul\":15401:15404   */\n      dup5\n        /* \"#utility.yul\":15392:15398   */\n      dup3\n        /* \"#utility.yul\":15381:15390   */\n      dup6\n        /* \"#utility.yul\":15377:15399   */\n      add\n        /* \"#utility.yul\":15345:15405   */\n      tag_116\n      jump\t// in\n    tag_281:\n        /* \"#utility.yul\":15338:15342   */\n      0x60\n        /* \"#utility.yul\":15331:15336   */\n      dup4\n        /* \"#utility.yul\":15327:15343   */\n      add\n        /* \"#utility.yul\":15320:15406   */\n      mstore\n        /* \"#utility.yul\":15251:15417   */\n      pop\n        /* \"#utility.yul\":15481:15484   */\n      0x80\n        /* \"#utility.yul\":15523:15583   */\n      tag_282\n        /* \"#utility.yul\":15579:15582   */\n      dup5\n        /* \"#utility.yul\":15570:15576   */\n      dup3\n        /* \"#utility.yul\":15559:15568   */\n      dup6\n        /* \"#utility.yul\":15555:15577   */\n      add\n        /* \"#utility.yul\":15523:15583   */\n      tag_108\n      jump\t// in\n    tag_282:\n        /* \"#utility.yul\":15516:15520   */\n      0x80\n        /* \"#utility.yul\":15509:15514   */\n      dup4\n        /* \"#utility.yul\":15505:15521   */\n      add\n        /* \"#utility.yul\":15498:15584   */\n      mstore\n        /* \"#utility.yul\":15427:15595   */\n      pop\n        /* \"#utility.yul\":15656:15659   */\n      0xa0\n        /* \"#utility.yul\":15698:15773   */\n      tag_283\n        /* \"#utility.yul\":15769:15772   */\n      dup5\n        /* \"#utility.yul\":15760:15766   */\n      dup3\n        /* \"#utility.yul\":15749:15758   */\n      dup6\n        /* \"#utility.yul\":15745:15767   */\n      add\n        /* \"#utility.yul\":15698:15773   */\n      tag_118\n      jump\t// in\n    tag_283:\n        /* \"#utility.yul\":15691:15695   */\n      0xa0\n        /* \"#utility.yul\":15684:15689   */\n      dup4\n        /* \"#utility.yul\":15680:15696   */\n      add\n        /* \"#utility.yul\":15673:15774   */\n      mstore\n        /* \"#utility.yul\":15605:15785   */\n      pop\n        /* \"#utility.yul\":13965:15792   */\n      swap3\n      swap2\n      pop\n      pop\n      jump\t// out\n        /* \"#utility.yul\":15834:16830   */\n    tag_120:\n        /* \"#utility.yul\":15963:15968   */\n      0x00\n        /* \"#utility.yul\":15988:16091   */\n      tag_285\n        /* \"#utility.yul\":16004:16090   */\n      tag_286\n        /* \"#utility.yul\":16083:16089   */\n      dup5\n        /* \"#utility.yul\":16004:16090   */\n      tag_109\n      jump\t// in\n    tag_286:\n        /* \"#utility.yul\":15988:16091   */\n      tag_77\n      jump\t// in\n    tag_285:\n        /* \"#utility.yul\":15979:16091   */\n      swap1\n      pop\n        /* \"#utility.yul\":16111:16116   */\n      dup1\n        /* \"#utility.yul\":16140:16146   */\n      dup4\n        /* \"#utility.yul\":16133:16138   */\n      dup3\n        /* \"#utility.yul\":16126:16147   */\n      mstore\n        /* \"#utility.yul\":16174:16178   */\n      0x20\n        /* \"#utility.yul\":16167:16172   */\n      dup3\n        /* \"#utility.yul\":16163:16179   */\n      add\n        /* \"#utility.yul\":16156:16179   */\n      swap1\n      pop\n        /* \"#utility.yul\":16227:16231   */\n      0x20\n        /* \"#utility.yul\":16219:16225   */\n      dup5\n        /* \"#utility.yul\":16215:16232   */\n      mul\n        /* \"#utility.yul\":16207:16213   */\n      dup4\n        /* \"#utility.yul\":16203:16233   */\n      add\n        /* \"#utility.yul\":16256:16259   */\n      dup6\n        /* \"#utility.yul\":16248:16254   */\n      dup2\n        /* \"#utility.yul\":16245:16260   */\n      gt\n        /* \"#utility.yul\":16242:16364   */\n      iszero\n      tag_287\n      jumpi\n        /* \"#utility.yul\":16275:16354   */\n      tag_288\n      tag_110\n      jump\t// in\n    tag_288:\n        /* \"#utility.yul\":16242:16364   */\n    tag_287:\n        /* \"#utility.yul\":16390:16396   */\n      dup4\n        /* \"#utility.yul\":16373:16824   */\n    tag_289:\n        /* \"#utility.yul\":16407:16413   */\n      dup2\n        /* \"#utility.yul\":16402:16405   */\n      dup2\n        /* \"#utility.yul\":16399:16414   */\n      lt\n        /* \"#utility.yul\":16373:16824   */\n      iszero\n      tag_291\n      jumpi\n        /* \"#utility.yul\":16489:16492   */\n      dup1\n        /* \"#utility.yul\":16483:16493   */\n      mload\n        /* \"#utility.yul\":16525:16543   */\n      0xffffffffffffffff\n        /* \"#utility.yul\":16512:16523   */\n      dup2\n        /* \"#utility.yul\":16509:16544   */\n      gt\n        /* \"#utility.yul\":16506:16628   */\n      iszero\n      tag_292\n      jumpi\n        /* \"#utility.yul\":16547:16626   */\n      tag_293\n      tag_72\n      jump\t// in\n    tag_293:\n        /* \"#utility.yul\":16506:16628   */\n    tag_292:\n        /* \"#utility.yul\":16671:16682   */\n      dup1\n        /* \"#utility.yul\":16663:16669   */\n      dup7\n        /* \"#utility.yul\":16659:16683   */\n      add\n        /* \"#utility.yul\":16709:16779   */\n      tag_294\n        /* \"#utility.yul\":16775:16778   */\n      dup10\n        /* \"#utility.yul\":16763:16773   */\n      dup3\n        /* \"#utility.yul\":16709:16779   */\n      tag_119\n      jump\t// in\n    tag_294:\n        /* \"#utility.yul\":16704:16707   */\n      dup6\n        /* \"#utility.yul\":16697:16780   */\n      mstore\n        /* \"#utility.yul\":16809:16813   */\n      0x20\n        /* \"#utility.yul\":16804:16807   */\n      dup6\n        /* \"#utility.yul\":16800:16814   */\n      add\n        /* \"#utility.yul\":16793:16814   */\n      swap5\n      pop\n        /* \"#utility.yul\":16449:16824   */\n      pop\n      pop\n        /* \"#utility.yul\":16433:16437   */\n      0x20\n        /* \"#utility.yul\":16428:16431   */\n      dup2\n        /* \"#utility.yul\":16424:16438   */\n      add\n        /* \"#utility.yul\":16417:16438   */\n      swap1\n      pop\n        /* \"#utility.yul\":16373:16824   */\n      jump(tag_289)\n    tag_291:\n        /* \"#utility.yul\":16377:16398   */\n      pop\n        /* \"#utility.yul\":15969:16830   */\n      pop\n      pop\n        /* \"#utility.yul\":15834:16830   */\n      swap4\n      swap3\n      pop\n      pop\n      pop\n      jump\t// out\n        /* \"#utility.yul\":16872:17301   */\n    tag_121:\n        /* \"#utility.yul\":16976:16981   */\n      0x00\n        /* \"#utility.yul\":17025:17028   */\n      dup3\n        /* \"#utility.yul\":17018:17022   */\n      0x1f\n        /* \"#utility.yul\":17010:17016   */\n      dup4\n        /* \"#utility.yul\":17006:17023   */\n      add\n        /* \"#utility.yul\":17002:17029   */\n      slt\n        /* \"#utility.yul\":16992:17114   */\n      tag_296\n      jumpi\n        /* \"#utility.yul\":17033:17112   */\n      tag_297\n      tag_72\n      jump\t// in\n    tag_297:\n        /* \"#utility.yul\":16992:17114   */\n    tag_296:\n        /* \"#utility.yul\":17143:17149   */\n      dup2\n        /* \"#utility.yul\":17137:17150   */\n      mload\n        /* \"#utility.yul\":17168:17295   */\n      tag_298\n        /* \"#utility.yul\":17291:17294   */\n      dup5\n        /* \"#utility.yul\":17283:17289   */\n      dup3\n        /* \"#utility.yul\":17276:17280   */\n      0x20\n        /* \"#utility.yul\":17268:17274   */\n      dup7\n        /* \"#utility.yul\":17264:17281   */\n      add\n        /* \"#utility.yul\":17168:17295   */\n      tag_120\n      jump\t// in\n    tag_298:\n        /* \"#utility.yul\":17159:17295   */\n      swap2\n      pop\n        /* \"#utility.yul\":16982:17301   */\n      pop\n        /* \"#utility.yul\":16872:17301   */\n      swap3\n      swap2\n      pop\n      pop\n      jump\t// out\n        /* \"#utility.yul\":17307:17905   */\n    tag_34:\n        /* \"#utility.yul\":17424:17430   */\n      0x00\n        /* \"#utility.yul\":17473:17475   */\n      0x20\n        /* \"#utility.yul\":17461:17470   */\n      dup3\n        /* \"#utility.yul\":17452:17459   */\n      dup5\n        /* \"#utility.yul\":17448:17471   */\n      sub\n        /* \"#utility.yul\":17444:17476   */\n      slt\n        /* \"#utility.yul\":17441:17560   */\n      iszero\n      tag_300\n      jumpi\n        /* \"#utility.yul\":17479:17558   */\n      tag_301\n      tag_70\n      jump\t// in\n    tag_301:\n        /* \"#utility.yul\":17441:17560   */\n    tag_300:\n        /* \"#utility.yul\":17620:17621   */\n      0x00\n        /* \"#utility.yul\":17609:17618   */\n      dup3\n        /* \"#utility.yul\":17605:17622   */\n      add\n        /* \"#utility.yul\":17599:17623   */\n      mload\n        /* \"#utility.yul\":17650:17668   */\n      0xffffffffffffffff\n        /* \"#utility.yul\":17642:17648   */\n      dup2\n        /* \"#utility.yul\":17639:17669   */\n      gt\n        /* \"#utility.yul\":17636:17753   */\n      iszero\n      tag_302\n      jumpi\n        /* \"#utility.yul\":17672:17751   */\n      tag_303\n      tag_71\n      jump\t// in\n    tag_303:\n        /* \"#utility.yul\":17636:17753   */\n    tag_302:\n        /* \"#utility.yul\":17777:17888   */\n      tag_304\n        /* \"#utility.yul\":17880:17887   */\n      dup5\n        /* \"#utility.yul\":17871:17877   */\n      dup3\n        /* \"#utility.yul\":17860:17869   */\n      dup6\n        /* \"#utility.yul\":17856:17878   */\n      add\n        /* \"#utility.yul\":17777:17888   */\n      tag_121\n      jump\t// in\n    tag_304:\n        /* \"#utility.yul\":17767:17888   */\n      swap2\n      pop\n        /* \"#utility.yul\":17570:17898   */\n      pop\n        /* \"#utility.yul\":17307:17905   */\n      swap3\n      swap2\n      pop\n      pop\n      jump\t// out\n        /* \"#utility.yul\":17911:18091   */\n    tag_43:\n        /* \"#utility.yul\":17959:18036   */\n      0x4e487b7100000000000000000000000000000000000000000000000000000000\n        /* \"#utility.yul\":17956:17957   */\n      0x00\n        /* \"#utility.yul\":17949:18037   */\n      mstore\n        /* \"#utility.yul\":18056:18060   */\n      0x32\n        /* \"#utility.yul\":18053:18054   */\n      0x04\n        /* \"#utility.yul\":18046:18061   */\n      mstore\n        /* \"#utility.yul\":18080:18084   */\n      0x24\n        /* \"#utility.yul\":18077:18078   */\n      0x00\n        /* \"#utility.yul\":18070:18085   */\n      revert\n        /* \"#utility.yul\":18097:18277   */\n    tag_122:\n        /* \"#utility.yul\":18145:18222   */\n      0x4e487b7100000000000000000000000000000000000000000000000000000000\n        /* \"#utility.yul\":18142:18143   */\n      0x00\n        /* \"#utility.yul\":18135:18223   */\n      mstore\n        /* \"#utility.yul\":18242:18246   */\n      0x11\n        /* \"#utility.yul\":18239:18240   */\n      0x04\n        /* \"#utility.yul\":18232:18247   */\n      mstore\n        /* \"#utility.yul\":18266:18270   */\n      0x24\n        /* \"#utility.yul\":18263:18264   */\n      0x00\n        /* \"#utility.yul\":18256:18271   */\n      revert\n        /* \"#utility.yul\":18283:18516   */\n    tag_48:\n        /* \"#utility.yul\":18322:18325   */\n      0x00\n        /* \"#utility.yul\":18345:18369   */\n      tag_308\n        /* \"#utility.yul\":18363:18368   */\n      dup3\n        /* \"#utility.yul\":18345:18369   */\n      tag_82\n      jump\t// in\n    tag_308:\n        /* \"#utility.yul\":18336:18369   */\n      swap2\n      pop\n        /* \"#utility.yul\":18391:18457   */\n      0xffffffffffffffffffffffffffffffffffffffffffffffffffffffffffffffff\n        /* \"#utility.yul\":18384:18389   */\n      dup3\n        /* \"#utility.yul\":18381:18458   */\n      sub\n        /* \"#utility.yul\":18378:18481   */\n      tag_309\n      jumpi\n        /* \"#utility.yul\":18461:18479   */\n      tag_310\n      tag_122\n      jump\t// in\n    tag_310:\n        /* \"#utility.yul\":18378:18481   */\n    tag_309:\n        /* \"#utility.yul\":18508:18509   */\n      0x01\n        /* \"#utility.yul\":18501:18506   */\n      dup3\n        /* \"#utility.yul\":18497:18510   */\n      add\n        /* \"#utility.yul\":18490:18510   */\n      swap1\n      pop\n        /* \"#utility.yul\":18283:18516   */\n      swap2\n      swap1\n      pop\n      jump\t// out\n        /* \"#utility.yul\":18522:18932   */\n    tag_50:\n        /* \"#utility.yul\":18562:18569   */\n      0x00\n        /* \"#utility.yul\":18585:18605   */\n      tag_312\n        /* \"#utility.yul\":18603:18604   */\n      dup3\n        /* \"#utility.yul\":18585:18605   */\n      tag_82\n      jump\t// in\n    tag_312:\n        /* \"#utility.yul\":18580:18605   */\n      swap2\n      pop\n        /* \"#utility.yul\":18619:18639   */\n      tag_313\n        /* \"#utility.yul\":18637:18638   */\n      dup4\n        /* \"#utility.yul\":18619:18639   */\n      tag_82\n      jump\t// in\n    tag_313:\n        /* \"#utility.yul\":18614:18639   */\n      swap3\n      pop\n        /* \"#utility.yul\":18674:18675   */\n      dup3\n        /* \"#utility.yul\":18671:18672   */\n      dup3\n        /* \"#utility.yul\":18667:18676   */\n      mul\n        /* \"#utility.yul\":18696:18726   */\n      tag_314\n        /* \"#utility.yul\":18714:18725   */\n      dup2\n        /* \"#utility.yul\":18696:18726   */\n      tag_82\n      jump\t// in\n    tag_314:\n        /* \"#utility.yul\":18685:18726   */\n      swap2\n      pop\n        /* \"#utility.yul\":18875:18876   */\n      dup3\n        /* \"#utility.yul\":18866:18873   */\n      dup3\n        /* \"#utility.yul\":18862:18877   */\n      div\n        /* \"#utility.yul\":18859:18860   */\n      dup5\n        /* \"#utility.yul\":18856:18878   */\n      eq\n        /* \"#utility.yul\":18836:18837   */\n      dup4\n        /* \"#utility.yul\":18829:18838   */\n      iszero\n        /* \"#utility.yul\":18809:18892   */\n      or\n        /* \"#utility.yul\":18786:18925   */\n      tag_315\n      jumpi\n        /* \"#utility.yul\":18905:18923   */\n      tag_316\n      tag_122\n      jump\t// in\n    tag_316:\n        /* \"#utility.yul\":18786:18925   */\n    tag_315:\n        /* \"#utility.yul\":18570:18932   */\n      pop\n        /* \"#utility.yul\":18522:18932   */\n      swap3\n      swap2\n      pop\n      pop\n      jump\t// out\n        /* \"#utility.yul\":18938:19118   */\n    tag_123:\n        /* \"#utility.yul\":18986:19063   */\n      0x4e487b7100000000000000000000000000000000000000000000000000000000\n        /* \"#utility.yul\":18983:18984   */\n      0x00\n        /* \"#utility.yul\":18976:19064   */\n      mstore\n        /* \"#utility.yul\":19083:19087   */\n      0x12\n        /* \"#utility.yul\":19080:19081   */\n      0x04\n        /* \"#utility.yul\":19073:19088   */\n      mstore\n        /* \"#utility.yul\":19107:19111   */\n      0x24\n        /* \"#utility.yul\":19104:19105   */\n      0x00\n        /* \"#utility.yul\":19097:19112   */\n      revert\n        /* \"#utility.yul\":19124:19309   */\n    tag_52:\n        /* \"#utility.yul\":19164:19165   */\n      0x00\n        /* \"#utility.yul\":19181:19201   */\n      tag_319\n        /* \"#utility.yul\":19199:19200   */\n      dup3\n        /* \"#utility.yul\":19181:19201   */\n      tag_82\n      jump\t// in\n    tag_319:\n        /* \"#utility.yul\":19176:19201   */\n      swap2\n      pop\n        /* \"#utility.yul\":19215:19235   */\n      tag_320\n        /* \"#utility.yul\":19233:19234   */\n      dup4\n        /* \"#utility.yul\":19215:19235   */\n      tag_82\n      jump\t// in\n    tag_320:\n        /* \"#utility.yul\":19210:19235   */\n      swap3\n      pop\n        /* \"#utility.yul\":19254:19255   */\n      dup3\n        /* \"#utility.yul\":19244:19279   */\n      tag_321\n      jumpi\n        /* \"#utility.yul\":19259:19277   */\n      tag_322\n      tag_123\n      jump\t// in\n    tag_322:\n        /* \"#utility.yul\":19244:19279   */\n    tag_321:\n        /* \"#utility.yul\":19301:19302   */\n      dup3\n        /* \"#utility.yul\":19298:19299   */\n      dup3\n        /* \"#utility.yul\":19294:19303   */\n      div\n        /* \"#utility.yul\":19289:19303   */\n      swap1\n      pop\n        /* \"#utility.yul\":19124:19309   */\n      swap3\n      swap2\n      pop\n      pop\n      jump\t// out\n        /* \"#utility.yul\":19315:19431   */\n    tag_124:\n        /* \"#utility.yul\":19385:19406   */\n      tag_324\n        /* \"#utility.yul\":19400:19405   */\n      dup2\n        /* \"#utility.yul\":19385:19406   */\n      tag_84\n      jump\t// in\n    tag_324:\n        /* \"#utility.yul\":19378:19383   */\n      dup2\n        /* \"#utility.yul\":19375:19407   */\n      eq\n        /* \"#utility.yul\":19365:19425   */\n      tag_325\n      jumpi\n        /* \"#utility.yul\":19421:19422   */\n      0x00\n        /* \"#utility.yul\":19418:19419   */\n      dup1\n        /* \"#utility.yul\":19411:19423   */\n      revert\n        /* \"#utility.yul\":19365:19425   */\n    tag_325:\n        /* \"#utility.yul\":19315:19431   */\n      pop\n      jump\t// out\n        /* \"#utility.yul\":19437:19574   */\n    tag_125:\n        /* \"#utility.yul\":19491:19496   */\n      0x00\n        /* \"#utility.yul\":19522:19528   */\n      dup2\n        /* \"#utility.yul\":19516:19529   */\n      mload\n        /* \"#utility.yul\":19507:19529   */\n      swap1\n      pop\n        /* \"#utility.yul\":19538:19568   */\n      tag_327\n        /* \"#utility.yul\":19562:19567   */\n      dup2\n        /* \"#utility.yul\":19538:19568   */\n      tag_124\n      jump\t// in\n    tag_327:\n        /* \"#utility.yul\":19437:19574   */\n      swap3\n      swap2\n      pop\n      pop\n      jump\t// out\n        /* \"#utility.yul\":19580:19925   */\n    tag_58:\n        /* \"#utility.yul\":19647:19653   */\n      0x00\n        /* \"#utility.yul\":19696:19698   */\n      0x20\n        /* \"#utility.yul\":19684:19693   */\n      dup3\n        /* \"#utility.yul\":19675:19682   */\n      dup5\n        /* \"#utility.yul\":19671:19694   */\n      sub\n        /* \"#utility.yul\":19667:19699   */\n      slt\n        /* \"#utility.yul\":19664:19783   */\n      iszero\n      tag_329\n      jumpi\n        /* \"#utility.yul\":19702:19781   */\n      tag_330\n      tag_70\n      jump\t// in\n    tag_330:\n        /* \"#utility.yul\":19664:19783   */\n    tag_329:\n        /* \"#utility.yul\":19822:19823   */\n      0x00\n        /* \"#utility.yul\":19847:19908   */\n      tag_331\n        /* \"#utility.yul\":19900:19907   */\n      dup5\n        /* \"#utility.yul\":19891:19897   */\n      dup3\n        /* \"#utility.yul\":19880:19889   */\n      dup6\n        /* \"#utility.yul\":19876:19898   */\n      add\n        /* \"#utility.yul\":19847:19908   */\n      tag_125\n      jump\t// in\n    tag_331:\n        /* \"#utility.yul\":19837:19908   */\n      swap2\n      pop\n        /* \"#utility.yul\":19793:19918   */\n      pop\n        /* \"#utility.yul\":19580:19925   */\n      swap3\n      swap2\n      pop\n      pop\n      jump\t// out\n\n    auxdata: 0xa26469706673582212207b5ceda724fdf75f5a7cf61c293645bd568855909887edea5a26ecd530f9047464736f6c634300081e0033\n}\n",
				"bytecode": {
					"linkReferences": {},
					"object": "608060405234801561001057600080fd5b50604051611268380380611268833981810160405281019061003291906101fb565b600073ffffffffffffffffffffffffffffffffffffffff168273ffffffffffffffffffffffffffffffffffffffff16036100a1576040517f08c379a000000000000000000000000000000000000000000000000000000000815260040161009890610298565b60405180910390fd5b600073ffffffffffffffffffffffffffffffffffffffff168173ffffffffffffffffffffffffffffffffffffffff1603610110576040517f08c379a000000000000000000000000000000000000000000000000000000000815260040161010790610304565b60405180910390fd5b816000806101000a81548173ffffffffffffffffffffffffffffffffffffffff021916908373ffffffffffffffffffffffffffffffffffffffff16021790555080600160006101000a81548173ffffffffffffffffffffffffffffffffffffffff021916908373ffffffffffffffffffffffffffffffffffffffff1602179055505050610324565b600080fd5b600073ffffffffffffffffffffffffffffffffffffffff82169050919050565b60006101c88261019d565b9050919050565b6101d8816101bd565b81146101e357600080fd5b50565b6000815190506101f5816101cf565b92915050565b6000806040838503121561021257610211610198565b5b6000610220858286016101e6565b9250506020610231858286016101e6565b9150509250929050565b600082825260208201905092915050565b7f496e76616c696420726567697374727920616464726573730000000000000000600082015250565b600061028260188361023b565b915061028d8261024c565b602082019050919050565b600060208201905081810360008301526102b181610275565b9050919050565b7f496e76616c696420726570616972206576656e74206164647265737300000000600082015250565b60006102ee601c8361023b565b91506102f9826102b8565b602082019050919050565b6000602082019050818103600083015261031d816102e1565b9050919050565b610f35806103336000396000f3fe608060405234801561001057600080fd5b50600436106100415760003560e01c80631c5fb192146100465780632a9c17d714610076578063c58d8497146100a6575b600080fd5b610060600480360381019061005b919061061b565b6100d8565b60405161006d919061067d565b60405180910390f35b610090600480360381019061008b919061061b565b6102c7565b60405161009d91906106b3565b60405180910390f35b6100c060048036038101906100bb919061061b565b61036b565b6040516100cf9392919061096d565b60405180910390f35b600080600160009054906101000a900473ffffffffffffffffffffffffffffffffffffffff1673ffffffffffffffffffffffffffffffffffffffff1663727b703f846040518263ffffffff1660e01b815260040161013691906109f5565b602060405180830381865afa158015610153573d6000803e3d6000fd5b505050506040513d601f19601f820116820180604052508101906101779190610a43565b90506000810361018b5760649150506102c2565b6000600160009054906101000a900473ffffffffffffffffffffffffffffffffffffffff1673ffffffffffffffffffffffffffffffffffffffff1663bd6c1c85856040518263ffffffff1660e01b81526004016101e891906109f5565b600060405180830381865afa158015610205573d6000803e3d6000fd5b505050506040513d6000823e3d601f19601f8201168201806040525081019061022e9190610d15565b90506000805b82518110156102a35760006001811115610251576102506107c9565b5b83828151811061026457610263610d5e565b5b602002602001015160a001516001811115610282576102816107c9565b5b0361029657818061029290610dbc565b9250505b8080600101915050610234565b50826064826102b29190610e04565b6102bc9190610e75565b93505050505b919050565b60008060009054906101000a900473ffffffffffffffffffffffffffffffffffffffff1673ffffffffffffffffffffffffffffffffffffffff1663aaed589d836040518263ffffffff1660e01b815260040161032391906109f5565b602060405180830381865afa158015610340573d6000803e3d6000fd5b505050506040513d601f19601f820116820180604052508101906103649190610ed2565b9050919050565b600080606060008054906101000a900473ffffffffffffffffffffffffffffffffffffffff1673ffffffffffffffffffffffffffffffffffffffff1663aaed589d856040518263ffffffff1660e01b81526004016103c991906109f5565b602060405180830381865afa1580156103e6573d6000803e3d6000fd5b505050506040513d601f19601f8201168201806040525081019061040a9190610ed2565b9250610415846100d8565b9150600160009054906101000a900473ffffffffffffffffffffffffffffffffffffffff1673ffffffffffffffffffffffffffffffffffffffff1663bd6c1c85856040518263ffffffff1660e01b815260040161047291906109f5565b600060405180830381865afa15801561048f573d6000803e3d6000fd5b505050506040513d6000823e3d601f19601f820116820180604052508101906104b89190610d15565b90509193909250565b6000604051905090565b600080fd5b600080fd5b600080fd5b600080fd5b6000601f19601f8301169050919050565b7f4e487b7100000000000000000000000000000000000000000000000000000000600052604160045260246000fd5b610528826104df565b810181811067ffffffffffffffff82111715610547576105466104f0565b5b80604052505050565b600061055a6104c1565b9050610566828261051f565b919050565b600067ffffffffffffffff821115610586576105856104f0565b5b61058f826104df565b9050602081019050919050565b82818337600083830152505050565b60006105be6105b98461056b565b610550565b9050828152602081018484840111156105da576105d96104da565b5b6105e584828561059c565b509392505050565b600082601f830112610602576106016104d5565b5b81356106128482602086016105ab565b91505092915050565b600060208284031215610631576106306104cb565b5b600082013567ffffffffffffffff81111561064f5761064e6104d0565b5b61065b848285016105ed565b91505092915050565b6000819050919050565b61067781610664565b82525050565b6000602082019050610692600083018461066e565b92915050565b60008115159050919050565b6106ad81610698565b82525050565b60006020820190506106c860008301846106a4565b92915050565b600081519050919050565b600082825260208201905092915050565b6000819050602082019050919050565b600081519050919050565b600082825260208201905092915050565b60005b83811015610734578082015181840152602081019050610719565b60008484015250505050565b600061074b826106fa565b6107558185610705565b9350610765818560208601610716565b61076e816104df565b840191505092915050565b600073ffffffffffffffffffffffffffffffffffffffff82169050919050565b60006107a482610779565b9050919050565b6107b481610799565b82525050565b6107c381610664565b82525050565b7f4e487b7100000000000000000000000000000000000000000000000000000000600052602160045260246000fd5b60028110610809576108086107c9565b5b50565b600081905061081a826107f8565b919050565b600061082a8261080c565b9050919050565b61083a8161081f565b82525050565b600060c083016000830151848203600086015261085d8282610740565b915050602083015184820360208601526108778282610740565b915050604083015184820360408601526108918282610740565b91505060608301516108a660608601826107ab565b5060808301516108b960808601826107ba565b5060a08301516108cc60a0860182610831565b508091505092915050565b60006108e38383610840565b905092915050565b6000602082019050919050565b6000610903826106ce565b61090d81856106d9565b93508360208202850161091f856106ea565b8060005b8581101561095b578484038952815161093c85826108d7565b9450610947836108eb565b925060208a01995050600181019050610923565b50829750879550505050505092915050565b600060608201905061098260008301866106a4565b61098f602083018561066e565b81810360408301526109a181846108f8565b9050949350505050565b600082825260208201905092915050565b60006109c7826106fa565b6109d181856109ab565b93506109e1818560208601610716565b6109ea816104df565b840191505092915050565b60006020820190508181036000830152610a0f81846109bc565b905092915050565b610a2081610664565b8114610a2b57600080fd5b50565b600081519050610a3d81610a17565b92915050565b600060208284031215610a5957610a586104cb565b5b6000610a6784828501610a2e565b91505092915050565b600067ffffffffffffffff821115610a8b57610a8a6104f0565b5b602082029050602081019050919050565b600080fd5b600080fd5b600080fd5b6000610abe610ab98461056b565b610550565b905082815260208101848484011115610ada57610ad96104da565b5b610ae5848285610716565b509392505050565b600082601f830112610b0257610b016104d5565b5b8151610b12848260208601610aab565b91505092915050565b610b2481610799565b8114610b2f57600080fd5b50565b600081519050610b4181610b1b565b92915050565b60028110610b5457600080fd5b50565b600081519050610b6681610b47565b92915050565b600060c08284031215610b8257610b81610aa1565b5b610b8c60c0610550565b9050600082015167ffffffffffffffff811115610bac57610bab610aa6565b5b610bb884828501610aed565b600083015250602082015167ffffffffffffffff811115610bdc57610bdb610aa6565b5b610be884828501610aed565b602083015250604082015167ffffffffffffffff811115610c0c57610c0b610aa6565b5b610c1884828501610aed565b6040830152506060610c2c84828501610b32565b6060830152506080610c4084828501610a2e565b60808301525060a0610c5484828501610b57565b60a08301525092915050565b6000610c73610c6e84610a70565b610550565b90508083825260208201905060208402830185811115610c9657610c95610a9c565b5b835b81811015610cdd57805167ffffffffffffffff811115610cbb57610cba6104d5565b5b808601610cc88982610b6c565b85526020850194505050602081019050610c98565b5050509392505050565b600082601f830112610cfc57610cfb6104d5565b5b8151610d0c848260208601610c60565b91505092915050565b600060208284031215610d2b57610d2a6104cb565b5b600082015167ffffffffffffffff811115610d4957610d486104d0565b5b610d5584828501610ce7565b91505092915050565b7f4e487b7100000000000000000000000000000000000000000000000000000000600052603260045260246000fd5b7f4e487b7100000000000000000000000000000000000000000000000000000000600052601160045260246000fd5b6000610dc782610664565b91507fffffffffffffffffffffffffffffffffffffffffffffffffffffffffffffffff8203610df957610df8610d8d565b5b600182019050919050565b6000610e0f82610664565b9150610e1a83610664565b9250828202610e2881610664565b91508282048414831517610e3f57610e3e610d8d565b5b5092915050565b7f4e487b7100000000000000000000000000000000000000000000000000000000600052601260045260246000fd5b6000610e8082610664565b9150610e8b83610664565b925082610e9b57610e9a610e46565b5b828204905092915050565b610eaf81610698565b8114610eba57600080fd5b50565b600081519050610ecc81610ea6565b92915050565b600060208284031215610ee857610ee76104cb565b5b6000610ef684828501610ebd565b9150509291505056fea26469706673582212207b5ceda724fdf75f5a7cf61c293645bd568855909887edea5a26ecd530f9047464736f6c634300081e0033",
					"opcodes": "PUSH1 0x80 PUSH1 0x40 MSTORE CALLVALUE DUP1 ISZERO PUSH2 0x10 JUMPI PUSH1 0x0 DUP1 REVERT JUMPDEST POP PUSH1 0x40 MLOAD PUSH2 0x1268 CODESIZE SUB DUP1 PUSH2 0x1268 DUP4 CODECOPY DUP2 DUP2 ADD PUSH1 0x40 MSTORE DUP2 ADD SWAP1 PUSH2 0x32 SWAP2 SWAP1 PUSH2 0x1FB JUMP JUMPDEST PUSH1 0x0 PUSH20 0xFFFFFFFFFFFFFFFFFFFFFFFFFFFFFFFFFFFFFFFF AND DUP3 PUSH20 0xFFFFFFFFFFFFFFFFFFFFFFFFFFFFFFFFFFFFFFFF AND SUB PUSH2 0xA1 JUMPI PUSH1 0x40 MLOAD PUSH32 0x8C379A000000000000000000000000000000000000000000000000000000000 DUP2 MSTORE PUSH1 0x4 ADD PUSH2 0x98 SWAP1 PUSH2 0x298 JUMP JUMPDEST PUSH1 0x40 MLOAD DUP1 SWAP2 SUB SWAP1 REVERT JUMPDEST PUSH1 0x0 PUSH20 0xFFFFFFFFFFFFFFFFFFFFFFFFFFFFFFFFFFFFFFFF AND DUP2 PUSH20 0xFFFFFFFFFFFFFFFFFFFFFFFFFFFFFFFFFFFFFFFF AND SUB PUSH2 0x110 JUMPI PUSH1 0x40 MLOAD PUSH32 0x8C379A000000000000000000000000000000000000000000000000000000000 DUP2 MSTORE PUSH1 0x4 ADD PUSH2 0x107 SWAP1 PUSH2 0x304 JUMP JUMPDEST PUSH1 0x40 MLOAD DUP1 SWAP2 SUB SWAP1 REVERT JUMPDEST DUP2 PUSH1 0x0 DUP1 PUSH2 0x100 EXP DUP2 SLOAD DUP2 PUSH20 0xFFFFFFFFFFFFFFFFFFFFFFFFFFFFFFFFFFFFFFFF MUL NOT AND SWAP1 DUP4 PUSH20 0xFFFFFFFFFFFFFFFFFFFFFFFFFFFFFFFFFFFFFFFF AND MUL OR SWAP1 SSTORE POP DUP1 PUSH1 0x1 PUSH1 0x0 PUSH2 0x100 EXP DUP2 SLOAD DUP2 PUSH20 0xFFFFFFFFFFFFFFFFFFFFFFFFFFFFFFFFFFFFFFFF MUL NOT AND SWAP1 DUP4 PUSH20 0xFFFFFFFFFFFFFFFFFFFFFFFFFFFFFFFFFFFFFFFF AND MUL OR SWAP1 SSTORE POP POP POP PUSH2 0x324 JUMP JUMPDEST PUSH1 0x0 DUP1 REVERT JUMPDEST PUSH1 0x0 PUSH20 0xFFFFFFFFFFFFFFFFFFFFFFFFFFFFFFFFFFFFFFFF DUP3 AND SWAP1 POP SWAP2 SWAP1 POP JUMP JUMPDEST PUSH1 0x0 PUSH2 0x1C8 DUP3 PUSH2 0x19D JUMP JUMPDEST SWAP1 POP SWAP2 SWAP1 POP JUMP JUMPDEST PUSH2 0x1D8 DUP2 PUSH2 0x1BD JUMP JUMPDEST DUP2 EQ PUSH2 0x1E3 JUMPI PUSH1 0x0 DUP1 REVERT JUMPDEST POP JUMP JUMPDEST PUSH1 0x0 DUP2 MLOAD SWAP1 POP PUSH2 0x1F5 DUP2 PUSH2 0x1CF JUMP JUMPDEST SWAP3 SWAP2 POP POP JUMP JUMPDEST PUSH1 0x0 DUP1 PUSH1 0x40 DUP4 DUP6 SUB SLT ISZERO PUSH2 0x212 JUMPI PUSH2 0x211 PUSH2 0x198 JUMP JUMPDEST JUMPDEST PUSH1 0x0 PUSH2 0x220 DUP6 DUP3 DUP7 ADD PUSH2 0x1E6 JUMP JUMPDEST SWAP3 POP POP PUSH1 0x20 PUSH2 0x231 DUP6 DUP3 DUP7 ADD PUSH2 0x1E6 JUMP JUMPDEST SWAP2 POP POP SWAP3 POP SWAP3 SWAP1 POP JUMP JUMPDEST PUSH1 0x0 DUP3 DUP3 MSTORE PUSH1 0x20 DUP3 ADD SWAP1 POP SWAP3 SWAP2 POP POP JUMP JUMPDEST PUSH32 0x496E76616C696420726567697374727920616464726573730000000000000000 PUSH1 0x0 DUP3 ADD MSTORE POP JUMP JUMPDEST PUSH1 0x0 PUSH2 0x282 PUSH1 0x18 DUP4 PUSH2 0x23B JUMP JUMPDEST SWAP2 POP PUSH2 0x28D DUP3 PUSH2 0x24C JUMP JUMPDEST PUSH1 0x20 DUP3 ADD SWAP1 POP SWAP2 SWAP1 POP JUMP JUMPDEST PUSH1 0x0 PUSH1 0x20 DUP3 ADD SWAP1 POP DUP2 DUP2 SUB PUSH1 0x0 DUP4 ADD MSTORE PUSH2 0x2B1 DUP2 PUSH2 0x275 JUMP JUMPDEST SWAP1 POP SWAP2 SWAP1 POP JUMP JUMPDEST PUSH32 0x496E76616C696420726570616972206576656E74206164647265737300000000 PUSH1 0x0 DUP3 ADD MSTORE POP JUMP JUMPDEST PUSH1 0x0 PUSH2 0x2EE PUSH1 0x1C DUP4 PUSH2 0x23B JUMP JUMPDEST SWAP2 POP PUSH2 0x2F9 DUP3 PUSH2 0x2B8 JUMP JUMPDEST PUSH1 0x20 DUP3 ADD SWAP1 POP SWAP2 SWAP1 POP JUMP JUMPDEST PUSH1 0x0 PUSH1 0x20 DUP3 ADD SWAP1 POP DUP2 DUP2 SUB PUSH1 0x0 DUP4 ADD MSTORE PUSH2 0x31D DUP2 PUSH2 0x2E1 JUMP JUMPDEST SWAP1 POP SWAP2 SWAP1 POP JUMP JUMPDEST PUSH2 0xF35 DUP1 PUSH2 0x333 PUSH1 0x0 CODECOPY PUSH1 0x0 RETURN INVALID PUSH1 0x80 PUSH1 0x40 MSTORE CALLVALUE DUP1 ISZERO PUSH2 0x10 JUMPI PUSH1 0x0 DUP1 REVERT JUMPDEST POP PUSH1 0x4 CALLDATASIZE LT PUSH2 0x41 JUMPI PUSH1 0x0 CALLDATALOAD PUSH1 0xE0 SHR DUP1 PUSH4 0x1C5FB192 EQ PUSH2 0x46 JUMPI DUP1 PUSH4 0x2A9C17D7 EQ PUSH2 0x76 JUMPI DUP1 PUSH4 0xC58D8497 EQ PUSH2 0xA6 JUMPI JUMPDEST PUSH1 0x0 DUP1 REVERT JUMPDEST PUSH2 0x60 PUSH1 0x4 DUP1 CALLDATASIZE SUB DUP2 ADD SWAP1 PUSH2 0x5B SWAP2 SWAP1 PUSH2 0x61B JUMP JUMPDEST PUSH2 0xD8 JUMP JUMPDEST PUSH1 0x40 MLOAD PUSH2 0x6D SWAP2 SWAP1 PUSH2 0x67D JUMP JUMPDEST PUSH1 0x40 MLOAD DUP1 SWAP2 SUB SWAP1 RETURN JUMPDEST PUSH2 0x90 PUSH1 0x4 DUP1 CALLDATASIZE SUB DUP2 ADD SWAP1 PUSH2 0x8B SWAP2 SWAP1 PUSH2 0x61B JUMP JUMPDEST PUSH2 0x2C7 JUMP JUMPDEST PUSH1 0x40 MLOAD PUSH2 0x9D SWAP2 SWAP1 PUSH2 0x6B3 JUMP JUMPDEST PUSH1 0x40 MLOAD DUP1 SWAP2 SUB SWAP1 RETURN JUMPDEST PUSH2 0xC0 PUSH1 0x4 DUP1 CALLDATASIZE SUB DUP2 ADD SWAP1 PUSH2 0xBB SWAP2 SWAP1 PUSH2 0x61B JUMP JUMPDEST PUSH2 0x36B JUMP JUMPDEST PUSH1 0x40 MLOAD PUSH2 0xCF SWAP4 SWAP3 SWAP2 SWAP1 PUSH2 0x96D JUMP JUMPDEST PUSH1 0x40 MLOAD DUP1 SWAP2 SUB SWAP1 RETURN JUMPDEST PUSH1 0x0 DUP1 PUSH1 0x1 PUSH1 0x0 SWAP1 SLOAD SWAP1 PUSH2 0x100 EXP SWAP1 DIV PUSH20 0xFFFFFFFFFFFFFFFFFFFFFFFFFFFFFFFFFFFFFFFF AND PUSH20 0xFFFFFFFFFFFFFFFFFFFFFFFFFFFFFFFFFFFFFFFF AND PUSH4 0x727B703F DUP5 PUSH1 0x40 MLOAD DUP3 PUSH4 0xFFFFFFFF AND PUSH1 0xE0 SHL DUP2 MSTORE PUSH1 0x4 ADD PUSH2 0x136 SWAP2 SWAP1 PUSH2 0x9F5 JUMP JUMPDEST PUSH1 0x20 PUSH1 0x40 MLOAD DUP1 DUP4 SUB DUP2 DUP7 GAS STATICCALL ISZERO DUP1 ISZERO PUSH2 0x153 JUMPI RETURNDATASIZE PUSH1 0x0 DUP1 RETURNDATACOPY RETURNDATASIZE PUSH1 0x0 REVERT JUMPDEST POP POP POP POP PUSH1 0x40 MLOAD RETURNDATASIZE PUSH1 0x1F NOT PUSH1 0x1F DUP3 ADD AND DUP3 ADD DUP1 PUSH1 0x40 MSTORE POP DUP2 ADD SWAP1 PUSH2 0x177 SWAP2 SWAP1 PUSH2 0xA43 JUMP JUMPDEST SWAP1 POP PUSH1 0x0 DUP2 SUB PUSH2 0x18B JUMPI PUSH1 0x64 SWAP2 POP POP PUSH2 0x2C2 JUMP JUMPDEST PUSH1 0x0 PUSH1 0x1 PUSH1 0x0 SWAP1 SLOAD SWAP1 PUSH2 0x100 EXP SWAP1 DIV PUSH20 0xFFFFFFFFFFFFFFFFFFFFFFFFFFFFFFFFFFFFFFFF AND PUSH20 0xFFFFFFFFFFFFFFFFFFFFFFFFFFFFFFFFFFFFFFFF AND PUSH4 0xBD6C1C85 DUP6 PUSH1 0x40 MLOAD DUP3 PUSH4 0xFFFFFFFF AND PUSH1 0xE0 SHL DUP2 MSTORE PUSH1 0x4 ADD PUSH2 0x1E8 SWAP2 SWAP1 PUSH2 0x9F5 JUMP JUMPDEST PUSH1 0x0 PUSH1 0x40 MLOAD DUP1 DUP4 SUB DUP2 DUP7 GAS STATICCALL ISZERO DUP1 ISZERO PUSH2 0x205 JUMPI RETURNDATASIZE PUSH1 0x0 DUP1 RETURNDATACOPY RETURNDATASIZE PUSH1 0x0 REVERT JUMPDEST POP POP POP POP PUSH1 0x40 MLOAD RETURNDATASIZE PUSH1 0x0 DUP3 RETURNDATACOPY RETURNDATASIZE PUSH1 0x1F NOT PUSH1 0x1F DUP3 ADD AND DUP3 ADD DUP1 PUSH1 0x40 MSTORE POP DUP2 ADD SWAP1 PUSH2 0x22E SWAP2 SWAP1 PUSH2 0xD15 JUMP JUMPDEST SWAP1 POP PUSH1 0x0 DUP1 JUMPDEST DUP3 MLOAD DUP2 LT ISZERO PUSH2 0x2A3 JUMPI PUSH1 0x0 PUSH1 0x1 DUP2 GT ISZERO PUSH2 0x251 JUMPI PUSH2 0x250 PUSH2 0x7C9 JUMP JUMPDEST JUMPDEST DUP4 DUP3 DUP2 MLOAD DUP2 LT PUSH2 0x264 JUMPI PUSH2 0x263 PUSH2 0xD5E JUMP JUMPDEST JUMPDEST PUSH1 0x20 MUL PUSH1 0x20 ADD ADD MLOAD PUSH1 0xA0 ADD MLOAD PUSH1 0x1 DUP2 GT ISZERO PUSH2 0x282 JUMPI PUSH2 0x281 PUSH2 0x7C9 JUMP JUMPDEST JUMPDEST SUB PUSH2 0x296 JUMPI DUP2 DUP1 PUSH2 0x292 SWAP1 PUSH2 0xDBC JUMP JUMPDEST SWAP3 POP POP JUMPDEST DUP1 DUP1 PUSH1 0x1 ADD SWAP2 POP POP PUSH2 0x234 JUMP JUMPDEST POP DUP3 PUSH1 0x64 DUP3 PUSH2 0x2B2 SWAP2 SWAP1 PUSH2 0xE04 JUMP JUMPDEST PUSH2 0x2BC SWAP2 SWAP1 PUSH2 0xE75 JUMP JUMPDEST SWAP4 POP POP POP POP JUMPDEST SWAP2 SWAP1 POP JUMP JUMPDEST PUSH1 0x0 DUP1 PUSH1 0x0 SWAP1 SLOAD SWAP1 PUSH2 0x100 EXP SWAP1 DIV PUSH20 0xFFFFFFFFFFFFFFFFFFFFFFFFFFFFFFFFFFFFFFFF AND PUSH20 0xFFFFFFFFFFFFFFFFFFFFFFFFFFFFFFFFFFFFFFFF AND PUSH4 0xAAED589D DUP4 PUSH1 0x40 MLOAD DUP3 PUSH4 0xFFFFFFFF AND PUSH1 0xE0 SHL DUP2 MSTORE PUSH1 0x4 ADD PUSH2 0x323 SWAP2 SWAP1 PUSH2 0x9F5 JUMP JUMPDEST PUSH1 0x20 PUSH1 0x40 MLOAD DUP1 DUP4 SUB DUP2 DUP7 GAS STATICCALL ISZERO DUP1 ISZERO PUSH2 0x340 JUMPI RETURNDATASIZE PUSH1 0x0 DUP1 RETURNDATACOPY RETURNDATASIZE PUSH1 0x0 REVERT JUMPDEST POP POP POP POP PUSH1 0x40 MLOAD RETURNDATASIZE PUSH1 0x1F NOT PUSH1 0x1F DUP3 ADD AND DUP3 ADD DUP1 PUSH1 0x40 MSTORE POP DUP2 ADD SWAP1 PUSH2 0x364 SWAP2 SWAP1 PUSH2 0xED2 JUMP JUMPDEST SWAP1 POP SWAP2 SWAP1 POP JUMP JUMPDEST PUSH1 0x0 DUP1 PUSH1 0x60 PUSH1 0x0 DUP1 SLOAD SWAP1 PUSH2 0x100 EXP SWAP1 DIV PUSH20 0xFFFFFFFFFFFFFFFFFFFFFFFFFFFFFFFFFFFFFFFF AND PUSH20 0xFFFFFFFFFFFFFFFFFFFFFFFFFFFFFFFFFFFFFFFF AND PUSH4 0xAAED589D DUP6 PUSH1 0x40 MLOAD DUP3 PUSH4 0xFFFFFFFF AND PUSH1 0xE0 SHL DUP2 MSTORE PUSH1 0x4 ADD PUSH2 0x3C9 SWAP2 SWAP1 PUSH2 0x9F5 JUMP JUMPDEST PUSH1 0x20 PUSH1 0x40 MLOAD DUP1 DUP4 SUB DUP2 DUP7 GAS STATICCALL ISZERO DUP1 ISZERO PUSH2 0x3E6 JUMPI RETURNDATASIZE PUSH1 0x0 DUP1 RETURNDATACOPY RETURNDATASIZE PUSH1 0x0 REVERT JUMPDEST POP POP POP POP PUSH1 0x40 MLOAD RETURNDATASIZE PUSH1 0x1F NOT PUSH1 0x1F DUP3 ADD AND DUP3 ADD DUP1 PUSH1 0x40 MSTORE POP DUP2 ADD SWAP1 PUSH2 0x40A SWAP2 SWAP1 PUSH2 0xED2 JUMP JUMPDEST SWAP3 POP PUSH2 0x415 DUP5 PUSH2 0xD8 JUMP JUMPDEST SWAP2 POP PUSH1 0x1 PUSH1 0x0 SWAP1 SLOAD SWAP1 PUSH2 0x100 EXP SWAP1 DIV PUSH20 0xFFFFFFFFFFFFFFFFFFFFFFFFFFFFFFFFFFFFFFFF AND PUSH20 0xFFFFFFFFFFFFFFFFFFFFFFFFFFFFFFFFFFFFFFFF AND PUSH4 0xBD6C1C85 DUP6 PUSH1 0x40 MLOAD DUP3 PUSH4 0xFFFFFFFF AND PUSH1 0xE0 SHL DUP2 MSTORE PUSH1 0x4 ADD PUSH2 0x472 SWAP2 SWAP1 PUSH2 0x9F5 JUMP JUMPDEST PUSH1 0x0 PUSH1 0x40 MLOAD DUP1 DUP4 SUB DUP2 DUP7 GAS STATICCALL ISZERO DUP1 ISZERO PUSH2 0x48F JUMPI RETURNDATASIZE PUSH1 0x0 DUP1 RETURNDATACOPY RETURNDATASIZE PUSH1 0x0 REVERT JUMPDEST POP POP POP POP PUSH1 0x40 MLOAD RETURNDATASIZE PUSH1 0x0 DUP3 RETURNDATACOPY RETURNDATASIZE PUSH1 0x1F NOT PUSH1 0x1F DUP3 ADD AND DUP3 ADD DUP1 PUSH1 0x40 MSTORE POP DUP2 ADD SWAP1 PUSH2 0x4B8 SWAP2 SWAP1 PUSH2 0xD15 JUMP JUMPDEST SWAP1 POP SWAP2 SWAP4 SWAP1 SWAP3 POP JUMP JUMPDEST PUSH1 0x0 PUSH1 0x40 MLOAD SWAP1 POP SWAP1 JUMP JUMPDEST PUSH1 0x0 DUP1 REVERT JUMPDEST PUSH1 0x0 DUP1 REVERT JUMPDEST PUSH1 0x0 DUP1 REVERT JUMPDEST PUSH1 0x0 DUP1 REVERT JUMPDEST PUSH1 0x0 PUSH1 0x1F NOT PUSH1 0x1F DUP4 ADD AND SWAP1 POP SWAP2 SWAP1 POP JUMP JUMPDEST PUSH32 0x4E487B7100000000000000000000000000000000000000000000000000000000 PUSH1 0x0 MSTORE PUSH1 0x41 PUSH1 0x4 MSTORE PUSH1 0x24 PUSH1 0x0 REVERT JUMPDEST PUSH2 0x528 DUP3 PUSH2 0x4DF JUMP JUMPDEST DUP2 ADD DUP2 DUP2 LT PUSH8 0xFFFFFFFFFFFFFFFF DUP3 GT OR ISZERO PUSH2 0x547 JUMPI PUSH2 0x546 PUSH2 0x4F0 JUMP JUMPDEST JUMPDEST DUP1 PUSH1 0x40 MSTORE POP POP POP JUMP JUMPDEST PUSH1 0x0 PUSH2 0x55A PUSH2 0x4C1 JUMP JUMPDEST SWAP1 POP PUSH2 0x566 DUP3 DUP3 PUSH2 0x51F JUMP JUMPDEST SWAP2 SWAP1 POP JUMP JUMPDEST PUSH1 0x0 PUSH8 0xFFFFFFFFFFFFFFFF DUP3 GT ISZERO PUSH2 0x586 JUMPI PUSH2 0x585 PUSH2 0x4F0 JUMP JUMPDEST JUMPDEST PUSH2 0x58F DUP3 PUSH2 0x4DF JUMP JUMPDEST SWAP1 POP PUSH1 0x20 DUP2 ADD SWAP1 POP SWAP2 SWAP1 POP JUMP JUMPDEST DUP3 DUP2 DUP4 CALLDATACOPY PUSH1 0x0 DUP4 DUP4 ADD MSTORE POP POP POP JUMP JUMPDEST PUSH1 0x0 PUSH2 0x5BE PUSH2 0x5B9 DUP5 PUSH2 0x56B JUMP JUMPDEST PUSH2 0x550 JUMP JUMPDEST SWAP1 POP DUP3 DUP2 MSTORE PUSH1 0x20 DUP2 ADD DUP5 DUP5 DUP5 ADD GT ISZERO PUSH2 0x5DA JUMPI PUSH2 0x5D9 PUSH2 0x4DA JUMP JUMPDEST JUMPDEST PUSH2 0x5E5 DUP5 DUP3 DUP6 PUSH2 0x59C JUMP JUMPDEST POP SWAP4 SWAP3 POP POP POP JUMP JUMPDEST PUSH1 0x0 DUP3 PUSH1 0x1F DUP4 ADD SLT PUSH2 0x602 JUMPI PUSH2 0x601 PUSH2 0x4D5 JUMP JUMPDEST JUMPDEST DUP2 CALLDATALOAD PUSH2 0x612 DUP5 DUP3 PUSH1 0x20 DUP7 ADD PUSH2 0x5AB JUMP JUMPDEST SWAP2 POP POP SWAP3 SWAP2 POP POP JUMP JUMPDEST PUSH1 0x0 PUSH1 0x20 DUP3 DUP5 SUB SLT ISZERO PUSH2 0x631 JUMPI PUSH2 0x630 PUSH2 0x4CB JUMP JUMPDEST JUMPDEST PUSH1 0x0 DUP3 ADD CALLDATALOAD PUSH8 0xFFFFFFFFFFFFFFFF DUP2 GT ISZERO PUSH2 0x64F JUMPI PUSH2 0x64E PUSH2 0x4D0 JUMP JUMPDEST JUMPDEST PUSH2 0x65B DUP5 DUP3 DUP6 ADD PUSH2 0x5ED JUMP JUMPDEST SWAP2 POP POP SWAP3 SWAP2 POP POP JUMP JUMPDEST PUSH1 0x0 DUP2 SWAP1 POP SWAP2 SWAP1 POP JUMP JUMPDEST PUSH2 0x677 DUP2 PUSH2 0x664 JUMP JUMPDEST DUP3 MSTORE POP POP JUMP JUMPDEST PUSH1 0x0 PUSH1 0x20 DUP3 ADD SWAP1 POP PUSH2 0x692 PUSH1 0x0 DUP4 ADD DUP5 PUSH2 0x66E JUMP JUMPDEST SWAP3 SWAP2 POP POP JUMP JUMPDEST PUSH1 0x0 DUP2 ISZERO ISZERO SWAP1 POP SWAP2 SWAP1 POP JUMP JUMPDEST PUSH2 0x6AD DUP2 PUSH2 0x698 JUMP JUMPDEST DUP3 MSTORE POP POP JUMP JUMPDEST PUSH1 0x0 PUSH1 0x20 DUP3 ADD SWAP1 POP PUSH2 0x6C8 PUSH1 0x0 DUP4 ADD DUP5 PUSH2 0x6A4 JUMP JUMPDEST SWAP3 SWAP2 POP POP JUMP JUMPDEST PUSH1 0x0 DUP2 MLOAD SWAP1 POP SWAP2 SWAP1 POP JUMP JUMPDEST PUSH1 0x0 DUP3 DUP3 MSTORE PUSH1 0x20 DUP3 ADD SWAP1 POP SWAP3 SWAP2 POP POP JUMP JUMPDEST PUSH1 0x0 DUP2 SWAP1 POP PUSH1 0x20 DUP3 ADD SWAP1 POP SWAP2 SWAP1 POP JUMP JUMPDEST PUSH1 0x0 DUP2 MLOAD SWAP1 POP SWAP2 SWAP1 POP JUMP JUMPDEST PUSH1 0x0 DUP3 DUP3 MSTORE PUSH1 0x20 DUP3 ADD SWAP1 POP SWAP3 SWAP2 POP POP JUMP JUMPDEST PUSH1 0x0 JUMPDEST DUP4 DUP2 LT ISZERO PUSH2 0x734 JUMPI DUP1 DUP3 ADD MLOAD DUP2 DUP5 ADD MSTORE PUSH1 0x20 DUP2 ADD SWAP1 POP PUSH2 0x719 JUMP JUMPDEST PUSH1 0x0 DUP5 DUP5 ADD MSTORE POP POP POP POP JUMP JUMPDEST PUSH1 0x0 PUSH2 0x74B DUP3 PUSH2 0x6FA JUMP JUMPDEST PUSH2 0x755 DUP2 DUP6 PUSH2 0x705 JUMP JUMPDEST SWAP4 POP PUSH2 0x765 DUP2 DUP6 PUSH1 0x20 DUP7 ADD PUSH2 0x716 JUMP JUMPDEST PUSH2 0x76E DUP2 PUSH2 0x4DF JUMP JUMPDEST DUP5 ADD SWAP2 POP POP SWAP3 SWAP2 POP POP JUMP JUMPDEST PUSH1 0x0 PUSH20 0xFFFFFFFFFFFFFFFFFFFFFFFFFFFFFFFFFFFFFFFF DUP3 AND SWAP1 POP SWAP2 SWAP1 POP JUMP JUMPDEST PUSH1 0x0 PUSH2 0x7A4 DUP3 PUSH2 0x779 JUMP JUMPDEST SWAP1 POP SWAP2 SWAP1 POP JUMP JUMPDEST PUSH2 0x7B4 DUP2 PUSH2 0x799 JUMP JUMPDEST DUP3 MSTORE POP POP JUMP JUMPDEST PUSH2 0x7C3 DUP2 PUSH2 0x664 JUMP JUMPDEST DUP3 MSTORE POP POP JUMP JUMPDEST PUSH32 0x4E487B7100000000000000000000000000000000000000000000000000000000 PUSH1 0x0 MSTORE PUSH1 0x21 PUSH1 0x4 MSTORE PUSH1 0x24 PUSH1 0x0 REVERT JUMPDEST PUSH1 0x2 DUP2 LT PUSH2 0x809 JUMPI PUSH2 0x808 PUSH2 0x7C9 JUMP JUMPDEST JUMPDEST POP JUMP JUMPDEST PUSH1 0x0 DUP2 SWAP1 POP PUSH2 0x81A DUP3 PUSH2 0x7F8 JUMP JUMPDEST SWAP2 SWAP1 POP JUMP JUMPDEST PUSH1 0x0 PUSH2 0x82A DUP3 PUSH2 0x80C JUMP JUMPDEST SWAP1 POP SWAP2 SWAP1 POP JUMP JUMPDEST PUSH2 0x83A DUP2 PUSH2 0x81F JUMP JUMPDEST DUP3 MSTORE POP POP JUMP JUMPDEST PUSH1 0x0 PUSH1 0xC0 DUP4 ADD PUSH1 0x0 DUP4 ADD MLOAD DUP5 DUP3 SUB PUSH1 0x0 DUP7 ADD MSTORE PUSH2 0x85D DUP3 DUP3 PUSH2 0x740 JUMP JUMPDEST SWAP2 POP POP PUSH1 0x20 DUP4 ADD MLOAD DUP5 DUP3 SUB PUSH1 0x20 DUP7 ADD MSTORE PUSH2 0x877 DUP3 DUP3 PUSH2 0x740 JUMP JUMPDEST SWAP2 POP POP PUSH1 0x40 DUP4 ADD MLOAD DUP5 DUP3 SUB PUSH1 0x40 DUP7 ADD MSTORE PUSH2 0x891 DUP3 DUP3 PUSH2 0x740 JUMP JUMPDEST SWAP2 POP POP PUSH1 0x60 DUP4 ADD MLOAD PUSH2 0x8A6 PUSH1 0x60 DUP7 ADD DUP3 PUSH2 0x7AB JUMP JUMPDEST POP PUSH1 0x80 DUP4 ADD MLOAD PUSH2 0x8B9 PUSH1 0x80 DUP7 ADD DUP3 PUSH2 0x7BA JUMP JUMPDEST POP PUSH1 0xA0 DUP4 ADD MLOAD PUSH2 0x8CC PUSH1 0xA0 DUP7 ADD DUP3 PUSH2 0x831 JUMP JUMPDEST POP DUP1 SWAP2 POP POP SWAP3 SWAP2 POP POP JUMP JUMPDEST PUSH1 0x0 PUSH2 0x8E3 DUP4 DUP4 PUSH2 0x840 JUMP JUMPDEST SWAP1 POP SWAP3 SWAP2 POP POP JUMP JUMPDEST PUSH1 0x0 PUSH1 0x20 DUP3 ADD SWAP1 POP SWAP2 SWAP1 POP JUMP JUMPDEST PUSH1 0x0 PUSH2 0x903 DUP3 PUSH2 0x6CE JUMP JUMPDEST PUSH2 0x90D DUP2 DUP6 PUSH2 0x6D9 JUMP JUMPDEST SWAP4 POP DUP4 PUSH1 0x20 DUP3 MUL DUP6 ADD PUSH2 0x91F DUP6 PUSH2 0x6EA JUMP JUMPDEST DUP1 PUSH1 0x0 JUMPDEST DUP6 DUP2 LT ISZERO PUSH2 0x95B JUMPI DUP5 DUP5 SUB DUP10 MSTORE DUP2 MLOAD PUSH2 0x93C DUP6 DUP3 PUSH2 0x8D7 JUMP JUMPDEST SWAP5 POP PUSH2 0x947 DUP4 PUSH2 0x8EB JUMP JUMPDEST SWAP3 POP PUSH1 0x20 DUP11 ADD SWAP10 POP POP PUSH1 0x1 DUP2 ADD SWAP1 POP PUSH2 0x923 JUMP JUMPDEST POP DUP3 SWAP8 POP DUP8 SWAP6 POP POP POP POP POP POP SWAP3 SWAP2 POP POP JUMP JUMPDEST PUSH1 0x0 PUSH1 0x60 DUP3 ADD SWAP1 POP PUSH2 0x982 PUSH1 0x0 DUP4 ADD DUP7 PUSH2 0x6A4 JUMP JUMPDEST PUSH2 0x98F PUSH1 0x20 DUP4 ADD DUP6 PUSH2 0x66E JUMP JUMPDEST DUP2 DUP2 SUB PUSH1 0x40 DUP4 ADD MSTORE PUSH2 0x9A1 DUP2 DUP5 PUSH2 0x8F8 JUMP JUMPDEST SWAP1 POP SWAP5 SWAP4 POP POP POP POP JUMP JUMPDEST PUSH1 0x0 DUP3 DUP3 MSTORE PUSH1 0x20 DUP3 ADD SWAP1 POP SWAP3 SWAP2 POP POP JUMP JUMPDEST PUSH1 0x0 PUSH2 0x9C7 DUP3 PUSH2 0x6FA JUMP JUMPDEST PUSH2 0x9D1 DUP2 DUP6 PUSH2 0x9AB JUMP JUMPDEST SWAP4 POP PUSH2 0x9E1 DUP2 DUP6 PUSH1 0x20 DUP7 ADD PUSH2 0x716 JUMP JUMPDEST PUSH2 0x9EA DUP2 PUSH2 0x4DF JUMP JUMPDEST DUP5 ADD SWAP2 POP POP SWAP3 SWAP2 POP POP JUMP JUMPDEST PUSH1 0x0 PUSH1 0x20 DUP3 ADD SWAP1 POP DUP2 DUP2 SUB PUSH1 0x0 DUP4 ADD MSTORE PUSH2 0xA0F DUP2 DUP5 PUSH2 0x9BC JUMP JUMPDEST SWAP1 POP SWAP3 SWAP2 POP POP JUMP JUMPDEST PUSH2 0xA20 DUP2 PUSH2 0x664 JUMP JUMPDEST DUP2 EQ PUSH2 0xA2B JUMPI PUSH1 0x0 DUP1 REVERT JUMPDEST POP JUMP JUMPDEST PUSH1 0x0 DUP2 MLOAD SWAP1 POP PUSH2 0xA3D DUP2 PUSH2 0xA17 JUMP JUMPDEST SWAP3 SWAP2 POP POP JUMP JUMPDEST PUSH1 0x0 PUSH1 0x20 DUP3 DUP5 SUB SLT ISZERO PUSH2 0xA59 JUMPI PUSH2 0xA58 PUSH2 0x4CB JUMP JUMPDEST JUMPDEST PUSH1 0x0 PUSH2 0xA67 DUP5 DUP3 DUP6 ADD PUSH2 0xA2E JUMP JUMPDEST SWAP2 POP POP SWAP3 SWAP2 POP POP JUMP JUMPDEST PUSH1 0x0 PUSH8 0xFFFFFFFFFFFFFFFF DUP3 GT ISZERO PUSH2 0xA8B JUMPI PUSH2 0xA8A PUSH2 0x4F0 JUMP JUMPDEST JUMPDEST PUSH1 0x20 DUP3 MUL SWAP1 POP PUSH1 0x20 DUP2 ADD SWAP1 POP SWAP2 SWAP1 POP JUMP JUMPDEST PUSH1 0x0 DUP1 REVERT JUMPDEST PUSH1 0x0 DUP1 REVERT JUMPDEST PUSH1 0x0 DUP1 REVERT JUMPDEST PUSH1 0x0 PUSH2 0xABE PUSH2 0xAB9 DUP5 PUSH2 0x56B JUMP JUMPDEST PUSH2 0x550 JUMP JUMPDEST SWAP1 POP DUP3 DUP2 MSTORE PUSH1 0x20 DUP2 ADD DUP5 DUP5 DUP5 ADD GT ISZERO PUSH2 0xADA JUMPI PUSH2 0xAD9 PUSH2 0x4DA JUMP JUMPDEST JUMPDEST PUSH2 0xAE5 DUP5 DUP3 DUP6 PUSH2 0x716 JUMP JUMPDEST POP SWAP4 SWAP3 POP POP POP JUMP JUMPDEST PUSH1 0x0 DUP3 PUSH1 0x1F DUP4 ADD SLT PUSH2 0xB02 JUMPI PUSH2 0xB01 PUSH2 0x4D5 JUMP JUMPDEST JUMPDEST DUP2 MLOAD PUSH2 0xB12 DUP5 DUP3 PUSH1 0x20 DUP7 ADD PUSH2 0xAAB JUMP JUMPDEST SWAP2 POP POP SWAP3 SWAP2 POP POP JUMP JUMPDEST PUSH2 0xB24 DUP2 PUSH2 0x799 JUMP JUMPDEST DUP2 EQ PUSH2 0xB2F JUMPI PUSH1 0x0 DUP1 REVERT JUMPDEST POP JUMP JUMPDEST PUSH1 0x0 DUP2 MLOAD SWAP1 POP PUSH2 0xB41 DUP2 PUSH2 0xB1B JUMP JUMPDEST SWAP3 SWAP2 POP POP JUMP JUMPDEST PUSH1 0x2 DUP2 LT PUSH2 0xB54 JUMPI PUSH1 0x0 DUP1 REVERT JUMPDEST POP JUMP JUMPDEST PUSH1 0x0 DUP2 MLOAD SWAP1 POP PUSH2 0xB66 DUP2 PUSH2 0xB47 JUMP JUMPDEST SWAP3 SWAP2 POP POP JUMP JUMPDEST PUSH1 0x0 PUSH1 0xC0 DUP3 DUP5 SUB SLT ISZERO PUSH2 0xB82 JUMPI PUSH2 0xB81 PUSH2 0xAA1 JUMP JUMPDEST JUMPDEST PUSH2 0xB8C PUSH1 0xC0 PUSH2 0x550 JUMP JUMPDEST SWAP1 POP PUSH1 0x0 DUP3 ADD MLOAD PUSH8 0xFFFFFFFFFFFFFFFF DUP2 GT ISZERO PUSH2 0xBAC JUMPI PUSH2 0xBAB PUSH2 0xAA6 JUMP JUMPDEST JUMPDEST PUSH2 0xBB8 DUP5 DUP3 DUP6 ADD PUSH2 0xAED JUMP JUMPDEST PUSH1 0x0 DUP4 ADD MSTORE POP PUSH1 0x20 DUP3 ADD MLOAD PUSH8 0xFFFFFFFFFFFFFFFF DUP2 GT ISZERO PUSH2 0xBDC JUMPI PUSH2 0xBDB PUSH2 0xAA6 JUMP JUMPDEST JUMPDEST PUSH2 0xBE8 DUP5 DUP3 DUP6 ADD PUSH2 0xAED JUMP JUMPDEST PUSH1 0x20 DUP4 ADD MSTORE POP PUSH1 0x40 DUP3 ADD MLOAD PUSH8 0xFFFFFFFFFFFFFFFF DUP2 GT ISZERO PUSH2 0xC0C JUMPI PUSH2 0xC0B PUSH2 0xAA6 JUMP JUMPDEST JUMPDEST PUSH2 0xC18 DUP5 DUP3 DUP6 ADD PUSH2 0xAED JUMP JUMPDEST PUSH1 0x40 DUP4 ADD MSTORE POP PUSH1 0x60 PUSH2 0xC2C DUP5 DUP3 DUP6 ADD PUSH2 0xB32 JUMP JUMPDEST PUSH1 0x60 DUP4 ADD MSTORE POP PUSH1 0x80 PUSH2 0xC40 DUP5 DUP3 DUP6 ADD PUSH2 0xA2E JUMP JUMPDEST PUSH1 0x80 DUP4 ADD MSTORE POP PUSH1 0xA0 PUSH2 0xC54 DUP5 DUP3 DUP6 ADD PUSH2 0xB57 JUMP JUMPDEST PUSH1 0xA0 DUP4 ADD MSTORE POP SWAP3 SWAP2 POP POP JUMP JUMPDEST PUSH1 0x0 PUSH2 0xC73 PUSH2 0xC6E DUP5 PUSH2 0xA70 JUMP JUMPDEST PUSH2 0x550 JUMP JUMPDEST SWAP1 POP DUP1 DUP4 DUP3 MSTORE PUSH1 0x20 DUP3 ADD SWAP1 POP PUSH1 0x20 DUP5 MUL DUP4 ADD DUP6 DUP2 GT ISZERO PUSH2 0xC96 JUMPI PUSH2 0xC95 PUSH2 0xA9C JUMP JUMPDEST JUMPDEST DUP4 JUMPDEST DUP2 DUP2 LT ISZERO PUSH2 0xCDD JUMPI DUP1 MLOAD PUSH8 0xFFFFFFFFFFFFFFFF DUP2 GT ISZERO PUSH2 0xCBB JUMPI PUSH2 0xCBA PUSH2 0x4D5 JUMP JUMPDEST JUMPDEST DUP1 DUP7 ADD PUSH2 0xCC8 DUP10 DUP3 PUSH2 0xB6C JUMP JUMPDEST DUP6 MSTORE PUSH1 0x20 DUP6 ADD SWAP5 POP POP POP PUSH1 0x20 DUP2 ADD SWAP1 POP PUSH2 0xC98 JUMP JUMPDEST POP POP POP SWAP4 SWAP3 POP POP POP JUMP JUMPDEST PUSH1 0x0 DUP3 PUSH1 0x1F DUP4 ADD SLT PUSH2 0xCFC JUMPI PUSH2 0xCFB PUSH2 0x4D5 JUMP JUMPDEST JUMPDEST DUP2 MLOAD PUSH2 0xD0C DUP5 DUP3 PUSH1 0x20 DUP7 ADD PUSH2 0xC60 JUMP JUMPDEST SWAP2 POP POP SWAP3 SWAP2 POP POP JUMP JUMPDEST PUSH1 0x0 PUSH1 0x20 DUP3 DUP5 SUB SLT ISZERO PUSH2 0xD2B JUMPI PUSH2 0xD2A PUSH2 0x4CB JUMP JUMPDEST JUMPDEST PUSH1 0x0 DUP3 ADD MLOAD PUSH8 0xFFFFFFFFFFFFFFFF DUP2 GT ISZERO PUSH2 0xD49 JUMPI PUSH2 0xD48 PUSH2 0x4D0 JUMP JUMPDEST JUMPDEST PUSH2 0xD55 DUP5 DUP3 DUP6 ADD PUSH2 0xCE7 JUMP JUMPDEST SWAP2 POP POP SWAP3 SWAP2 POP POP JUMP JUMPDEST PUSH32 0x4E487B7100000000000000000000000000000000000000000000000000000000 PUSH1 0x0 MSTORE PUSH1 0x32 PUSH1 0x4 MSTORE PUSH1 0x24 PUSH1 0x0 REVERT JUMPDEST PUSH32 0x4E487B7100000000000000000000000000000000000000000000000000000000 PUSH1 0x0 MSTORE PUSH1 0x11 PUSH1 0x4 MSTORE PUSH1 0x24 PUSH1 0x0 REVERT JUMPDEST PUSH1 0x0 PUSH2 0xDC7 DUP3 PUSH2 0x664 JUMP JUMPDEST SWAP2 POP PUSH32 0xFFFFFFFFFFFFFFFFFFFFFFFFFFFFFFFFFFFFFFFFFFFFFFFFFFFFFFFFFFFFFFFF DUP3 SUB PUSH2 0xDF9 JUMPI PUSH2 0xDF8 PUSH2 0xD8D JUMP JUMPDEST JUMPDEST PUSH1 0x1 DUP3 ADD SWAP1 POP SWAP2 SWAP1 POP JUMP JUMPDEST PUSH1 0x0 PUSH2 0xE0F DUP3 PUSH2 0x664 JUMP JUMPDEST SWAP2 POP PUSH2 0xE1A DUP4 PUSH2 0x664 JUMP JUMPDEST SWAP3 POP DUP3 DUP3 MUL PUSH2 0xE28 DUP2 PUSH2 0x664 JUMP JUMPDEST SWAP2 POP DUP3 DUP3 DIV DUP5 EQ DUP4 ISZERO OR PUSH2 0xE3F JUMPI PUSH2 0xE3E PUSH2 0xD8D JUMP JUMPDEST JUMPDEST POP SWAP3 SWAP2 POP POP JUMP JUMPDEST PUSH32 0x4E487B7100000000000000000000000000000000000000000000000000000000 PUSH1 0x0 MSTORE PUSH1 0x12 PUSH1 0x4 MSTORE PUSH1 0x24 PUSH1 0x0 REVERT JUMPDEST PUSH1 0x0 PUSH2 0xE80 DUP3 PUSH2 0x664 JUMP JUMPDEST SWAP2 POP PUSH2 0xE8B DUP4 PUSH2 0x664 JUMP JUMPDEST SWAP3 POP DUP3 PUSH2 0xE9B JUMPI PUSH2 0xE9A PUSH2 0xE46 JUMP JUMPDEST JUMPDEST DUP3 DUP3 DIV SWAP1 POP SWAP3 SWAP2 POP POP JUMP JUMPDEST PUSH2 0xEAF DUP2 PUSH2 0x698 JUMP JUMPDEST DUP2 EQ PUSH2 0xEBA JUMPI PUSH1 0x0 DUP1 REVERT JUMPDEST POP JUMP JUMPDEST PUSH1 0x0 DUP2 MLOAD SWAP1 POP PUSH2 0xECC DUP2 PUSH2 0xEA6 JUMP JUMPDEST SWAP3 SWAP2 POP POP JUMP JUMPDEST PUSH1 0x0 PUSH1 0x20 DUP3 DUP5 SUB SLT ISZERO PUSH2 0xEE8 JUMPI PUSH2 0xEE7 PUSH2 0x4CB JUMP JUMPDEST JUMPDEST PUSH1 0x0 PUSH2 0xEF6 DUP5 DUP3 DUP6 ADD PUSH2 0xEBD JUMP JUMPDEST SWAP2 POP POP SWAP3 SWAP2 POP POP JUMP INVALID LOG2 PUSH5 0x6970667358 0x22 SLT KECCAK256 PUSH28 0x5CEDA724FDF75F5A7CF61C293645BD568855909887EDEA5A26ECD530 EXTDELEGATECALL DIV PUSH21 0x64736F6C634300081E003300000000000000000000 "
				},
				"gasEstimates": {
					"creation": {
						"codeDepositCost": "778600",
						"executionCost": "infinite",
						"totalCost": "infinite"
					},
					"external": {
						"getFullHistory(string)": "infinite",
						"getTrustScore(string)": "infinite",
						"verifyDevice(string)": "infinite"
					}
				},
				"methodIdentifiers": {
					"getFullHistory(string)": "c58d8497",
					"getTrustScore(string)": "1c5fb192",
					"verifyDevice(string)": "2a9c17d7"
				}
			},
			"storageLayout": {
				"storage": [
					{
						"astId": 46,
						"contract": "contracts/Verification.sol:Verification",
						"label": "deviceRegistry",
						"offset": 0,
						"slot": "0",
						"type": "t_contract(IDeviceRegistryV)9"
					},
					{
						"astId": 49,
						"contract": "contracts/Verification.sol:Verification",
						"label": "repairEvent",
						"offset": 0,
						"slot": "1",
						"type": "t_contract(IRepairEvent)43"
					}
				],
				"types": {
					"t_contract(IDeviceRegistryV)9": {
						"encoding": "inplace",
						"label": "contract IDeviceRegistryV",
						"numberOfBytes": "20"
					},
					"t_contract(IRepairEvent)43": {
						"encoding": "inplace",
						"label": "contract IRepairEvent",
						"numberOfBytes": "20"
					}
				}
			},
			"userdoc": {
				"kind": "user",
				"methods": {},
				"version": 1
			}
		}
	}
}